:100000000C942A000C945F0F0C94920F0C94C50F63
:100010000C9447000C9447000C9447000C94470044
:100020000C9447000C9447000C9447000C94470034
:100030000C9447000C9447000C9447000C94470024
:100040000C9447000C9447000C9447000C94470014
:100050000C94470011241FBECFE5D8E0DEBFCDBF12
:1000600011E0A0E6B0E0E4EDF5E302C005900D92EA
:10007000AA3BB107D9F711E0AAEBB1E001C01D928C
:10008000AB3CB107E1F70E9405120C94E81A0C94FE
:100090000000EF92FF920F931F937B018C0120E0F1
:1000A00030E040E05FE40E94490388238CF0C801FF
:1000B000B70120E030E040E05FE40E94C1010E940F
:1000C000A9039B01AC01205030404040504806C07D
:1000D000C801B7010E94A9039B01AC01B901CA0183
:1000E0001F910F91FF90EF900895A0E0B0E0EBE733
:1000F000F0E00C94B11ADC012B01FA019C919230D2
:1001000008F439C1EB018881823008F433C194309E
:1001100069F4843009F02FC111969C91119789815F
:10012000981709F428C1A0ECB0E025C1843009F487
:1001300021C18230A9F4923009F01DC19A01AD01AC
:1001400088E0EA010990AE01E90109929E0181501F
:10015000C1F7E201898111969C918923818308C1AD
:10016000923009F407C112962D903C901397EB0141
:100170008A819B811496AD90BD90CD90DC901797AD
:10018000EC80FD800E811F819101281B390BB90184
:1001900037FF04C066277727621B730B6032710537
:1001A0000CF061C0121613066CF537014801062EDB
:1001B00004C096948794779467940A94D2F721E0C8
:1001C00030E040E050E004C0220F331F441F551FB1
:1001D0006A95D2F721503040404050402E213F21B7
:1001E00040235123211531054105510521F021E01E
:1001F00030E040E050E079018A01E628F72808293C
:1002000019293CC0232BD1F1260E371E350146019A
:10021000062E04C096948794779467940A94D2F734
:1002200021E030E040E050E004C0220F331F441FC3
:10023000551F6A95D2F721503040404050402A2146
:100240003B214C215D21211531054105510521F04E
:1002500021E030E040E050E059016A01A628B728CB
:10026000C828D9280BC0821593052CF01C01AA249C
:10027000BB24650103C0EE24FF24870111969C91E5
:10028000D20111968C91981709F445C0992339F041
:10029000A80197012A193B094C095D0906C0A6016E
:1002A00095012E193F09400B510B57FD08C01182D3
:1002B0003382228224833583468357831DC081E0A5
:1002C00081833382228288279927DC01821B930B4A
:1002D000A40BB50B84839583A683B7830DC0220F2F
:1002E000331F441F551F24833583468357838281E0
:1002F000938101979383828324813581468157813D
:10030000DA01C9010197A109B1098F5F9F4FAF4F72
:10031000BF4328F30BC0918333822282EA0CFB1C7B
:100320000C1D1D1DE482F5820683178383E0808304
:10033000248135814681578157FF1AC0C901AA27F8
:1003400097FDA095BA2F81709070A070B0705695EF
:10035000479537952795822B932BA42BB52B848318
:100360009583A683B7838281938101969383828349
:10037000DF0101C0D201CD01CDB7DEB7E2E10C94BF
:10038000CD1AA0E2B0E0E7ECF1E00C94BD1A69836D
:100390007A838B839C832D833E834F835887E9E048
:1003A000EE2EF12CEC0EFD1ECE010196B7010E943F
:1003B000D2048E010F5E1F4FCE010596B8010E9438
:1003C000D2048A8991E089278A8BC701B801AE01DE
:1003D000475E5F4F0E9475000E94FD03A096E6E015
:1003E0000C94D91AA0E2B0E0E8EFF1E00C94BD1A49
:1003F00069837A838B839C832D833E834F835887C5
:10040000F9E0EF2EF12CEC0EFD1ECE010196B701A6
:100410000E94D2048E010F5E1F4FCE010596B801D7
:100420000E94D204C701B801AE01475E5F4F0E942F
:1004300075000E94FD03A096E6E00C94D91AA0E294
:10044000B0E0E5E2F2E00C94B11A69837A838B8321
:100450009C832D833E834F835887CE010196BE0136
:10046000675F7F4F0E94D204CE010596BE016F5E8A
:100470007F4F0E94D2049985923088F0898982301A
:10048000C8F0943019F4823051F404C0843029F457
:10049000923081F480EC90E0C6C0923049F420E0C4
:1004A0009A858A89981321E02A87CE010996BBC0D4
:1004B000823049F420E09A858A89981321E02A8BBA
:1004C000CE014196B0C02D843E844F8458886D88FB
:1004D0007E888F88988CEE24FF248701AA24BB2471
:1004E000650140E050E060E070E0E0E0F0E0C10174
:1004F00081709070892BE9F0E60CF71C081D191D1E
:100500009A01AB012A0D3B1D4C1D5D1D80E090E062
:10051000A0E0B0E0E614F7040805190520F481E036
:1005200090E0A0E0B0E0BA01A901480F591F6A1F8E
:100530007B1FAA0CBB1CCC1CDD1C97FE08C081E0F5
:1005400090E0A0E0B0E0A82AB92ACA2ADB2A3196B6
:10055000E032F10549F0660C771C881C991C569412
:10056000479437942794C3CFFA85EA892B893C892D
:100570008B859C85280F391F2E5F3F4F17C0CA01FE
:1005800081709070892B61F016950795F794E79428
:1005900080E090E0A0E0B0E8E82AF92A0A2B1B2BC3
:1005A00076956795579547952F5F3F4F77FDE7CF36
:1005B0000CC0440F551F661F771F17FD4160EE0CDE
:1005C000FF1C001F111F21503040403090E05907A0
:1005D00090E0690790E4790760F32B8F3C8FDB0193
:1005E000CA018F779070A070B07080349105A1051A
:1005F000B10561F447FD0AC0E114F10401051105DC
:1006000029F0405C5F4F6F4F7F4F40781A8EFE1786
:1006100011F081E08A8F4D8F5E8F6F8F78A383E01A
:10062000898FCE0149960E94FD03A096E2E10C94C9
:10063000CD1AA8E1B0E0EFE1F3E00C94BD1A6983B4
:100640007A838B839C832D833E834F83588789E0F5
:10065000E82EF12CEC0EFD1ECE010196B7010E9492
:10066000D2048E010F5E1F4FCE010596B8010E9485
:10067000D2048985823040F08989823028F0C70110
:10068000B8010E944A0501C08FEF6896E6E00C941D
:10069000D91AA8E1B0E0EFE4F3E00C94BD1A698345
:1006A0007A838B839C832D833E834F83588789E095
:1006B000E82EF12CEC0EFD1ECE010196B7010E9432
:1006C000D2048E010F5E1F4FCE010596B8010E9425
:1006D000D2048985823040F08989823028F0C701B0
:1006E000B8010E944A0501C08FEF6896E6E00C94BD
:1006F000D91AA8E1B0E0EFE7F3E00C94BD1A6983E2
:100700007A838B839C832D833E834F83588789E034
:10071000E82EF12CEC0EFD1ECE010196B7010E94D1
:10072000D2048E010F5E1F4FCE010596B8010E94C4
:10073000D2048985823040F08989823028F0C7014F
:10074000B8010E944A0501C081E06896E6E00C9479
:10075000D91AACE0B0E0EFEAF3E00C94C11A698377
:100760007A838B839C83CE010196BE016B5F7F4FA2
:100770000E94D2048D81823061F1823050F1843048
:1007800021F48E81882351F12EC02F81388537FDC9
:1007900020C06E812F3131051CF06623F9F023C093
:1007A0008EE190E0821B930B29853A854B855C8511
:1007B00004C056954795379527958A95D2F76623B5
:1007C000B1F050954095309521953F4F4F4F5F4F79
:1007D0000EC020E030E040E050E009C02FEF3FEFD6
:1007E0004FEF5FE704C020E030E040E050E8B9019F
:1007F000CA012C96E2E00C94DD1ADF92EF92FF9290
:100800000F931F93FC01E480F58006811781D1804E
:100810008081823048F480E090E0A0E1B0E0E82AF6
:10082000F92A0A2B1B2BA5C0843009F49FC0823003
:1008300021F4EE24FF24870105C0E114F104010531
:10084000110519F4E0E0F0E096C0628173819FEF3A
:10085000623879070CF05BC022E83FEF261B370BAC
:100860002A3131052CF020E030E040E050E02AC091
:10087000B801A701022E04C0769567955795479554
:100880000A94D2F781E090E0A0E0B0E004C0880FC5
:10089000991FAA1FBB1F2A95D2F70197A109B10979
:1008A0008E219F21A023B1230097A105B10521F03E
:1008B00081E090E0A0E0B0E09A01AB01282B392B59
:1008C0004A2B5B2BDA01C9018F779070A070B07052
:1008D00080349105A105B10539F427FF09C0205CDA
:1008E0003F4F4F4F5F4F04C0215C3F4F4F4F5F4F13
:1008F000E0E0F0E02030A0E03A07A0E04A07A0E402
:100900005A0710F0E1E0F0E079018A0127C0603871
:10091000710564F5FB01E158FF4FD801C7018F77DE
:100920009070A070B07080349105A105B10539F4C4
:10093000E7FE0DC080E490E0A0E0B0E004C08FE3EB
:1009400090E0A0E0B0E0E80EF91E0A1F1B1F17FFA1
:1009500005C016950795F794E794319687E01695AC
:100960000795F794E7948A95D1F705C0EE24FF2404
:100970008701EFEFF0E06E2F679566276795902F60
:100980009F77D794DD24D7948E2F8695492F462BB9
:10099000582F5D29B701CA011F910F91FF90EF9069
:1009A000DF900895FC01DB01408151812281622F9B
:1009B0006F7770E0221F2227221F9381892F880FD3
:1009C000822B282F30E0991F9927991F11969C930D
:1009D000119721153105A9F54115510561057105DD
:1009E00011F482E037C082E89FEF13969C938E93B8
:1009F00012979A01AB0167E0220F331F441F551F66
:100A00006A95D1F783E08C930DC0220F331F441FEA
:100A1000551F12968D919C911397019713969C9355
:100A20008E931297203080E0380780E0480780E4FA
:100A3000580758F314962D933D934D935C93179755
:100A400008952F3F310579F4411551056105710570
:100A500019F484E08C93089564FF03C081E08C93C3
:100A600012C01C9210C02F57304013963C932E9307
:100A7000129783E08C9387E0440F551F661F771F02
:100A80008A95D1F7706414964D935D936D937C9322
:100A9000179708951F93DC01FB019C91923008F495
:100AA00047C08081823008F443C0943051F41196DD
:100AB0001C91843099F58181682F70E0611B710968
:100AC0003FC0843021F0923031F48230B9F181811D
:100AD000882389F12DC011961C9111978230F1F075
:100AE00081811817D9F412962D913C911397828128
:100AF00093818217930794F028173907BCF0149656
:100B00008D919D910D90BC91A02D248135814681C0
:100B10005781281739074A075B0718F4112341F05A
:100B20000AC082179307A407B50740F4112319F0F0
:100B300061E070E005C06FEF7FEF02C060E070E041
:100B4000CB011F910895DF93CF93CDB7DEB72E97DA
:100B50000FB6F894DEBF0FBECDBF81E066E041E086
:100B60000E94930A80E090E0A0E0B0E48B879C872D
:100B7000AD87BE876B857C858D859E8520E030E0C6
:100B80004AEF54E40E941F02DC01CB018F83988757
:100B9000A987BA876F81788589859A8520E030E0BA
:100BA00040E85FE30E94790388232CF481E090E021
:100BB0009E838D833FC06F81788589859A8520E0EB
:100BC0003FEF4FE757E40E94190318164CF56B8569
:100BD0007C858D859E8520E030E040E251E40E94D6
:100BE0001F02DC01CB01BC01CD010E944900DC01E8
:100BF000CB019E838D830FC088EC90E09C838B8318
:100C00008B819C810197F1F79C838B838D819E81E1
:100C100001979E838D838D819E81009769F714C013
:100C20006F81788589859A850E944900DC01CB0116
:100C30009E838D838D819E819A83898389819A8108
:100C40000197F1F79A83898381E066E040E00E9492
:100C5000930A2E960FB6F894DEBF0FBECDBFCF918C
:100C6000DF910895DF93CF930F92CDB7DEB78983DD
:100C70008981982F917081E060E0492F0E94930A4A
:100C800089818695982F917081E061E0492F0E94BB
:100C9000930A898186958695982F917081E062E00C
:100CA000492F0E94930A8981869586958695982F6B
:100CB000917081E063E0492F0E94930A0F90CF91D9
:100CC000DF910895DF93CF930F92CDB7DEB789837D
:100CD00081E064E040E00E94930A81E065E040E04A
:100CE0000E94930A898182958F700E9432060E9429
:100CF000A30589810E9432060E94A3050F90CF911F
:100D0000DF910895DF93CF930F92CDB7DEB789833C
:100D100081E064E041E00E94930A81E065E040E008
:100D20000E94930A898182958F700E9432060E94E8
:100D3000A30589810E9432060E94A3050F90CF91DE
:100D4000DF910895DF93CF93CDB7DEB72E970FB61F
:100D5000F894DEBF0FBECDBF80E090E0A0E2B2E429
:100D60008B879C87AD87BE876B857C858D859E85AF
:100D700020E030E04AEF54E40E941F02DC01CB0186
:100D80008F839887A987BA876F81788589859A85A7
:100D900020E030E040E85FE30E94790388232CF4F0
:100DA00081E090E09E838D833FC06F817885898547
:100DB0009A8520E03FEF4FE757E40E941903181689
:100DC0004CF56B857C858D859E8520E030E040E28A
:100DD00051E40E941F02DC01CB01BC01CD010E9445
:100DE0004900DC01CB019E838D830FC088EC90E02D
:100DF0009C838B838B819C810197F1F79C838B83F0
:100E00008D819E8101979E838D838D819E81009728
:100E100069F714C06F81788589859A850E94490099
:100E2000DC01CB019E838D838D819E819A83898392
:100E300089819A810197F1F79A83898381E064E03F
:100E400040E00E94930A81E065E040E00E94930A3E
:100E500082E00E9432060E94A30582E00E943206D0
:100E60000E94A30588E00E9432060E94A3058CE040
:100E70000E94620681E00E9462062E960FB6F894E8
:100E8000DEBF0FBECDBFCF91DF910895DF93CF932B
:100E9000CDB7DEB781E00E946206CF91DF91089561
:100EA000DF93CF9300D000D0CDB7DEB79C838B8388
:100EB0001A8219828B819C810097D9F00EC089819A
:100EC000282F30E08B819C81FC01E20FF31F808191
:100ED0000E94820689818F5F89838981282F30E073
:100EE0008B819C81FC01E20FF31F8081882339F7FD
:100EF00002C082E08A838A810F900F900F900F903A
:100F0000CF91DF9108950F931F93DF93CF93CDB7C8
:100F1000DEB760970FB6F894DEBF0FBECDBF6D870A
:100F20007E878F87988B8AE0FE013396DF01982FAA
:100F30001D929A95E9F71A828D859E85AF85B889AD
:100F40000097A105B10521F480E30E9482067BC0D1
:100F50008D859E85AF85B889BB230CF054C08DE28A
:100F60000E9482068D859E85AF85B889B095A09533
:100F7000909581959F4FAF4FBF4F8D879E87AF87CD
:100F8000B88B41C08A81082F10E08D859E85AF8582
:100F9000B8892AE030E040E050E0BC01CD010E9479
:100FA000741ADC01CB01282FCE010396FC01E00F5F
:100FB000F11F20838A81482F50E08A81282F30E05A
:100FC000CE010396FC01E20FF31F8081282F205DE4
:100FD000CE010396FC01E40FF51F20838D859E85CD
:100FE000AF85B8892AE030E040E050E0BC01CD0197
:100FF0000E94741ADA01C9018D879E87AF87B88B6A
:101000008A818F5F8A838D859E85AF85B889181602
:1010100019061A061B060CF4B5CF8A8189838981CB
:10102000882F90E09C0121503040CE010396FC01B6
:10103000E20FF31F80810E9482068981815089839B
:101040008981882361F760960FB6F894DEBF0FBEE2
:10105000CDBFCF91DF911F910F910895DF93CF9373
:10106000CDB7DEB7A4970FB6F894DEBF0FBECDBFE5
:101070009CA38BA380E2FE013396DF01982F1D9283
:101080009A95E9F71A8280E690E00E9450071A824A
:1010900023C08BA19CA181709070882359F08A8114
:1010A000282F30E0CE010396FC01E20FF31F81E010
:1010B000808309C08A81282F30E0CE010396FC018D
:1010C000E20FF31F10828BA19CA1959587959CA39D
:1010D0008BA38A818F5F8A838A818031D0F280E0FE
:1010E00061E00E945B0980E189838981882F90E01B
:1010F0009C0121503040CE010396FC01E20FF31F0A
:101100008081882321F480E30E94820603C081E36A
:101110000E9482068981815089838981882329F7E9
:10112000A4960FB6F894DEBF0FBECDBFCF91DF916E
:101130000895DF93CF93CDB7DEB7A5970FB6F89498
:10114000DEBF0FBECDBF6D8F7E8F8F8F98A3CE0178
:1011500005969AA389A3EAEAF1E0FCA3EBA3F0E1E8
:10116000FDA3EBA1FCA100808BA19CA101969CA3F7
:101170008BA3E9A1FAA1008289A19AA101969AA361
:1011800089A39DA191509DA3EDA1EE2351F71B8250
:1011900020C08D8D8F708A838D8D9E8DAF8DB8A16F
:1011A000689413F8B595A795979587951694D1F7F8
:1011B0008D8F9E8FAF8FB8A38B81282F30E0CE010B
:1011C0004596FC01E20FF31F8A8180838B818F5F3C
:1011D0008B838B818830E8F283E690E00E94500791
:1011E00087E08C831AC08C81282F332727FD309508
:1011F000CE014596FC01E20FF31F8081898389812E
:10120000282F30E0CE010596FC01E20FF31F80810C
:101210000E9482068C8181508C838C8188231CF7EC
:10122000A5960FB6F894DEBF0FBECDBFCF91DF916C
:101230000895DF93CF93CDB7DEB727970FB6F89415
:10124000DEBF0FBECDBF9C838B836D834E832F8308
:101250008D81882F90E0880F991F880F991F880F24
:10126000991F8A838A8180648A838A810E946206A8
:1012700019820EC08981282F30E08B819C81FC016E
:10128000E20FF31F80810E94820689818F5F89832C
:101290008981883078F38E816F810E945B098D810E
:1012A0000E94820627960FB6F894DEBF0FBECDBF10
:1012B000CF91DF910895DF93CF9300D000D0CDB7C9
:1012C000DEB78B836C831A828C81882319F48B811F
:1012D000898309C08C81813021F48B81805C898372
:1012E00002C081E08A8389818068898389810E9424
:1012F00062068A810F900F900F900F90CF91DF912F
:101300000895DF93CF93CDB7DEB728970FB6F89443
:10131000DEBF0FBECDBF8A836B834C8319828B8166
:10132000883008F0F4C08C81813009F072C08A8165
:10133000282F30E038872F838F8198858130910561
:1013400049F12F813885223031052CF48F81988521
:10135000009761F05BC02F8138852230310571F133
:101360008F81988583309105E9F150C0AAE3B0E000
:10137000EAE3F0E08081482F8B81282F30E081E084
:1013800090E0022E02C0880F991F0A94E2F7842B86
:101390008C93BFC0A7E3B0E0E7E3F0E08081482F83
:1013A0008B81282F30E081E090E0022E02C0880F70
:1013B000991F0A94E2F7842B8C93ABC0A4E3B0E0AE
:1013C000E4E3F0E08081482F8B81282F30E081E03A
:1013D00090E0022E02C0880F991F0A94E2F7842B36
:1013E0008C9397C0A1E3B0E0E1E3F0E08081482F67
:1013F0008B81282F30E081E090E0022E02C0880F20
:10140000991F0A94E2F7842B8C9383C081E089832F
:1014100080C08C81882309F077C08A81282F30E032
:101420003E832D838D819E818130910559F12D81DF
:101430003E81223031052CF48D819E81009769F028
:1014400060C02D813E812230310589F18D819E81E0
:101450008330910509F440C054C0AAE3B0E0EAE348
:10146000F0E08081482F8B81282F30E081E090E0F0
:10147000022E02C0880F991F0A94E2F780958423F8
:101480008C9347C0A7E3B0E0E7E3F0E08081482F0A
:101490008B81282F30E081E090E0022E02C0880F7F
:1014A000991F0A94E2F7809584238C9332C0A4E3B9
:1014B000B0E0E4E3F0E08081482F8B81282F30E01A
:1014C00081E090E0022E02C0880F991F0A94E2F793
:1014D000809584238C931DC0A1E3B0E0E1E3F0E0AC
:1014E0008081482F8B81282F30E081E090E0022E10
:1014F00002C0880F991F0A94E2F7809584238C9389
:1015000008C081E0898305C081E0898302C081E051
:101510008983898128960FB6F894DEBF0FBECDBFB0
:10152000CF91DF910895DF93CF93CDB7DEB72897A2
:101530000FB6F894DEBF0FBECDBF8A836B834C839A
:1015400019828B81883008F0F4C08C81813009F0D9
:1015500072C08A81282F30E038872F838F81988549
:101560008130910549F12F813885223031052CF4E5
:101570008F819885009761F05BC02F81388522307C
:10158000310571F18F81988583309105E9F150C063
:10159000ABE3B0E0EBE3F0E08081482F8B81282FB4
:1015A00030E081E090E0022E02C0880F991F0A947B
:1015B000E2F7842B8C93BFC0A8E3B0E0E8E3F0E04F
:1015C0008081482F8B81282F30E081E090E0022E2F
:1015D00002C0880F991F0A94E2F7842B8C93ABC04A
:1015E000A5E3B0E0E5E3F0E08081482F8B81282F70
:1015F00030E081E090E0022E02C0880F991F0A942B
:10160000E2F7842B8C9397C0A2E3B0E0E2E3F0E032
:101610008081482F8B81282F30E081E090E0022EDE
:1016200002C0880F991F0A94E2F7842B8C9383C021
:1016300081E0898380C08C81882309F077C08A810A
:10164000282F30E03E832D838D819E81813091054E
:1016500059F12D813E81223031052CF48D819E81FE
:10166000009769F060C02D813E812230310589F1FB
:101670008D819E818330910509F440C054C0ABE355
:10168000B0E0EBE3F0E08081482F8B81282F30E041
:1016900081E090E0022E02C0880F991F0A94E2F7C1
:1016A000809584238C9347C0A8E3B0E0E8E3F0E0A2
:1016B0008081482F8B81282F30E081E090E0022E3E
:1016C00002C0880F991F0A94E2F7809584238C93B7
:1016D00032C0A5E3B0E0E5E3F0E08081482F8B81E4
:1016E000282F30E081E090E0022E02C0880F991F81
:1016F0000A94E2F7809584238C931DC0A2E3B0E0A6
:10170000E2E3F0E08081482F8B81282F30E081E0F8
:1017100090E0022E02C0880F991F0A94E2F780958C
:1017200084238C9308C081E0898305C081E089838C
:1017300002C081E08983898128960FB6F894DEBFC4
:101740000FBECDBFCF91DF910895DF93CF9300D02F
:1017500000D00F92CDB7DEB78A836B8319828B815D
:10176000883008F072C08A81282F30E03D832C83B6
:101770008C819D818130910549F12C813D81223000
:1017800031052CF48C819D81009761F05BC02C8128
:101790003D812230310571F18C819D81833091052D
:1017A000E9F150C0ABE3B0E0EBE3F0E08081482F1B
:1017B0008B81282F30E081E090E0022E02C0880F5C
:1017C000991F0A94E2F784278C9341C0A8E3B0E004
:1017D000E8E3F0E08081482F8B81282F30E081E022
:1017E00090E0022E02C0880F991F0A94E2F7842726
:1017F0008C932DC0A5E3B0E0E5E3F0E08081482FB5
:101800008B81282F30E081E090E0022E02C0880F0B
:10181000991F0A94E2F784278C9319C0A2E3B0E0E1
:10182000E2E3F0E08081482F8B81282F30E081E0D7
:1018300090E0022E02C0880F991F0A94E2F78427D5
:101840008C9305C081E0898302C081E0898389810E
:101850000F900F900F900F900F90CF91DF91089500
:10186000DF93CF93CDB7DEB727970FB6F894DEBFDF
:101870000FBECDBF8A836B835D834C8319828B81BE
:10188000883008F074C08A81282F30E03F832E838F
:101890004E815F814130510559F18E819F818230A7
:1018A000910534F42E813F812115310569F05CC02A
:1018B0004E815F814230510579F18E819F81833065
:1018C000910509F43DC050C0E9E3F0E08081282F84
:1018D00030E08B81882F90E0A90102C05595479593
:1018E0008A95E2F7CA018170EC81FD81808341C055
:1018F000E6E3F0E08081282F30E08B81882F90E0B4
:10190000A90102C0559547958A95E2F7CA018170F1
:10191000EC81FD8180832DC0E3E3F0E08081282FFE
:1019200030E08B81882F90E0A90102C05595479542
:101930008A95E2F7CA018170EC81FD81808319C02C
:10194000E0E3F0E08081282F30E08B81882F90E069
:10195000A90102C0559547958A95E2F7CA018170A1
:10196000EC81FD81808305C081E0898302C081E034
:101970008983898127960FB6F894DEBF0FBECDBF4D
:10198000CF91DF910895DF93CF9300D000D00F92D5
:10199000CDB7DEB78A836B8319828A81282F30E026
:1019A0003D832C838C819D8181309105D1F02C81E8
:1019B0003D81223031052CF48C819D81009761F0AE
:1019C0001FC02C813D812230310581F08C819D81A9
:1019D0008330910581F014C0EAE3F0E08B818083CD
:1019E00011C0E7E3F0E08B8180830CC0E4E3F0E01A
:1019F0008B81808307C0E1E3F0E08B81808302C0AC
:101A000081E0898389810F900F900F900F900F9044
:101A1000CF91DF910895DF93CF9300D000D00F9244
:101A2000CDB7DEB78A836B8319828A81282F30E095
:101A30003D832C838C819D8181309105D1F02C8157
:101A40003D81223031052CF48C819D81009761F01D
:101A50001FC02C813D812230310581F08C819D8118
:101A60008330910581F014C0EBE3F0E08B8180833B
:101A700011C0E8E3F0E08B8180830CC0E5E3F0E087
:101A80008B81808307C0E2E3F0E08B81808302C01A
:101A900081E0898389810F900F900F900F900F90B4
:101AA000CF91DF910895DF93CF93CDB7DEB7ABE54C
:101AB000B0E0EBE5F0E080818F7B8C93ABE5B0E0AC
:101AC000EBE5F0E0808180688C93A5E5B0E0E5E58A
:101AD000F0E080818B7F8C93A5E5B0E0E5E5F0E058
:101AE000808188608C93ABE5B0E0EBE5F0E080812D
:101AF0008F7D8C93CF91DF910895DF93CF93CDB7F6
:101B0000DEB72B970FB6F894DEBF0FBECDBF8A832A
:101B10006B8319828A81282F30E03B872A878A8548
:101B20009B858230910509F46BC02A853B85233063
:101B3000310509F4C4C08A859B858130910509F07F
:101B4000EFC08B81282F30E03987288788859985D9
:101B50008230910529F1288539852330310534F407
:101B6000888599858130910561F047C02885398540
:101B70002330310521F1888599858430910571F1F3
:101B80003CC0A5E5B0E0E5E5F0E080818E7F8C9378
:101B9000A5E5B0E0E5E5F0E080818D7F8C93C2C0E3
:101BA000A5E5B0E0E5E5F0E0808181608C93A5E5F6
:101BB000B0E0E5E5F0E080818D7F8C93B3C0A5E5D2
:101BC000B0E0E5E5F0E080818E7F8C93A5E5B0E0A4
:101BD000E5E5F0E0808182608C93A4C0A5E5B0E0EB
:101BE000E5E5F0E0808181608C93A5E5B0E0E5E576
:101BF000F0E0808182608C9395C081E0898392C0FF
:101C00008B81282F30E03F832E838E819F8182300D
:101C1000910529F12E813F812330310534F48E81E5
:101C20009F818130910561F047C02E813F81233033
:101C3000310521F18E819F818430910571F13CC085
:101C4000A5E5B0E0E5E5F0E080818B7F8C93A5E52C
:101C5000B0E0E5E5F0E08081877F8C9363C0A5E587
:101C6000B0E0E5E5F0E0808184608C93A5E5B0E02C
:101C7000E5E5F0E08081877F8C9354C0A5E5B0E076
:101C8000E5E5F0E080818B7F8C93A5E5B0E0E5E5AC
:101C9000F0E0808188608C9345C0A5E5B0E0E5E583
:101CA000F0E0808184608C93A5E5B0E0E5E5F0E0AC
:101CB000808188608C9336C081E0898333C08B81BA
:101CC000282F30E03D832C838C819D8183309105CA
:101CD00031F02C813D812430310581F01EC0A4E516
:101CE000B0E0E4E5F0E080818F7B8C93A4E5B0E088
:101CF000E4E5F0E0808180648C9314C0A4E5B0E05A
:101D0000E4E5F0E0808180648C93A4E5B0E0E4E554
:101D1000F0E0808180648C9305C081E0898302C0FB
:101D200081E0898389812B960FB6F894DEBF0FBEC0
:101D3000CDBFCF91DF910895DF93CF9300D000D036
:101D4000CDB7DEB78A8319828A81282F30E03C83A1
:101D50002B838B819C818230910591F02B813C817A
:101D600023303105A9F08B819C8181309105C1F42C
:101D7000ABE5B0E0EBE5F0E0808180648C9312C0CD
:101D8000ABE5B0E0EBE5F0E0808180688C930AC0C1
:101D9000ABE5B0E0EBE5F0E0808180628C9302C0BF
:101DA00081E0898389810F900F900F900F90CF91E0
:101DB000DF910895DF93CF9300D000D0CDB7DEB789
:101DC0008A8319828A81282F30E03C832B838B8180
:101DD0009C818230910591F02B813C81233031052B
:101DE000A9F08B819C8181309105C1F4ABE5B0E015
:101DF000EBE5F0E080818F7B8C9312C0ABE5B0E027
:101E0000EBE5F0E080818F778C930AC0ABE5B0E022
:101E1000EBE5F0E080818F7D8C9302C081E08983C7
:101E200089810F900F900F900F90CF91DF910895BF
:101E3000DF93CF9300D000D000D0CDB7DEB78A8338
:101E40007C836B8319828B819C81009761F18A81ED
:101E5000282F30E03E832D838D819E818230910535
:101E600089F02D813E812330310599F08D819E814D
:101E700081309105A9F48B819C819093BB01809363
:101E8000BA0113C08B819C819093BD018093BC01EA
:101E90000CC08B819C819093BF018093BE0105C0D3
:101EA00081E0898302C082E08983898126960FB60A
:101EB000F894DEBF0FBECDBFCF91DF9108951F9282
:101EC0000F920FB60F9211242F933F934F935F936E
:101ED0006F937F938F939F93AF93BF93EF93FF93F2
:101EE000DF93CF93CDB7DEB78091BA019091BB015C
:101EF000009729F0E091BA01F091BB010995CF91CB
:101F0000DF91FF91EF91BF91AF919F918F917F9161
:101F10006F915F914F913F912F910F900FBE0F9056
:101F20001F9018951F920F920FB60F9211242F93A6
:101F30003F934F935F936F937F938F939F93AF9351
:101F4000BF93EF93FF93DF93CF93CDB7DEB780912D
:101F5000BC019091BD01009729F0E091BC01F09186
:101F6000BD010995CF91DF91FF91EF91BF91AF91A5
:101F70009F918F917F916F915F914F913F912F91A1
:101F80000F900FBE0F901F9018951F920F920FB6D3
:101F90000F9211242F933F934F935F936F937F93EF
:101FA0008F939F93AF93BF93EF93FF93DF93CF9361
:101FB000CDB7DEB78091BE019091BF01009729F0A7
:101FC000E091BE01F091BF010995CF91DF91FF91A2
:101FD000EF91BF91AF919F918F917F916F915F91A1
:101FE0004F913F912F910F900FBE0F901F9018951A
:101FF000DF93CF93CDB7DEB77894CF91DF9108957B
:10200000DF93CF93CDB7DEB7F894CF91DF910895EA
:10201000DF93CF9300D000D00F92CDB7DEB78FEF14
:1020200089831B826AC08B81882F90E0FC01E45277
:10203000FF4F908180E0692F40E00E94930A1A824E
:1020400049C08A81882F90E0FC01E852FF4F9081BF
:102050009E012C5F3F4F80E0692FA9010E94300C48
:102060008C818823A1F50FC08A81882F90E0FC0124
:10207000E852FF4F90819E012C5F3F4F80E0692F17
:10208000A9010E94300C8C81882371F38A81482F2A
:1020900050E08B81282F30E0CA01880F991F880FEC
:1020A000991F820F931FFC01E853FF4F80818983A2
:1020B0008B81882F90E0FC01E452FF4F908180E0FB
:1020C000692F41E00E94930A89818D831CC08A8117
:1020D0008F5F8A838A81843008F4B3CF8B81882F05
:1020E00090E0FC01E452FF4F908180E0692F41E0D5
:1020F0000E94930A8B818F5F8B838B81843008F4DD
:1021000092CF89818D838D810F900F900F900F90CA
:102110000F90CF91DF910895DF93CF9300D00F926E
:10212000CDB7DEB79B838A8319828A819B81009712
:10213000A9F0EA81FB818081EA81FB819181692F8D
:1021400040E00E94930AEA81FB818081EA81FB8161
:102150009281692F41E00E94930A02C082E0898344
:1021600089810F900F900F90CF91DF910895DF93A9
:10217000CF9300D00F92CDB7DEB79B838A831982AD
:102180008A819B810097A9F0EA81FB818081EA81A5
:10219000FB819281692F40E00E94930AEA81FB81D2
:1021A0008081EA81FB819181692F41E00E94930A3D
:1021B00002C082E0898389810F900F900F90CF91A8
:1021C000DF910895DF93CF9300D00F92CDB7DEB7A4
:1021D0009B838A8319828A819B810097A9F0EA8177
:1021E000FB818081EA81FB819281692F40E00E941E
:1021F000930AEA81FB818081EA81FB819181692FC9
:1022000040E00E94930A02C082E0898389810F9096
:102210000F900F90CF91DF910895DF93CF93CDB7BB
:10222000DEB7EAE3F0E080EF8083E7E3F0E08FEFF2
:102230008083E4E3F0E08FEF8083E1E3F0E08BEF75
:102240008083EBE3F0E08FE08083E8E3F0E010824E
:10225000E5E3F0E01082E2E3F0E08CE08083CF91F0
:10226000DF910895DF93CF9300D000D0CDB7DEB7D4
:102270009B838A836C8319828A819B81009709F4EE
:1022800081C0EA81FB8180818230B9F5EA81FB81DE
:102290008381EA81FB819481692F40E00E94930A47
:1022A000EA81FB818281882379F4EA81FB812181A3
:1022B0008C81882F90E0FC01E052FF4F9081822FAB
:1022C000692F0E940B0D60C0EA81FB818281813001
:1022D00089F4EA81FB8121818C81882F90E0FC01C7
:1022E000E052FF4F8081982F990F822F692F0E9413
:1022F0000B0D4AC081E0898347C0EA81FB81808160
:102300008130E9F5EA81FB818381EA81FB81948157
:10231000692F41E00E94930AEA81FB818281882330
:1023200089F4EA81FB8121818C81882F90E0FC0176
:10233000E052FF4F8081982F9095822F692F0E9445
:102340000B0D22C0EA81FB8182818130A9F4EA81F0
:10235000FB8121818C81882F90E0FC01E052FF4FAE
:102360008081882F90E0880F991F982F9095822F59
:10237000692F0E940B0D08C081E0898305C081E0B0
:10238000898302C082E0898389810F900F900F902A
:102390000F90CF91DF910895DF93CF9300D00F92EC
:1023A000CDB7DEB79B838A8319828A819B81009790
:1023B00019F1EA81FB818081823059F4EA81FB8145
:1023C0008381EA81FB819481692F41E00E94930A15
:1023D00015C0EA81FB818081813059F4EA81FB815B
:1023E0008381EA81FB819481692F40E00E94930AF6
:1023F00005C081E0898302C082E0898389810F90D2
:102400000F900F90CF91DF9108950F931F93DF935B
:10241000CF93CDB7DEB7CE58D0400FB6F894DEBF1D
:102420000FBECDBF0E940D110E94F80F0E94530DE8
:102430000E94A20623ED39E182E0B9010E94180F43
:10244000FE01E757FF4F1082FE01E857FF4F8FEF65
:102450008083FE01E957FF4F1082FE01EA57FF4FCC
:1024600083E08083FE01EB57FF4F1082FE01ED57A2
:10247000FF4F11821082FE01EF57FF4F1182108231
:10248000FE01E158FF4F11821082FE01E657FF4F17
:1024900082E08183FE01E657FF4F83E08383FE01E4
:1024A000E657FF4F1482FE01E657FF4F1282FE01EE
:1024B000E657FF4F82E0808383E08093C80184E089
:1024C0008093C90185E08093CA0188EC91E00E9465
:1024D000E210FE01E757FF4F1082D2C00E9446076C
:1024E0008AE191E0FE01E757FF4F60E0408120E084
:1024F0000E94190982E291E0FE01E757FF4F61E077
:10250000408121E00E941909FE01E558FF4F80E05B
:1025100090E0A8ECB2E480839183A283B3838E0120
:1025200009581F4FFE01E558FF4F6081718182817C
:10253000938120E030E04AEF54E40E941F02DC0166
:10254000CB01F80180839183A283B383FE01E95814
:10255000FF4F608171818281938120E030E040E80B
:102560005FE30E947903882344F4FE01EB58FF4F98
:1025700081E090E09183808364C0FE01E958FF4FC1
:10258000608171818281938120E03FEF4FE757E4C2
:102590000E94190318160CF043C0FE01E558FF4FC6
:1025A000608171818281938120E030E040E251E4DA
:1025B0000E941F02DC01CB018E010B581F4FBC0192
:1025C000CD010E944900DC01CB01F8019183808399
:1025D0001FC0FE01ED58FF4F88EC90E0918380838F
:1025E000FE01ED58FF4F808191810197F1F7FE01C7
:1025F000ED58FF4F91838083DE01AB58BF4FFE0142
:10260000EB58FF4F80819181019711969C938E9397
:10261000FE01EB58FF4F808191810097D1F627C0D2
:102620008E010B581F4FFE01E958FF4F60817181E9
:10263000828193810E944900DC01CB01F8019183E2
:102640008083DE01AF58BF4FFE01EB58FF4F808102
:1026500091818D939C93FE01EF58FF4F8081918172
:102660000197F1F7FE01EF58FF4F91838083DE0160
:10267000A757BF4FFE01E757FF4F80818F5F8C93B5
:10268000FE01E757FF4F8081803108F427CF81E0BA
:1026900060E00E945B0986E690E00E945007FE0120
:1026A000E359FF4F80E090E0AAE7B4E48083918390
:1026B000A283B3838E0107591F4FFE01E359FF4FD9
:1026C000608171818281938120E030E04AEF54E49F
:1026D0000E941F02DC01CB01F80180839183A28359
:1026E000B383FE01E759FF4F60817181828193813D
:1026F00020E030E040E85FE30E947903882344F45F
:10270000FE01E959FF4F81E090E09183808364C02E
:10271000FE01E759FF4F608171818281938120E042
:102720003FEF4FE757E40E94190318160CF043C01F
:10273000FE01E359FF4F608171818281938120E026
:1027400030E040E251E40E941F02DC01CB018E0127
:1027500009591F4FBC01CD010E944900DC01CB018A
:10276000F801918380831FC0FE01EB59FF4F88EC75
:1027700090E091838083FE01EB59FF4F808191812E
:102780000197F1F7FE01EB59FF4F91838083DE0142
:10279000A959BF4FFE01E959FF4F808191810197EF
:1027A00011969C938E93FE01E959FF4F8081918190
:1027B0000097D1F6FBC38E0109591F4FFE01E7595F
:1027C000FF4F60817181828193810E944900DC0109
:1027D000CB01F80191838083DE01AD59BF4FFE012B
:1027E000E959FF4F8081918111969C938E93FE0150
:1027F000ED59FF4F808191810197F1F7FE01ED596D
:10280000FF4F91838083D2C3FE01E757FF4F1082B1
:102810001DC080EC91E0FE01E757FF4F62E0408170
:1028200020E00E94190980EC91E0FE01E757FF4F7C
:1028300062E0408121E00E941909DE01A757BF4FE5
:10284000FE01E757FF4F80818F5F8C93FE01E757B2
:10285000FF4F80818E30E8F280E060E00E945B09EB
:1028600084E790E00E94500780E061E00E945B09ED
:1028700089E790E00E945007CE0186579F4FFE01E6
:10288000EA57FF4F60810E943211FE01E957FF4F66
:10289000108284E060E00E945B0951C00E94081031
:1028A000FE01E857FF4F8083FE01E857FF4F80810C
:1028B0008F3FA1F3FE01E857FF4F8081882F90E002
:1028C0008B309105B9F1FE01E857FF4F8081882FC9
:1028D00090E0A0E0B0E0BC01CD010E948307FE01C2
:1028E000E857FF4F8081482F50E0FE01ED57FF4F22
:1028F000808191819C01220F331FC901880F991F8C
:10290000880F991F820F931FFE01ED57FF4F840F11
:10291000951F91838083FE01E857FF4F8FEF8083DF
:10292000DE01A957BF4FFE01E957FF4F80818F5F3E
:102930008C9305C0FE01E857FF4F8FEF8083FE01A7
:10294000E957FF4F8081843009F0AECFFE01E9578F
:10295000FF4F10828AE061E00E945B0910C10E9473
:102960000810FE01E857FF4F8083FE01E857FF4F34
:1029700080818F3FA1F3FE01E857FF4F8081882FB0
:1029800090E08B30910509F4F5C0FE01E857FF4F48
:102990008081882F90E0A0E0B0E0BC01CD010E94D2
:1029A0008307FE01E857FF4F8081482F50E0FE016A
:1029B000EF57FF4F808191819C01220F331FC90186
:1029C000880F991F880F991F820F931FFE01EF57E1
:1029D000FF4F840F951F91838083FE01E957FF4FBE
:1029E0008081865F61E00E945B09FE01E15AFF4F32
:1029F00080E090E0AAE7B3E480839183A283B3836D
:102A00008E01055A1F4FFE01E15AFF4F608171810F
:102A10008281938120E030E04AEF54E40E941F025B
:102A2000DC01CB01F80180839183A283B383FE0193
:102A3000E55AFF4F608171818281938120E030E00F
:102A400040E85FE30E947903882344F4FE01E75ADB
:102A5000FF4F81E090E09183808364C0FE01E55ADE
:102A6000FF4F608171818281938120E03FEF4FE7CA
:102A700057E40E94190318160CF043C0FE01E15AF6
:102A8000FF4F608171818281938120E030E040E2DC
:102A900051E40E941F02DC01CB018E01075A1F4F37
:102AA000BC01CD010E944900DC01CB01F8019183FA
:102AB00080831FC0FE01E95AFF4F88EC90E09183AC
:102AC0008083FE01E95AFF4F808191810197F1F7E0
:102AD000FE01E95AFF4F91838083DE01A75ABF4F61
:102AE000FE01E75AFF4F80819181019711969C93D7
:102AF0008E93FE01E75AFF4F808191810097D1F6B6
:102B000027C08E01075A1F4FFE01E55AFF4F608113
:102B10007181828193810E944900DC01CB01F8011F
:102B200091838083DE01AB5ABF4FFE01E75AFF4F0E
:102B3000808191818D939C93FE01EB5AFF4F8081A0
:102B400091810197F1F7FE01EB5AFF4F918380834A
:102B50008AE20E948206FE01E857FF4F8FEF8083D2
:102B6000DE01A957BF4FFE01E957FF4F80818F5FFC
:102B70008C9305C0FE01E857FF4F8FEF8083FE0165
:102B8000E957FF4F8081843009F0EFCEFE01E9570D
:102B9000FF4F10823BC0DE01A957BF4FFE01E9572E
:102BA000FF4F80818F5F8C93FE01ED57FF4F808137
:102BB00091812AE030E0B9010E94601AAC01FE0167
:102BC000E158FF4F808191819C01220F331FC90181
:102BD000880F991F880F991F820F931FFE01E158DC
:102BE000FF4F840F951F918380838E010D571F4FD8
:102BF000FE01ED57FF4F808191812AE030E0B9015D
:102C00000E94601ACB01F80191838083FE01E9578D
:102C1000FF4F8081843009F0BECF80E060E00E94E9
:102C20005B09FE01E757FF4F108213C080EC91E073
:102C3000FE01E757FF4F62E0408120E00E94190942
:102C4000DE01A757BF4FFE01E757FF4F80818F5F1F
:102C50008C93FE01E757FF4F80818E3038F3FE01E1
:102C6000E757FF4F108213C080EC91E0FE01E75759
:102C7000FF4F62E0408121E00E941909DE01A75761
:102C8000BF4FFE01E757FF4F80818F5F8C93FE019E
:102C9000E757FF4F80818E3038F3FE01EF57FF4F2B
:102CA000DE01A158BF4F208131818D919C911197F8
:102CB0002817390709F0C7C084E060E00E945B096B
:102CC00084E890E00E945007CE0186579F4F0E94F3
:102CD000CC11FE01EB57FF4F81E08083FE01EF5ADC
:102CE000FF4F80E090E0AAE7B4E480839183A28361
:102CF000B3838E01035B1F4FFE01EF5AFF4F6081CC
:102D000071818281938120E030E04AEF54E40E9497
:102D10001F02DC01CB01F80180839183A283B3837E
:102D2000FE01E35BFF4F608171818281938120E02E
:102D300030E040E85FE30E947903882344F4FE0119
:102D4000E55BFF4F81E090E09183808364C0FE01EA
:102D5000E35BFF4F608171818281938120E03FEFCF
:102D60004FE757E40E94190318160CF043C0FE0108
:102D7000EF5AFF4F608171818281938120E030E0C2
:102D800040E251E40E941F02DC01CB018E01055B91
:102D90001F4FBC01CD010E944900DC01CB01F801AD
:102DA000918380831FC0FE01E75BFF4F88EC90E0BA
:102DB00091838083FE01E75BFF4F808191810197C2
:102DC000F1F7FE01E75BFF4F91838083DE01A55B96
:102DD000BF4FFE01E55BFF4F808191810197119606
:102DE0009C938E93FE01E55BFF4F8081918100975C
:102DF000D1F6E3C08E01055B1F4FFE01E35BFF4F81
:102E000060817181828193810E944900DC01CB0144
:102E1000F80191838083DE01A95BBF4FFE01E55B72
:102E2000FF4F8081918111969C938E93FE01E95B07
:102E3000FF4F808191810197F1F7FE01E95BFF4F20
:102E400091838083BAC0FE01ED57FF4F118210823B
:102E5000FE01EF57FF4F11821082FE01E158FF4F34
:102E600011821082DE01AA57BF4FFE01EA57FF4FC1
:102E7000808181508C9381E060E00E945B098CE846
:102E800090E00E945007FE01EA57FF4F808188239F
:102E900041F082E061E00E945B0989E990E00E94D4
:102EA0005007FE01ED5BFF4F80E090E0AAEFB3E436
:102EB00080839183A283B3838E01015C1F4FFE0147
:102EC000ED5BFF4F608171818281938120E030E072
:102ED0004AEF54E40E941F02DC01CB01F801808319
:102EE0009183A283B383FE01FF9660817181828109
:102EF000938120E030E040E85FE30E94790388237B
:102F00002CF481E090E09EAF8DAF46C0FE01FF96AD
:102F1000608171818281938120E03FEF4FE757E428
:102F20000E941903181664F5FE01ED5BFF4F6081E6
:102F300071818281938120E030E040E251E40E947F
:102F40001F02DC01CB01BC01CD010E944900DC0164
:102F5000CB019EAF8DAF0FC088EC90E09CAF8BAFE4
:102F60008BAD9CAD0197F1F79CAF8BAF8DAD9EAD56
:102F700001979EAF8DAF8DAD9EAD009769F716C0DE
:102F8000FE01FF9660817181828193810E944900D8
:102F9000DC01CB019EAF8DAF8DAD9EAD9AAF89AFF9
:102FA00089AD9AAD0197F1F79AAF89AFFE01EA5763
:102FB000FF4F8081882309F027CCFE01EA57FF4F9D
:102FC0008081882389F4CE0186579F4FFE01EA57FE
:102FD000FF4F60810E94321180E061E00E945B0936
:102FE00084EA90E00E945007FE01EB57FF4F80817A
:102FF0008130E1F688EC91E00E948C1080E090E84E
:10300000ABE3B5E48DAB9EABAFABB8AF6DA97EA91A
:103010008FA998AD20E030E04AEF54E40E941F02EF
:10302000DC01CB0189AB9AABABABBCAB69A97AA98C
:103030008BA99CA920E030E040E85FE30E9479037F
:1030400088232CF481E090E098AB8FA73FC069A95A
:103050007AA98BA99CA920E03FEF4FE757E40E9493
:10306000190318164CF56DA97EA98FA998AD20E01B
:1030700030E040E251E40E941F02DC01CB01BC01C0
:10308000CD010E944900DC01CB0198AB8FA70FC096
:1030900088EC90E09EA78DA78DA59EA50197F1F7DE
:1030A0009EA78DA78FA598A9019798AB8FA78FA5ED
:1030B00098A9009769F714C069A97AA98BA99CA956
:1030C0000E944900DC01CB0198AB8FA78FA598A97E
:1030D0009CA78BA78BA59CA50197F1F79CA78BA715
:1030E00088EC91E00E94E21080E090E0AAE7B3E46F
:1030F0008FA398A7A9A7BAA76FA178A589A59AA514
:1031000020E030E04AEF54E40E941F02DC01CB01D2
:103110008BA39CA3ADA3BEA36BA17CA18DA19EA1FB
:1031200020E030E040E85FE30E94790388232CF43C
:1031300081E090E09AA389A33FC06BA17CA18DA1FF
:103140009EA120E03FEF4FE757E40E9419031816B5
:103150004CF56FA178A589A59AA520E030E040E262
:1031600051E40E941F02DC01CB01BC01CD010E9491
:103170004900DC01CB019AA389A30FC088EC90E041
:1031800098A38F8F8F8D98A10197F1F798A38F8FB8
:1031900089A19AA101979AA389A389A19AA10097CD
:1031A00069F714C06BA17CA18DA19EA10E9449006A
:1031B000DC01CB019AA389A389A19AA19E8F8D8F4F
:1031C0008D8D9E8D0197F1F79E8F8D8F88EC91E00C
:1031D0000E94B71080E090E8ABE3B5E4898F9A8F46
:1031E000AB8FBC8F698D7A8D8B8D9C8D20E030E00C
:1031F0004AEF54E40E941F02DC01CB018D8B9E8BB1
:10320000AF8BB88F6D897E898F89988D20E030E0F3
:1032100040E85FE30E94790388232CF481E090E08A
:103220009C8B8B8B3FC06D897E898F89988D20E028
:103230003FEF4FE757E40E94190318164CF5698DCC
:103240007A8D8B8D9C8D20E030E040E251E40E942D
:103250001F02DC01CB01BC01CD010E944900DC0151
:10326000CB019C8B8B8B0FC088EC90E09A8B898B69
:1032700089899A890197F1F79A8B898B8B899C8927
:1032800001979C8B8B8B8B899C89009769F714C065
:103290006D897E898F89988D0E944900DC01CB0160
:1032A0009C8B8B8B8B899C89988B8F878F8598893A
:1032B0000197F1F7988B8F8788EC91E00E94E210DC
:1032C00080E090E0AAE7B3E48B879C87AD87BE8758
:1032D0006B857C858D859E8520E030E04AEF54E447
:1032E0000E941F02DC01CB018F839887A987BA87D0
:1032F0006F81788589859A8520E030E040E85FE33A
:103300000E94790388232CF481E090E09E838D83D2
:103310003FC06F81788589859A8520E03FEF4FE730
:1033200057E40E94190318164CF56B857C858D8532
:103330009E8520E030E040E251E40E941F02DC0163
:10334000CB01BC01CD010E944900DC01CB019E8371
:103350008D830FC088EC90E09C838B838B819C8154
:103360000197F1F79C838B838D819E8101979E83CA
:103370008D838D819E81009769F73CCE6F81788522
:1033800089859A850E944900DC01CB019E838D834B
:103390008D819E819A83898389819A810197F1F732
:1033A0009A83898327CEDF93CF93CDB7DEB72E974D
:1033B0000FB6F894DEBF0FBECDBF88EC91E00E943F
:1033C000E2100E94460783E060E00E945B0984EB04
:1033D00090E00E94500780E090E0AAE7B4E48B8779
:1033E0009C87AD87BE876B857C858D859E8520E01B
:1033F00030E04AEF54E40E941F02DC01CB018F83CE
:103400009887A987BA876F81788589859A8520E012
:1034100030E040E85FE30E94790388232CF481E0E8
:1034200090E09E838D833FC06F81788589859A85E2
:1034300020E03FEF4FE757E40E94190318164CF5C0
:103440006B857C858D859E8520E030E040E251E4EF
:103450000E941F02DC01CB01BC01CD010E9449008A
:10346000DC01CB019E838D830FC088EC90E09C83B0
:103470008B838B819C810197F1F79C838B838D815A
:103480009E8101979E838D838D819E81009769F730
:1034900014C06F81788589859A850E944900DC0176
:1034A000CB019E838D838D819E819A8389838981BF
:1034B0009A810197F1F79A8389830E944607FFCF8B
:1034C000AA1BBB1B51E107C0AA1FBB1FA617B7074A
:1034D00010F0A61BB70B881F991F5A95A9F7809566
:1034E0009095BC01CD01089597FB092E05260ED0BD
:1034F00057FD04D014D00AD0001C38F450954095E4
:10350000309521953F4F4F4F5F4F0895F6F79095B7
:103510008095709561957F4F8F4F9F4F0895A1E2E1
:103520001A2EAA1BBB1BFD010DC0AA1FBB1FEE1F3D
:10353000FF1FA217B307E407F50720F0A21BB30B88
:10354000E40BF50B661F771F881F991F1A9469F704
:1035500060957095809590959B01AC01BD01CF0160
:1035600008952F923F924F925F926F927F928F9227
:103570009F92AF92BF92CF92DF92EF92FF920F9302
:103580001F93CF93DF93CDB7DEB7CA1BDB0B0FB60C
:10359000F894DEBF0FBECDBF09942A8839884888C9
:1035A0005F846E847D848C849B84AA84B984C8845F
:1035B000DF80EE80FD800C811B81AA81B981CE0F56
:1035C000D11D0FB6F894DEBF0FBECDBFED0108953B
:0435D000F894FFCF9D
:1035D40030620030780057656C636F6D65204D690B
:1035E400646F210049443A200050617373776F720D
:1035F400643A200057656C636F6D650057726F6E97
:103604006720496E70757421005472792061676176
:10361400696E210043616C6C20456D657267656E4F
:1036240063792100466F7263652053746F702100C3
:1036340000000000000000000102030B0405060B5B
:103644000708090B0B000B0B030201000405060716
:103654003F065B4F666D7D077F6F000F0B0B1F00EE
:103664000000000009091F0006000000000F190FE8
:103674000000101010101F000000040E15040404B4
:1036840004000E0A040E04040E001F1111111F047D
:10369400040004040E15040E1100000000000018BC
:1036A40007000000000000031C00000010080402D2
:1036B400010001001F00000000000000110C0300C5
:1036C40000000000100804030100000001020408C7
:1036D40010001F111F141C10000000000000001F28
:1036E400000000000000001F000000001F00000098
:1036F400000000001F000000000000000F09110975
:103704000F00000000001F0000001F111111111113
:103714001F0000000E0A0E00000030313233343531
:0A3724003637383941424344454628
:00000001FF
