:100000000C942A000C9447000C9447000C94470071
:100010000C94821F0C944F1F0C941C1F0C94E91E0F
:100020000C94B61E0C94831E0C94501E0C941D1E32
:100030000C9447000C94BF210C9416220C946D2252
:100040000C9468080C9447000C9447000C944700EB
:100050000C94470011241FBECFE5D8E0DEBFCDBF12
:1000600011E0A0E6B0E0EEEFF1E502C005900D92E0
:10007000A43EB107D9F712E0A4EEB1E001C01D9291
:10008000AD32B107E1F70E94AB240C94FD280C942B
:100090000000EF92FF920F931F937B018C0120E0F1
:1000A00030E040E05FE40E94F50388238CF0C80153
:1000B000B70120E030E040E05FE40E94C1010E940F
:1000C00055049B01AC01205030404040504806C0D0
:1000D000C801B7010E9455049B01AC01B901CA01D6
:1000E0001F910F91FF90EF900895A0E0B0E0EBE733
:1000F000F0E00C94C628DC012B01FA019C919230AF
:1001000008F439C1EB018881823008F433C194309E
:1001100069F4843009F02FC111969C91119789815F
:10012000981709F428C1A8ECB0E025C1843009F47F
:1001300021C18230A9F4923009F01DC19A01AD01AC
:1001400088E0EA010990AE01E90109929E0181501F
:10015000C1F7E201898111969C918923818308C1AD
:10016000923009F407C112962D903C901397EB0141
:100170008A819B811496AD90BD90CD90DC901797AD
:10018000EC80FD800E811F819101281B390BB90184
:1001900037FF04C066277727621B730B6032710537
:1001A0000CF061C0121613066CF537014801062EDB
:1001B00004C096948794779467940A94D2F721E0C8
:1001C00030E040E050E004C0220F331F441F551FB1
:1001D0006A95D2F721503040404050402E213F21B7
:1001E00040235123211531054105510521F021E01E
:1001F00030E040E050E079018A01E628F72808293C
:1002000019293CC0232BD1F1260E371E350146019A
:10021000062E04C096948794779467940A94D2F734
:1002200021E030E040E050E004C0220F331F441FC3
:10023000551F6A95D2F721503040404050402A2146
:100240003B214C215D21211531054105510521F04E
:1002500021E030E040E050E059016A01A628B728CB
:10026000C828D9280BC0821593052CF01C01AA249C
:10027000BB24650103C0EE24FF24870111969C91E5
:10028000D20111968C91981709F445C0992339F041
:10029000A80197012A193B094C095D0906C0A6016E
:1002A00095012E193F09400B510B57FD08C01182D3
:1002B0003382228224833583468357831DC081E0A5
:1002C00081833382228288279927DC01821B930B4A
:1002D000A40BB50B84839583A683B7830DC0220F2F
:1002E000331F441F551F24833583468357838281E0
:1002F000938101979383828324813581468157813D
:10030000DA01C9010197A109B1098F5F9F4FAF4F72
:10031000BF4328F30BC0918333822282EA0CFB1C7B
:100320000C1D1D1DE482F5820683178383E0808304
:10033000248135814681578157FF1AC0C901AA27F8
:1003400097FDA095BA2F81709070A070B0705695EF
:10035000479537952795822B932BA42BB52B848318
:100360009583A683B7838281938101969383828349
:10037000DF0101C0D201CD01CDB7DEB7E2E10C94BF
:10038000E228A0E2B0E0E7ECF1E00C94D228698327
:100390007A838B839C832D833E834F835887E9E048
:1003A000EE2EF12CEC0EFD1ECE010196B7010E943F
:1003B00046068E010F5E1F4FCE010596B8010E94C2
:1003C00046068A8991E089278A8BC701B801AE0168
:1003D000475E5F4F0E9475000E947105A096E6E09F
:1003E0000C94EE28A0E2B0E0E8EFF1E00C94D22803
:1003F00069837A838B839C832D833E834F835887C5
:10040000F9E0EF2EF12CEC0EFD1ECE010196B701A6
:100410000E9446068E010F5E1F4FCE010596B80161
:100420000E944606C701B801AE01475E5F4F0E94B9
:1004300075000E947105A096E6E00C94EE28A0E2FB
:10044000B0E0E5E2F2E00C94C62869837A838B83FE
:100450009C832D833E834F835887CE010196BE0136
:10046000675F7F4F0E944606CE010596BE016F5E14
:100470007F4F0E9446069985923088F089898230A4
:10048000C8F0943019F4823051F404C0843029F457
:10049000923081F488EC90E0C6C0923049F420E0BC
:1004A0009A858A89981321E02A87CE010996BBC0D4
:1004B000823049F420E09A858A89981321E02A8BBA
:1004C000CE014196B0C02D843E844F8458886D88FB
:1004D0007E888F88988CEE24FF248701AA24BB2471
:1004E000650140E050E060E070E0E0E0F0E0C10174
:1004F00081709070892BE9F0E60CF71C081D191D1E
:100500009A01AB012A0D3B1D4C1D5D1D80E090E062
:10051000A0E0B0E0E614F7040805190520F481E036
:1005200090E0A0E0B0E0BA01A901480F591F6A1F8E
:100530007B1FAA0CBB1CCC1CDD1C97FE08C081E0F5
:1005400090E0A0E0B0E0A82AB92ACA2ADB2A3196B6
:10055000E032F10549F0660C771C881C991C569412
:10056000479437942794C3CFFA85EA892B893C892D
:100570008B859C85280F391F2E5F3F4F17C0CA01FE
:1005800081709070892B61F016950795F794E79428
:1005900080E090E0A0E0B0E8E82AF92A0A2B1B2BC3
:1005A00076956795579547952F5F3F4F77FDE7CF36
:1005B0000CC0440F551F661F771F17FD4160EE0CDE
:1005C000FF1C001F111F21503040403090E05907A0
:1005D00090E0690790E4790760F32B8F3C8FDB0193
:1005E000CA018F779070A070B07080349105A1051A
:1005F000B10561F447FD0AC0E114F10401051105DC
:1006000029F0405C5F4F6F4F7F4F40781A8EFE1786
:1006100011F081E08A8F4D8F5E8F6F8F78A383E01A
:10062000898FCE0149960E947105A096E2E10C9453
:10063000E228A8E1B0E0EFE1F3E00C94CE28698372
:100640007A838B839C832D833E834F835887B9E0C5
:10065000EB2EF12CEC0EFD1ECE010196B7010E948F
:1006600046068E010F5E1F4FCE010596B8010E940F
:1006700046062985223008F47EC03989323010F4CC
:10068000B8017CC08A859A8989278A87243011F02D
:10069000223031F4231709F06EC068EC70E06EC0B0
:1006A000343039F41D861E861F86188A1C861B86E8
:1006B00004C0323021F484E08987B7015FC02B8504
:1006C0003C858B899C89281B390B3C872B87ED84C3
:1006D000FE840F851889AD88BE88CF88D88CEA142F
:1006E000FB040C051D0540F4EE0CFF1C001F111F40
:1006F000215030403C872B8720E030E040E050E044
:1007000080E090E0A0E0B0E460E070E0EA14FB0478
:100710000C051D0540F0282B392B4A2B5B2BEA18C2
:10072000FB080C091D09B695A79597958795EE0CC2
:10073000FF1C001F111F6F5F7F4F6F31710531F775
:10074000DA01C9018F779070A070B0708034910584
:10075000A105B10561F427FD0AC0E114F10401050A
:10076000110529F0205C3F4F4F4F5F4F20782D87B8
:100770003E874F87588BBE01675F7F4FCB010E943A
:1007800071056896EAE00C94EA28A8E1B0E0EBEC89
:10079000F3E00C94D22869837A838B839C832D8326
:1007A0003E834F83588789E0E82EF12CEC0EFD1E26
:1007B000CE010196B7010E9446068E010F5E1F4FC3
:1007C000CE010596B8010E9446068985823040F028
:1007D0008989823028F0C701B8010E94BE0601C095
:1007E0008FEF6896E6E00C94EE28A8E1B0E0EBEF1E
:1007F000F3E00C94D22869837A838B839C832D83C6
:100800003E834F83588789E0E82EF12CEC0EFD1EC5
:10081000CE010196B7010E9446068E010F5E1F4F62
:10082000CE010596B8010E9446068985823040F0C7
:100830008989823028F0C701B8010E94BE0601C034
:100840008FEF6896E6E00C94EE28A8E1B0E0EBE2CA
:10085000F4E00C94D22869837A838B839C832D8364
:100860003E834F83588789E0E82EF12CEC0EFD1E65
:10087000CE010196B7010E9446068E010F5E1F4F02
:10088000CE010596B8010E9446068985823040F067
:100890008989823028F0C701B8010E94BE0601C0D4
:1008A00081E06896E6E00C94EE28ACE0B0E0EBE581
:1008B000F4E00C94D62869837A838B839C83CE01E1
:1008C0000196BE016B5F7F4F0E9446068D8182308C
:1008D00061F1823050F1843021F48E81882351F10E
:1008E0002EC02F81388537FD20C06E812F31310514
:1008F0001CF06623F9F023C08EE190E0821B930B7D
:1009000029853A854B855C8504C056954795379572
:1009100027958A95D2F76623B1F05095409530958A
:1009200021953F4F4F4F5F4F0EC020E030E040E039
:1009300050E009C02FEF3FEF4FEF5FE704C020E02A
:1009400030E040E050E8B901CA012C96E2E00C9496
:10095000F228A8E0B0E0EFEAF4E00C94CE287B01A6
:100960008C01611571058105910519F482E0898377
:1009700060C083E089838EE1C82ED12CDC82CB82DB
:10098000ED82FE820F831887C801B7010E942205FD
:10099000FC013197F7FF3BC0222733272E1B3F0B6B
:1009A00057016801022E04C0D694C794B794A79447
:1009B0000A94D2F740E050E060E070E081E090E01F
:1009C000A0E0B0E004C0880F991FAA1FBB1F2A95A2
:1009D000D2F70197A109B1098E219F21A023B1234C
:1009E0000097A105B10521F041E050E060E070E022
:1009F0004A295B296C297D294D835E836F83788723
:100A00008EE190E08E1B9F0B9C838B8312C03097EE
:100A100081F00E2E04C0EE0CFF1C001F111F0A9463
:100A2000D2F7ED82FE820F831887CE1ADF0ADC82AE
:100A3000CB821A82CE0101960E9471052896EAE0C7
:100A40000C94EA28EF92FF920F931F937B018C0185
:100A500080E0E81680E0F80681E0080780E01807EB
:100A600088F48FEFE816F1040105110531F028F044
:100A700088E090E0A0E0B0E017C080E090E0A0E067
:100A8000B0E012C080E0E81680E0F80680E00807D9
:100A900081E0180728F088E190E0A0E0B0E004C011
:100AA00080E190E0A0E0B0E020E230E040E050E003
:100AB000281B390B4A0B5B0B04C016950795F7945E
:100AC000E7948A95D2F7F701E053FF4F8081281B06
:100AD000310941095109C9011F910F91FF90EF9010
:100AE0000895DF92EF92FF920F931F93FC01E48031
:100AF000F58006811781D1808081823048F480E0C2
:100B000090E0A0E1B0E0E82AF92A0A2B1B2BA5C04F
:100B1000843009F49FC0823021F4EE24FF24870141
:100B200005C0E114F1040105110519F4E0E0F0E05D
:100B300096C0628173819FEF623879070CF05BC0C9
:100B400022E83FEF261B370B2A3131052CF020E03D
:100B500030E040E050E02AC0B801A701022E04C0F6
:100B600076956795579547950A94D2F781E090E07E
:100B7000A0E0B0E004C0880F991FAA1FBB1F2A95F0
:100B8000D2F70197A109B1098E219F21A023B1239A
:100B90000097A105B10521F081E090E0A0E0B0E070
:100BA0009A01AB01282B392B4A2B5B2BDA01C901A7
:100BB0008F779070A070B07080349105A105B10559
:100BC00039F427FF09C0205C3F4F4F4F5F4F04C0EF
:100BD000215C3F4F4F4F5F4FE0E0F0E02030A0E05E
:100BE0003A07A0E04A07A0E45A0710F0E1E0F0E07D
:100BF00079018A0127C06038710564F5FB01E1586D
:100C0000FF4FD801C7018F779070A070B07080340B
:100C10009105A105B10539F4E7FE0DC080E490E02F
:100C2000A0E0B0E004C08FE390E0A0E0B0E0E80E08
:100C3000F91E0A1F1B1F17FF05C016950795F7948D
:100C4000E794319687E016950795F794E7948A958F
:100C5000D1F705C0EE24FF248701EFEFF0E06E2FFF
:100C6000679566276795902F9F77D794DD24D79453
:100C70008E2F8695492F462B582F5D29B701CA0123
:100C80001F910F91FF90EF90DF900895FC01DB0121
:100C9000408151812281622F6F7770E0221F2227CD
:100CA000221F9381892F880F822B282F30E0991FD4
:100CB0009927991F11969C93119721153105A9F534
:100CC000411551056105710511F482E037C082E8D4
:100CD0009FEF13969C938E9312979A01AB0167E056
:100CE000220F331F441F551F6A95D1F783E08C9361
:100CF0000DC0220F331F441F551F12968D919C91DA
:100D00001397019713969C938E931297203080E04F
:100D1000380780E0480780E4580758F314962D936D
:100D20003D934D935C93179708952F3F310579F4C8
:100D3000411551056105710519F484E08C930895FE
:100D400064FF03C081E08C9312C01C9210C02F5727
:100D5000304013963C932E93129783E08C9387E058
:100D6000440F551F661F771F8A95D1F7706414963C
:100D70004D935D936D937C93179708951F93DC01BA
:100D8000FB019C91923008F447C08081823008F4C6
:100D900043C0943051F411961C91843099F58181AF
:100DA000682F70E0611B71093FC0843021F09230E0
:100DB00031F48230B9F18181882389F12DC01196F7
:100DC0001C9111978230F1F081811817D9F4129695
:100DD0002D913C911397828193818217930794F010
:100DE00028173907BCF014968D919D910D90BC91F8
:100DF000A02D2481358146815781281739074A075C
:100E00005B0718F4112341F00AC082179307A40767
:100E1000B50740F4112319F061E070E005C06FEFF1
:100E20007FEF02C060E070E0CB011F910895DF9377
:100E3000CF93CDB7DEB7A7E2B0E0E7E2F0E0808184
:100E400080648C93A7E2B0E0E7E2F0E080818F77E6
:100E50008C93A7E2B0E0E7E2F0E0808180628C93BF
:100E6000A6E2B0E0E6E2F0E08081887F8C93A6E223
:100E7000B0E0E6E2F0E0808187608C93A6E2B0E02B
:100E8000E6E2F0E0808180688C93CF91DF91089555
:100E9000DF93CF9300D000D000D0CDB7DEB78C83E6
:100EA0007E836D831B821A8219828D819E810097B9
:100EB00009F442C08091E8018823D9F581E080934C
:100EC000E801A7E2B0E0E7E2F0E08081807E8C9369
:100ED000A7E2B0E0E7E2F0E090818C81892B8C936F
:100EE000A6E2B0E0E6E2F0E0808180648C93E6E286
:100EF000F0E0808182958F70882F90E081709070F3
:100F0000009721F48A818F5F8A83F1CFA6E2B0E057
:100F1000E6E2F0E0808180618C93E5E2F0E08081A0
:100F2000882F90E0ED81FE81918380831092E8010B
:100F300005C084E08B8302C082E08B838B81269680
:100F40000FB6F894DEBF0FBECDBFCF91DF910895ED
:100F5000DF93CF9300D000D000D0CDB7DEB78A8327
:100F60007C836B835E834D8319828B819C81009788
:100F7000D1F18D819E810097B1F18091E8018823A4
:100F800079F581E08093E8011092EC018B819C81DE
:100F90009093E7018093E6018D819E819093E50116
:100FA0008093E401A7E2B0E0E7E2F0E08081807E98
:100FB0008C93A7E2B0E0E7E2F0E090818A81892B90
:100FC0008C93A6E2B0E0E6E2F0E0808180648C934E
:100FD000A6E2B0E0E6E2F0E0808188608C9305C094
:100FE00084E0898302C082E08983898126960FB6D6
:100FF000F894DEBF0FBECDBFCF91DF910895DF9390
:10100000CF9300D00F92CDB7DEB79B838A8319822E
:101010008A819B81009709F454C0EA81FB81808119
:101020009181009709F44DC0EA81FB81848195810B
:10103000009709F446C0EA81FB8182819381009781
:1010400009F43FC08091E8018823C9F581E08093CD
:10105000E80181E08093EC018A819B819093EA0111
:101060008093E9011092EB01A7E2B0E0E7E2F0E043
:101070008081807E8C93A7E2B0E0E7E2F0E04081DF
:10108000E091E901F091EA01208131818091EB0149
:10109000882F90E0F901E80FF91F8081842B8C9351
:1010A000A6E2B0E0E6E2F0E0808180648C93A6E204
:1010B000B0E0E6E2F0E0808188608C9302C084E0DA
:1010C000898389810F900F900F90CF91DF910895C0
:1010D0001F920F920FB60F9211242F933F934F93AD
:1010E0005F936F937F938F939F93AF93BF93EF9390
:1010F000FF93DF93CF93CDB7DEB78091EC018823C8
:1011000041F58091E6019091E701009709F49CC0B8
:10111000A091E601B091E701E5E2F0E08081882F3F
:1011200090E08D939C93A6E2B0E0E6E2F0E080814F
:10113000877F8C931092E8018091E4019091E50102
:10114000009709F481C0E091E401F091E50109956F
:101150007BC08091EC01813009F076C0E091E9011B
:10116000F091EA01228133818091EB01882F90E098
:10117000880F991FF901E80FF91F8081918100976D
:1011800009F462C0E091E901F091EA012281338122
:101190008091EB01882F90E0880F991FD901A80F4B
:1011A000B91FE5E2F0E08081882F90E011969C93D2
:1011B0008E938091EB018F5F8093EB01E091E901C9
:1011C000F091EA0196818091EB01891720F5A7E261
:1011D000B0E0E7E2F0E08081807E8C93A7E2B0E0AF
:1011E000E7E2F0E04081E091E901F091EA0120813D
:1011F00031818091EB01882F90E0F901E80FF91F10
:101200008081842B8C93A6E2B0E0E6E2F0E080815E
:1012100080648C9319C0A6E2B0E0E6E2F0E0808141
:10122000877F8C931092E801E091E901F091EA0147
:1012300084819581009741F0E091E901F091EA0104
:101240000480F581E02D0995CF91DF91FF91EF9119
:10125000BF91AF919F918F917F916F915F914F91CE
:101260003F912F910F900FBE0F901F901895DF9315
:10127000CF93CDB7DEB72E970FB6F894DEBF0FBE73
:10128000CDBF81E062E041E00E94270E80E090E067
:10129000A0E0B0E48B879C87AD87BE876B857C859B
:1012A0008D859E8520E030E04AEF54E40E941F02C5
:1012B000DC01CB018F839887A987BA876F817885F6
:1012C00089859A8520E030E040E85FE30E942504AC
:1012D00088232CF481E090E09E838D833FC06F8152
:1012E000788589859A8520E03FEF4FE757E40E9493
:1012F000C50318164CF56B857C858D859E8520E091
:1013000030E040E251E40E941F02DC01CB01BC014D
:10131000CD010E944900DC01CB019E838D830FC06B
:1013200088EC90E09C838B838B819C810197F1F703
:101330009C838B838D819E8101979E838D838D817C
:101340009E81009769F714C06F81788589859A8599
:101350000E944900DC01CB019E838D838D819E819B
:101360009A83898389819A810197F1F79A83898386
:1013700081E062E040E00E94270E2E960FB6F894BE
:10138000DEBF0FBECDBFCF91DF910895DF93CF9326
:101390000F92CDB7DEB789838981982F917081E054
:1013A00063E0492F0E94270E89818695982F9170BE
:1013B00081E064E0492F0E94270E898186958695F9
:1013C000982F917081E065E0492F0E94270E898156
:1013D000869586958695982F917081E066E0492FD5
:1013E0000E94270E0F90CF91DF910895DF93CF9346
:1013F0000F92CDB7DEB7898381E060E040E00E94C4
:10140000270E81E061E040E00E94270E89818295ED
:101410008F700E94C6090E94370989810E94C609FF
:101420000E9437090F90CF91DF910895DF93CF93FA
:101430000F92CDB7DEB7898381E060E041E00E9482
:10144000270E81E061E040E00E94270E89818295AD
:101450008F700E94C6090E94370989810E94C609BF
:101460000E9437090F90CF91DF910895DF93CF93BA
:10147000CDB7DEB72E970FB6F894DEBF0FBECDBF47
:1014800080E090E0A0E2B2E48B879C87AD87BE87C6
:101490006B857C858D859E8520E030E04AEF54E4A5
:1014A0000E941F02DC01CB018F839887A987BA872E
:1014B0006F81788589859A8520E030E040E85FE398
:1014C0000E94250488232CF481E090E09E838D8384
:1014D0003FC06F81788589859A8520E03FEF4FE78F
:1014E00057E40E94C50318164CF56B857C858D85E5
:1014F0009E8520E030E040E251E40E941F02DC01C2
:10150000CB01BC01CD010E944900DC01CB019E83CF
:101510008D830FC088EC90E09C838B838B819C81B2
:101520000197F1F79C838B838D819E8101979E8328
:101530008D838D819E81009769F714C06F817885B6
:1015400089859A850E944900DC01CB019E838D83A9
:101550008D819E819A83898389819A810197F1F790
:101560009A83898381E060E040E00E94270E81E059
:1015700061E040E00E94270E82E00E94C6090E94BE
:10158000370982E00E94C6090E94370988E00E945C
:10159000C6090E9437098CE00E94F60981E00E948A
:1015A000F6092E960FB6F894DEBF0FBECDBFCF91D1
:1015B000DF910895DF93CF93CDB7DEB781E00E942E
:1015C000F609CF91DF910895DF93CF9300D000D03B
:1015D000CDB7DEB79C838B831A8219828B819C8165
:1015E0000097D9F00EC08981282F30E08B819C8133
:1015F000FC01E20FF31F80810E94160A89818F5F30
:1016000089838981282F30E08B819C81FC01E20F46
:10161000F31F8081882339F702C082E08A838A81A0
:101620000F900F900F900F90CF91DF9108950F932F
:101630001F93DF93CF93CDB7DEB760970FB6F894C3
:10164000DEBF0FBECDBF6D877E878F87988B8AE008
:10165000FE013396DF01982F1D929A95E9F71A82C1
:101660008D859E85AF85B8890097A105B10521F4C8
:1016700080E30E94160A7BC08D859E85AF85B88960
:10168000BB230CF054C08DE20E94160A8D859E8506
:10169000AF85B889B095A095909581959F4FAF4F34
:1016A000BF4F8D879E87AF87B88B41C08A81082F37
:1016B00010E08D859E85AF85B8892AE030E040E056
:1016C00050E0BC01CD010E94AB28DC01CB01282FEA
:1016D000CE010396FC01E00FF11F20838A81482F81
:1016E00050E08A81282F30E0CE010396FC01E20F02
:1016F000F31F8081282F205DCE010396FC01E40FAB
:10170000F51F20838D859E85AF85B8892AE030E05E
:1017100040E050E0BC01CD010E94AB28DA01C901D4
:101720008D879E87AF87B88B8A818F5F8A838D85EF
:101730009E85AF85B889181619061A061B060CF483
:10174000B5CF8A8189838981882F90E09C012150BF
:101750003040CE010396FC01E20FF31F80810E940E
:10176000160A8981815089838981882361F760966F
:101770000FB6F894DEBF0FBECDBFCF91DF911F91A2
:101780000F910895DF93CF93CDB7DEB7A4970FB62F
:10179000F894DEBF0FBECDBF9CA38BA380E2FE01F9
:1017A0003396DF01982F1D929A95E9F71A8280E609
:1017B00090E00E94E40A1A8223C08BA19CA1817050
:1017C0009070882359F08A81282F30E0CE0103964B
:1017D000FC01E20FF31F81E0808309C08A81282F7A
:1017E00030E0CE010396FC01E20FF31F10828BA1C3
:1017F0009CA1959587959CA38BA38A818F5F8A83F3
:101800008A818031D0F280E061E00E94EF0C80E1BB
:1018100089838981882F90E09C0121503040CE013E
:101820000396FC01E20FF31F8081882321F480E3FB
:101830000E94160A03C081E30E94160A8981815022
:1018400089838981882329F7A4960FB6F894DEBF8F
:101850000FBECDBFCF91DF910895DF93CF93CDB76A
:10186000DEB7A5970FB6F894DEBF0FBECDBF6D8F64
:101870007E8F8F8F98A3CE0105969AA389A3E4ED5E
:10188000F1E0FCA3EBA3F0E1FDA3EBA1FCA1008040
:101890008BA19CA101969CA38BA3E9A1FAA1008234
:1018A00089A19AA101969AA389A39DA191509DA374
:1018B000EDA1EE2351F71B8220C08D8D8F708A839E
:1018C0008D8D9E8DAF8DB8A1689413F8B595A795B1
:1018D000979587951694D1F78D8F9E8FAF8FB8A36C
:1018E0008B81282F30E0CE014596FC01E20FF31FDB
:1018F0008A8180838B818F5F8B838B818830E8F234
:1019000083E690E00E94E40A87E08C831AC08C8111
:10191000282F332727FD3095CE014596FC01E20F95
:10192000F31F808189838981282F30E0CE010596BD
:10193000FC01E20FF31F80810E94160A8C81815006
:101940008C838C8188231CF7A5960FB6F894DEBF94
:101950000FBECDBFCF91DF910895DF93CF93CDB769
:10196000DEB727970FB6F894DEBF0FBECDBF9C83BE
:101970008B836D834E832F838D81882F90E0880F1A
:10198000991F880F991F880F991F8A838A81806405
:101990008A838A810E94F60919820EC08981282FC4
:1019A00030E08B819C81FC01E20FF31F80810E945B
:1019B000160A89818F5F89838981883078F38E81C7
:1019C0006F810E94EF0C8D810E94160A27960FB638
:1019D000F894DEBF0FBECDBFCF91DF910895DF93A6
:1019E000CF9300D000D0CDB7DEB78B836C831A8243
:1019F0008C81882319F48B81898309C08C81813083
:101A000021F48B81805C898302C081E08A83898193
:101A10008068898389810E94F6098A810F900F90DE
:101A20000F900F90CF91DF910895DF93CF93CDB7B3
:101A3000DEB728970FB6F894DEBF0FBECDBF8A83FE
:101A40006B834C8319828B81883008F0F4C08C81C1
:101A5000813009F072C08A81282F30E038872F83C7
:101A60008F8198858130910549F12F813885223009
:101A700031052CF48F819885009761F05BC02F8130
:101A800038852230310571F18F8198858330910539
:101A9000E9F150C0AAE3B0E0EAE3F0E08081482F2A
:101AA0008B81282F30E081E090E0022E02C0880F69
:101AB000991F0A94E2F7842B8C93BFC0A7E3B0E090
:101AC000E7E3F0E08081482F8B81282F30E081E030
:101AD00090E0022E02C0880F991F0A94E2F7842B2F
:101AE0008C93ABC0A4E3B0E0E4E3F0E08081482F46
:101AF0008B81282F30E081E090E0022E02C0880F19
:101B0000991F0A94E2F7842B8C9397C0A1E3B0E06D
:101B1000E1E3F0E08081482F8B81282F30E081E0E5
:101B200090E0022E02C0880F991F0A94E2F7842BDE
:101B30008C9383C081E0898380C08C81882309F0E5
:101B400077C08A81282F30E03E832D838D819E814E
:101B50008130910559F12D813E81223031052CF4DF
:101B60008D819E81009769F060C02D813E81223079
:101B7000310589F18D819E818330910509F440C042
:101B800054C0AAE3B0E0EAE3F0E08081482F8B8103
:101B9000282F30E081E090E0022E02C0880F991FCC
:101BA0000A94E2F7809584238C9347C0A7E3B0E0C2
:101BB000E7E3F0E08081482F8B81282F30E081E03F
:101BC00090E0022E02C0880F991F0A94E2F78095D8
:101BD00084238C9332C0A4E3B0E0E4E3F0E080819E
:101BE000482F8B81282F30E081E090E0022E02C048
:101BF000880F991F0A94E2F7809584238C931DC067
:101C0000A1E3B0E0E1E3F0E08081482F8B81282F51
:101C100030E081E090E0022E02C0880F991F0A9404
:101C2000E2F7809584238C9308C081E0898305C006
:101C300081E0898302C081E08983898128960FB67B
:101C4000F894DEBF0FBECDBFCF91DF910895DF9333
:101C5000CF93CDB7DEB728970FB6F894DEBF0FBE8F
:101C6000CDBF8A836B834C8319828B81883008F0C7
:101C7000F4C08C81813009F072C08A81282F30E055
:101C800038872F838F8198858130910549F12F8185
:101C90003885223031052CF48F819885009761F0CA
:101CA0005BC02F8138852230310571F18F81988595
:101CB00083309105E9F150C0ABE3B0E0EBE3F0E035
:101CC0008081482F8B81282F30E081E090E0022E28
:101CD00002C0880F991F0A94E2F7842B8C93BFC02F
:101CE000A8E3B0E0E8E3F0E08081482F8B81282F63
:101CF00030E081E090E0022E02C0880F991F0A9424
:101D0000E2F7842B8C93ABC0A5E3B0E0E5E3F0E011
:101D10008081482F8B81282F30E081E090E0022ED7
:101D200002C0880F991F0A94E2F7842B8C9397C006
:101D3000A2E3B0E0E2E3F0E08081482F8B81282F1E
:101D400030E081E090E0022E02C0880F991F0A94D3
:101D5000E2F7842B8C9383C081E0898380C08C81DF
:101D6000882309F077C08A81282F30E03E832D83B5
:101D70008D819E818130910559F12D813E812230E6
:101D800031052CF48D819E81009769F060C02D8112
:101D90003E812230310589F18D819E81833091050C
:101DA00009F440C054C0ABE3B0E0EBE3F0E0808165
:101DB000482F8B81282F30E081E090E0022E02C076
:101DC000880F991F0A94E2F7809584238C9347C06B
:101DD000A8E3B0E0E8E3F0E08081482F8B81282F72
:101DE00030E081E090E0022E02C0880F991F0A9433
:101DF000E2F7809584238C9332C0A5E3B0E0E5E35D
:101E0000F0E08081482F8B81282F30E081E090E046
:101E1000022E02C0880F991F0A94E2F7809584234E
:101E20008C931DC0A2E3B0E0E2E3F0E08081482F94
:101E30008B81282F30E081E090E0022E02C0880FD5
:101E4000991F0A94E2F7809584238C9308C081E05F
:101E5000898305C081E0898302C081E0898389810B
:101E600028960FB6F894DEBF0FBECDBFCF91DF919D
:101E70000895DF93CF9300D000D00F92CDB7DEB797
:101E80008A836B8319828B81883008F072C08A81C3
:101E9000282F30E03D832C838C819D8181309105FA
:101EA00049F12C813D81223031052CF48C819D81BA
:101EB000009761F05BC02C813D812230310571F1CA
:101EC0008C819D8183309105E9F150C0ABE3B0E096
:101ED000EBE3F0E08081482F8B81282F30E081E018
:101EE00090E0022E02C0880F991F0A94E2F784271F
:101EF0008C9341C0A8E3B0E0E8E3F0E08081482F94
:101F00008B81282F30E081E090E0022E02C0880F04
:101F1000991F0A94E2F784278C932DC0A5E3B0E0C3
:101F2000E5E3F0E08081482F8B81282F30E081E0CD
:101F300090E0022E02C0880F991F0A94E2F78427CE
:101F40008C9319C0A2E3B0E0E2E3F0E08081482F77
:101F50008B81282F30E081E090E0022E02C0880FB4
:101F6000991F0A94E2F784278C9305C081E0898346
:101F700002C081E0898389810F900F900F900F90AC
:101F80000F90CF91DF910895DF93CF93CDB7DEB758
:101F900027970FB6F894DEBF0FBECDBF8A836B8341
:101FA0005D834C8319828B81883008F074C08A81EC
:101FB000282F30E03F832E834E815F8141305105D1
:101FC00059F18E819F818230910534F42E813F81B9
:101FD0002115310569F05CC04E815F8142305105A9
:101FE00079F18E819F818330910509F43DC050C005
:101FF000E9E3F0E08081282F30E08B81882F90E0AA
:10200000A90102C0559547958A95E2F7CA018170EA
:10201000EC81FD81808341C0E6E3F0E08081282FE0
:1020200030E08B81882F90E0A90102C0559547953B
:102030008A95E2F7CA018170EC81FD8180832DC011
:10204000E3E3F0E08081282F30E08B81882F90E05F
:10205000A90102C0559547958A95E2F7CA0181709A
:10206000EC81FD81808319C0E0E3F0E08081282FBE
:1020700030E08B81882F90E0A90102C055954795EB
:102080008A95E2F7CA018170EC81FD81808305C0E9
:1020900081E0898302C081E08983898127960FB618
:1020A000F894DEBF0FBECDBFCF91DF910895DF93CF
:1020B000CF9300D000D00F92CDB7DEB78A836B8369
:1020C00019828A81282F30E03D832C838C819D8169
:1020D00081309105D1F02C813D81223031052CF4E5
:1020E0008C819D81009761F01FC02C813D81223041
:1020F000310581F08C819D818330910581F014C080
:10210000EAE3F0E08B81808311C0E7E3F0E08B81AC
:1021100080830CC0E4E3F0E08B81808307C0E1E3BF
:10212000F0E08B81808302C081E0898389810F90F8
:102130000F900F900F900F90CF91DF910895DF9344
:10214000CF9300D000D00F92CDB7DEB78A836B83D8
:1021500019828A81282F30E03D832C838C819D81D8
:1021600081309105D1F02C813D81223031052CF454
:102170008C819D81009761F01FC02C813D812230B0
:10218000310581F08C819D818330910581F014C0EF
:10219000EBE3F0E08B81808311C0E8E3F0E08B811A
:1021A00080830CC0E5E3F0E08B81808307C0E2E32D
:1021B000F0E08B81808302C081E0898389810F9068
:1021C0000F900F900F900F90CF91DF910895DF93B4
:1021D000CF93CDB7DEB77894CF91DF910895DF9399
:1021E000CF93CDB7DEB7F894CF91DF910895EF92FA
:1021F000FF920F931F93DF93CF93CDB7DEB72D9749
:102200000FB6F894DEBF0FBECDBF9B878A877D8750
:102210006C871A821B821C821D82198282E08E8347
:102220001F8218861986CE0106960E940F1685E039
:102230000E94871B80E00E94A71D23ED32E185E00C
:10224000B9010E94D81C82E00E94871B22E133E181
:1022500082E0B9010E94D81C8091ED019091EE01BD
:102260000097D1F38091EF019091F0010097A1F3D5
:102270008091F1019091F201009771F38091F40146
:10228000882309F048C02091EF013091F00180913E
:10229000ED019091EE01A901481B590BCA01CC0137
:1022A000A0E0B0E08A839B83AC83BD832091F101E1
:1022B0003091F2018091EF019091F001A901481B4A
:1022C000590BCA01CC01A0E0B0E0BC01CD010E94D5
:1022D000A9047B018C016A817B818C819D810E9494
:1022E000A9049B01AC01C801B7010E941903DC01DC
:1022F000CB01BC01CD0120E030E048EC52E40E946B
:102300001F02DC01CB01BC01CD010E944900DC01B0
:10231000CB01898327C12091EF013091F001809199
:10232000ED019091EE012817390708F12091EF0196
:102330003091F0018091ED019091EE01A901481BCF
:10234000590BCA019C0140E050E08091F401882FB4
:1023500090E0A0E0B0E0DC0199278827820F931F6E
:10236000A41FB51F8A839B83AC83BD832BC02091A0
:10237000EF013091F0018091ED019091EE0128176D
:10238000390700F52091ED013091EE018091EF01C8
:102390009091F001A901481B590BCA019C0140E032
:1023A00050E08091F401882F90E0A0E0B0E0DC01E3
:1023B00099278827820F931FA41FB51F8A839B83A9
:1023C000AC83BD838091F5018823A9F52091F101AB
:1023D0003091F2018091EF019091F001A901481B29
:1023E000590BCA01CC01A0E0B0E0BC01CD010E94B4
:1023F000A9047B018C016A817B818C819D810E9473
:10240000A9049B01AC01C801B7010E941903DC01BA
:10241000CB01BC01CD0120E030E048EC52E40E9449
:102420001F02DC01CB01BC01CD010E944900DC018F
:10243000CB01898397C02091F1013091F201809105
:10244000EF019091F0012817390708F440C08091FE
:10245000F1019091F201282F8091EF019091F0010C
:10246000281B8091F501882F90E0A0E0B0E0DC010E
:1024700099278827820F89838981882F90E0A0E09F
:10248000B0E0BC01CD010E94A9047B018C016A81EE
:102490007B818C819D810E94A9049B01AC01C801B4
:1024A000B7010E941903DC01CB01BC01CD0120E082
:1024B00030E048EC52E40E941F02DC01CB01BC0179
:1024C000CD010E944900DC01CB0189834BC02091E2
:1024D000F1013091F2018091EF019091F001281704
:1024E000390708F03FC08091EF019091F001282F4B
:1024F0008091F1019091F201281B8091F501882FC4
:1025000090E0A0E0B0E0DC0199278827820F898362
:102510008981882F90E0A0E0B0E0BC01CD010E944D
:10252000A9047B018C016A817B818C819D810E9441
:10253000A9049B01AC01C801B7010E941903DC0189
:10254000CB01BC01CD0120E030E048EC52E40E9418
:102550001F02DC01CB01BC01CD010E944900DC015E
:10256000CB018983EC85FD858A819B81AC81BD810E
:1025700080839183A283B383EA85FB8589818083ED
:1025800082E00E940E1C81E00E94951C2D960FB6E1
:10259000F894DEBF0FBECDBFCF91DF911F910F9199
:1025A000FF90EF900895DF93CF93CDB7DEB7809182
:1025B000F6018F5F8093F6018091F601813039F446
:1025C0000E949C1D9093EE018093ED0128C08091A4
:1025D000F601823071F40E949C1D9093F00180936B
:1025E000EF0181E00E94A71D8091F3018093F40127
:1025F00016C08091F601833091F40E949C1D909347
:10260000F2018093F10185E00E940E1C9091F3018C
:102610008091F401292F281B822F8093F501CF91FF
:10262000DF910895DF93CF93CDB7DEB78091F301AB
:102630008F5F8093F301CF91DF910895DF93CF9364
:10264000CDB7DEB72A970FB6F894DEBF0FBECDBF69
:102650008E8378876F831B821A8219821D821C8267
:102660008F819885009709F48EC08E81282F30E0E5
:102670003A87298789859A858330910509F441C075
:1026800029853A85243031057CF489859A85813005
:10269000910539F129853A852230310554F589852E
:1026A0009A850097B1F055C029853A8525303105C6
:1026B000C1F189859A85853091055CF129853A8536
:1026C00026303105B1F189859A8587309105C9F1A8
:1026D00040C09E012C5F3F4F80E0B9010E94480737
:1026E0003AC09E012C5F3F4F81E0B9010E9448072C
:1026F00032C09E012C5F3F4F82E0B9010E94480723
:102700002AC09E012C5F3F4F83E0B9010E94480719
:1027100022C09E012C5F3F4F84E0B9010E94480710
:102720001AC09E012C5F3F4F85E0B9010E94480707
:1027300012C09E012C5F3F4F86E0B9010E944807FE
:102740000AC09E012C5F3F4F87E0B9010E944807F5
:1027500002C081E08B838C819D81CC01A0E0B0E040
:1027600028E833E140E050E0BC01CD010E9456284A
:10277000DC01CB01892F9A2FAB2FBB27EF81F88586
:102780009183808302C082E08B838B812A960FB66F
:10279000F894DEBF0FBECDBFCF91DF910895EF92C9
:1027A000FF920F931F93DF93CF93CDB7DEB72E9792
:1027B0000FB6F894DEBF0FBECDBF88877A876987D2
:1027C0005C874B873E872D871D821F821E82198260
:1027D0001A821B821C828D859E85009709F464C035
:1027E0009E012A5F3F4F8885B9010E941E1389858B
:1027F0009A852AE030E0B9010E947528CB017C015E
:1028000000E010E08B859C852AE030E0B9010E9451
:102810007528CB019C0140E050E0C801B7010E943F
:102820005628DC01CB0189839A83AB83BC838E81DC
:102830009F819C0140E050E089819A81AB81BC81FD
:10284000BC01CD010E948928DA01C90189839A83DC
:10285000AB83BC8389819A81AB81BC8124E630E063
:1028600040E050E0BC01CD010E9456289B01AC0124
:102870008B859C85CC01A0E0B0E079018A01E81A43
:10288000F90A0A0B1B0BD801C70189839A83AB8312
:10289000BC83ED85FE8589819A81AB81BC81808373
:1028A0009183A283B38302C082E08D838D812E96B3
:1028B0000FB6F894DEBF0FBECDBFCF91DF911F9151
:1028C0000F91FF90EF900895AF92BF92CF92DF9259
:1028D000EF92FF920F931F93DF93CF93CDB7DEB7A5
:1028E00064970FB6F894DEBF0FBECDBF6D837E83B5
:1028F0008F83988729873A874B875C87ED86FE868A
:102900000F87188BA98ABA8ACB8ADC8A19821A8225
:102910001B821C8229893A894B895C898D859E8519
:10292000AF85B88979018A01E81AF90A0A0B1B0BED
:1029300029A13AA14BA15CA18D819E81AF81B8856F
:10294000281B390B4A0B5B0BC801B7010E945628A4
:10295000DC01CB0189839A83AB83BC8329853A85CB
:102960004B855C858D819E81AF81B885281B390B95
:102970004A0B5B0B89819A81AB81BC81BC01CD0183
:102980000E94AB28DA01C90189839A83AB83BC8397
:1029900029813A814B815C818D859E85AF85B8897F
:1029A000820F931FA41FB51F89839A83AB83BC83B7
:1029B00089819A81AB81BC81BC01CD0164960FB63F
:1029C000F894DEBF0FBECDBFCF91DF911F910F9165
:1029D000FF90EF90DF90CF90BF90AF900895DF937E
:1029E000CF93CDB7DEB7EAE3F0E08EEF8083E7E385
:1029F000F0E08FEF8083E4E3F0E08FEF8083E1E3AA
:102A0000F0E08AEB8083EBE3F0E01082E8E3F0E0B3
:102A10001082E5E3F0E01082E2E3F0E084E08083FE
:102A2000CF91DF910895DF93CF93CDB7DEB727978E
:102A30000FB6F894DEBF0FBECDBF9B838A83198289
:102A40008A819B81009709F4DEC08091F701882379
:102A500009F0D6C081E08093F701EA81FB81818192
:102A6000282F30E03F832E838E819F818130910516
:102A700021F12E813F81223031052CF48E819F81FE
:102A8000009761F046C02E813F812230310521F14F
:102A90008E819F818330910571F13BC0A3E5B0E049
:102AA000E3E5F0E080818F7B8C93A3E5B0E0E3E584
:102AB000F0E08081877F8C932CC0A3E5B0E0E3E554
:102AC000F0E0808180648C93A3E5B0E0E3E5F0E082
:102AD0008081877F8C931DC0A3E5B0E0E3E5F0E043
:102AE00080818F7B8C93A3E5B0E0E3E5F0E080810B
:102AF00088608C930EC0A3E5B0E0E3E5F0E0808150
:102B000080648C93A3E5B0E0E3E5F0E08081886029
:102B10008C93A3E5B0E0E3E5F0E080818F7C8C93BB
:102B2000EA81FB818181882329F0EA81FB8181810F
:102B30008230E1F4EA81FB8182818430A0F4A3E554
:102B4000B0E0E3E5F0E08081282FEA81FB8182811B
:102B5000882F90E082959295907F9827807F982784
:102B6000822B8C933BC081E0898338C0EA81FB8152
:102B70008181833029F0EA81FB818181813071F587
:102B8000EA81FB818281282F30E03D832C838C8178
:102B90009D818430910581F02C813D812530310566
:102BA00099F08C819D810097B9F4E3E5F0E0A3E50D
:102BB000B0E08C91808312C0A3E5B0E0E3E5F0E0E3
:102BC000808180628C930AC0A3E5B0E0E3E5F0E089
:102BD000808180638C9302C081E08983A3E5B0E0AB
:102BE000E3E5F0E08081887F8C93A3E5B0E0E3E546
:102BF000F0E09081EA81FB818081892B8C9305C074
:102C000084E0898302C082E08983898127960FB698
:102C1000F894DEBF0FBECDBFCF91DF910895DF9353
:102C2000CF93CDB7DEB729970FB6F894DEBF0FBEAE
:102C3000CDBF9B838A8319828A819B81009709F487
:102C400071C18091F801882309F069C181E0809306
:102C5000F801AFE4B0E0EFE4F0E080818C7F8C938A
:102C6000AEE4B0E0EEE4F0E08081877E8C93AFE4E8
:102C7000B0E0EFE4F0E08081982FEA81FB81818170
:102C80008370892B8C93AEE4B0E0EEE4F0E08081B9
:102C9000282FEA81FB81818186958695882F90E097
:102CA00083709070880F991F880F991F880F991F44
:102CB000822B8C93EA81FB818181282F30E0398738
:102CC0002887888599858C309105B4F428853985C5
:102CD000253031050CF070C08885998584309105C8
:102CE000C4F428853985213031050CF065C088850C
:102CF0009985009771F0FFC0288539852C30310502
:102D000041F0888599850E978230910508F0F3C0CF
:102D100053C0EA81FB8182818430F0F4AFE4B0E0FB
:102D2000EFE4F0E080818F738C93AFE4B0E0EFE4E8
:102D3000F0E08081282FEA81FB818281882F90E05A
:102D40000024969587950794969587950794982FD4
:102D5000802D822B8C9307C0EA81FB818281863093
:102D600011F081E08983EA81FB8183818430D8F48A
:102D7000AFE4B0E0EFE4F0E080818F7C8C93AFE4CF
:102D8000B0E0EFE4F0E08081282FEA81FB818381CD
:102D9000882F90E082959295907F9827807F982742
:102DA000822B8C93AAC0EA81FB818381863009F44F
:102DB000A4C081E08983A1C0EA81FB818281282FA0
:102DC00030E03F832E838E819F818430910519F1FD
:102DD0002E813F81253031052CF48E819F81009713
:102DE00061F037C02E813F812530310519F18E8188
:102DF0009F818630910579F12CC0AFE4B0E0EFE41B
:102E0000F0E080818F738C93AFE4B0E0EFE4F0E00A
:102E100080818C9320C0AFE4B0E0EFE4F0E08081EB
:102E20008F738C93AFE4B0E0EFE4F0E080818068D2
:102E30008C9311C0AFE4B0E0EFE4F0E080818F73D9
:102E40008C93AFE4B0E0EFE4F0E08081806C8C9391
:102E500002C081E08983EA81FB818381282F30E0F1
:102E60003D832C838C819D818430910519F12C81C7
:102E70003D81253031052CF48C819D81009761F0D6
:102E800037C02C813D812530310519F18C819D8120
:102E90008630910591F12CC0AFE4B0E0EFE4F0E0B2
:102EA00080818F7C8C93AFE4B0E0EFE4F0E0808130
:102EB0008C9323C0AFE4B0E0EFE4F0E080818F7C3E
:102EC0008C93AFE4B0E0EFE4F0E0808180628C931B
:102ED00014C0AFE4B0E0EFE4F0E080818F7C8C932D
:102EE000AFE4B0E0EFE4F0E0808180638C9305C054
:102EF00081E0898302C081E08983AEE4B0E0EEE442
:102F0000F0E08081887F8C93AEE4B0E0EEE4F0E006
:102F10009081EA81FB818081892B8C9305C084E0BC
:102F2000898302C082E08983898129960FB6F8944B
:102F3000DEBF0FBECDBFCF91DF910895DF93CF935A
:102F4000CDB7DEB727970FB6F894DEBF0FBECDBF63
:102F50009B838A8319828A819B81009709F4DEC052
:102F60008091F901882309F0D6C081E08093F901AE
:102F7000EA81FB818181282F30E03F832E838E817F
:102F80009F818130910521F12E813F8122303105D1
:102F90002CF48E819F81009761F046C02E813F8185
:102FA0002230310521F18E819F818330910571F1AD
:102FB0003BC0A5E4B0E0E5E4F0E080818F7B8C933A
:102FC000A5E4B0E0E5E4F0E08081877F8C932CC03D
:102FD000A5E4B0E0E5E4F0E0808180648C93A5E4B2
:102FE000B0E0E5E4F0E08081877F8C931DC0A5E42C
:102FF000B0E0E5E4F0E080818F7B8C93A5E4B0E065
:10300000E5E4F0E0808188608C930EC0A5E4B0E038
:10301000E5E4F0E0808180648C93A5E4B0E0E5E431
:10302000F0E0808188608C93A5E4B0E0E5E4F0E016
:1030300080818F7C8C93EA81FB818181882329F0B8
:10304000EA81FB8181818230E1F4EA81FB81828126
:103050008430A0F4A5E4B0E0E5E4F0E08081282F1E
:10306000EA81FB818281882F90E082959295907F02
:103070009827807F9827822B8C933BC081E089839F
:1030800038C0EA81FB818181833029F0EA81FB81AC
:103090008181813071F5EA81FB818281282F30E0C6
:1030A0003D832C838C819D818430910581F02C811E
:1030B0003D812530310599F08C819D810097B9F4CF
:1030C000E5E4F0E0A5E4B0E08C91808312C0A5E4D3
:1030D000B0E0E5E4F0E0808180628C930AC0A5E472
:1030E000B0E0E5E4F0E0808180638C9302C081E091
:1030F0008983A5E4B0E0E5E4F0E08081887F8C93EB
:10310000A5E4B0E0E5E4F0E09081EA81FB81808114
:10311000892B8C9305C084E0898302C082E0898377
:10312000898127960FB6F894DEBF0FBECDBFCF9131
:10313000DF910895DF93CF9300D000D000D0CDB7BA
:10314000DEB79B838A836C8319828A819B81009777
:1031500009F460C0A3E5B0E0E3E5F0E080818F7C96
:103160008C93EA81FB818181882329F0EA81FB81AC
:1031700081818230C1F48C81843090F4A3E5B0E089
:10318000E3E5F0E08081282F8C81882F90E0829504
:103190009295907F9827807F9827822B8C933CC0B4
:1031A00081E0898339C0EA81FB818181833029F004
:1031B000EA81FB818181813079F58C81282F30E093
:1031C0003E832D838D819E818430910581F02D81F8
:1031D0003E812530310599F08D819E810097B9F4AB
:1031E000E3E5F0E0A3E5B0E08C91808315C0A3E5B2
:1031F000B0E0E3E5F0E0808180628C930DC0A3E550
:10320000B0E0E3E5F0E0808180638C9305C081E06D
:10321000898302C082E08983898126960FB6F8945B
:10322000DEBF0FBECDBFCF91DF910895DF93CF9367
:10323000CDB7DEB728970FB6F894DEBF0FBECDBF6F
:103240009B838A836C8319828A819B81009709F40E
:10325000A5C0EA81FB818181282F30E038872F8348
:103260008F8198858C309105ACF42F81388525307D
:1032700031050CF042C08F81988584309105BCF4F3
:103280002F81388521303105C4F58F8198850097CD
:1032900071F081C02F8138852C30310541F08F814C
:1032A00098850E978230910508F075C026C08C81F4
:1032B0008430E0F4AFE4B0E0EFE4F0E080818F73BD
:1032C0008C93AFE4B0E0EFE4F0E08081282F8C81B4
:1032D000882F90E00024969587950794969587957A
:1032E0000794982F802D822B8C935AC08C81863026
:1032F00009F456C081E0898353C08C81282F30E0C7
:103300003E832D838D819E818430910519F12D811D
:103310003E81253031052CF48D819E81009761F02E
:1033200037C02D813E812530310519F18D819E8177
:1033300086309105A9F12CC0AFE4B0E0EFE4F0E0F5
:1033400080818F738C93AFE4B0E0EFE4F0E0808194
:103350008C9326C0AFE4B0E0EFE4F0E080818F739F
:103360008C93AFE4B0E0EFE4F0E0808180688C9370
:1033700017C0AFE4B0E0EFE4F0E080818F738C938E
:10338000AFE4B0E0EFE4F0E08081806C8C9308C0A3
:1033900081E0898305C081E0898302C082E089835E
:1033A000898128960FB6F894DEBF0FBECDBFCF91AE
:1033B000DF910895DF93CF93CDB7DEB728970FB68F
:1033C000F894DEBF0FBECDBF9B838A836C831982C6
:1033D0008A819B81009709F4A2C0EA81FB818181E7
:1033E000282F30E038872F838F8198858C30910586
:1033F000ACF42F813885253031050CF03FC08F812A
:10340000988584309105BCF42F81388521303105B1
:10341000ACF58F819885009771F07EC02F8138853B
:103420002C30310541F08F8198850E9782309105BF
:1034300008F072C023C08C818430C8F4AFE4B0E0DF
:10344000EFE4F0E080818F7C8C93AFE4B0E0EFE4B8
:10345000F0E08081282F8C81882F90E082959295D2
:10346000907F9827807F9827822B8C935AC08C81DD
:10347000863009F456C081E0898353C08C81282F9F
:1034800030E03E832D838D819E818430910519F13A
:103490002D813E81253031052CF48D819E81009750
:1034A00061F037C02D813E812530310519F18D81C4
:1034B0009E8186309105A9F12CC0AFE4B0E0EFE425
:1034C000F0E080818F7C8C93AFE4B0E0EFE4F0E03B
:1034D00080818C9326C0AFE4B0E0EFE4F0E080811F
:1034E0008F7C8C93AFE4B0E0EFE4F0E08081806209
:1034F0008C9317C0AFE4B0E0EFE4F0E080818F7C04
:103500008C93AFE4B0E0EFE4F0E0808180638C93D3
:1035100008C081E0898305C081E0898302C082E020
:103520008983898128960FB6F894DEBF0FBECDBF80
:10353000CF91DF910895DF93CF93CDB7DEB7289772
:103540000FB6F894DEBF0FBECDBF9B838A836C831A
:1035500019828A819B81009709F4CDC0EA81FB81A1
:103560008181282F30E038872F838F8198858130A3
:10357000910521F12F813885223031052CF48F817E
:103580009885009761F046C02F813885223031053B
:1035900021F18F8198858330910571F13BC0A5E4BD
:1035A000B0E0E5E4F0E080818F7B8C93A5E4B0E0AF
:1035B000E5E4F0E08081877F8C932CC0A5E4B0E047
:1035C000E5E4F0E0808180648C93A5E4B0E0E5E47C
:1035D000F0E08081877F8C931DC0A5E4B0E0E5E436
:1035E000F0E080818F7B8C93A5E4B0E0E5E4F0E02F
:1035F000808188608C930EC0A5E4B0E0E5E4F0E043
:10360000808180648C93A5E4B0E0E5E4F0E0808103
:1036100088608C93A5E4B0E0E5E4F0E080818F7CE5
:103620008C93EA81FB818181882329F0EA81FB81E7
:1036300081818230C1F48C81843090F4A5E4B0E0C3
:10364000E5E4F0E08081282F8C81882F90E082953E
:103650009295907F9827807F9827822B8C9339C0F2
:1036600081E0898336C0EA81FB818181833029F042
:10367000EA81FB818181813061F58C81282F30E0E6
:103680003E832D838D819E818430910581F02D8133
:103690003E812530310599F08D819E810097B9F4E6
:1036A000E5E4F0E0A5E4B0E08C91808312C0A5E4ED
:1036B000B0E0E5E4F0E0808180628C930AC0A5E48C
:1036C000B0E0E5E4F0E0808180638C9302C081E0AB
:1036D0008983A5E4B0E0E5E4F0E08081887F8C9305
:1036E000A5E4B0E0E5E4F0E09081EA81FB8180812F
:1036F000892B8C9302C082E08983898128960FB63A
:10370000F894DEBF0FBECDBFCF91DF910895DF9358
:10371000CF9300D000D0CDB7DEB78A8319828A81DB
:10372000282F30E03C832B838B819C818330910553
:1037300009F442C02B813C81243031057CF48B811B
:103740009C818130910541F12B813C8122303105F2
:103750005CF58B819C810097B9F056C02B813C8130
:1037600025303105C9F18B819C818530910564F14B
:103770002B813C812630310509F43EC08B819C8130
:103780008730910589F140C0A9E5B0E0E9E5F0E0B6
:10379000808181608C933AC0A9E5B0E0E9E5F0E072
:1037A000808182608C9332C0A9E5B0E0E9E5F0E069
:1037B000808184608C932AC0A9E5B0E0E9E5F0E05F
:1037C000808180618C9322C0A9E5B0E0E9E5F0E05A
:1037D000808188608C931AC0A9E5B0E0E9E5F0E04B
:1037E000808180628C9312C0A9E5B0E0E9E5F0E049
:1037F000808180688C930AC0A9E5B0E0E9E5F0E03B
:10380000808180648C9302C081E0898389810F90DC
:103810000F900F900F90CF91DF910895DF93CF938A
:1038200000D000D0CDB7DEB78A8319828A81282FD5
:1038300030E03C832B838B819C818330910509F49C
:1038400042C02B813C81243031057CF48B819C81EA
:103850008130910541F12B813C81223031055CF5AD
:103860008B819C810097B9F056C02B813C8125301B
:103870003105C9F18B819C818530910564F12B81E3
:103880003C812630310509F43EC08B819C81873014
:10389000910589F140C0A9E5B0E0E9E5F0E080815B
:1038A0008E7F8C933AC0A9E5B0E0E9E5F0E0808135
:1038B0008D7F8C9332C0A9E5B0E0E9E5F0E080812E
:1038C0008B7F8C932AC0A9E5B0E0E9E5F0E0808128
:1038D0008F7E8C9322C0A9E5B0E0E9E5F0E080811D
:1038E000877F8C931AC0A9E5B0E0E9E5F0E080811C
:1038F0008F7D8C9312C0A9E5B0E0E9E5F0E080810E
:103900008F778C930AC0A9E5B0E0E9E5F0E080810B
:103910008F7B8C9302C081E0898389810F900F9007
:103920000F900F90CF91DF910895DF93CF9300D048
:1039300000D0CDB7DEB78A8319828A81282F30E084
:103940003C832B838B819C818130910599F02B8165
:103950003C8122303105C1F08B819C810097F1F4CC
:103960001092F701A3E5B0E0E3E5F0E08081887F05
:103970008C9316C01092F801AEE4B0E0EEE4F0E0F3
:103980008081887F8C930CC01092F901A5E4B0E08F
:10399000E5E4F0E08081887F8C9302C081E0898338
:1039A00089810F900F900F900F90CF91DF91089524
:1039B000DF93CF9300D000D0CDB7DEB78A837C836E
:1039C0006B8319828B819C81009769F08A81882F93
:1039D00090E0880F991FFC01E650FE4F8B819C817F
:1039E0009183808302C082E0898389810F900F9048
:1039F0000F900F90CF91DF910895DF93CF930F92A7
:103A0000CDB7DEB78983ECE5F0E0898180830F9044
:103A1000CF91DF910895DF93CF930F92CDB7DEB7AB
:103A20008983E2E5F0E0898180830F90CF91DF9177
:103A30000895DF93CF93CDB7DEB7E2E5F0E0808164
:103A4000CF91DF910895DF93CF930F92CDB7DEB77B
:103A50008983E3E4F0E0898180830F90CF91DF9147
:103A60000895DF93CF930F92CDB7DEB78983E4E457
:103A7000F0E0898180830F90CF91DF910895DF93EB
:103A8000CF93CDB7DEB7E4E4F0E08081CF91DF9152
:103A90000895DF93CF9300D0CDB7DEB79A838983A3
:103AA000EAE4F0E089819A81918380830F900F90FE
:103AB000CF91DF910895DF93CF9300D0CDB7DEB7DC
:103AC0009A838983E8E4F0E089819A8191838083F5
:103AD0000F900F90CF91DF910895DF93CF9300D097
:103AE000CDB7DEB79A838983ECE4F0E089819A81CF
:103AF000918380830F900F90CF91DF910895DF9392
:103B0000CF9300D0CDB7DEB79A838983E6E4F0E0A7
:103B100089819A81918380830F900F90CF91DF915B
:103B20000895DF93CF93CDB7DEB7ECE4F0E080816A
:103B30009181CF91DF910895DF93CF93CDB7DEB719
:103B4000E6E4F0E080819181CF91DF910895DF93E9
:103B5000CF9300D000D0CDB7DEB78A8319828A8197
:103B6000282F30E03C832B838B819C81009731F0A0
:103B70002B813C812130310549F010C0AEE4B0E02A
:103B8000EEE4F0E0808180648C930AC0AEE4B0E0A3
:103B9000EEE4F0E080818F7B8C9302C081E089832A
:103BA00089810F900F900F900F90CF91DF91089522
:103BB000DF93CF93CDB7DEB7A1E4B0E0E1E4F0E06E
:103BC000808188608C93CF91DF910895DF93CF93AC
:103BD000CDB7DEB7A1E4B0E0E1E4F0E08081886138
:103BE0008C93A1E4B0E0E1E4F0E08081877F8C93E6
:103BF000CF91DF910895DF93CF9300D0CDB7DEB79B
:103C00008A8319828A81883080F4A1E4B0E0E1E4FB
:103C1000F0E08081887F8C93A1E4B0E0E1E4F0E003
:103C200090818A81892B8C9302C081E0898389816C
:103C30000F900F90CF91DF9108951F920F920FB6C2
:103C40000F9211242F933F934F935F936F937F9322
:103C50008F939F93AF93BF93EF93FF93DF93CF9394
:103C6000CDB7DEB78091FA019091FB01009729F062
:103C7000E091FA01F091FB010995CF91DF91FF915D
:103C8000EF91BF91AF919F918F917F916F915F91D4
:103C90004F913F912F910F900FBE0F901F9018954D
:103CA0001F920F920FB60F9211242F933F934F93B1
:103CB0005F936F937F938F939F93AF93BF93EF9394
:103CC000FF93DF93CF93CDB7DEB78091FC01909146
:103CD000FD01009729F0E091FC01F091FD010995AB
:103CE000CF91DF91FF91EF91BF91AF919F918F9114
:103CF0007F916F915F914F913F912F910F900FBEE8
:103D00000F901F9018951F920F920FB60F921124CB
:103D10002F933F934F935F936F937F938F939F93D3
:103D2000AF93BF93EF93FF93DF93CF93CDB7DEB7FE
:103D30008091FE019091FF01009729F0E091FE0132
:103D4000F091FF010995CF91DF91FF91EF91BF9124
:103D5000AF919F918F917F916F915F914F913F9123
:103D60002F910F900FBE0F901F9018951F920F92DA
:103D70000FB60F9211242F933F934F935F936F933E
:103D80007F938F939F93AF93BF93EF93FF93DF93B3
:103D9000CF93CDB7DEB780910202909103020097D6
:103DA00029F0E0910202F09103020995CF91DF9191
:103DB000FF91EF91BF91AF919F918F917F916F9103
:103DC0005F914F913F912F910F900FBE0F901F90D9
:103DD00018951F920F920FB60F9211242F933F93B5
:103DE0004F935F936F937F938F939F93AF93BF9303
:103DF000EF93FF93DF93CF93CDB7DEB780910002AF
:103E000090910102009729F0E0910002F0910102E7
:103E10000995CF91DF91FF91EF91BF91AF919F9164
:103E20008F917F916F915F914F913F912F910F9063
:103E30000FBE0F901F9018951F920F920FB60F9202
:103E400011242F933F934F935F936F937F938F939F
:103E50009F93AF93BF93EF93FF93DF93CF93CDB730
:103E6000DEB78091040290910502009729F0E0915D
:103E70000402F09105020995CF91DF91FF91EF9136
:103E8000BF91AF919F918F917F916F915F914F9172
:103E90003F912F910F900FBE0F901F9018951F927A
:103EA0000F920FB60F9211242F933F934F935F936E
:103EB0006F937F938F939F93AF93BF93EF93FF93F2
:103EC000DF93CF93CDB7DEB78091060290910702C2
:103ED000009729F0E0910602F09107020995CF9131
:103EE000DF91FF91EF91BF91AF919F918F917F9162
:103EF0006F915F914F913F912F910F900FBE0F9057
:103F00001F9018951F920F920FB60F9211242F93A6
:103F10003F934F935F936F937F938F939F93AF9351
:103F2000BF93EF93FF93DF93CF93CDB7DEB780912D
:103F3000080290910902009729F0E0910802F0919F
:103F400009020995CF91DF91FF91EF91BF91AF9158
:103F50009F918F917F916F915F914F913F912F91A1
:103F60000F900FBE0F901F901895DF93CF930F9275
:103F7000CDB7DEB71982AAE2B0E0EAE2F0E08081D4
:103F800080618C93AAE2B0E0EAE2F0E08081886090
:103F90008C93ABE2B0E0EBE2F0E080818D7F8C931C
:103FA0008981897F8983898182608983898184600D
:103FB0008983AAE2B0E0EAE2F0E080818B7F8C9313
:103FC00089818F7B898389818F7E898389818F7D98
:103FD00089838981877F8983898180688983E0E4F7
:103FE000F0E089818083E9E2F0E083E380830F9051
:103FF000CF91DF910895DF93CF93CDB7DEB72797A9
:104000000FB6F894DEBF0FBECDBF9F838E831D8297
:1040100019821A821B821C8280911602882329F041
:1040200080911802813009F041C081E0809316022E
:104030000BC089819A81AB81BC810196A11DB11D04
:1040400089839A83AB83BC83EBE2F0E08081829525
:1040500086958770882F90E081709070009761F44A
:1040600089819A81AB81BC81803A26E8920721E060
:10407000A20720E0B207E8F289819A81AB81BC8176
:10408000803A26E8920721E0A20720E0B20719F45F
:1040900083E08D8304C0ECE2F0E08E818083809128
:1040A0001802882329F41092160202C084E08D833E
:1040B0008D8127960FB6F894DEBF0FBECDBFCF918E
:1040C000DF910895DF93CF93CDB7DEB727970FB673
:1040D000F894DEBF0FBECDBF9F838E831D821982F1
:1040E0001A821B821C828E819F81009701F1809130
:1040F0001702882321F0809119028130A9F481E010
:1041000080931702EBE2F0E080818823DCF7AE8138
:10411000BF81ECE2F0E080818C93809119028823CA
:1041200041F41092170205C084E08D8302C082E042
:104130008D838D8127960FB6F894DEBF0FBECDBF5D
:10414000CF91DF910895DF93CF9300D000D000D0BE
:10415000CDB7DEB79D838C836E831B821A82198252
:104160008C819D81009779F180911602882341F519
:1041700081E08093160281E080931802198217C0B3
:104180002C813D818981882F90E0F901E80FF91F8A
:104190008081882F90E00E94FB1F8A838A81882378
:1041A00019F081E08B8307C089818F5F89839981B2
:1041B0008E81981728F3109218021092160205C0EB
:1041C00084E08B8302C082E08B838B8126960FB6BE
:1041D000F894DEBF0FBECDBFCF91DF910895DF937E
:1041E000CF9300D000D000D0CDB7DEB79D838C83B5
:1041F0006E831B821A8219828C819D81009759F1EE
:1042000080911702882321F581E08093170281E0D5
:1042100080931902198213C08981282F30E08C8184
:104220009D81820F931F0E9462208A838A81882346
:1042300019F081E08B8307C089818F5F8983998121
:104240008E81981748F3109219021092170205C038
:1042500084E08B8302C082E08B838B8126960FB62D
:10426000F894DEBF0FBECDBFCF91DF910895DF93ED
:10427000CF9300D000D000D0CDB7DEB79B838A8328
:104280006C835E834D8319828A819B81009739F10B
:104290008D819E81009719F1809116028823E1F4A7
:1042A00081E0809316028A819B8190930E02809315
:1042B0000D028C8180930C028D819E8190930B0264
:1042C00080930A0210920F02AAE2B0E0EAE2F0E064
:1042D000808180628C9305C084E0898302C082E083
:1042E0008983898126960FB6F894DEBF0FBECDBFB5
:1042F000CF91DF910895DF93CF9300D000D000D00D
:10430000CDB7DEB79B838A836C835E834D8319822E
:104310008A819B81009739F18D819E81009719F1E7
:10432000809117028823E1F481E0809317028A814B
:104330009B8190931402809313028C8180931202CC
:104340008D819E819093110280931002109215022C
:10435000AAE2B0E0EAE2F0E0808180688C9305C0D8
:1043600084E0898302C082E08983898126960FB622
:10437000F894DEBF0FBECDBFCF91DF9108951F929D
:104380000F920FB60F9211242F933F934F935F9389
:104390006F937F938F939F93AF93BF93EF93FF930D
:1043A000DF93CF93CDB7DEB78091130290911402C3
:1043B0009C0180911502882F90E0D901A80FB91FA8
:1043C000ECE2F0E080818C93809115028F5F809306
:1043D000150290911502809112029817A1F4109283
:1043E0001702AAE2B0E0EAE2F0E080818F778C93D6
:1043F0008091100290911102009729F0E091100233
:10440000F09111020995CF91DF91FF91EF91BF914A
:10441000AF919F918F917F916F915F914F913F915C
:104420002F910F900FBE0F901F9018951F920F9213
:104430000FB60F9211242F933F934F935F936F9377
:104440007F938F939F93AF93BF93EF93FF93DF93EC
:10445000CF93CDB7DEB7ACE2B0E080910D02909182
:104460000E029C0180910F02882F90E0F901E80F65
:10447000F91F80818C9380910F028F5F80930F02D0
:1044800090910F0280910C029817A1F410921602DD
:10449000AAE2B0E0EAE2F0E080818F7D8C93809127
:1044A0000A0290910B02009729F0E0910A02F09124
:1044B0000B020995CF91DF91FF91EF91BF91AF91E1
:1044C0009F918F917F916F915F914F913F912F912C
:1044D0000F900FBE0F901F9018951F920F920FB65E
:1044E0000F921124DF93CF93CDB7DEB7CF91DF9139
:1044F0000F900FBE0F901F901895DF93CF93CDB7FD
:10450000DEB7AA970FB6F894DEBF0FBECDBF98A74F
:104510008FA37AA769A71AA219A21D8E1E8E1F8EBD
:1045200018A2198E1A8E1B8E1C8E82E08BA31CA2E1
:104530001DA21EA2CE0183960E940F1689A389A1F7
:10454000882309F0BBC12BE934E282E0B9010E9463
:10455000D81C80E00E94A71D2AE634E285E0B9015C
:104560000E94D81C85E00E94871BEFA1F8A58081DE
:10457000EFA1F8A59181692F41E00E94270E80E00C
:1045800090E0A8ECB2E48D8B9E8BAF8BB88F6D89D9
:104590007E898F89988D2BEA3AEA4AE250E40E949C
:1045A0001F02DC01CB01898B9A8BAB8BBC8B698999
:1045B0007A898B899C8920E030E040E85FE30E94A3
:1045C000250488231CF481E0888B91C069897A894D
:1045D0008B899C8920E030E04FE753E40E94C503BB
:1045E00018160CF07BC06D897E898F89988D20E02C
:1045F00030E04AE754E40E941903DC01CB018C87C8
:104600009D87AE87BF876C857D858E859F8520E0E1
:1046100030E04AEF54E40E941F02DC01CB0188879E
:104620009987AA87BB87688579858A859B8520E0DD
:1046300030E040E85FE30E94250488232CF481E009
:1046400090E09F838E833FC0688579858A859B85AE
:1046500020E03FEF4FE757E40E94C50318164CF5E2
:104660006C857D858E859F8520E030E040E251E4B9
:104670000E941F02DC01CB01BC01CD010E94490058
:10468000DC01CB019F838E830FC088EC90E09D837B
:104690008C838C819D810197F1F79D838C838E8122
:1046A0009F8101979F838E838E819F81009769F7F9
:1046B00024C0688579858A859B850E944900DC0134
:1046C000CB019F838E838E819F819B838A838A8186
:1046D0009B810197F1F79B838A830FC069897A894F
:1046E0008B899C890E944900DC01CB01888B8889D9
:1046F000898389818A95F1F78983EFA1F8A5808163
:10470000EFA1F8A59181692F40E00E94270E0BC010
:10471000898D9A8DAB8DBC8D0196A11DB11D898FA0
:104720009A8FAB8FBC8F80911A0290911B020097D9
:1047300031F080911C0290911D02009761F4898DE7
:104740009A8DAB8DBC8D803523EC920720E0A207BB
:1047500020E0B207E8F282E00E940E1C85E00E9491
:104760000E1C81E00E94951C8091200290912102F4
:104770000097A1F420911C0230911D0280911A0231
:1047800090911B02A901481B590BCA01CC01A0E062
:10479000B0E08D8F9E8FAF8FB8A359C020911C02BF
:1047A00030911D0280911A0290911B02281739073F
:1047B00010F120911C0230911D0280911A029091FB
:1047C0001B02A901481B590BCA019C0140E050E0A3
:1047D0008091200290912102CC01A0E0B0E0DC01A8
:1047E00099278827820F931FA41FB51F8D8F9E8F37
:1047F000AF8FB8A32CC020911C0230911D02809174
:104800001A0290911B022817390708F520911A0205
:1048100030911B0280911C0290911D02A901481B3E
:10482000590BCA019C0140E050E080912002909118
:104830002102CC01A0E0B0E0DC0199278827820F9B
:10484000931FA41FB51F8D8F9E8FAF8FB8A36D8D43
:104850007E8D8F8D98A10E94A904DC01CB01BC0143
:10486000CD0120E030E040E050E40E941903DC017B
:10487000CB01BC01CD0126E933E44BE05DE30E94AE
:104880001F02DC01CB01BC01CD010E944900DC010B
:10489000CB01E9A5FAA59183808310921B021092A7
:1048A0001A0210921D0210921C0210921F02109206
:1048B0001E02109221021092200202C081E08AA3FF
:1048C0008AA1AA960FB6F894DEBF0FBECDBFCF91D6
:1048D000DF910895DF93CF93CDB7DEB780912202A9
:1048E0008F5F8093220280912202813069F482E0FE
:1048F0000E94871B0E949C1D90931B0280931A02AA
:1049000081E00E94A71D14C080912202823081F4B0
:104910000E949C1D90931D0280931C0280911E0298
:1049200090911F0290932102809320021092220204
:10493000CF91DF910895DF93CF93CDB7DEB780910C
:104940001E0290911F02019690931F0280931E02F7
:10495000CF91DF910895AF92BF92CF92DF92EF9205
:10496000FF920F931F93DF93CF93CDB7DEB7A69738
:104970000FB6F894DEBF0FBECDBF0E94EF140E94A9
:10498000B51F0E9417070E94360A0E94E71082E0B6
:104990008E8F18A282E08F8FCE014E960E94131543
:1049A00088EC0E94FD1C29E937E281E0B9010E94F0
:1049B000D81C81E00E94871B82E080932A0283E05A
:1049C00080932B0210922C028AE292E00E949E17A2
:1049D00029EE37E287E0B9010E94D81C19A284E0D1
:1049E0008AA31CA21BA21EA21DA281E08D8F1D8E78
:1049F0008D8D882309F0AFC184E060E00E94EF0C48
:104A000086E690E00E94E40A80E090E0AAE7B4E441
:104A1000898F9A8FAB8FBC8F698D7A8D8B8D9C8D92
:104A200020E030E04AEF54E40E941F02DC01CB0199
:104A30008D8B9E8BAF8BB88F6D897E898F89988D7A
:104A400020E030E040E85FE30E94250488232CF456
:104A500081E090E09C8B8B8B3FC06D897E898F8934
:104A6000988D20E03FEF4FE757E40E94C5031816EA
:104A70004CF5698D7A8D8B8D9C8D20E030E040E285
:104A800051E40E941F02DC01CB01BC01CD010E9458
:104A90004900DC01CB019C8B8B8B0FC088EC90E034
:104AA0009A8B898B89899A890197F1F79A8B898BDF
:104AB0008B899C8901979C8B8B8B8B899C89009718
:104AC00069F714C06D897E898F89988D0E9449008D
:104AD000DC01CB019C8B8B8B8B899C89988B8F877E
:104AE0008F8598890197F1F7988B8F8780E090E008
:104AF000A8ECB2E48B879C87AD87BE876B857C85ED
:104B00008D859E8520E030E04AEF54E40E941F022C
:104B1000DC01CB018F839887A987BA876F8178855D
:104B200089859A8520E030E040E85FE30E94250413
:104B300088232CF481E090E09E838D833FC06F81B9
:104B4000788589859A8520E03FEF4FE757E40E94FA
:104B5000C50318164CF56B857C858D859E8520E0F8
:104B600030E040E251E40E941F02DC01CB01BC01B5
:104B7000CD010E944900DC01CB019E838D830FC0D3
:104B800088EC90E09C838B838B819C810197F1F76B
:104B90009C838B838D819E8101979E838D838D81E4
:104BA0009E81009769F714C06F81788589859A8501
:104BB0000E944900DC01CB019E838D838D819E8103
:104BC0009A83898389819A810197F1F79A838983EE
:104BD0000E94DA0A85E292E02CEA36E261E0A9015D
:104BE0000E947B218091D101882309F04AC09E0157
:104BF0002D5D3F4F80E0B9010E941E138BA19CA147
:104C0000CC01A0E0B0E000D000D0EDB7FEB7319607
:104C100080839183A283B38366E970E080E090E0B3
:104C200022EF32E140E050E00F2EF4E6EF2EF0E00C
:104C3000FF2EF0E00F2FF0E01F2FF02DAA24BB2451
:104C40006501A3940E9464140F900F900F900F9031
:104C5000DC01CB018093230280E060E00E94EF0C36
:104C60008EE690E00E94E40A8BA19CA1CC01A0E01A
:104C7000B0E0BC01CD010E94170B88E790E00E94D4
:104C8000E40A8091D001882309F054C0CE018196B6
:104C90009E012B5D3F4FB9010E947D228DA19EA1F7
:104CA0008F31910520F084E6809324022EC08DA1DF
:104CB0009EA1CC01A0E0B0E000D000D0EDB7FEB7DF
:104CC000319680839183A283B38360E070E080E0BB
:104CD00090E02EE130E040E050E0EE24FF24870138
:104CE000E3940F2EF4E6AF2EF0E0BF2EF0E0CF2ECF
:104CF000F0E0DF2EF02D0E9464140F900F900F90C3
:104D00000F90DC01CB018093240280E061E00E94DF
:104D1000EF0C8CE790E00E94E40A8DA19EA1CC01EB
:104D2000A0E0B0E0BC01CD010E94170B87E890E045
:104D30000E94E40A8091D201882309F0D7CE8AE24A
:104D400092E064E00E949B1A87E00E94871B81E04A
:104D50008093D201CBCEFFCFDF93CF9300D0CDB7DE
:104D6000DEB780912502282F30E03A83298389819C
:104D70009A818533910509F44CC029813A81263303
:104D80003105DCF489819A818233910599F1298179
:104D90003A812333310534F489819A818133910535
:104DA00009F152C029813A812333310531F18981DA
:104DB0009A818433910549F147C029813A8127338B
:104DC0003105A1F189819A818733910534F12981D7
:104DD0003A812833310569F189819A8189339105B6
:104DE00089F132C081E08093D10182E06FEF0E94AF
:104DF0009F102AC01092D10127C081E08093D10179
:104E000082E060E00E949F101FC08CE08093D3017D
:104E10001BC083E08093D30117C081E08093D00151
:104E200080E065E041E00E94270E0EC01092D001A4
:104E30000BC081E08093D00180E065E040E00E94FB
:104E4000270E02C01092D2010F900F90CF91DF91E8
:104E50000895DF93CF93CDB7DEB72C970FB6F894B4
:104E6000DEBF0FBECDBF81E08A8383E0898353C05C
:104E70008981815089838BE890E06AE00E94A320B9
:104E8000CE01059664E00E94EF2086E990E060E1A3
:104E90000E94A3208C83CE01099664E00E94EF203B
:104EA0001B821DC08B81282F30E0CE010596FC01AE
:104EB000E20FF31F40818B81282F30E083E090E0E8
:104EC000BC01621B730B9B01CE010996FC01E20F32
:104ED000F31F8081481731F48B818F5F8B838B8127
:104EE000843000F38B81843039F487EA90E066E007
:104EF0000E94A3201A8213C08EEA90E069E00E940B
:104F0000A3208981882F90E00E94FB1F88EB90E00E
:104F10006FE00E94A3208981882309F0A9CF8A81AC
:104F20002C960FB6F894DEBF0FBECDBFCF91DF91A8
:104F30000895DF93CF93CDB7DEB7809126028F5FC0
:104F400080932602909126028091D301981729F42C
:104F500080E066E040E00E94270E9091260280915A
:104F60002402981749F48091D001882329F480E025
:104F700065E040E00E94270E909126028091230276
:104F8000981741F48091D101882321F482E060E0F8
:104F90000E949F10809126028436C1F4109226024E
:104FA00080E066E041E00E94270E8091D0018823D6
:104FB00029F480E065E041E00E94270E8091D10154
:104FC000882321F482E06FEF0E949F10CF91DF9140
:104FD0000895DF93CF93CDB7DEB780912702853058
:104FE00059F48AE292E060E00E949B1A87E00E94F6
:104FF0000E1C1092270257C0809128028F5F809369
:105000002802809128028A3F09F04DC010922802A0
:10501000809129028F5F8093290280912902853037
:1050200049F4809127028F5F8093270281E00E94DC
:10503000231D39C0809129028A3021F48FEF0E940C
:10504000231D31C0809129028F3021F481E00E941C
:10505000231D29C080912902843121F486E90E9410
:10506000231D21C080912902883121F48FEF0E94F5
:10507000231D19C0809129028C3121F486E90E94F8
:10508000231D11C080912902803221F48FEF0E94EC
:10509000231D09C080912902843229F4109229022B
:1050A00086E90E94231DCF91DF910895629FD00170
:1050B000739FF001829FE00DF11D649FE00DF11DD3
:1050C000929FF00D839FF00D749FF00D659FF00D82
:1050D0009927729FB00DE11DF91F639FB00DE11D6F
:1050E000F91FBD01CF0111240895AA1BBB1B51E17B
:1050F00007C0AA1FBB1FA617B70710F0A61BB70B48
:10510000881F991F5A95A9F780959095BC01CD01EC
:105110000895A1E21A2EAA1BBB1BFD010DC0AA1FF8
:10512000BB1FEE1FFF1FA217B307E407F50720F010
:10513000A21BB30BE40BF50B661F771F881F991F8B
:105140001A9469F760957095809590959B01AC01D4
:10515000BD01CF01089597FB092E05260ED057FDFE
:1051600004D0D7DF0AD0001C38F450954095309514
:1051700021953F4F4F4F5F4F0895F6F790958095DB
:10518000709561957F4F8F4F9F4F08952F923F925B
:105190004F925F926F927F928F929F92AF92BF9247
:1051A000CF92DF92EF92FF920F931F93CF93DF93F3
:1051B000CDB7DEB7CA1BDB0B0FB6F894DEBF0FBE50
:1051C000CDBF09942A88398848885F846E847D849D
:1051D0008C849B84AA84B984C884DF80EE80FD809F
:1051E0000C811B81AA81B981CE0FD11D0FB6F89415
:0E51F000DEBF0FBECDBFED010895F894FFCFD6
:1051FE0030620030780057656C636F6D6500566FD6
:10520E006C746167653A2000206D76004469737492
:10521E00616E63653A200020636D00456E746572A1
:10522E002049443A2000456E7465722050617373B4
:10523E00776F72643A20005061737365640049673A
:10524E006E6F7265642C200020417474656D7074ED
:10525E0073204C6566742100000000000000000001
:10526E0000010202030303030404040404040404FF
:10527E0005050505050505050505050505050505D0
:10528E0006060606060606060606060606060606B0
:10529E0006060606060606060606060606060606A0
:1052AE000707070707070707070707070707070780
:1052BE000707070707070707070707070707070770
:1052CE000707070707070707070707070707070760
:1052DE000707070707070707070707070707070750
:1052EE000808080808080808080808080808080830
:1052FE000808080808080808080808080808080820
:10530E00080808080808080808080808080808080F
:10531E0008080808080808080808080808080808FF
:10532E0008080808080808080808080808080808EF
:10533E0008080808080808080808080808080808DF
:10534E0008080808080808080808080808080808CF
:10535E0008080808080808080808080808080808BF
:10536E000101010330313233343536373839414299
:04537E004344454619
:00000001FF
