:100000000C942A000C9447000C9447000C94470071
:100010000C9469190C9436190C9403190C94D0188B
:100020000C949D180C946A180C9437180C940418AE
:100030000C9447000C9447000C9447000C94470024
:100040000C9447000C9447000C9447000C94470014
:100050000C94470011241FBECFE5D8E0DEBFCDBF12
:1000600011E0A0E6B0E0E6EDF0E402C005900D92EC
:10007000AE37B107D9F711E0AEE7B1E001C01D928C
:10008000AA39B107E1F70E94CA1B0C9469200C94AD
:100090000000EF92FF920F931F937B018C0120E0F1
:1000A00030E040E05FE40E94F50388238CF0C80153
:1000B000B70120E030E040E05FE40E94C1010E940F
:1000C00055049B01AC01205030404040504806C0D0
:1000D000C801B7010E9455049B01AC01B901CA01D6
:1000E0001F910F91FF90EF900895A0E0B0E0EBE733
:1000F000F0E00C943220DC012B01FA019C9192304B
:1001000008F439C1EB018881823008F433C194309E
:1001100069F4843009F02FC111969C91119789815F
:10012000981709F428C1A6E6B0E025C1843009F487
:1001300021C18230A9F4923009F01DC19A01AD01AC
:1001400088E0EA010990AE01E90109929E0181501F
:10015000C1F7E201898111969C918923818308C1AD
:10016000923009F407C112962D903C901397EB0141
:100170008A819B811496AD90BD90CD90DC901797AD
:10018000EC80FD800E811F819101281B390BB90184
:1001900037FF04C066277727621B730B6032710537
:1001A0000CF061C0121613066CF537014801062EDB
:1001B00004C096948794779467940A94D2F721E0C8
:1001C00030E040E050E004C0220F331F441F551FB1
:1001D0006A95D2F721503040404050402E213F21B7
:1001E00040235123211531054105510521F021E01E
:1001F00030E040E050E079018A01E628F72808293C
:1002000019293CC0232BD1F1260E371E350146019A
:10021000062E04C096948794779467940A94D2F734
:1002200021E030E040E050E004C0220F331F441FC3
:10023000551F6A95D2F721503040404050402A2146
:100240003B214C215D21211531054105510521F04E
:1002500021E030E040E050E059016A01A628B728CB
:10026000C828D9280BC0821593052CF01C01AA249C
:10027000BB24650103C0EE24FF24870111969C91E5
:10028000D20111968C91981709F445C0992339F041
:10029000A80197012A193B094C095D0906C0A6016E
:1002A00095012E193F09400B510B57FD08C01182D3
:1002B0003382228224833583468357831DC081E0A5
:1002C00081833382228288279927DC01821B930B4A
:1002D000A40BB50B84839583A683B7830DC0220F2F
:1002E000331F441F551F24833583468357838281E0
:1002F000938101979383828324813581468157813D
:10030000DA01C9010197A109B1098F5F9F4FAF4F72
:10031000BF4328F30BC0918333822282EA0CFB1C7B
:100320000C1D1D1DE482F5820683178383E0808304
:10033000248135814681578157FF1AC0C901AA27F8
:1003400097FDA095BA2F81709070A070B0705695EF
:10035000479537952795822B932BA42BB52B848318
:100360009583A683B7838281938101969383828349
:10037000DF0101C0D201CD01CDB7DEB7E2E10C94BF
:100380004E20A0E2B0E0E7ECF1E00C943E2069835F
:100390007A838B839C832D833E834F835887E9E048
:1003A000EE2EF12CEC0EFD1ECE010196B7010E943F
:1003B00046068E010F5E1F4FCE010596B8010E94C2
:1003C00046068A8991E089278A8BC701B801AE0168
:1003D000475E5F4F0E9475000E947105A096E6E09F
:1003E0000C945A20A0E2B0E0E8EFF1E00C943E203B
:1003F00069837A838B839C832D833E834F835887C5
:10040000F9E0EF2EF12CEC0EFD1ECE010196B701A6
:100410000E9446068E010F5E1F4FCE010596B80161
:100420000E944606C701B801AE01475E5F4F0E94B9
:1004300075000E947105A096E6E00C945A20A0E297
:10044000B0E0E5E2F2E00C94322069837A838B839A
:100450009C832D833E834F835887CE010196BE0136
:10046000675F7F4F0E944606CE010596BE016F5E14
:100470007F4F0E9446069985923088F089898230A4
:10048000C8F0943019F4823051F404C0843029F457
:10049000923081F486E690E0C6C0923049F420E0C4
:1004A0009A858A89981321E02A87CE010996BBC0D4
:1004B000823049F420E09A858A89981321E02A8BBA
:1004C000CE014196B0C02D843E844F8458886D88FB
:1004D0007E888F88988CEE24FF248701AA24BB2471
:1004E000650140E050E060E070E0E0E0F0E0C10174
:1004F00081709070892BE9F0E60CF71C081D191D1E
:100500009A01AB012A0D3B1D4C1D5D1D80E090E062
:10051000A0E0B0E0E614F7040805190520F481E036
:1005200090E0A0E0B0E0BA01A901480F591F6A1F8E
:100530007B1FAA0CBB1CCC1CDD1C97FE08C081E0F5
:1005400090E0A0E0B0E0A82AB92ACA2ADB2A3196B6
:10055000E032F10549F0660C771C881C991C569412
:10056000479437942794C3CFFA85EA892B893C892D
:100570008B859C85280F391F2E5F3F4F17C0CA01FE
:1005800081709070892B61F016950795F794E79428
:1005900080E090E0A0E0B0E8E82AF92A0A2B1B2BC3
:1005A00076956795579547952F5F3F4F77FDE7CF36
:1005B0000CC0440F551F661F771F17FD4160EE0CDE
:1005C000FF1C001F111F21503040403090E05907A0
:1005D00090E0690790E4790760F32B8F3C8FDB0193
:1005E000CA018F779070A070B07080349105A1051A
:1005F000B10561F447FD0AC0E114F10401051105DC
:1006000029F0405C5F4F6F4F7F4F40781A8EFE1786
:1006100011F081E08A8F4D8F5E8F6F8F78A383E01A
:10062000898FCE0149960E947105A096E2E10C9453
:100630004E20A8E1B0E0EFE1F3E00C943A206983AA
:100640007A838B839C832D833E834F835887B9E0C5
:10065000EB2EF12CEC0EFD1ECE010196B7010E948F
:1006600046068E010F5E1F4FCE010596B8010E940F
:1006700046062985223008F47EC03989323010F4CC
:10068000B8017CC08A859A8989278A87243011F02D
:10069000223031F4231709F06EC066E670E06EC0B8
:1006A000343039F41D861E861F86188A1C861B86E8
:1006B00004C0323021F484E08987B7015FC02B8504
:1006C0003C858B899C89281B390B3C872B87ED84C3
:1006D000FE840F851889AD88BE88CF88D88CEA142F
:1006E000FB040C051D0540F4EE0CFF1C001F111F40
:1006F000215030403C872B8720E030E040E050E044
:1007000080E090E0A0E0B0E460E070E0EA14FB0478
:100710000C051D0540F0282B392B4A2B5B2BEA18C2
:10072000FB080C091D09B695A79597958795EE0CC2
:10073000FF1C001F111F6F5F7F4F6F31710531F775
:10074000DA01C9018F779070A070B0708034910584
:10075000A105B10561F427FD0AC0E114F10401050A
:10076000110529F0205C3F4F4F4F5F4F20782D87B8
:100770003E874F87588BBE01675F7F4FCB010E943A
:1007800071056896EAE00C945620A8E1B0E0EBEC25
:10079000F3E00C943E2069837A838B839C832D83C2
:1007A0003E834F83588789E0E82EF12CEC0EFD1E26
:1007B000CE010196B7010E9446068E010F5E1F4FC3
:1007C000CE010596B8010E9446068985823040F028
:1007D0008989823028F0C701B8010E94BE0601C095
:1007E0008FEF6896E6E00C945A20A8E1B0E0EBEFBA
:1007F000F3E00C943E2069837A838B839C832D8362
:100800003E834F83588789E0E82EF12CEC0EFD1EC5
:10081000CE010196B7010E9446068E010F5E1F4F62
:10082000CE010596B8010E9446068985823040F0C7
:100830008989823028F0C701B8010E94BE0601C034
:100840008FEF6896E6E00C945A20A8E1B0E0EBE266
:10085000F4E00C943E2069837A838B839C832D8300
:100860003E834F83588789E0E82EF12CEC0EFD1E65
:10087000CE010196B7010E9446068E010F5E1F4F02
:10088000CE010596B8010E9446068985823040F067
:100890008989823028F0C701B8010E94BE0601C0D4
:1008A00081E06896E6E00C945A20ACE0B0E0EBE51D
:1008B000F4E00C94422069837A838B839C83CE017D
:1008C0000196BE016B5F7F4F0E9446068D8182308C
:1008D00061F1823050F1843021F48E81882351F10E
:1008E0002EC02F81388537FD20C06E812F31310514
:1008F0001CF06623F9F023C08EE190E0821B930B7D
:1009000029853A854B855C8504C056954795379572
:1009100027958A95D2F76623B1F05095409530958A
:1009200021953F4F4F4F5F4F0EC020E030E040E039
:1009300050E009C02FEF3FEF4FEF5FE704C020E02A
:1009400030E040E050E8B901CA012C96E2E00C9496
:100950005E20A8E0B0E0EFEAF4E00C943A207B01DE
:100960008C01611571058105910519F482E0898377
:1009700060C083E089838EE1C82ED12CDC82CB82DB
:10098000ED82FE820F831887C801B7010E942205FD
:10099000FC013197F7FF3BC0222733272E1B3F0B6B
:1009A00057016801022E04C0D694C794B794A79447
:1009B0000A94D2F740E050E060E070E081E090E01F
:1009C000A0E0B0E004C0880F991FAA1FBB1F2A95A2
:1009D000D2F70197A109B1098E219F21A023B1234C
:1009E0000097A105B10521F041E050E060E070E022
:1009F0004A295B296C297D294D835E836F83788723
:100A00008EE190E08E1B9F0B9C838B8312C03097EE
:100A100081F00E2E04C0EE0CFF1C001F111F0A9463
:100A2000D2F7ED82FE820F831887CE1ADF0ADC82AE
:100A3000CB821A82CE0101960E9471052896EAE0C7
:100A40000C945620EF92FF920F931F937B018C0121
:100A500080E0E81680E0F80681E0080780E01807EB
:100A600088F48FEFE816F1040105110531F028F044
:100A700088E090E0A0E0B0E017C080E090E0A0E067
:100A8000B0E012C080E0E81680E0F80680E00807D9
:100A900081E0180728F088E190E0A0E0B0E004C011
:100AA00080E190E0A0E0B0E020E230E040E050E003
:100AB000281B390B4A0B5B0B04C016950795F7945E
:100AC000E7948A95D2F7F701E259FF4F8081281BFE
:100AD000310941095109C9011F910F91FF90EF9010
:100AE0000895DF92EF92FF920F931F93FC01E48031
:100AF000F58006811781D1808081823048F480E0C2
:100B000090E0A0E1B0E0E82AF92A0A2B1B2BA5C04F
:100B1000843009F49FC0823021F4EE24FF24870141
:100B200005C0E114F1040105110519F4E0E0F0E05D
:100B300096C0628173819FEF623879070CF05BC0C9
:100B400022E83FEF261B370B2A3131052CF020E03D
:100B500030E040E050E02AC0B801A701022E04C0F6
:100B600076956795579547950A94D2F781E090E07E
:100B7000A0E0B0E004C0880F991FAA1FBB1F2A95F0
:100B8000D2F70197A109B1098E219F21A023B1239A
:100B90000097A105B10521F081E090E0A0E0B0E070
:100BA0009A01AB01282B392B4A2B5B2BDA01C901A7
:100BB0008F779070A070B07080349105A105B10559
:100BC00039F427FF09C0205C3F4F4F4F5F4F04C0EF
:100BD000215C3F4F4F4F5F4FE0E0F0E02030A0E05E
:100BE0003A07A0E04A07A0E45A0710F0E1E0F0E07D
:100BF00079018A0127C06038710564F5FB01E1586D
:100C0000FF4FD801C7018F779070A070B07080340B
:100C10009105A105B10539F4E7FE0DC080E490E02F
:100C2000A0E0B0E004C08FE390E0A0E0B0E0E80E08
:100C3000F91E0A1F1B1F17FF05C016950795F7948D
:100C4000E794319687E016950795F794E7948A958F
:100C5000D1F705C0EE24FF248701EFEFF0E06E2FFF
:100C6000679566276795902F9F77D794DD24D79453
:100C70008E2F8695492F462B582F5D29B701CA0123
:100C80001F910F91FF90EF90DF900895FC01DB0121
:100C9000408151812281622F6F7770E0221F2227CD
:100CA000221F9381892F880F822B282F30E0991FD4
:100CB0009927991F11969C93119721153105A9F534
:100CC000411551056105710511F482E037C082E8D4
:100CD0009FEF13969C938E9312979A01AB0167E056
:100CE000220F331F441F551F6A95D1F783E08C9361
:100CF0000DC0220F331F441F551F12968D919C91DA
:100D00001397019713969C938E931297203080E04F
:100D1000380780E0480780E4580758F314962D936D
:100D20003D934D935C93179708952F3F310579F4C8
:100D3000411551056105710519F484E08C930895FE
:100D400064FF03C081E08C9312C01C9210C02F5727
:100D5000304013963C932E93129783E08C9387E058
:100D6000440F551F661F771F8A95D1F7706414963C
:100D70004D935D936D937C93179708951F93DC01BA
:100D8000FB019C91923008F447C08081823008F4C6
:100D900043C0943051F411961C91843099F58181AF
:100DA000682F70E0611B71093FC0843021F09230E0
:100DB00031F48230B9F18181882389F12DC01196F7
:100DC0001C9111978230F1F081811817D9F4129695
:100DD0002D913C911397828193818217930794F010
:100DE00028173907BCF014968D919D910D90BC91F8
:100DF000A02D2481358146815781281739074A075C
:100E00005B0718F4112341F00AC082179307A40767
:100E1000B50740F4112319F061E070E005C06FEFF1
:100E20007FEF02C060E070E0CB011F910895DF9377
:100E3000CF93CDB7DEB72E970FB6F894DEBF0FBEB7
:100E4000CDBF81E066E041E00E94070C80E090E0C9
:100E5000A0E0B0E48B879C87AD87BE876B857C85DF
:100E60008D859E8520E030E04AEF54E40E941F0209
:100E7000DC01CB018F839887A987BA876F8178853A
:100E800089859A8520E030E040E85FE30E942504F0
:100E900088232CF481E090E09E838D833FC06F8196
:100EA000788589859A8520E03FEF4FE757E40E94D7
:100EB000C50318164CF56B857C858D859E8520E0D5
:100EC00030E040E251E40E941F02DC01CB01BC0192
:100ED000CD010E944900DC01CB019E838D830FC0B0
:100EE00088EC90E09C838B838B819C810197F1F748
:100EF0009C838B838D819E8101979E838D838D81C1
:100F00009E81009769F714C06F81788589859A85DD
:100F10000E944900DC01CB019E838D838D819E81DF
:100F20009A83898389819A810197F1F79A838983CA
:100F300081E066E040E00E94070C2E960FB6F89420
:100F4000DEBF0FBECDBFCF91DF910895DF93CF936A
:100F50000F92CDB7DEB789838981982F917081E098
:100F600060E0492F0E94070C89818695982F917027
:100F700081E061E0492F0E94070C89818695869562
:100F8000982F917081E062E0492F0E94070C8981BF
:100F9000869586958695982F917081E063E0492F1C
:100FA0000E94070C0F90CF91DF910895DF93CF93AC
:100FB0000F92CDB7DEB7898381E064E040E00E9404
:100FC000070C81E065E040E00E94070C8981829572
:100FD0008F700E94A6070E94170789810E94A607AA
:100FE0000E9417070F90CF91DF910895DF93CF9361
:100FF0000F92CDB7DEB7898381E064E041E00E94C3
:10100000070C81E065E040E00E94070C8981829531
:101010008F700E94A6070E94170789810E94A60769
:101020000E9417070F90CF91DF910895DF93CF9320
:10103000CDB7DEB72E970FB6F894DEBF0FBECDBF8B
:1010400080E090E0A0E2B2E48B879C87AD87BE870A
:101050006B857C858D859E8520E030E04AEF54E4E9
:101060000E941F02DC01CB018F839887A987BA8772
:101070006F81788589859A8520E030E040E85FE3DC
:101080000E94250488232CF481E090E09E838D83C8
:101090003FC06F81788589859A8520E03FEF4FE7D3
:1010A00057E40E94C50318164CF56B857C858D8529
:1010B0009E8520E030E040E251E40E941F02DC0106
:1010C000CB01BC01CD010E944900DC01CB019E8314
:1010D0008D830FC088EC90E09C838B838B819C81F7
:1010E0000197F1F79C838B838D819E8101979E836D
:1010F0008D838D819E81009769F714C06F817885FB
:1011000089859A850E944900DC01CB019E838D83ED
:101110008D819E819A83898389819A810197F1F7D4
:101120009A83898381E064E040E00E94070C81E0BB
:1011300065E040E00E94070C82E00E94A6070E9442
:10114000170782E00E94A6070E94170788E00E9406
:10115000A6070E9417078CE00E94D60781E00E9434
:10116000D6072E960FB6F894DEBF0FBECDBFCF9137
:10117000DF910895DF93CF93CDB7DEB781E00E9472
:10118000D607CF91DF910895DF93CF9300D000D0A1
:10119000CDB7DEB79C838B831A8219828B819C81A9
:1011A0000097D9F00EC08981282F30E08B819C8177
:1011B000FC01E20FF31F80810E94F60789818F5F97
:1011C00089838981282F30E08B819C81FC01E20F8B
:1011D000F31F8081882339F702C082E08A838A81E5
:1011E0000F900F900F900F90CF91DF9108950F9374
:1011F0001F93DF93CF93CDB7DEB760970FB6F89408
:10120000DEBF0FBECDBF6D877E878F87988B8AE04C
:10121000FE013396DF01982F1D929A95E9F71A8205
:101220008D859E85AF85B8890097A105B10521F40C
:1012300080E30E94F6077BC08D859E85AF85B889C7
:10124000BB230CF054C08DE20E94F6078D859E856D
:10125000AF85B889B095A095909581959F4FAF4F78
:10126000BF4F8D879E87AF87B88B41C08A81082F7B
:1012700010E08D859E85AF85B8892AE030E040E09A
:1012800050E0BC01CD010E94F51FDC01CB01282FED
:10129000CE010396FC01E00FF11F20838A81482FC5
:1012A00050E08A81282F30E0CE010396FC01E20F46
:1012B000F31F8081282F205DCE010396FC01E40FEF
:1012C000F51F20838D859E85AF85B8892AE030E0A3
:1012D00040E050E0BC01CD010E94F51FDA01C901D8
:1012E0008D879E87AF87B88B8A818F5F8A838D8534
:1012F0009E85AF85B889181619061A061B060CF4C8
:10130000B5CF8A8189838981882F90E09C01215003
:101310003040CE010396FC01E20FF31F80810E9452
:10132000F6078981815089838981882361F76096D6
:101330000FB6F894DEBF0FBECDBFCF91DF911F91E6
:101340000F910895DF93CF93CDB7DEB7A4970FB673
:10135000F894DEBF0FBECDBF9CA38BA380E2FE013D
:101360003396DF01982F1D929A95E9F71A8280E64D
:1013700090E00E94C4081A8223C08BA19CA18170B6
:101380009070882359F08A81282F30E0CE0103968F
:10139000FC01E20FF31F81E0808309C08A81282FBE
:1013A00030E0CE010396FC01E20FF31F10828BA107
:1013B0009CA1959587959CA38BA38A818F5F8A8337
:1013C0008A818031D0F280E061E00E94CF0A80E122
:1013D00089838981882F90E09C0121503040CE0183
:1013E0000396FC01E20FF31F8081882321F480E340
:1013F0000E94F60703C081E30E94F60789818150AD
:1014000089838981882329F7A4960FB6F894DEBFD3
:101410000FBECDBFCF91DF910895DF93CF93CDB7AE
:10142000DEB7A5970FB6F894DEBF0FBECDBF6D8FA8
:101430007E8F8F8F98A3CE0105969AA389A3EEE69F
:10144000F1E0FCA3EBA3F0E1FDA3EBA1FCA1008084
:101450008BA19CA101969CA38BA3E9A1FAA1008278
:1014600089A19AA101969AA389A39DA191509DA3B8
:10147000EDA1EE2351F71B8220C08D8D8F708A83E2
:101480008D8D9E8DAF8DB8A1689413F8B595A795F5
:10149000979587951694D1F78D8F9E8FAF8FB8A3B0
:1014A0008B81282F30E0CE014596FC01E20FF31F1F
:1014B0008A8180838B818F5F8B838B818830E8F278
:1014C00083E690E00E94C40887E08C831AC08C8178
:1014D000282F332727FD3095CE014596FC01E20FDA
:1014E000F31F808189838981282F30E0CE01059602
:1014F000FC01E20FF31F80810E94F6078C8181506E
:101500008C838C8188231CF7A5960FB6F894DEBFD8
:101510000FBECDBFCF91DF910895DF93CF93CDB7AD
:10152000DEB727970FB6F894DEBF0FBECDBF9C8302
:101530008B836D834E832F838D81882F90E0880F5E
:10154000991F880F991F880F991F8A838A81806449
:101550008A838A810E94D60719820EC08981282F2A
:1015600030E08B819C81FC01E20FF31F80810E949F
:10157000F60789818F5F89838981883078F38E812E
:101580006F810E94CF0A8D810E94F60727960FB6C1
:10159000F894DEBF0FBECDBFCF91DF910895DF93EA
:1015A000CF9300D000D0CDB7DEB78B836C831A8287
:1015B0008C81882319F48B81898309C08C818130C7
:1015C00021F48B81805C898302C081E08A838981D8
:1015D0008068898389810E94D6078A810F900F9045
:1015E0000F900F90CF91DF910895DF93CF93CDB7F8
:1015F000DEB728970FB6F894DEBF0FBECDBF8A8343
:101600006B834C8319828B81883008F0F4C08C8105
:10161000813009F072C08A81282F30E038872F830B
:101620008F8198858130910549F12F81388522304D
:1016300031052CF48F819885009761F05BC02F8174
:1016400038852230310571F18F819885833091057D
:10165000E9F150C0AAE3B0E0EAE3F0E08081482F6E
:101660008B81282F30E081E090E0022E02C0880FAD
:10167000991F0A94E2F7842B8C93BFC0A7E3B0E0D4
:10168000E7E3F0E08081482F8B81282F30E081E074
:1016900090E0022E02C0880F991F0A94E2F7842B73
:1016A0008C93ABC0A4E3B0E0E4E3F0E08081482F8A
:1016B0008B81282F30E081E090E0022E02C0880F5D
:1016C000991F0A94E2F7842B8C9397C0A1E3B0E0B2
:1016D000E1E3F0E08081482F8B81282F30E081E02A
:1016E00090E0022E02C0880F991F0A94E2F7842B23
:1016F0008C9383C081E0898380C08C81882309F02A
:1017000077C08A81282F30E03E832D838D819E8192
:101710008130910559F12D813E81223031052CF423
:101720008D819E81009769F060C02D813E812230BD
:10173000310589F18D819E818330910509F440C086
:1017400054C0AAE3B0E0EAE3F0E08081482F8B8147
:10175000282F30E081E090E0022E02C0880F991F10
:101760000A94E2F7809584238C9347C0A7E3B0E006
:10177000E7E3F0E08081482F8B81282F30E081E083
:1017800090E0022E02C0880F991F0A94E2F780951C
:1017900084238C9332C0A4E3B0E0E4E3F0E08081E2
:1017A000482F8B81282F30E081E090E0022E02C08C
:1017B000880F991F0A94E2F7809584238C931DC0AB
:1017C000A1E3B0E0E1E3F0E08081482F8B81282F96
:1017D00030E081E090E0022E02C0880F991F0A9449
:1017E000E2F7809584238C9308C081E0898305C04B
:1017F00081E0898302C081E08983898128960FB6C0
:10180000F894DEBF0FBECDBFCF91DF910895DF9377
:10181000CF93CDB7DEB728970FB6F894DEBF0FBED3
:10182000CDBF8A836B834C8319828B81883008F00B
:10183000F4C08C81813009F072C08A81282F30E099
:1018400038872F838F8198858130910549F12F81C9
:101850003885223031052CF48F819885009761F00E
:101860005BC02F8138852230310571F18F819885D9
:1018700083309105E9F150C0ABE3B0E0EBE3F0E079
:101880008081482F8B81282F30E081E090E0022E6C
:1018900002C0880F991F0A94E2F7842B8C93BFC073
:1018A000A8E3B0E0E8E3F0E08081482F8B81282FA7
:1018B00030E081E090E0022E02C0880F991F0A9468
:1018C000E2F7842B8C93ABC0A5E3B0E0E5E3F0E056
:1018D0008081482F8B81282F30E081E090E0022E1C
:1018E00002C0880F991F0A94E2F7842B8C9397C04B
:1018F000A2E3B0E0E2E3F0E08081482F8B81282F63
:1019000030E081E090E0022E02C0880F991F0A9417
:10191000E2F7842B8C9383C081E0898380C08C8123
:10192000882309F077C08A81282F30E03E832D83F9
:101930008D819E818130910559F12D813E8122302A
:1019400031052CF48D819E81009769F060C02D8156
:101950003E812230310589F18D819E818330910550
:1019600009F440C054C0ABE3B0E0EBE3F0E08081A9
:10197000482F8B81282F30E081E090E0022E02C0BA
:10198000880F991F0A94E2F7809584238C9347C0AF
:10199000A8E3B0E0E8E3F0E08081482F8B81282FB6
:1019A00030E081E090E0022E02C0880F991F0A9477
:1019B000E2F7809584238C9332C0A5E3B0E0E5E3A1
:1019C000F0E08081482F8B81282F30E081E090E08B
:1019D000022E02C0880F991F0A94E2F78095842393
:1019E0008C931DC0A2E3B0E0E2E3F0E08081482FD9
:1019F0008B81282F30E081E090E0022E02C0880F1A
:101A0000991F0A94E2F7809584238C9308C081E0A3
:101A1000898305C081E0898302C081E0898389814F
:101A200028960FB6F894DEBF0FBECDBFCF91DF91E1
:101A30000895DF93CF9300D000D00F92CDB7DEB7DB
:101A40008A836B8319828B81883008F072C08A8107
:101A5000282F30E03D832C838C819D81813091053E
:101A600049F12C813D81223031052CF48C819D81FE
:101A7000009761F05BC02C813D812230310571F10E
:101A80008C819D8183309105E9F150C0ABE3B0E0DA
:101A9000EBE3F0E08081482F8B81282F30E081E05C
:101AA00090E0022E02C0880F991F0A94E2F7842763
:101AB0008C9341C0A8E3B0E0E8E3F0E08081482FD8
:101AC0008B81282F30E081E090E0022E02C0880F49
:101AD000991F0A94E2F784278C932DC0A5E3B0E008
:101AE000E5E3F0E08081482F8B81282F30E081E012
:101AF00090E0022E02C0880F991F0A94E2F7842713
:101B00008C9319C0A2E3B0E0E2E3F0E08081482FBB
:101B10008B81282F30E081E090E0022E02C0880FF8
:101B2000991F0A94E2F784278C9305C081E089838A
:101B300002C081E0898389810F900F900F900F90F0
:101B40000F90CF91DF910895DF93CF93CDB7DEB79C
:101B500027970FB6F894DEBF0FBECDBF8A836B8385
:101B60005D834C8319828B81883008F074C08A8130
:101B7000282F30E03F832E834E815F814130510515
:101B800059F18E819F818230910534F42E813F81FD
:101B90002115310569F05CC04E815F8142305105ED
:101BA00079F18E819F818330910509F43DC050C049
:101BB000E9E3F0E08081282F30E08B81882F90E0EE
:101BC000A90102C0559547958A95E2F7CA0181702F
:101BD000EC81FD81808341C0E6E3F0E08081282F25
:101BE00030E08B81882F90E0A90102C05595479580
:101BF0008A95E2F7CA018170EC81FD8180832DC056
:101C0000E3E3F0E08081282F30E08B81882F90E0A3
:101C1000A90102C0559547958A95E2F7CA018170DE
:101C2000EC81FD81808319C0E0E3F0E08081282F02
:101C300030E08B81882F90E0A90102C0559547952F
:101C40008A95E2F7CA018170EC81FD81808305C02D
:101C500081E0898302C081E08983898127960FB65C
:101C6000F894DEBF0FBECDBFCF91DF910895DF9313
:101C7000CF9300D000D00F92CDB7DEB78A836B83AD
:101C800019828A81282F30E03D832C838C819D81AD
:101C900081309105D1F02C813D81223031052CF429
:101CA0008C819D81009761F01FC02C813D81223085
:101CB000310581F08C819D818330910581F014C0C4
:101CC000EAE3F0E08B81808311C0E7E3F0E08B81F1
:101CD00080830CC0E4E3F0E08B81808307C0E1E304
:101CE000F0E08B81808302C081E0898389810F903D
:101CF0000F900F900F900F90CF91DF910895DF9389
:101D0000CF9300D000D00F92CDB7DEB78A836B831C
:101D100019828A81282F30E03D832C838C819D811C
:101D200081309105D1F02C813D81223031052CF498
:101D30008C819D81009761F01FC02C813D812230F4
:101D4000310581F08C819D818330910581F014C033
:101D5000EBE3F0E08B81808311C0E8E3F0E08B815E
:101D600080830CC0E5E3F0E08B81808307C0E2E371
:101D7000F0E08B81808302C081E0898389810F90AC
:101D80000F900F900F900F90CF91DF910895DF93F8
:101D9000CF93CDB7DEB77894CF91DF910895DF93DD
:101DA000CF93CDB7DEB7F894CF91DF910895DF934D
:101DB000CF93CDB7DEB7EAE3F0E08FEF8083E7E3C0
:101DC000F0E08FEF8083E4E3F0E08FEF8083E1E3E6
:101DD000F0E08FEB8083EBE3F0E01082E8E3F0E0EB
:101DE0001082E5E3F0E01082E2E3F0E01082CF91B0
:101DF000DF910895DF93CF93CDB7DEB727970FB666
:101E0000F894DEBF0FBECDBF9B838A8319828A817F
:101E10009B81009709F4DEC080917E01882309F040
:101E2000D6C081E080937E01EA81FB818181282FE9
:101E300030E03F832E838E819F818130910521F197
:101E40002E813F81223031052CF48E819F810097B5
:101E500061F046C02E813F812230310521F18E8113
:101E60009F818330910571F13BC0A3E5B0E0E3E5CC
:101E7000F0E080818F7B8C93A3E5B0E0E3E5F0E0B8
:101E80008081877F8C932CC0A3E5B0E0E3E5F0E090
:101E9000808180648C93A3E5B0E0E3E5F0E080818D
:101EA000877F8C931DC0A3E5B0E0E3E5F0E080817F
:101EB0008F7B8C93A3E5B0E0E3E5F0E08081886060
:101EC0008C930EC0A3E5B0E0E3E5F0E08081806490
:101ED0008C93A3E5B0E0E3E5F0E0808188608C932B
:101EE000A3E5B0E0E3E5F0E080818F7C8C93EA81AC
:101EF000FB818181882329F0EA81FB818181823005
:101F0000E1F4EA81FB8182818430A0F4A3E5B0E0B2
:101F1000E3E5F0E08081282FEA81FB818281882F30
:101F200090E082959295907F9827807F9827822BCA
:101F30008C933BC081E0898338C0EA81FB81818139
:101F4000833029F0EA81FB818181813071F5EA815A
:101F5000FB818281282F30E03D832C838C819D8101
:101F60008430910581F02C813D812530310599F037
:101F70008C819D810097B9F4E3E5F0E0A3E5B0E042
:101F80008C91808312C0A3E5B0E0E3E5F0E08081AE
:101F900080628C930AC0A3E5B0E0E3E5F0E08081C5
:101FA00080638C9302C081E08983A3E5B0E0E3E520
:101FB000F0E08081887F8C93A3E5B0E0E3E5F0E07A
:101FC0009081EA81FB818081892B8C9305C084E01C
:101FD000898302C082E08983898127960FB6F894AD
:101FE000DEBF0FBECDBFCF91DF910895DF93CF93BA
:101FF000CDB7DEB729970FB6F894DEBF0FBECDBFC1
:102000009B838A8319828A819B81009709F471C11D
:1020100080917F01882309F069C181E080937F016D
:10202000AFE4B0E0EFE4F0E080818C7F8C93AEE42D
:10203000B0E0EEE4F0E08081877E8C93AFE4B0E026
:10204000EFE4F0E08081982FEA81FB818181837049
:10205000892B8C93AEE4B0E0EEE4F0E08081282F91
:10206000EA81FB81818186958695882F90E0837037
:102070009070880F991F880F991F880F991F822BC6
:102080008C93EA81FB818181282F30E03987288772
:10209000888599858C309105B4F42885398525305B
:1020A00031050CF070C08885998584309105C4F4A1
:1020B00028853985213031050CF065C088859985E2
:1020C000009771F0FFC0288539852C30310541F02B
:1020D000888599850E978230910508F0F3C053C02A
:1020E000EA81FB8182818430F0F4AFE4B0E0EFE478
:1020F000F0E080818F738C93AFE4B0E0EFE4F0E028
:102100008081282FEA81FB818281882F90E0002442
:10211000969587950794969587950794982F802D87
:10212000822B8C9307C0EA81FB818281863011F07B
:1021300081E08983EA81FB8183818430D8F4AFE434
:10214000B0E0EFE4F0E080818F7C8C93AFE4B0E00E
:10215000EFE4F0E08081282FEA81FB818381882FE2
:1021600090E082959295907F9827807F9827822B88
:102170008C93AAC0EA81FB818381863009F4A4C0D4
:1021800081E08983A1C0EA81FB818281282F30E030
:102190003F832E838E819F818430910519F12E819A
:1021A0003F81253031052CF48E819F81009761F0AD
:1021B00037C02E813F812530310519F18E819F81F5
:1021C0008630910579F12CC0AFE4B0E0EFE4F0E0A7
:1021D00080818F738C93AFE4B0E0EFE4F0E0808116
:1021E0008C9320C0AFE4B0E0EFE4F0E080818F7327
:1021F0008C93AFE4B0E0EFE4F0E0808180688C93F2
:1022000011C0AFE4B0E0EFE4F0E080818F738C9315
:10221000AFE4B0E0EFE4F0E08081806C8C9302C02A
:1022200081E08983EA81FB818381282F30E03D832F
:102230002C838C819D818430910519F12C813D8105
:10224000253031052CF48C819D81009761F037C0D9
:102250002C813D812530310519F18C819D8186309D
:10226000910591F12CC0AFE4B0E0EFE4F0E08081A3
:102270008F7C8C93AFE4B0E0EFE4F0E080818C934E
:1022800023C0AFE4B0E0EFE4F0E080818F7C8C937A
:10229000AFE4B0E0EFE4F0E0808180628C9314C0A2
:1022A000AFE4B0E0EFE4F0E080818F7C8C93AFE4AA
:1022B000B0E0EFE4F0E0808180638C9305C081E0C2
:1022C000898302C081E08983AEE4B0E0EEE4F0E00F
:1022D0008081887F8C93AEE4B0E0EEE4F0E0908102
:1022E000EA81FB818081892B8C9305C084E08983FE
:1022F00002C082E08983898129960FB6F894DEBFF7
:102300000FBECDBFCF91DF910895DF93CF93CDB7AF
:10231000DEB727970FB6F894DEBF0FBECDBF9B8305
:102320008A8319828A819B81009709F4DEC080919B
:102330008001882309F0D6C081E080938001EA8182
:10234000FB818181282F30E03F832E838E819F8106
:102350008130910521F12E813F81223031052CF40D
:102360008E819F81009761F046C02E813F8122308F
:10237000310521F18E819F818330910571F13BC040
:10238000A5E4B0E0E5E4F0E080818F7B8C93A5E4E8
:10239000B0E0E5E4F0E08081877F8C932CC0A5E479
:1023A000B0E0E5E4F0E0808180648C93A5E4B0E0E7
:1023B000E5E4F0E08081877F8C931DC0A5E4B0E068
:1023C000E5E4F0E080818F7B8C93A5E4B0E0E5E468
:1023D000F0E0808188608C930EC0A5E4B0E0E5E475
:1023E000F0E0808180648C93A5E4B0E0E5E4F0E067
:1023F000808188608C93A5E4B0E0E5E4F0E0808122
:102400008F7C8C93EA81FB818181882329F0EA818A
:10241000FB8181818230E1F4EA81FB818281843019
:10242000A0F4A5E4B0E0E5E4F0E08081282FEA81A3
:10243000FB818281882F90E082959295907F9827EA
:10244000807F9827822B8C933BC081E0898338C0A2
:10245000EA81FB818181833029F0EA81FB818181DE
:10246000813071F5EA81FB818281282F30E03D8344
:102470002C838C819D818430910581F02C813D815C
:102480002530310599F08C819D810097B9F4E5E400
:10249000F0E0A5E4B0E08C91808312C0A5E4B0E048
:1024A000E5E4F0E0808180628C930AC0A5E4B0E0AE
:1024B000E5E4F0E0808180638C9302C081E0898351
:1024C000A5E4B0E0E5E4F0E08081887F8C93A5E4AA
:1024D000B0E0E5E4F0E09081EA81FB818081892B26
:1024E0008C9305C084E0898302C082E0898389815E
:1024F00027960FB6F894DEBF0FBECDBFCF91DF9108
:102500000895DF93CF9300D000D000D0CDB7DEB7D1
:102510009B838A836C8319828A819B81009709F44B
:1025200060C0A3E5B0E0E3E5F0E080818F7C8C93B0
:10253000EA81FB818181882329F0EA81FB81818105
:102540008230C1F48C81843090F4A3E5B0E0E3E5FF
:10255000F0E08081282F8C81882F90E082959295E1
:10256000907F9827807F9827822B8C933CC081E0B6
:10257000898339C0EA81FB818181833029F0EA8136
:10258000FB818181813079F58C81282F30E03E8379
:102590002D838D819E818430910581F02D813E8136
:1025A0002530310599F08D819E810097B9F4E3E5DE
:1025B000F0E0A3E5B0E08C91808315C0A3E5B0E026
:1025C000E3E5F0E0808180628C930DC0A3E5B0E08C
:1025D000E3E5F0E0808180638C9305C081E089832E
:1025E00002C082E08983898126960FB6F894DEBF07
:1025F0000FBECDBFCF91DF910895DF93CF93CDB7BD
:10260000DEB728970FB6F894DEBF0FBECDBF9B8311
:102610008A836C8319828A819B81009709F4A5C003
:10262000EA81FB818181282F30E038872F838F81D9
:1026300098858C309105ACF42F8138852530310593
:102640000CF042C08F81988584309105BCF42F81B5
:10265000388521303105C4F58F819885009771F058
:1026600081C02F8138852C30310541F08F819885CC
:102670000E978230910508F075C026C08C81843099
:10268000E0F4AFE4B0E0EFE4F0E080818F738C938E
:10269000AFE4B0E0EFE4F0E08081282F8C81882F58
:1026A00090E00024969587950794969587950794D2
:1026B000982F802D822B8C935AC08C81863009F400
:1026C00056C081E0898353C08C81282F30E03E833F
:1026D0002D838D819E818430910519F12D813E815C
:1026E000253031052CF48D819E81009761F037C033
:1026F0002D813E812530310519F18D819E818630F5
:102700009105A9F12CC0AFE4B0E0EFE4F0E08081E6
:102710008F738C93AFE4B0E0EFE4F0E080818C93B2
:1027200026C0AFE4B0E0EFE4F0E080818F738C93DB
:10273000AFE4B0E0EFE4F0E0808180688C9317C0F4
:10274000AFE4B0E0EFE4F0E080818F738C93AFE40E
:10275000B0E0EFE4F0E08081806C8C9308C081E011
:10276000898305C081E0898302C082E089838981F1
:1027700028960FB6F894DEBF0FBECDBFCF91DF9184
:102780000895DF93CF93CDB7DEB728970FB6F894AF
:10279000DEBF0FBECDBF9B838A836C8319828A8183
:1027A0009B81009709F4A2C0EA81FB818181282FD7
:1027B00030E038872F838F8198858C309105ACF479
:1027C0002F813885253031050CF03FC08F819885E9
:1027D00084309105BCF42F81388521303105ACF56A
:1027E0008F819885009771F07EC02F8138852C30BD
:1027F000310541F08F8198850E978230910508F060
:1028000072C023C08C818430C8F4AFE4B0E0EFE440
:10281000F0E080818F7C8C93AFE4B0E0EFE4F0E0F7
:102820008081282F8C81882F90E082959295907FCF
:102830009827807F9827822B8C935AC08C81863072
:1028400009F456C081E0898353C08C81282F30E081
:102850003E832D838D819E818430910519F12D81D8
:102860003E81253031052CF48D819E81009761F0E9
:1028700037C02D813E812530310519F18D819E8132
:1028800086309105A9F12CC0AFE4B0E0EFE4F0E0B0
:1028900080818F7C8C93AFE4B0E0EFE4F0E0808146
:1028A0008C9326C0AFE4B0E0EFE4F0E080818F7C51
:1028B0008C93AFE4B0E0EFE4F0E0808180628C9331
:1028C00017C0AFE4B0E0EFE4F0E080818F7C8C9340
:1028D000AFE4B0E0EFE4F0E0808180638C9308C067
:1028E00081E0898305C081E0898302C082E0898319
:1028F000898128960FB6F894DEBF0FBECDBFCF9169
:10290000DF910895DF93CF93CDB7DEB728970FB649
:10291000F894DEBF0FBECDBF9B838A836C83198280
:102920008A819B81009709F4CDC0EA81FB81818176
:10293000282F30E038872F838F819885813091054B
:1029400021F12F813885223031052CF48F81988533
:10295000009761F046C02F8138852230310521F182
:102960008F8198858330910571F13BC0A5E4B0E07B
:10297000E5E4F0E080818F7B8C93A5E4B0E0E5E4B2
:10298000F0E08081877F8C932CC0A5E4B0E0E5E483
:10299000F0E0808180648C93A5E4B0E0E5E4F0E0B1
:1029A0008081877F8C931DC0A5E4B0E0E5E4F0E072
:1029B00080818F7B8C93A5E4B0E0E5E4F0E080813A
:1029C00088608C930EC0A5E4B0E0E5E4F0E080817F
:1029D00080648C93A5E4B0E0E5E4F0E08081886059
:1029E0008C93A5E4B0E0E5E4F0E080818F7C8C93EB
:1029F000EA81FB818181882329F0EA81FB81818141
:102A00008230C1F48C81843090F4A5E4B0E0E5E438
:102A1000F0E08081282F8C81882F90E0829592951C
:102A2000907F9827807F9827822B8C9339C081E0F4
:102A3000898336C0EA81FB818181833029F0EA8174
:102A4000FB818181813061F58C81282F30E03E83CC
:102A50002D838D819E818430910581F02D813E8171
:102A60002530310599F08D819E810097B9F4E5E418
:102A7000F0E0A5E4B0E08C91808312C0A5E4B0E062
:102A8000E5E4F0E0808180628C930AC0A5E4B0E0C8
:102A9000E5E4F0E0808180638C9302C081E089836B
:102AA000A5E4B0E0E5E4F0E08081887F8C93A5E4C4
:102AB000B0E0E5E4F0E09081EA81FB818081892B40
:102AC0008C9302C082E08983898128960FB6F8949E
:102AD000DEBF0FBECDBFCF91DF910895DF93CF93BF
:102AE00000D000D0CDB7DEB78A8319828A81282F23
:102AF00030E03C832B838B819C818330910509F4EA
:102B000042C02B813C81243031057CF48B819C8137
:102B10008130910541F12B813C81223031055CF5FA
:102B20008B819C810097B9F056C02B813C81253068
:102B30003105C9F18B819C818530910564F12B8130
:102B40003C812630310509F43EC08B819C81873061
:102B5000910589F140C0A9E5B0E0E9E5F0E08081A8
:102B600081608C933AC0A9E5B0E0E9E5F0E08081AE
:102B700082608C9332C0A9E5B0E0E9E5F0E08081A5
:102B800084608C932AC0A9E5B0E0E9E5F0E080819B
:102B900080618C9322C0A9E5B0E0E9E5F0E0808196
:102BA00088608C931AC0A9E5B0E0E9E5F0E0808187
:102BB00080628C9312C0A9E5B0E0E9E5F0E0808185
:102BC00080688C930AC0A9E5B0E0E9E5F0E0808177
:102BD00080648C9302C081E0898389810F900F907B
:102BE0000F900F90CF91DF910895DF93CF9300D096
:102BF00000D0CDB7DEB78A8319828A81282F30E0D2
:102C00003C832B838B819C818330910509F442C0E6
:102C10002B813C81243031057CF48B819C81813077
:102C2000910541F12B813C81223031055CF58B818E
:102C30009C810097B9F056C02B813C81253031052D
:102C4000C9F18B819C818530910564F12B813C8198
:102C50002630310509F43EC08B819C818730910577
:102C600089F140C0A9E5B0E0E9E5F0E080818E7F20
:102C70008C933AC0A9E5B0E0E9E5F0E080818D7F72
:102C80008C9332C0A9E5B0E0E9E5F0E080818B7F6C
:102C90008C932AC0A9E5B0E0E9E5F0E080818F7E61
:102CA0008C9322C0A9E5B0E0E9E5F0E08081877F60
:102CB0008C931AC0A9E5B0E0E9E5F0E080818F7D52
:102CC0008C9312C0A9E5B0E0E9E5F0E080818F7750
:102CD0008C930AC0A9E5B0E0E9E5F0E080818F7B44
:102CE0008C9302C081E0898389810F900F900F90AF
:102CF0000F90CF91DF910895DF93CF9300D000D054
:102D0000CDB7DEB78A8319828A81282F30E03C83D1
:102D10002B838B819C818130910599F02B813C81A3
:102D200022303105C1F08B819C810097F1F4109223
:102D30007E01A3E5B0E0E3E5F0E08081887F8C933D
:102D400016C010927F01AEE4B0E0EEE4F0E08081C6
:102D5000887F8C930CC010928001A5E4B0E0E5E47C
:102D6000F0E08081887F8C9302C081E08983898133
:102D70000F900F900F900F90CF91DF910895DF93F8
:102D8000CF9300D000D0CDB7DEB78A837C836B832E
:102D900019828B819C81009769F08A81882F90E04D
:102DA000880F991FFC01EF57FE4F8B819C81918307
:102DB000808302C082E0898389810F900F900F90F9
:102DC0000F90CF91DF910895DF93CF930F92CDB7FE
:102DD000DEB78983ECE5F0E0898180830F90CF91A5
:102DE000DF910895DF93CF930F92CDB7DEB789833C
:102DF000E2E5F0E0898180830F90CF91DF91089523
:102E0000DF93CF93CDB7DEB7E2E5F0E08081CF91DD
:102E1000DF910895DF93CF930F92CDB7DEB789830B
:102E2000E3E4F0E0898180830F90CF91DF910895F2
:102E3000DF93CF930F92CDB7DEB78983E4E4F0E060
:102E4000898180830F90CF91DF910895DF93CF9395
:102E5000CDB7DEB7E4E4F0E08081CF91DF91089553
:102E6000DF93CF9300D0CDB7DEB79A838983EAE4AE
:102E7000F0E089819A81918380830F900F90CF91A8
:102E8000DF910895DF93CF9300D0CDB7DEB79A835B
:102E90008983E8E4F0E089819A81918380830F90AF
:102EA0000F90CF91DF910895DF93CF9300D0CDB7EE
:102EB000DEB79A838983ECE4F0E089819A8191837B
:102EC00080830F900F90CF91DF910895DF93CF9380
:102ED00000D0CDB7DEB79A838983E6E4F0E089813C
:102EE0009A81918380830F900F90CF91DF91089505
:102EF000DF93CF93CDB7DEB7ECE4F0E08081918132
:102F0000CF91DF910895DF93CF93CDB7DEB7E6E49D
:102F1000F0E080819181CF91DF910895DF93CF938D
:102F200000D000D0CDB7DEB78A8319828A81282FDE
:102F300030E03C832B838B819C81009731F02B8187
:102F40003C812130310549F010C0AEE4B0E0EEE440
:102F5000F0E0808180648C930AC0AEE4B0E0EEE4DF
:102F6000F0E080818F7B8C9302C081E0898389812E
:102F70000F900F900F900F90CF91DF910895DF93F6
:102F8000CF93CDB7DEB7A1E4B0E0E1E4F0E080811B
:102F900088608C93CF91DF910895DF93CF93CDB765
:102FA000DEB7A1E4B0E0E1E4F0E0808188618C93D9
:102FB000A1E4B0E0E1E4F0E08081877F8C93CF91E1
:102FC000DF910895DF93CF9300D0CDB7DEB78A832A
:102FD00019828A81883080F4A1E4B0E0E1E4F0E075
:102FE0008081887F8C93A1E4B0E0E1E4F0E09081FF
:102FF0008A81892B8C9302C081E0898389810F901B
:103000000F90CF91DF9108951F920F920FB60F92FC
:1030100011242F933F934F935F936F937F938F93DD
:103020009F93AF93BF93EF93FF93DF93CF93CDB76E
:10303000DEB78091810190918201009729F0E091A3
:103040008101F09182010995CF91DF91FF91EF917C
:10305000BF91AF919F918F917F916F915F914F91B0
:103060003F912F910F900FBE0F901F9018951F92B8
:103070000F920FB60F9211242F933F934F935F93AC
:103080006F937F938F939F93AF93BF93EF93FF9330
:10309000DF93CF93CDB7DEB7809183019091840108
:1030A000009729F0E0918301F09184010995CF9177
:1030B000DF91FF91EF91BF91AF919F918F917F91A0
:1030C0006F915F914F913F912F910F900FBE0F9095
:1030D0001F9018951F920F920FB60F9211242F93E5
:1030E0003F934F935F936F937F938F939F93AF9390
:1030F000BF93EF93FF93DF93CF93CDB7DEB780916C
:10310000850190918601009729F0E0918501F09169
:1031100086010995CF91DF91FF91EF91BF91AF911A
:103120009F918F917F916F915F914F913F912F91DF
:103130000F900FBE0F901F9018951F920F920FB611
:103140000F9211242F933F934F935F936F937F932D
:103150008F939F93AF93BF93EF93FF93DF93CF939F
:10316000CDB7DEB78091890190918A01009729F04F
:10317000E0918901F0918A010995CF91DF91FF914A
:10318000EF91BF91AF919F918F917F916F915F91DF
:103190004F913F912F910F900FBE0F901F90189558
:1031A0001F920F920FB60F9211242F933F934F93BC
:1031B0005F936F937F938F939F93AF93BF93EF939F
:1031C000FF93DF93CF93CDB7DEB7809187019091C6
:1031D0008801009729F0E0918701F0918801099515
:1031E000CF91DF91FF91EF91BF91AF919F918F911F
:1031F0007F916F915F914F913F912F910F900FBEF3
:103200000F901F9018951F920F920FB60F921124D6
:103210002F933F934F935F936F937F938F939F93DE
:10322000AF93BF93EF93FF93DF93CF93CDB7DEB709
:1032300080918B0190918C01009729F0E0918B0196
:10324000F0918C010995CF91DF91FF91EF91BF91A2
:10325000AF919F918F917F916F915F914F913F912E
:103260002F910F900FBE0F901F9018951F920F92E5
:103270000FB60F9211242F933F934F935F936F9349
:103280007F938F939F93AF93BF93EF93FF93DF93BE
:10329000CF93CDB7DEB780918D0190918E010097CD
:1032A00029F0E0918D01F0918E010995CF91DF9188
:1032B000FF91EF91BF91AF919F918F917F916F910E
:1032C0005F914F913F912F910F900FBE0F901F90E4
:1032D00018951F920F920FB60F9211242F933F93C0
:1032E0004F935F936F937F938F939F93AF93BF930E
:1032F000EF93FF93DF93CF93CDB7DEB780918F012C
:1033000090919001009729F0E0918F01F091900148
:103310000995CF91DF91FF91EF91BF91AF919F916F
:103320008F917F916F915F914F913F912F910F906E
:103330000FBE0F901F901895DF93CF93CDB7DEB7D8
:10334000AA970FB6F894DEBF0FBECDBF98A78FA384
:103350007AA769A71AA219A21D8E1E8E1F8E18A207
:10336000198E1A8E1B8E1C8E82E08BA31CA21DA2AE
:103370001EA2CE0183960E94F60F89A389A18823FD
:1033800009F0BBC12AEB3BE182E0B9010E94BF1604
:1033900080E00E948E1729E83BE185E0B9010E9498
:1033A000BF1685E00E946E15EFA1F8A58081EFA100
:1033B000F8A59181692F41E00E94070C80E090E020
:1033C000A8ECB2E48D8B9E8BAF8BB88F6D897E8914
:1033D0008F89988D2BEA3AEA4AE250E40E941F0254
:1033E000DC01CB01898B9A8BAB8BBC8B69897A8989
:1033F0008B899C8920E030E040E85FE30E9425044F
:1034000088231CF481E0888B91C069897A898B8933
:103410009C8920E030E04FE753E40E94C503181672
:103420000CF07BC06D897E898F89988D20E030E01B
:103430004AE754E40E941903DC01CB018C879D8785
:10344000AE87BF876C857D858E859F8520E030E0C7
:103450004AEF54E40E941F02DC01CB018887998760
:10346000AA87BB87688579858A859B8520E030E0BF
:1034700040E85FE30E94250488232CF481E090E07B
:103480009F838E833FC0688579858A859B8520E0F0
:103490003FEF4FE757E40E94C50318164CF56C85C3
:1034A0007D858E859F8520E030E040E251E40E94DA
:1034B0001F02DC01CB01BC01CD010E944900DC01EF
:1034C000CB019F838E830FC088EC90E09D838C831B
:1034D0008C819D810197F1F79D838C838E819F81E3
:1034E00001979F838E838E819F81009769F724C007
:1034F000688579858A859B850E944900DC01CB011E
:103500009F838E838E819F819B838A838A819B8107
:103510000197F1F79B838A830FC069897A898B8928
:103520009C890E944900DC01CB01888B88898983B2
:1035300089818A95F1F78983EFA1F8A58081EFA1B0
:10354000F8A59181692F40E00E94070C0BC0898D7E
:103550009A8DAB8DBC8D0196A11DB11D898F9A8F5F
:10356000AB8FBC8F8091910190919201009731F0C7
:103570008091930190919401009761F4898D9A8DC7
:10358000AB8DBC8D803523EC920720E0A20720E0B4
:10359000B207E8F282E00E94F51585E00E94F51579
:1035A00081E00E947C16809197019091980100978C
:1035B000A1F4209193013091940180919101909117
:1035C0009201A901481B590BCA01CC01A0E0B0E04F
:1035D0008D8F9E8FAF8FB8A359C0209193013091EA
:1035E000940180919101909192012817390710F16F
:1035F00020919301309194018091910190919201D9
:10360000A901481B590BCA019C0140E050E0809180
:10361000970190919801CC01A0E0B0E0DC019927DE
:103620008827820F931FA41FB51F8D8F9E8FAF8F8A
:10363000B8A32CC020919301309194018091910105
:10364000909192012817390708F520919101309146
:1036500092018091930190919401A901481B590B0B
:10366000CA019C0140E050E080919701909198013F
:10367000CC01A0E0B0E0DC0199278827820F931FDE
:10368000A41FB51F8D8F9E8FAF8FB8A36D8D7E8DBC
:103690008F8D98A10E94A904DC01CB01BC01CD0152
:1036A00020E030E040E050E40E941903DC01CB014F
:1036B000BC01CD0126E933E44BE05DE30E941F022B
:1036C000DC01CB01BC01CD010E944900DC01CB0132
:1036D000E9A5FAA59183808310929201109291013D
:1036E00010929401109293011092960110929501FC
:1036F000109298011092970102C081E08AA38AA1DA
:10370000AA960FB6F894DEBF0FBECDBFCF91DF9162
:103710000895DF93CF93CDB7DEB7809199018F5F86
:103720008093990180919901813069F482E00E942F
:103730006E150E948317909392018093910181E00E
:103740000E948E1714C080919901823081F40E94EA
:1037500083179093940180939301809195019091A8
:103760009601909398018093970110929901CF91BF
:10377000DF910895DF93CF93CDB7DEB780919501A8
:103780009091960101969093960180939501CF9127
:10379000DF9108950F931F93DF93CF93CDB7DEB7DB
:1037A000C656D0400FB6F894DEBF0FBECDBF0E9404
:1037B000D70E0E94C70EFE01ED59FF4F11821082F5
:1037C000FE01EB59FF4F82E08083FE01EB59FF4F72
:1037D0001182CE018B599F4F9E012D593F4FB90148
:1037E0000E949C1982E062E040E00E94070CFE010A
:1037F000ED59FF4F808191818F31910550F7FE0186
:10380000ED59FF4F808191818531910508F472C196
:1038100082E062E041E00E94070CFE01E15AFF4FA6
:1038200080E090E0A0EFB2E480839183A283B38331
:103830008E01055A1F4FFE01E15AFF4F60817181D1
:103840008281938120E030E04AEF54E40E941F021D
:10385000DC01CB01F80180839183A283B383FE0155
:10386000E55AFF4F608171818281938120E030E0D1
:1038700040E85FE30E942504882344F4FE01E75AF0
:10388000FF4F81E090E09183808364C0FE01E55AA0
:10389000FF4F608171818281938120E03FEF4FE78C
:1038A00057E40E94C50318160CF043C0FE01E15A0C
:1038B000FF4F608171818281938120E030E040E29E
:1038C00051E40E941F02DC01CB018E01075A1F4FF9
:1038D000BC01CD010E944900DC01CB01F8019183BC
:1038E00080831FC0FE01E95AFF4F88EC90E091836E
:1038F0008083FE01E95AFF4F808191810197F1F7A2
:10390000FE01E95AFF4F91838083DE01A75ABF4F22
:10391000FE01E75AFF4F80819181019711969C9398
:103920008E93FE01E75AFF4F808191810097D1F677
:1039300027C08E01075A1F4FFE01E55AFF4F6081D5
:103940007181828193810E944900DC01CB01F801E1
:1039500091838083DE01AB5ABF4FFE01E75AFF4FD0
:10396000808191818D939C93FE01EB5AFF4F808162
:1039700091810197F1F7FE01EB5AFF4F918380830C
:1039800082E062E040E00E94070CFE01EF5AFF4F28
:1039900080E090E0AEEEB2E480839183A283B383B3
:1039A0008E01035B1F4FFE01EF5AFF4F6081718153
:1039B0008281938120E030E04AEF54E40E941F02AC
:1039C000DC01CB01F80180839183A283B383FE01E4
:1039D000E35BFF4F608171818281938120E030E061
:1039E00040E85FE30E942504882344F4FE01E55B80
:1039F000FF4F81E090E09183808364C0FE01E35B30
:103A0000FF4F608171818281938120E03FEF4FE71A
:103A100057E40E94C50318160CF043C0FE01EF5A8C
:103A2000FF4F608171818281938120E030E040E22C
:103A300051E40E941F02DC01CB018E01055B1F4F88
:103A4000BC01CD010E944900DC01CB01F80191834A
:103A500080831FC0FE01E75BFF4F88EC90E09183FD
:103A60008083FE01E75BFF4F808191810197F1F731
:103A7000FE01E75BFF4F91838083DE01A55BBF4FB3
:103A8000FE01E55BFF4F80819181019711969C9328
:103A90008E93FE01E55BFF4F808191810097D1F607
:103AA00098CE8E01055B1F4FFE01E35BFF4F6081E7
:103AB0007181828193810E944900DC01CB01F80170
:103AC00091838083DE01A95BBF4FFE01E55BFF4F61
:103AD0008081918111969C938E93FE01E95BFF4F4B
:103AE000808191810197F1F7FE01E95BFF4F91839E
:103AF00080836FCEFE01ED59FF4F808191818B3025
:103B0000910508F402C182E062E041E00E94070CE6
:103B1000FE01ED5BFF4F80E090E0A4EBB2E4808318
:103B20009183A283B3838E01015C1F4FFE01ED5B85
:103B3000FF4F608171818281938120E030E04AEF04
:103B400054E40E941F02DC01CB01F80180839183C1
:103B5000A283B383FE01FF9660817181828193818C
:103B600020E030E040E85FE30E94250488232CF445
:103B700081E090E09EAF8DAF46C0FE01FF96608170
:103B800071818281938120E03FEF4FE757E40E94EB
:103B9000C503181664F5FE01ED5BFF4F608171816E
:103BA0008281938120E030E040E251E40E941F02D4
:103BB000DC01CB01BC01CD010E944900DC01CB013D
:103BC0009EAF8DAF0FC088EC90E09CAF8BAF8BADFC
:103BD0009CAD0197F1F79CAF8BAF8DAD9EAD01977A
:103BE0009EAF8DAF8DAD9EAD009769F716C0FE01FB
:103BF000FF9660817181828193810E944900DC017E
:103C0000CB019EAF8DAF8DAD9EAD9AAF89AF89AD23
:103C10009AAD0197F1F79AAF89AF82E062E040E098
:103C20000E94070C80E090E0A2EBB2E48DAB9EAB6B
:103C3000AFABB8AF6DA97EA98FA998AD20E030E0F9
:103C40004AEF54E40E941F02DC01CB0189AB9AAB1E
:103C5000ABABBCAB69A97AA98BA99CA920E030E0E9
:103C600040E85FE30E94250488232CF481E090E083
:103C700098AB8FA73FC069A97AA98BA99CA920E01E
:103C80003FEF4FE757E40E94C50318164CF56DA9A6
:103C90007EA98FA998AD20E030E040E251E40E9477
:103CA0001F02DC01CB01BC01CD010E944900DC01F7
:103CB000CB0198AB8FA70FC088EC90E09EA78DA793
:103CC0008DA59EA50197F1F79EA78DA78FA598A911
:103CD000019798AB8FA78FA598A9009769F779CD21
:103CE00069A97AA98BA99CA90E944900DC01CB0192
:103CF00098AB8FA78FA598A99CA78BA78BA59CA5F0
:103D00000197F1F79CA78BA764CDFE01ED59FF4FFA
:103D1000808191818630910508F4EFC082E062E0F5
:103D200041E00E94070C80E090E0A8E4B2E48FA399
:103D300098A7A9A7BAA76FA178A589A59AA520E0F9
:103D400030E04AEF54E40E941F02DC01CB018BA358
:103D50009CA3ADA3BEA36BA17CA18DA19EA120E0DD
:103D600030E040E85FE30E94250488232CF481E0E2
:103D700090E09AA389A33FC06BA17CA18DA19EA1D5
:103D800020E03FEF4FE757E40E94C50318164CF5BB
:103D90006FA178A589A59AA520E030E040E251E422
:103DA0000E941F02DC01CB01BC01CD010E94490031
:103DB000DC01CB019AA389A30FC088EC90E098A303
:103DC0008F8F8F8D98A10197F1F798A38F8F89A17D
:103DD0009AA101979AA389A389A19AA1009769F74B
:103DE00014C06BA17CA18DA19EA10E944900DC01A1
:103DF000CB019AA389A389A19AA19E8F8D8F8D8DC6
:103E00009E8D0197F1F79E8F8D8F82E062E040E0FA
:103E10000E94070C80E090E0A4E4B2E4898F9A8FBE
:103E2000AB8FBC8F698D7A8D8B8D9C8D20E030E0BF
:103E30004AEF54E40E941F02DC01CB018D8B9E8B64
:103E4000AF8BB88F6D897E898F89988D20E030E0A7
:103E500040E85FE30E94250488232CF481E090E091
:103E60009C8B8B8B3FC06D897E898F89988D20E0DC
:103E70003FEF4FE757E40E94C50318164CF5698DD4
:103E80007A8D8B8D9C8D20E030E040E251E40E94E1
:103E90001F02DC01CB01BC01CD010E944900DC0105
:103EA000CB019C8B8B8B0FC088EC90E09A8B898B1D
:103EB00089899A890197F1F79A8B898B8B899C89DB
:103EC00001979C8B8B8B8B899C89009769F781CCA0
:103ED0006D897E898F89988D0E944900DC01CB0114
:103EE0009C8B8B8B8B899C89988B8F878F859889EE
:103EF0000197F1F7988B8F876CCC82E062E041E00C
:103F00000E94070C80E090E0A0EFB1E48B879C87D3
:103F1000AD87BE876B857C858D859E8520E030E0F2
:103F20004AEF54E40E941F02DC01CB018F83988783
:103F3000A987BA876F81788589859A8520E030E0E6
:103F400040E85FE30E94250488232CF481E090E0A0
:103F50009E838D833FC06F81788589859A8520E017
:103F60003FEF4FE757E40E94C50318164CF56B85E9
:103F70007C858D859E8520E030E040E251E40E9402
:103F80001F02DC01CB01BC01CD010E944900DC0114
:103F9000CB019E838D830FC088EC90E09C838B8344
:103FA0008B819C810197F1F79C838B838D819E810E
:103FB00001979E838D838D819E81009769F709CC3F
:103FC0006F81788589859A850E944900DC01CB0143
:103FD0009E838D838D819E819A83898389819A8135
:103FE0000197F1F79A838983F4CB97FB092E052675
:103FF0000ED057FD04D014D00AD0001C38F45095D0
:104000004095309521953F4F4F4F5F4F0895F6F7FC
:1040100090958095709561957F4F8F4F9F4F089534
:10402000A1E21A2EAA1BBB1BFD010DC0AA1FBB1FBC
:10403000EE1FFF1FA217B307E407F50720F0A21B2E
:10404000B30BE40BF50B661F771F881F991F1A949B
:1040500069F760957095809590959B01AC01BD01C5
:10406000CF0108952F923F924F925F926F927F926D
:104070008F929F92AF92BF92CF92DF92EF92FF9278
:104080000F931F93CF93DF93CDB7DEB7CA1BDB0B24
:104090000FB6F894DEBF0FBECDBF09942A883988C9
:1040A00048885F846E847D848C849B84AA84B984D0
:1040B000C884DF80EE80FD800C811B81AA81B981DC
:1040C000CE0FD11D0FB6F894DEBF0FBECDBFED01F0
:0640D0000895F894FFCFF3
:1040D600306200307800000000000000000000019F
:1040E6000202030303030404040404040404050590
:1040F6000505050505050505050505050505060668
:104106000606060606060606060606060606060649
:104116000606060606060606060606060606070737
:104126000707070707070707070707070707070719
:104136000707070707070707070707070707070709
:1041460007070707070707070707070707070707F9
:1041560007070707070707070707070707070808E7
:1041660008080808080808080808080808080808C9
:1041760008080808080808080808080808080808B9
:1041860008080808080808080808080808080808A9
:104196000808080808080808080808080808080899
:1041A6000808080808080808080808080808080889
:1041B6000808080808080808080808080808080879
:1041C6000808080808080808080808080808080869
:1041D6000808080808080808080808080808303108
:0E41E60032333435363738394142434445468A
:00000001FF
