:100000000C942A000C9409120C943C120C946F125C
:100010000C9447000C9447000C9447000C94470044
:100020000C9447000C9447000C946B1F0C94381FE1
:100030000C9447000C9447000C9447000C94470024
:100040000C9400080C9447000C9447000C94470053
:100050000C94470011241FBECFE5D8E0DEBFCDBF12
:1000600013E0A0E6B0E0EAE6FBE602C005900D92E0
:10007000AE36B107D9F713E0AEE6B3E001C01D928A
:10008000A139B107E1F70E949E1F0C94B3350C947F
:100090000000EF92FF920F931F937B018C0120E0F1
:1000A00030E040E05FE40E94F50388238CF0C80153
:1000B000B70120E030E040E05FE40E94C1010E940F
:1000C00055049B01AC01205030404040504806C0D0
:1000D000C801B7010E9455049B01AC01B901CA01D6
:1000E0001F910F91FF90EF900895A0E0B0E0EBE733
:1000F000F0E00C947C35DC012B01FA019C919230EC
:1001000008F439C1EB018881823008F433C194309E
:1001100069F4843009F02FC111969C91119789815F
:10012000981709F428C1A3E7B1E025C1843009F488
:1001300021C18230A9F4923009F01DC19A01AD01AC
:1001400088E0EA010990AE01E90109929E0181501F
:10015000C1F7E201898111969C918923818308C1AD
:10016000923009F407C112962D903C901397EB0141
:100170008A819B811496AD90BD90CD90DC901797AD
:10018000EC80FD800E811F819101281B390BB90184
:1001900037FF04C066277727621B730B6032710537
:1001A0000CF061C0121613066CF537014801062EDB
:1001B00004C096948794779467940A94D2F721E0C8
:1001C00030E040E050E004C0220F331F441F551FB1
:1001D0006A95D2F721503040404050402E213F21B7
:1001E00040235123211531054105510521F021E01E
:1001F00030E040E050E079018A01E628F72808293C
:1002000019293CC0232BD1F1260E371E350146019A
:10021000062E04C096948794779467940A94D2F734
:1002200021E030E040E050E004C0220F331F441FC3
:10023000551F6A95D2F721503040404050402A2146
:100240003B214C215D21211531054105510521F04E
:1002500021E030E040E050E059016A01A628B728CB
:10026000C828D9280BC0821593052CF01C01AA249C
:10027000BB24650103C0EE24FF24870111969C91E5
:10028000D20111968C91981709F445C0992339F041
:10029000A80197012A193B094C095D0906C0A6016E
:1002A00095012E193F09400B510B57FD08C01182D3
:1002B0003382228224833583468357831DC081E0A5
:1002C00081833382228288279927DC01821B930B4A
:1002D000A40BB50B84839583A683B7830DC0220F2F
:1002E000331F441F551F24833583468357838281E0
:1002F000938101979383828324813581468157813D
:10030000DA01C9010197A109B1098F5F9F4FAF4F72
:10031000BF4328F30BC0918333822282EA0CFB1C7B
:100320000C1D1D1DE482F5820683178383E0808304
:10033000248135814681578157FF1AC0C901AA27F8
:1003400097FDA095BA2F81709070A070B0705695EF
:10035000479537952795822B932BA42BB52B848318
:100360009583A683B7838281938101969383828349
:10037000DF0101C0D201CD01CDB7DEB7E2E10C94BF
:100380009835A0E2B0E0E7ECF1E00C9488356983A1
:100390007A838B839C832D833E834F835887E9E048
:1003A000EE2EF12CEC0EFD1ECE010196B7010E943F
:1003B00046068E010F5E1F4FCE010596B8010E94C2
:1003C00046068A8991E089278A8BC701B801AE0168
:1003D000475E5F4F0E9475000E947105A096E6E09F
:1003E0000C94A435A0E2B0E0E8EFF1E00C9488357D
:1003F00069837A838B839C832D833E834F835887C5
:10040000F9E0EF2EF12CEC0EFD1ECE010196B701A6
:100410000E9446068E010F5E1F4FCE010596B80161
:100420000E944606C701B801AE01475E5F4F0E94B9
:1004300075000E947105A096E6E00C94A435A0E238
:10044000B0E0E5E2F2E00C947C3569837A838B833B
:100450009C832D833E834F835887CE010196BE0136
:10046000675F7F4F0E944606CE010596BE016F5E14
:100470007F4F0E9446069985923088F089898230A4
:10048000C8F0943019F4823051F404C0843029F457
:10049000923081F483E791E0C6C0923049F420E0C5
:1004A0009A858A89981321E02A87CE010996BBC0D4
:1004B000823049F420E09A858A89981321E02A8BBA
:1004C000CE014196B0C02D843E844F8458886D88FB
:1004D0007E888F88988CEE24FF248701AA24BB2471
:1004E000650140E050E060E070E0E0E0F0E0C10174
:1004F00081709070892BE9F0E60CF71C081D191D1E
:100500009A01AB012A0D3B1D4C1D5D1D80E090E062
:10051000A0E0B0E0E614F7040805190520F481E036
:1005200090E0A0E0B0E0BA01A901480F591F6A1F8E
:100530007B1FAA0CBB1CCC1CDD1C97FE08C081E0F5
:1005400090E0A0E0B0E0A82AB92ACA2ADB2A3196B6
:10055000E032F10549F0660C771C881C991C569412
:10056000479437942794C3CFFA85EA892B893C892D
:100570008B859C85280F391F2E5F3F4F17C0CA01FE
:1005800081709070892B61F016950795F794E79428
:1005900080E090E0A0E0B0E8E82AF92A0A2B1B2BC3
:1005A00076956795579547952F5F3F4F77FDE7CF36
:1005B0000CC0440F551F661F771F17FD4160EE0CDE
:1005C000FF1C001F111F21503040403090E05907A0
:1005D00090E0690790E4790760F32B8F3C8FDB0193
:1005E000CA018F779070A070B07080349105A1051A
:1005F000B10561F447FD0AC0E114F10401051105DC
:1006000029F0405C5F4F6F4F7F4F40781A8EFE1786
:1006100011F081E08A8F4D8F5E8F6F8F78A383E01A
:10062000898FCE0149960E947105A096E2E10C9453
:100630009835A8E1B0E0EFE1F3E00C9484356983EC
:100640007A838B839C832D833E834F835887B9E0C5
:10065000EB2EF12CEC0EFD1ECE010196B7010E948F
:1006600046068E010F5E1F4FCE010596B8010E940F
:1006700046062985223008F47EC03989323010F4CC
:10068000B8017CC08A859A8989278A87243011F02D
:10069000223031F4231709F06EC063E771E06EC0B9
:1006A000343039F41D861E861F86188A1C861B86E8
:1006B00004C0323021F484E08987B7015FC02B8504
:1006C0003C858B899C89281B390B3C872B87ED84C3
:1006D000FE840F851889AD88BE88CF88D88CEA142F
:1006E000FB040C051D0540F4EE0CFF1C001F111F40
:1006F000215030403C872B8720E030E040E050E044
:1007000080E090E0A0E0B0E460E070E0EA14FB0478
:100710000C051D0540F0282B392B4A2B5B2BEA18C2
:10072000FB080C091D09B695A79597958795EE0CC2
:10073000FF1C001F111F6F5F7F4F6F31710531F775
:10074000DA01C9018F779070A070B0708034910584
:10075000A105B10561F427FD0AC0E114F10401050A
:10076000110529F0205C3F4F4F4F5F4F20782D87B8
:100770003E874F87588BBE01675F7F4FCB010E943A
:1007800071056896EAE00C94A035A8E1B0E0EBECC6
:10079000F3E00C94883569837A838B839C832D8363
:1007A0003E834F83588789E0E82EF12CEC0EFD1E26
:1007B000CE010196B7010E9446068E010F5E1F4FC3
:1007C000CE010596B8010E9446068985823040F028
:1007D0008989823028F0C701B8010E94BE0601C095
:1007E0008FEF6896E6E00C94A435A8E1B0E0EBEF5B
:1007F000F3E00C94883569837A838B839C832D8303
:100800003E834F83588789E0E82EF12CEC0EFD1EC5
:10081000CE010196B7010E9446068E010F5E1F4F62
:10082000CE010596B8010E9446068985823040F0C7
:100830008989823028F0C701B8010E94BE0601C034
:100840008FEF6896E6E00C94A435A8E1B0E0EBE207
:10085000F4E00C94883569837A838B839C832D83A1
:100860003E834F83588789E0E82EF12CEC0EFD1E65
:10087000CE010196B7010E9446068E010F5E1F4F02
:10088000CE010596B8010E9446068985823040F067
:100890008989823028F0C701B8010E94BE0601C0D4
:1008A00081E06896E6E00C94A435ACE0B0E0EBE5BE
:1008B000F4E00C948C3569837A838B839C83CE011E
:1008C0000196BE016B5F7F4F0E9446068D8182308C
:1008D00061F1823050F1843021F48E81882351F10E
:1008E0002EC02F81388537FD20C06E812F31310514
:1008F0001CF06623F9F023C08EE190E0821B930B7D
:1009000029853A854B855C8504C056954795379572
:1009100027958A95D2F76623B1F05095409530958A
:1009200021953F4F4F4F5F4F0EC020E030E040E039
:1009300050E009C02FEF3FEF4FEF5FE704C020E02A
:1009400030E040E050E8B901CA012C96E2E00C9496
:10095000A835A8E0B0E0EFEAF4E00C9484357B0120
:100960008C01611571058105910519F482E0898377
:1009700060C083E089838EE1C82ED12CDC82CB82DB
:10098000ED82FE820F831887C801B7010E942205FD
:10099000FC013197F7FF3BC0222733272E1B3F0B6B
:1009A00057016801022E04C0D694C794B794A79447
:1009B0000A94D2F740E050E060E070E081E090E01F
:1009C000A0E0B0E004C0880F991FAA1FBB1F2A95A2
:1009D000D2F70197A109B1098E219F21A023B1234C
:1009E0000097A105B10521F041E050E060E070E022
:1009F0004A295B296C297D294D835E836F83788723
:100A00008EE190E08E1B9F0B9C838B8312C03097EE
:100A100081F00E2E04C0EE0CFF1C001F111F0A9463
:100A2000D2F7ED82FE820F831887CE1ADF0ADC82AE
:100A3000CB821A82CE0101960E9471052896EAE0C7
:100A40000C94A035EF92FF920F931F937B018C01C2
:100A500080E0E81680E0F80681E0080780E01807EB
:100A600088F48FEFE816F1040105110531F028F044
:100A700088E090E0A0E0B0E017C080E090E0A0E067
:100A8000B0E012C080E0E81680E0F80680E00807D9
:100A900081E0180728F088E190E0A0E0B0E004C011
:100AA00080E190E0A0E0B0E020E230E040E050E003
:100AB000281B390B4A0B5B0B04C016950795F7945E
:100AC000E7948A95D2F7F701E558FE4F8081281BFD
:100AD000310941095109C9011F910F91FF90EF9010
:100AE0000895DF92EF92FF920F931F93FC01E48031
:100AF000F58006811781D1808081823048F480E0C2
:100B000090E0A0E1B0E0E82AF92A0A2B1B2BA5C04F
:100B1000843009F49FC0823021F4EE24FF24870141
:100B200005C0E114F1040105110519F4E0E0F0E05D
:100B300096C0628173819FEF623879070CF05BC0C9
:100B400022E83FEF261B370B2A3131052CF020E03D
:100B500030E040E050E02AC0B801A701022E04C0F6
:100B600076956795579547950A94D2F781E090E07E
:100B7000A0E0B0E004C0880F991FAA1FBB1F2A95F0
:100B8000D2F70197A109B1098E219F21A023B1239A
:100B90000097A105B10521F081E090E0A0E0B0E070
:100BA0009A01AB01282B392B4A2B5B2BDA01C901A7
:100BB0008F779070A070B07080349105A105B10559
:100BC00039F427FF09C0205C3F4F4F4F5F4F04C0EF
:100BD000215C3F4F4F4F5F4FE0E0F0E02030A0E05E
:100BE0003A07A0E04A07A0E45A0710F0E1E0F0E07D
:100BF00079018A0127C06038710564F5FB01E1586D
:100C0000FF4FD801C7018F779070A070B07080340B
:100C10009105A105B10539F4E7FE0DC080E490E02F
:100C2000A0E0B0E004C08FE390E0A0E0B0E0E80E08
:100C3000F91E0A1F1B1F17FF05C016950795F7948D
:100C4000E794319687E016950795F794E7948A958F
:100C5000D1F705C0EE24FF248701EFEFF0E06E2FFF
:100C6000679566276795902F9F77D794DD24D79453
:100C70008E2F8695492F462B582F5D29B701CA0123
:100C80001F910F91FF90EF90DF900895FC01DB0121
:100C9000408151812281622F6F7770E0221F2227CD
:100CA000221F9381892F880F822B282F30E0991FD4
:100CB0009927991F11969C93119721153105A9F534
:100CC000411551056105710511F482E037C082E8D4
:100CD0009FEF13969C938E9312979A01AB0167E056
:100CE000220F331F441F551F6A95D1F783E08C9361
:100CF0000DC0220F331F441F551F12968D919C91DA
:100D00001397019713969C938E931297203080E04F
:100D1000380780E0480780E4580758F314962D936D
:100D20003D934D935C93179708952F3F310579F4C8
:100D3000411551056105710519F484E08C930895FE
:100D400064FF03C081E08C9312C01C9210C02F5727
:100D5000304013963C932E93129783E08C9387E058
:100D6000440F551F661F771F8A95D1F7706414963C
:100D70004D935D936D937C93179708951F93DC01BA
:100D8000FB019C91923008F447C08081823008F4C6
:100D900043C0943051F411961C91843099F58181AF
:100DA000682F70E0611B71093FC0843021F09230E0
:100DB00031F48230B9F18181882389F12DC01196F7
:100DC0001C9111978230F1F081811817D9F4129695
:100DD0002D913C911397828193818217930794F010
:100DE00028173907BCF014968D919D910D90BC91F8
:100DF000A02D2481358146815781281739074A075C
:100E00005B0718F4112341F00AC082179307A40767
:100E1000B50740F4112319F061E070E005C06FEFF1
:100E20007FEF02C060E070E0CB011F910895DF9377
:100E3000CF93CDB7DEB7A7E2B0E0E7E2F0E0808184
:100E400080648C93A7E2B0E0E7E2F0E080818F77E6
:100E50008C93A7E2B0E0E7E2F0E080818F7D8C9395
:100E6000A6E2B0E0E6E2F0E08081877F8C93A6E224
:100E7000B0E0E6E2F0E08081887F8C93A6E2B0E00B
:100E8000E6E2F0E0808185608C93A6E2B0E0E6E2E5
:100E9000F0E0808180688C93CF91DF910895DF939B
:100EA000CF9300D000D00F92CDB7DEB78B837D8378
:100EB0006C831A8219828C819D81009709F441C04C
:100EC00080917B028130D1F510927B02A7E2B0E0E5
:100ED000E7E2F0E08081807E8C93A7E2B0E0E7E279
:100EE000F0E090818B81892B8C93A6E2B0E0E6E262
:100EF000F0E0808180648C93E6E2F0E0808182956E
:100F00008F70882F90E081709070009721F4898114
:100F10008F5F8983F1CFA6E2B0E0E6E2F0E0808166
:100F200080618C93E4E2F0E080819181EC81FD812D
:100F30009183808381E080937B0205C084E08A8373
:100F400002C082E08A838A810F900F900F900F90E9
:100F50000F90CF91DF910895DF93CF9300D000D011
:100F600000D0CDB7DEB78A837C836B835E834D83ED
:100F700019828B819C810097B9F18D819E810097A8
:100F800099F180917B02813061F510927B028B8117
:100F90009C8190937103809370038D819E819093C7
:100FA0006F0380936E03A7E2B0E0E7E2F0E0808198
:100FB000807E8C93A7E2B0E0E7E2F0E090818A8146
:100FC000892B8C93A6E2B0E0E6E2F0E080818064B9
:100FD0008C93A6E2B0E0E6E2F0E0808188608C933A
:100FE00005C084E0898302C082E0898389812696D6
:100FF0000FB6F894DEBF0FBECDBFCF91DF9108953D
:101000001F920F920FB60F9211242F933F934F937D
:101010005F936F937F938F939F93AF93BF93EF9360
:10102000FF93DF93CF93CDB7DEB78091700390919C
:1010300071030097F9F0A0917003B0917103E4E29D
:10104000F0E0808191818D939C93A6E2B0E0E6E28E
:10105000F0E08081877F8C9381E080937B02809198
:101060006E0390916F03009729F0E0916E03F09169
:101070006F030995CF91DF91FF91EF91BF91AF91F0
:101080009F918F917F916F915F914F913F912F91A0
:101090000F900FBE0F901F901895DF93CF93CDB791
:1010A000DEB72E970FB6F894DEBF0FBECDBF80E03F
:1010B00062E041E00E943D0D80E090E0A0E0B0E4FD
:1010C0008B879C87AD87BE876B857C858D859E854C
:1010D00020E030E04AEF54E40E941F02DC01CB0123
:1010E0008F839887A987BA876F81788589859A8544
:1010F00020E030E040E85FE30E94250488232CF4E0
:1011000081E090E09E838D833FC06F8178858985E3
:101110009A8520E03FEF4FE757E40E94C503181679
:101120004CF56B857C858D859E8520E030E040E226
:1011300051E40E941F02DC01CB01BC01CD010E94E1
:101140004900DC01CB019E838D830FC088EC90E0C9
:101150009C838B838B819C810197F1F79C838B838C
:101160008D819E8101979E838D838D819E810097C5
:1011700069F714C06F81788589859A850E94490036
:10118000DC01CB019E838D838D819E819A8389832F
:1011900089819A810197F1F79A83898380E062E0DF
:1011A00040E00E943D0D2E960FB6F894DEBF0FBEB4
:1011B000CDBFCF91DF910895DF93CF930F92CDB73D
:1011C000DEB789838981982F917080E063E0492F91
:1011D0000E943D0D89818695982F917080E064E092
:1011E000492F0E943D0D898186958695982F917093
:1011F00080E065E0492F0E943D0D898186958695A6
:101200008695982F917080E066E0492F0E943D0DF1
:101210000F90CF91DF910895DF93CF930F92CDB7C9
:10122000DEB7898380E060E040E00E943D0D80E011
:1012300061E040E00E943D0D898182958F700E949F
:10124000DC080E944D0889810E94DC080E944D083C
:101250000F90CF91DF910895DF93CF930F92CDB789
:10126000DEB7898380E060E041E00E943D0D80E0D0
:1012700061E040E00E943D0D898182958F700E945F
:10128000DC080E944D0889810E94DC080E944D08FC
:101290000F90CF91DF910895DF93CF93CDB7DEB755
:1012A0002E970FB6F894DEBF0FBECDBF80E090E062
:1012B000A0E2B2E48B879C87AD87BE876B857C8577
:1012C0008D859E8520E030E04AEF54E40E941F02A5
:1012D000DC01CB018F839887A987BA876F817885D6
:1012E00089859A8520E030E040E85FE30E9425048C
:1012F00088232CF481E090E09E838D833FC06F8132
:10130000788589859A8520E03FEF4FE757E40E9472
:10131000C50318164CF56B857C858D859E8520E070
:1013200030E040E251E40E941F02DC01CB01BC012D
:10133000CD010E944900DC01CB019E838D830FC04B
:1013400088EC90E09C838B838B819C810197F1F7E3
:101350009C838B838D819E8101979E838D838D815C
:101360009E81009769F714C06F81788589859A8579
:101370000E944900DC01CB019E838D838D819E817B
:101380009A83898389819A810197F1F79A83898366
:1013900080E060E040E00E943D0D80E061E040E0E0
:1013A0000E943D0D82E00E94DC080E944D0882E010
:1013B0000E94DC080E944D0888E00E94DC080E9420
:1013C0004D088CE00E940C0981E00E940C092E96C9
:1013D0000FB6F894DEBF0FBECDBFCF91DF91089559
:1013E000DF93CF93CDB7DEB781E00E940C09CF9198
:1013F000DF910895DF93CF9300D000D0CDB7DEB753
:101400009C838B831A8219828B819C810097D9F0EF
:101410000EC08981282F30E08B819C81FC01E20F76
:10142000F31F80810E942C0989818F5F89838981C4
:10143000282F30E08B819C81FC01E20FF31F80811B
:10144000882339F702C082E08A838A810F900F9047
:101450000F900F90CF91DF9108950F931F93DF931B
:10146000CF93CDB7DEB760970FB6F894DEBF0FBE4F
:10147000CDBF6D877E878F87988B8AE0FE0133967C
:10148000DF01982F1D929A95E9F71A828D859E8526
:10149000AF85B8890097A105B10521F480E30E94CA
:1014A0002C097BC08D859E85AF85B889BB230CF048
:1014B00054C08DE20E942C098D859E85AF85B88928
:1014C000B095A095909581959F4FAF4FBF4F8D8759
:1014D0009E87AF87B88B41C08A81082F10E08D8529
:1014E0009E85AF85B8892AE030E040E050E0BC013D
:1014F000CD010E946135DC01CB01282FCE0103967E
:10150000FC01E00FF11F20838A81482F50E08A817F
:10151000282F30E0CE010396FC01E20FF31F8081FB
:10152000282F205DCE010396FC01E40FF51F2083D8
:101530008D859E85AF85B8892AE030E040E050E097
:10154000BC01CD010E946135DA01C9018D879E87FA
:10155000AF87B88B8A818F5F8A838D859E85AF85A3
:10156000B889181619061A061B060CF4B5CF8A811D
:1015700089838981882F90E09C0121503040CE01E1
:101580000396FC01E20FF31F80810E942C098981E0
:10159000815089838981882361F760960FB6F8941A
:1015A000DEBF0FBECDBFCF91DF911F910F91089588
:1015B000DF93CF93CDB7DEB7A4970FB6F894DEBF15
:1015C0000FBECDBF9CA38BA380E2FE013396DF014B
:1015D000982F1D929A95E9F71A8280E690E00E9472
:1015E000FA091A8223C08BA19CA181709070882374
:1015F00059F08A81282F30E0CE010396FC01E20FDA
:10160000F31F81E0808309C08A81282F30E0CE015A
:101610000396FC01E20FF31F10828BA19CA195950C
:1016200087959CA38BA38A818F5F8A838A8180316F
:10163000D0F280E061E00E94050C80E1898389811D
:10164000882F90E09C0121503040CE010396FC0190
:10165000E20FF31F8081882321F480E30E942C098C
:1016600003C081E30E942C0989818150898389818B
:10167000882329F7A4960FB6F894DEBF0FBECDBF1E
:10168000CF91DF910895DF93CF93CDB7DEB7A597C4
:101690000FB6F894DEBF0FBECDBF6D8F7E8F8F8FDC
:1016A00098A3CE0105969AA389A3EEE5F3E0FCA3E7
:1016B000EBA3F0E1FDA3EBA1FCA100808BA19CA119
:1016C00001969CA38BA3E9A1FAA1008289A19AA10A
:1016D00001969AA389A39DA191509DA3EDA1EE230C
:1016E00051F71B8220C08D8D8F708A838D8D9E8DCA
:1016F000AF8DB8A1689413F8B595A7959795879580
:101700001694D1F78D8F9E8FAF8FB8A38B81282F22
:1017100030E0CE014596FC01E20FF31F8A81808301
:101720008B818F5F8B838B818830E8F283E690E03A
:101730000E94FA0987E08C831AC08C81282F3327F6
:1017400027FD3095CE014596FC01E20FF31F808105
:1017500089838981282F30E0CE010596FC01E20FB4
:10176000F31F80810E942C098C8181508C838C8195
:1017700088231CF7A5960FB6F894DEBF0FBECDBF29
:10178000CF91DF910895DF93CF93CDB7DEB7279741
:101790000FB6F894DEBF0FBECDBF9C838B836D83E5
:1017A0004E832F838D81882F90E0880F991F880F9B
:1017B000991F880F991F8A838A8180648A838A810E
:1017C0000E940C0919820EC08981282F30E08B817C
:1017D0009C81FC01E20FF31F80810E942C0989810A
:1017E0008F5F89838981883078F38E816F810E9431
:1017F000050C8D810E942C0927960FB6F894DEBF48
:101800000FBECDBFCF91DF910895DF93CF9300D06E
:1018100000D0CDB7DEB78B836C831A828C8188238E
:1018200019F48B81898309C08C81813021F48B81EB
:10183000805C898302C081E08A8389818068898392
:1018400089810E940C098A810F900F900F900F9050
:10185000CF91DF910895DF93CF93CDB7DEB728976F
:101860000FB6F894DEBF0FBECDBF8A836B834C8367
:1018700019828B81883008F0F4C08C81813009F0A6
:1018800072C08A81282F30E038872F838F81988516
:101890008130910549F12F813885223031052CF4B2
:1018A0008F819885009761F05BC02F813885223049
:1018B000310571F18F81988583309105E9F150C030
:1018C000AAE3B0E0EAE3F0E08081482F8B81282F83
:1018D00030E081E090E0022E02C0880F991F0A9448
:1018E000E2F7842B8C93BFC0A7E3B0E0E7E3F0E01E
:1018F0008081482F8B81282F30E081E090E0022EFC
:1019000002C0880F991F0A94E2F7842B8C93ABC016
:10191000A4E3B0E0E4E3F0E08081482F8B81282F3E
:1019200030E081E090E0022E02C0880F991F0A94F7
:10193000E2F7842B8C9397C0A1E3B0E0E1E3F0E001
:101940008081482F8B81282F30E081E090E0022EAB
:1019500002C0880F991F0A94E2F7842B8C9383C0EE
:1019600081E0898380C08C81882309F077C08A81D7
:10197000282F30E03E832D838D819E81813091051B
:1019800059F12D813E81223031052CF48D819E81CB
:10199000009769F060C02D813E812230310589F1C8
:1019A0008D819E818330910509F440C054C0AAE323
:1019B000B0E0EAE3F0E08081482F8B81282F30E00F
:1019C00081E090E0022E02C0880F991F0A94E2F78E
:1019D000809584238C9347C0A7E3B0E0E7E3F0E071
:1019E0008081482F8B81282F30E081E090E0022E0B
:1019F00002C0880F991F0A94E2F7809584238C9384
:101A000032C0A4E3B0E0E4E3F0E08081482F8B81B2
:101A1000282F30E081E090E0022E02C0880F991F4D
:101A20000A94E2F7809584238C931DC0A1E3B0E073
:101A3000E1E3F0E08081482F8B81282F30E081E0C6
:101A400090E0022E02C0880F991F0A94E2F7809559
:101A500084238C9308C081E0898305C081E0898359
:101A600002C081E08983898128960FB6F894DEBF91
:101A70000FBECDBFCF91DF910895DF93CF93CDB748
:101A8000DEB728970FB6F894DEBF0FBECDBF8A83AE
:101A90006B834C8319828B81883008F0F4C08C8171
:101AA000813009F072C08A81282F30E038872F8377
:101AB0008F8198858130910549F12F8138852230B9
:101AC00031052CF48F819885009761F05BC02F81E0
:101AD00038852230310571F18F81988583309105E9
:101AE000E9F150C0ABE3B0E0EBE3F0E08081482FD8
:101AF0008B81282F30E081E090E0022E02C0880F19
:101B0000991F0A94E2F7842B8C93BFC0A8E3B0E03E
:101B1000E8E3F0E08081482F8B81282F30E081E0DE
:101B200090E0022E02C0880F991F0A94E2F7842BDE
:101B30008C93ABC0A5E3B0E0E5E3F0E08081482FF3
:101B40008B81282F30E081E090E0022E02C0880FC8
:101B5000991F0A94E2F7842B8C9397C0A2E3B0E01C
:101B6000E2E3F0E08081482F8B81282F30E081E094
:101B700090E0022E02C0880F991F0A94E2F7842B8E
:101B80008C9383C081E0898380C08C81882309F095
:101B900077C08A81282F30E03E832D838D819E81FE
:101BA0008130910559F12D813E81223031052CF48F
:101BB0008D819E81009769F060C02D813E81223029
:101BC000310589F18D819E818330910509F440C0F2
:101BD00054C0ABE3B0E0EBE3F0E08081482F8B81B1
:101BE000282F30E081E090E0022E02C0880F991F7C
:101BF0000A94E2F7809584238C9347C0A8E3B0E071
:101C0000E8E3F0E08081482F8B81282F30E081E0ED
:101C100090E0022E02C0880F991F0A94E2F7809587
:101C200084238C9332C0A5E3B0E0E5E3F0E080814B
:101C3000482F8B81282F30E081E090E0022E02C0F7
:101C4000880F991F0A94E2F7809584238C931DC016
:101C5000A2E3B0E0E2E3F0E08081482F8B81282FFF
:101C600030E081E090E0022E02C0880F991F0A94B4
:101C7000E2F7809584238C9308C081E0898305C0B6
:101C800081E0898302C081E08983898128960FB62B
:101C9000F894DEBF0FBECDBFCF91DF910895DF93E3
:101CA000CF9300D000D00F92CDB7DEB78A836B837D
:101CB00019828B81883008F072C08A81282F30E029
:101CC0003D832C838C819D818130910549F12C814C
:101CD0003D81223031052CF48C819D81009761F08B
:101CE0005BC02C813D812230310571F18C819D8159
:101CF00083309105E9F150C0ABE3B0E0EBE3F0E0F5
:101D00008081482F8B81282F30E081E090E0022EE7
:101D100002C0880F991F0A94E2F784278C9341C070
:101D2000A8E3B0E0E8E3F0E08081482F8B81282F22
:101D300030E081E090E0022E02C0880F991F0A94E3
:101D4000E2F784278C932DC0A5E3B0E0E5E3F0E053
:101D50008081482F8B81282F30E081E090E0022E97
:101D600002C0880F991F0A94E2F784278C9319C048
:101D7000A2E3B0E0E2E3F0E08081482F8B81282FDE
:101D800030E081E090E0022E02C0880F991F0A9493
:101D9000E2F784278C9305C081E0898302C081E04B
:101DA000898389810F900F900F900F900F90CF91A2
:101DB000DF910895DF93CF93CDB7DEB727970FB6A6
:101DC000F894DEBF0FBECDBF8A836B835D834C83E7
:101DD00019828B81883008F074C08A81282F30E006
:101DE0003F832E834E815F814130510559F18E81B1
:101DF0009F818230910534F42E813F812115310578
:101E000069F05CC04E815F814230510579F18E816D
:101E10009F818330910509F43DC050C0E9E3F0E0B3
:101E20008081282F30E08B81882F90E0A90102C0AB
:101E3000559547958A95E2F7CA018170EC81FD813D
:101E4000808341C0E6E3F0E08081282F30E08B8181
:101E5000882F90E0A90102C0559547958A95E2F731
:101E6000CA018170EC81FD8180832DC0E3E3F0E045
:101E70008081282F30E08B81882F90E0A90102C05B
:101E8000559547958A95E2F7CA018170EC81FD81ED
:101E9000808319C0E0E3F0E08081282F30E08B815F
:101EA000882F90E0A90102C0559547958A95E2F7E1
:101EB000CA018170EC81FD81808305C081E0898346
:101EC00002C081E08983898127960FB6F894DEBF2E
:101ED0000FBECDBFCF91DF910895DF93CF9300D098
:101EE00000D00F92CDB7DEB78A836B8319828A81C7
:101EF000282F30E03D832C838C819D81813091059A
:101F0000D1F02C813D81223031052CF48C819D81D2
:101F1000009761F01FC02C813D812230310581F096
:101F20008C819D818330910581F014C0EAE3F0E05B
:101F30008B81808311C0E7E3F0E08B8180830CC04C
:101F4000E4E3F0E08B81808307C0E1E3F0E08B8184
:101F5000808302C081E0898389810F900F900F9068
:101F60000F900F90CF91DF910895DF93CF9300D022
:101F700000D00F92CDB7DEB78A836B8319828A8136
:101F8000282F30E03D832C838C819D818130910509
:101F9000D1F02C813D81223031052CF48C819D8142
:101FA000009761F01FC02C813D812230310581F006
:101FB0008C819D818330910581F014C0EBE3F0E0CA
:101FC0008B81808311C0E8E3F0E08B8180830CC0BB
:101FD000E5E3F0E08B81808307C0E2E3F0E08B81F2
:101FE000808302C081E0898389810F900F900F90D8
:101FF0000F900F90CF91DF910895DF93CF93CDB7DE
:10200000DEB7ABE5B0E0EBE5F0E080818F7B8C9351
:10201000ABE5B0E0EBE5F0E0808180688C93A5E56E
:10202000B0E0E5E5F0E080818B7F8C93A5E5B0E042
:10203000E5E5F0E0808188608C93ABE5B0E0EBE50E
:10204000F0E080818F7D8C93CF91DF910895DF93B5
:10205000CF93CDB7DEB72B970FB6F894DEBF0FBE88
:10206000CDBF8A836B8319828A81282F30E03B871A
:102070002A878A859B858230910509F46BC02A8561
:102080003B852330310509F4C4C08A859B858130A6
:10209000910509F0EFC08B81282F30E03987288720
:1020A000888599858230910529F1288539852330E5
:1020B000310534F4888599858130910561F047C0F8
:1020C000288539852330310521F18885998584302B
:1020D000910571F13CC0A5E5B0E0E5E5F0E0808157
:1020E0008E7F8C93A5E5B0E0E5E5F0E080818D7F03
:1020F0008C93C2C0A5E5B0E0E5E5F0E080818160A9
:102100008C93A5E5B0E0E5E5F0E080818D7F8C93D0
:10211000B3C0A5E5B0E0E5E5F0E080818E7F8C936B
:10212000A5E5B0E0E5E5F0E0808182608C93A4C095
:10213000A5E5B0E0E5E5F0E0808181608C93A5E560
:10214000B0E0E5E5F0E0808182608C9395C081E0AD
:10215000898392C08B81282F30E03F832E838E812C
:102160009F818230910529F12E813F8123303105F5
:1021700034F48E819F818130910561F047C02E81BA
:102180003F812330310521F18E819F81843091057B
:1021900071F13CC0A5E5B0E0E5E5F0E080818B7F22
:1021A0008C93A5E5B0E0E5E5F0E08081877F8C9336
:1021B00063C0A5E5B0E0E5E5F0E0808184608C9344
:1021C000A5E5B0E0E5E5F0E08081877F8C9354C021
:1021D000A5E5B0E0E5E5F0E080818B7F8C93A5E597
:1021E000B0E0E5E5F0E0808188608C9345C0A5E52E
:1021F000B0E0E5E5F0E0808184608C93A5E5B0E097
:10220000E5E5F0E0808188608C9336C081E08983C9
:1022100033C08B81282F30E03D832C838C819D81BE
:102220008330910531F02C813D812430310581F0DE
:102230001EC0A4E5B0E0E4E5F0E080818F7B8C93E4
:10224000A4E5B0E0E4E5F0E0808180648C9314C004
:10225000A4E5B0E0E4E5F0E0808180648C93A4E53F
:10226000B0E0E4E5F0E0808180648C9305C081E01B
:10227000898302C081E0898389812B960FB6F89407
:10228000DEBF0FBECDBFCF91DF910895DF93CF9317
:1022900000D000D0CDB7DEB78A8319828A81282F7B
:1022A00030E03C832B838B819C818230910591F0BF
:1022B0002B813C8123303105A9F08B819C818130B9
:1022C0009105C1F4ABE5B0E0EBE5F0E0808180641E
:1022D0008C9312C0ABE5B0E0EBE5F0E08081806864
:1022E0008C930AC0ABE5B0E0EBE5F0E08081806262
:1022F0008C9302C081E0898389810F900F900F90A9
:102300000F90CF91DF910895DF93CF9300D000D04D
:10231000CDB7DEB78A8319828A81282F30E03C83CB
:102320002B838B819C818230910591F02B813C81A4
:1023300023303105A9F08B819C8181309105C1F456
:10234000ABE5B0E0EBE5F0E080818F7B8C9312C0D1
:10235000ABE5B0E0EBE5F0E080818F778C930AC0CD
:10236000ABE5B0E0EBE5F0E080818F7D8C9302C0BF
:1023700081E0898389810F900F900F900F90CF910A
:10238000DF910895DF93CF9300D000D000D0CDB778
:10239000DEB78A837C836B8319828B819C81009753
:1023A00061F18A81282F30E03E832D838D819E81CB
:1023B0008230910589F02D813E812330310599F0DD
:1023C0008D819E8181309105A9F48B819C819093B0
:1023D00073038093720313C08B819C819093750368
:1023E000809374030CC08B819C81909377038093BE
:1023F000760305C081E0898302C082E089838981F8
:1024000026960FB6F894DEBF0FBECDBFCF91DF91F9
:1024100008951F920F920FB60F9211242F933F939E
:102420004F935F936F937F938F939F93AF93BF93DC
:10243000EF93FF93DF93CF93CDB7DEB78091720315
:1024400090917303009729F0E0917203F091730368
:102450000995CF91DF91FF91EF91BF91AF919F913E
:102460008F917F916F915F914F913F912F910F903D
:102470000FBE0F901F9018951F920F920FB60F92DC
:1024800011242F933F934F935F936F937F938F9379
:102490009F93AF93BF93EF93FF93DF93CF93CDB70A
:1024A000DEB78091740390917503009729F0E09155
:1024B0007403F09175030995CF91DF91FF91EF912E
:1024C000BF91AF919F918F917F916F915F914F914C
:1024D0003F912F910F900FBE0F901F9018951F9254
:1024E0000F920FB60F9211242F933F934F935F9348
:1024F0006F937F938F939F93AF93BF93EF93FF93CC
:10250000DF93CF93CDB7DEB78091760390917703B9
:10251000009729F0E0917603F09177030995CF9128
:10252000DF91FF91EF91BF91AF919F918F917F913B
:102530006F915F914F913F912F910F900FBE0F9030
:102540001F901895DF93CF93CDB7DEB77894CF91D6
:10255000DF910895DF93CF93CDB7DEB7F894CF9195
:10256000DF910895DF93CF9300D000D00F92CDB7C5
:10257000DEB78FEF89831B826AC08B81882F90E042
:10258000FC01E057FD4F908181E0692F40E00E94FF
:102590003D0D1A8249C08A81882F90E0FC01E457E2
:1025A000FD4F90819E012C5F3F4F81E0692FA90173
:1025B0000E94DA0E8C818823A1F50FC08A81882FB2
:1025C00090E0FC01E457FD4F90819E012C5F3F4F4E
:1025D00081E0692FA9010E94DA0E8C81882371F3B2
:1025E0008A81482F50E08B81282F30E0CA01880F64
:1025F000991F880F991F820F931FFC01E458FD4F0C
:10260000808189838B81882F90E0FC01E057FD4F0A
:10261000908181E0692F41E00E943D0D89818D8389
:102620001CC08A818F5F8A838A81843008F4B3CF8B
:102630008B81882F90E0FC01E057FD4F908181E075
:10264000692F41E00E943D0D8B818F5F8B838B81D1
:10265000843008F492CF89818D838D810F900F9003
:102660000F900F900F90CF91DF910895AF92BF928E
:10267000CF92DF92EF92FF920F931F93DF93CF934E
:10268000CDB7DEB764970FB6F894DEBF0FBECDBFEF
:102690006D837E838F83988729873A874B875C87F2
:1026A000ED86FE860F87188BA98ABA8ACB8ADC8AC8
:1026B00019821A821B821C8229893A894B895C897A
:1026C0008D859E85AF85B88979018A01E81AF90A56
:1026D0000A0B1B0B29A13AA14BA15CA18D819E8104
:1026E000AF81B885281B390B4A0B5B0BC801B701BA
:1026F0000E940C35DC01CB0189839A83AB83BC83B8
:1027000029853A854B855C858D819E81AF81B88511
:10271000281B390B4A0B5B0B89819A81AB81BC81E9
:10272000BC01CD010E946135DA01C90189839A8318
:10273000AB83BC8329813A814B815C818D859E85E9
:10274000AF85B889820F931FA41FB51F89839A8311
:10275000AB83BC8389819A81AB81BC81BC01CD01F3
:1027600064960FB6F894DEBF0FBECDBFCF91DF9158
:102770001F910F91FF90EF90DF90CF90BF90AF909F
:102780000895DF93CF9300D00F92CDB7DEB79B8330
:102790008A8319828A819B810097A9F0EA81FB8153
:1027A0008081EA81FB819181692F40E00E943D0D8B
:1027B000EA81FB818081EA81FB819281692F41E07E
:1027C0000E943D0D02C082E0898389810F900F90A5
:1027D0000F90CF91DF910895DF93CF9300D00F92A8
:1027E000CDB7DEB79B838A8319828A819B8100974C
:1027F000A9F0EA81FB818081EA81FB819281692FC6
:1028000040E00E943D0DEA81FB818081EA81FB81ED
:102810009181692F41E00E943D0D02C082E08983D1
:1028200089810F900F900F90CF91DF910895DF93E2
:10283000CF9300D00F92CDB7DEB79B838A831982E6
:102840008A819B810097A9F0EA81FB818081EA81DE
:10285000FB819281692F40E00E943D0DEA81FB815E
:102860008081EA81FB819181692F40E00E943D0DCA
:1028700002C082E0898389810F900F900F90CF91E1
:10288000DF910895DF93CF93CDB7DEB7EAE3F0E0B1
:102890008FE78083E7E3F0E080EF8083E4E3F0E01C
:1028A0008FEF8083E1E3F0E087EF8083EBE3F0E0FC
:1028B0001082E8E3F0E08FE08083E5E3F0E010824F
:1028C000E2E3F0E088E08083CF91DF910895DF9329
:1028D000CF9300D000D0CDB7DEB79B838A836C83C3
:1028E00019828A819B81009709F481C0EA81FB816A
:1028F00080818230B9F5EA81FB818381EA81FB81A5
:102900009481692F40E00E943D0DEA81FB81828124
:10291000882379F4EA81FB8121818C81882F90E0E2
:10292000FC01EC56FD4F9081822F692F0E94B50F5C
:1029300060C0EA81FB818281813089F4EA81FB8178
:1029400021818C81882F90E0FC01EC56FD4F808125
:10295000982F990F822F692F0E94B50F4AC081E0EE
:10296000898347C0EA81FB8180818130E9F5EA8172
:10297000FB818381EA81FB819481692F41E00E9480
:102980003D0DEA81FB818281882389F4EA81FB8104
:1029900021818C81882F90E0FC01EC56FD4F8081D5
:1029A000982F9095822F692F0E94B50F22C0EA813F
:1029B000FB8182818130A9F4EA81FB8121818C81B4
:1029C000882F90E0FC01EC56FD4F8081882F90E02D
:1029D000880F991F982F9095822F692F0E94B50F0D
:1029E00008C081E0898305C081E0898302C082E05C
:1029F000898389810F900F900F900F90CF91DF9175
:102A00000895DF93CF9300D00F92CDB7DEB79B83AD
:102A10008A8319828A819B81009719F1EA81FB815F
:102A20008081823059F4EA81FB818381EA81FB81D4
:102A30009481692F41E00E943D0D15C0EA81FB8120
:102A40008081813059F4EA81FB818381EA81FB81B5
:102A50009481692F40E00E943D0D05C081E089838B
:102A600002C082E0898389810F900F900F90CF91EF
:102A7000DF910895DF93CF93CDB7DEB7AE970FB652
:102A8000F894DEBF0FBECDBF9BA38AA37DA36CA32A
:102A90004EA319A28AA19BA1009709F4DEC28CA1C2
:102AA0009DA1CC01A0E0B0E0072E7BE0880F991F2C
:102AB000AA1FBB1F7A95D1F7702D28E631E040E0C0
:102AC00050E0BC01CD010E943F35DA01C90198A355
:102AD0008F8F8EA1823009F05DC11E8E1D8E51C177
:102AE0008D8D9E8DCC01A0E0B0E09C01AD012370E6
:102AF0003070407050702BA73CA74DA75EA78BA5E8
:102B00009CA5ADA5BEA581309105A105B10509F42F
:102B100047C02BA53CA54DA55EA52130310541053B
:102B20005105A8F08BA59CA5ADA5BEA58230910549
:102B3000A105B10509F45DC02BA53CA54DA55EA579
:102B4000233031054105510509F47CC0A3C0EAA139
:102B5000FBA18081EAA1FBA19181692F40E00E9445
:102B60003D0DEAA1FBA18081EAA1FBA19281692F21
:102B700041E00E943D0DEAA1FBA18081EAA1FBA1F9
:102B80009381692F41E00E943D0DEAA1FBA1808164
:102B9000EAA1FBA19481692F41E00E943D0D7AC01A
:102BA000EAA1FBA18081EAA1FBA19181692F41E00B
:102BB0000E943D0DEAA1FBA18081EAA1FBA19281C7
:102BC000692F40E00E943D0DEAA1FBA18081EAA1AE
:102BD000FBA19381692F41E00E943D0DEAA1FBA179
:102BE0008081EAA1FBA19481692F41E00E943D0D03
:102BF00051C0EAA1FBA18081EAA1FBA19181692FCB
:102C000041E00E943D0DEAA1FBA18081EAA1FBA168
:102C10009281692F41E00E943D0DEAA1FBA18081D4
:102C2000EAA1FBA19381692F40E00E943D0DEAA13A
:102C3000FBA18081EAA1FBA19481692F41E00E9460
:102C40003D0D28C0EAA1FBA18081EAA1FBA19181F1
:102C5000692F41E00E943D0DEAA1FBA18081EAA11C
:102C6000FBA19281692F41E00E943D0DEAA1FBA1E9
:102C70008081EAA1FBA19381692F41E00E943D0D73
:102C8000EAA1FBA18081EAA1FBA19481692F40E028
:102C90000E943D0D80E090E0A0ECB0E4898F9A8F17
:102CA000AB8FBC8F698D7A8D8B8D9C8D20E030E051
:102CB0004AEF54E40E941F02DC01CB018D8B9E8BF6
:102CC000AF8BB88F6D897E898F89988D20E030E039
:102CD00040E85FE30E94250488232CF481E090E023
:102CE0009C8B8B8B3FC06D897E898F89988D20E06E
:102CF0003FEF4FE757E40E94C50318164CF5698D66
:102D00007A8D8B8D9C8D20E030E040E251E40E9472
:102D10001F02DC01CB01BC01CD010E944900DC0196
:102D2000CB019C8B8B8B0FC088EC90E09A8B898BAE
:102D300089899A890197F1F79A8B898B8B899C896C
:102D400001979C8B8B8B8B899C89009769F714C0AA
:102D50006D897E898F89988D0E944900DC01CB01A5
:102D60009C8B8B8B8B899C89988B8F878F8598897F
:102D70000197F1F7988B8F878D8D9E8D01969E8F91
:102D80008D8F2D8D3E8D8F8D98A12817390708F4D2
:102D9000A7CE65C18EA1813009F05CC11E8E1D8E4B
:102DA00050C18D8D9E8DCC01A0E0B0E09C01AD01A5
:102DB00023703070407050702FA338A749A75AA7CE
:102DC0008FA198A5A9A5BAA581309105A105B10546
:102DD00009F46FC02FA138A549A55AA521303105A6
:102DE0004105510508F48EC08FA198A5A9A5BAA5E3
:102DF00082309105A105B10599F12FA138A549A50A
:102E00005AA5233031054105510509F0A3C0EAA1B7
:102E1000FBA18081EAA1FBA19181692F40E00E9482
:102E20003D0DEAA1FBA18081EAA1FBA19281692F5E
:102E300041E00E943D0DEAA1FBA18081EAA1FBA136
:102E40009381692F41E00E943D0DEAA1FBA18081A1
:102E5000EAA1FBA19481692F41E00E943D0D7AC057
:102E6000EAA1FBA18081EAA1FBA19181692F41E048
:102E70000E943D0DEAA1FBA18081EAA1FBA1928104
:102E8000692F40E00E943D0DEAA1FBA18081EAA1EB
:102E9000FBA19381692F41E00E943D0DEAA1FBA1B6
:102EA0008081EAA1FBA19481692F41E00E943D0D40
:102EB00051C0EAA1FBA18081EAA1FBA19181692F08
:102EC00041E00E943D0DEAA1FBA18081EAA1FBA1A6
:102ED0009281692F41E00E943D0DEAA1FBA1808112
:102EE000EAA1FBA19381692F40E00E943D0DEAA178
:102EF000FBA18081EAA1FBA19481692F41E00E949E
:102F00003D0D28C0EAA1FBA18081EAA1FBA191812E
:102F1000692F41E00E943D0DEAA1FBA18081EAA159
:102F2000FBA19281692F41E00E943D0DEAA1FBA126
:102F30008081EAA1FBA19381692F41E00E943D0DB0
:102F4000EAA1FBA18081EAA1FBA19481692F40E065
:102F50000E943D0D80E090E0A0ECB0E48B879C8760
:102F6000AD87BE876B857C858D859E8520E030E0B2
:102F70004AEF54E40E941F02DC01CB018F83988743
:102F8000A987BA876F81788589859A8520E030E0A6
:102F900040E85FE30E94250488232CF481E090E060
:102FA0009E838D833FC06F81788589859A8520E0D7
:102FB0003FEF4FE757E40E94C50318164CF56B85A9
:102FC0007C858D859E8520E030E040E251E40E94C2
:102FD0001F02DC01CB01BC01CD010E944900DC01D4
:102FE000CB019E838D830FC088EC90E09C838B8304
:102FF0008B819C810197F1F79C838B838D819E81CE
:1030000001979E838D838D819E81009769F714C0FF
:103010006F81788589859A850E944900DC01CB0102
:103020009E838D838D819E819A83898389819A81F4
:103030000197F1F79A8389838D8D9E8D01969E8FDE
:103040008D8F2D8D3E8D8F8D98A12817390708F40F
:10305000A8CE05C081E089A302C082E089A389A12E
:10306000AE960FB6F894DEBF0FBECDBFCF91DF9105
:103070000895DF93CF93CDB7DEB7AF970FB6F8942F
:10308000DEBF0FBECDBF9BA38AA37DA36CA34EA3BF
:103090002FA319A28AA19BA1009709F4ECC28CA1CD
:1030A0009DA1CC01A0E0B0E0072E7BE0880F991F26
:1030B000AA1FBB1F7A95D1F7702D28E631E040E0BA
:1030C00050E0BC01CD010E943F35DA01C90198A34F
:1030D0008F8F8EA1823009F064C11E8E1D8E58C163
:1030E0008D8D9E8DCC01A0E0B0E09C01AD012370E0
:1030F0003070407050702CA73DA74EA75FA78CA5DD
:103100009DA5AEA5BFA581309105A105B10509F426
:1031100047C02CA53DA54EA55FA521303105410531
:103120005105A8F08CA59DA5AEA5BFA5823091053F
:10313000A105B10509F45DC02CA53DA54EA55FA56F
:10314000233031054105510509F47CC0A3C0EAA133
:10315000FBA18081EAA1FBA19181692F40E00E943F
:103160003D0DEAA1FBA18081EAA1FBA19281692F1B
:1031700041E00E943D0DEAA1FBA18081EAA1FBA1F3
:103180009381692F41E00E943D0DEAA1FBA180815E
:10319000EAA1FBA19481692F41E00E943D0D7AC014
:1031A000EAA1FBA18081EAA1FBA19181692F41E005
:1031B0000E943D0DEAA1FBA18081EAA1FBA19281C1
:1031C000692F40E00E943D0DEAA1FBA18081EAA1A8
:1031D000FBA19381692F41E00E943D0DEAA1FBA173
:1031E0008081EAA1FBA19481692F41E00E943D0DFD
:1031F00051C0EAA1FBA18081EAA1FBA19181692FC5
:1032000041E00E943D0DEAA1FBA18081EAA1FBA162
:103210009281692F41E00E943D0DEAA1FBA18081CE
:10322000EAA1FBA19381692F40E00E943D0DEAA134
:10323000FBA18081EAA1FBA19481692F41E00E945A
:103240003D0D28C0EAA1FBA18081EAA1FBA19181EB
:10325000692F41E00E943D0DEAA1FBA18081EAA116
:10326000FBA19281692F41E00E943D0DEAA1FBA1E3
:103270008081EAA1FBA19381692F41E00E943D0D6D
:10328000EAA1FBA18081EAA1FBA19481692F40E022
:103290000E943D0D8FA1882F90E0A0E0B0E0BC011E
:1032A000CD010E94A904DC01CB01898F9A8FAB8FDD
:1032B000BC8F698D7A8D8B8D9C8D20E030E04AEF3C
:1032C00054E40E941F02DC01CB018D8B9E8BAF8BDF
:1032D000B88F6D897E898F89988D20E030E040E835
:1032E0005FE30E94250488232CF481E090E09C8B0E
:1032F0008B8B3FC06D897E898F89988D20E03FEF51
:103300004FE757E40E94C50318164CF5698D7A8D76
:103310008B8D9C8D20E030E040E251E40E941F0242
:10332000DC01CB01BC01CD010E944900DC01CB01D5
:103330009C8B8B8B0FC088EC90E09A8B898B898952
:103340009A890197F1F79A8B898B8B899C890197D0
:103350009C8B8B8B8B899C89009769F714C06D8936
:103360007E898F89988D0E944900DC01CB019C8B5E
:103370008B8B8B899C89988B8F878F8598890197F8
:10338000F1F7988B8F878D8D9E8D01969E8F8D8FF7
:103390002D8D3E8D8F8D98A12817390708F4A0CE6A
:1033A0006CC18EA1813009F063C11E8E1D8E57C184
:1033B0008D8D9E8DCC01A0E0B0E09C01AD0123700D
:1033C00030704070507028A739A74AA75BA788A51E
:1033D00099A5AAA5BBA581309105A105B10509F460
:1033E0006FC028A539A54AA55BA521303105410547
:1033F000510508F48EC088A599A5AAA5BBA5823061
:103400009105A105B10599F128A539A54AA55BA5A6
:10341000233031054105510509F0A3C0EAA1FBA104
:103420008081EAA1FBA19181692F40E00E943D0DBE
:10343000EAA1FBA18081EAA1FBA19281692F41E071
:103440000E943D0DEAA1FBA18081EAA1FBA193812D
:10345000692F41E00E943D0DEAA1FBA18081EAA114
:10346000FBA19481692F41E00E943D0D7AC0EAA141
:10347000FBA18081EAA1FBA19181692F41E00E941B
:103480003D0DEAA1FBA18081EAA1FBA19281692FF8
:1034900040E00E943D0DEAA1FBA18081EAA1FBA1D1
:1034A0009381692F41E00E943D0DEAA1FBA180813B
:1034B000EAA1FBA19481692F41E00E943D0D51C01A
:1034C000EAA1FBA18081EAA1FBA19181692F41E0E2
:1034D0000E943D0DEAA1FBA18081EAA1FBA192819E
:1034E000692F41E00E943D0DEAA1FBA18081EAA184
:1034F000FBA19381692F40E00E943D0DEAA1FBA151
:103500008081EAA1FBA19481692F41E00E943D0DD9
:1035100028C0EAA1FBA18081EAA1FBA19181692FCA
:1035200041E00E943D0DEAA1FBA18081EAA1FBA13F
:103530009281692F41E00E943D0DEAA1FBA18081AB
:10354000EAA1FBA19381692F41E00E943D0DEAA110
:10355000FBA18081EAA1FBA19481692F40E00E9438
:103560003D0D8FA1882F90E0A0E0B0E0BC01CD011F
:103570000E94A904DC01CB018B879C87AD87BE87A5
:103580006B857C858D859E8520E030E04AEF54E494
:103590000E941F02DC01CB018F839887A987BA871D
:1035A0006F81788589859A8520E030E040E85FE387
:1035B0000E94250488232CF481E090E09E838D8373
:1035C0003FC06F81788589859A8520E03FEF4FE77E
:1035D00057E40E94C50318164CF56B857C858D85D4
:1035E0009E8520E030E040E251E40E941F02DC01B1
:1035F000CB01BC01CD010E944900DC01CB019E83BF
:103600008D830FC088EC90E09C838B838B819C81A1
:103610000197F1F79C838B838D819E8101979E8317
:103620008D838D819E81009769F714C06F817885A5
:1036300089859A850E944900DC01CB019E838D8398
:103640008D819E819A83898389819A810197F1F77F
:103650009A8389838D8D9E8D01969E8F8D8F2D8D62
:103660003E8D8F8D98A12817390708F4A1CE05C08B
:1036700081E089A302C082E089A389A1AF960FB639
:10368000F894DEBF0FBECDBFCF91DF910895DF93D9
:10369000CF93CDB7DEB7E0970FB6F894DEBF0FBE7D
:1036A000CDBF9DA38CA36EA34FA328A71BA28CA163
:1036B0009DA1009709F4F2C28EA1882F90E0A0E0AE
:1036C000B0E0072E7BE0880F991FAA1FBB1F7A95D9
:1036D000D1F7702D8D8F9E8FAF8FB8A38FA18230C1
:1036E00009F06BC11AA219A258C189A19AA1CC01F3
:1036F000A0E0B0E09C01AD012370307040705070CC
:103700002DA73EA74FA758AB8DA59EA5AFA5B8A9DD
:1037100081309105A105B10509F447C02DA53EA54D
:103720004FA558A92130310541055105A8F08DA5B7
:103730009EA5AFA5B8A982309105A105B10509F4F0
:103740005DC02DA53EA54FA558A9233031054105E3
:10375000510509F47CC0A3C0ECA1FDA18081ECA1BE
:10376000FDA19181692F40E00E943D0DECA1FDA1DA
:103770008081ECA1FDA19281692F41E00E943D0D65
:10378000ECA1FDA18081ECA1FDA19381692F41E015
:103790000E943D0DECA1FDA18081ECA1FDA19481D1
:1037A000692F41E00E943D0D7AC0ECA1FDA180810E
:1037B000ECA1FDA19181692F41E00E943D0DECA19A
:1037C000FDA18081ECA1FDA19281692F40E00E94C2
:1037D0003D0DECA1FDA18081ECA1FDA19381692F9C
:1037E00041E00E943D0DECA1FDA18081ECA1FDA175
:1037F0009481692F41E00E943D0D51C0ECA1FDA1D3
:103800008081ECA1FDA19181692F41E00E943D0DD5
:10381000ECA1FDA18081ECA1FDA19281692F41E085
:103820000E943D0DECA1FDA18081ECA1FDA1938141
:10383000692F40E00E943D0DECA1FDA18081ECA12B
:10384000FDA19481692F41E00E943D0D28C0ECA1AB
:10385000FDA18081ECA1FDA19181692F41E00E9431
:103860003D0DECA1FDA18081ECA1FDA19281692F0C
:1038700041E00E943D0DECA1FDA18081ECA1FDA1E4
:103880009381692F41E00E943D0DECA1FDA1808153
:10389000ECA1FDA19481692F40E00E943D0D88A517
:1038A000882F90E0A0E0B0E0BC01CD010E94A90407
:1038B000DC01CB01898F9A8FAB8FBC8F698D7A8D9C
:1038C0008B8D9C8D20E030E04AEF54E40E941F0273
:1038D000DC01CB018D8B9E8BAF8BB88F6D897E8980
:1038E0008F89988D20E030E040E85FE30E94250456
:1038F00088232CF481E090E09C8B8B8B3FC06D89FA
:103900007E898F89988D20E03FEF4FE757E40E9432
:10391000C50318164CF5698D7A8D8B8D9C8D20E032
:1039200030E040E251E40E941F02DC01CB01BC0107
:10393000CD010E944900DC01CB019C8B8B8B0FC019
:1039400088EC90E09A8B898B89899A890197F1F7A5
:103950009A8B898B8B899C8901979C8B8B8B8B890C
:103960009C89009769F714C06D897E898F89988D2D
:103970000E944900DC01CB019C8B8B8B8B899C893D
:10398000988B8F878F8598890197F1F7988B8F8710
:1039900089A19AA101969AA389A389A19AA19C01C0
:1039A00040E050E08D8D9E8DAF8DB8A1281739076E
:1039B0004A075B0708F499CE73C18FA1813009F0E3
:1039C0006AC11AA219A257C189A19AA1CC01A0E08B
:1039D000B0E09C01AD01237030704070507029A799
:1039E0003AA74BA75CA789A59AA5ABA5BCA5813032
:1039F0009105A105B10509F46FC029A53AA54BA50C
:103A00005CA5213031054105510508F48EC089A51A
:103A10009AA5ABA5BCA582309105A105B10599F188
:103A200029A53AA54BA55CA52330310541055105D3
:103A300009F0A3C0ECA1FDA18081ECA1FDA19181C1
:103A4000692F40E00E943D0DECA1FDA18081ECA119
:103A5000FDA19281692F41E00E943D0DECA1FDA1E5
:103A60008081ECA1FDA19381692F41E00E943D0D71
:103A7000ECA1FDA18081ECA1FDA19481692F41E021
:103A80000E943D0D7AC0ECA1FDA18081ECA1FDA1B9
:103A90009181692F41E00E943D0DECA1FDA1808143
:103AA000ECA1FDA19281692F40E00E943D0DECA1A7
:103AB000FDA18081ECA1FDA19381692F41E00E94CD
:103AC0003D0DECA1FDA18081ECA1FDA19481692FA8
:103AD00041E00E943D0D51C0ECA1FDA18081ECA10F
:103AE000FDA19181692F41E00E943D0DECA1FDA156
:103AF0008081ECA1FDA19281692F41E00E943D0DE2
:103B0000ECA1FDA18081ECA1FDA19381692F40E092
:103B10000E943D0DECA1FDA18081ECA1FDA194814D
:103B2000692F41E00E943D0D28C0ECA1FDA18081DC
:103B3000ECA1FDA19181692F41E00E943D0DECA116
:103B4000FDA18081ECA1FDA19281692F41E00E943D
:103B50003D0DECA1FDA18081ECA1FDA19381692F18
:103B600041E00E943D0DECA1FDA18081ECA1FDA1F1
:103B70009481692F40E00E943D0D88A5882F90E038
:103B8000A0E0B0E0BC01CD010E94A904DC01CB01A2
:103B90008B879C87AD87BE876B857C858D859E8551
:103BA00020E030E04AEF54E40E941F02DC01CB0128
:103BB0008F839887A987BA876F81788589859A8549
:103BC00020E030E040E85FE30E94250488232CF4E5
:103BD00081E090E09E838D833FC06F8178858985E9
:103BE0009A8520E03FEF4FE757E40E94C50318167F
:103BF0004CF56B857C858D859E8520E030E040E22C
:103C000051E40E941F02DC01CB01BC01CD010E94E6
:103C10004900DC01CB019E838D830FC088EC90E0CE
:103C20009C838B838B819C810197F1F79C838B8391
:103C30008D819E8101979E838D838D819E810097CA
:103C400069F714C06F81788589859A850E9449003B
:103C5000DC01CB019E838D838D819E819A83898334
:103C600089819A810197F1F79A83898389A19AA121
:103C700001969AA389A389A19AA19C0140E050E0F2
:103C80008D8D9E8DAF8DB8A1281739074A075B0728
:103C900008F49ACE05C081E08BA302C082E08BA31A
:103CA0008BA1E0960FB6F894DEBF0FBECDBFCF91CB
:103CB000DF910895DF93CF93CDB7DEB7A3E5B0E0F2
:103CC000E3E5F0E0808180648C93A3E5B0E0E3E578
:103CD000F0E0808188608C93A3E5B0E0E3E5F0E05C
:103CE00080818F7E8C93A3E5B0E0E3E5F0E08081F6
:103CF00080628C93A3E5B0E0E3E5F0E08081887F0B
:103D00008C93A3E5B0E0E3E5F0E0808183608C93E1
:103D1000CF91DF910895DF93CF93CDB7DEB7AFE4B6
:103D2000B0E0EFE4F0E080818E7F8C93AFE4B0E010
:103D3000EFE4F0E0808182608C93AEE4B0E0EEE4EA
:103D4000F0E0808188608C93AEE4B0E0EEE4F0E0D7
:103D5000808180618C93AFE4B0E0EFE4F0E080819B
:103D60008F7B8C93AFE4B0E0EFE4F0E0808180687B
:103D70008C93AEE4B0E0EEE4F0E080818E7F8C9333
:103D8000AEE4B0E0EEE4F0E0808182608C93AEE4DB
:103D9000B0E0EEE4F0E080818B7F8C93E6E4F0E02D
:103DA00080E29EE491838083CF91DF910895DF9339
:103DB000CF93CDB7DEB7AEE4B0E0EEE4F0E08081C3
:103DC0008E7F8C93AEE4B0E0EEE4F0E080818D7FF6
:103DD0008C93AEE4B0E0EEE4F0E080818B7F8C93D6
:103DE000CF91DF910895DF93CF930F92CDB7DEB7D8
:103DF0008983ECE5F0E0898180830F90CF91DF919A
:103E00000895DF93CF9300D0CDB7DEB79A8389832F
:103E1000EAE4F0E089819A81918380830F900F908A
:103E2000CF91DF910895DF93CF9300D000D0CDB72D
:103E3000DEB78A837C836B8319828B819C81009798
:103E400069F08A81882F90E0880F991FFC01E8585B
:103E5000FC4F8B819C819183808302C082E08983A7
:103E600089810F900F900F900F90CF91DF9108955F
:103E70001F920F920FB60F9211242F933F934F93DF
:103E80005F936F937F938F939F93AF93BF93EF93C2
:103E9000FF93DF93CF93CDB7DEB7809178039091F6
:103EA0007903009729F0E0917803F091790309955F
:103EB000CF91DF91FF91EF91BF91AF919F918F9142
:103EC0007F916F915F914F913F912F910F900FBE16
:103ED0000F901F9018951F920F920FB60F921124FA
:103EE0002F933F934F935F936F937F938F939F9302
:103EF000AF93BF93EF93FF93DF93CF93CDB7DEB72D
:103F000080917A0390917B03009729F0E0917A03E6
:103F1000F0917B030995CF91DF91FF91EF91BF91D4
:103F2000AF919F918F917F916F915F914F913F9151
:103F30002F910F900FBE0F901F901895AF92BF92C8
:103F4000CF92DF92EF92FF920F931F93DF93CF9365
:103F5000CDB7DEB7C355D1400FB6F894DEBF0FBE64
:103F6000CDBF0E9442140E94A2120E94FD0F0E9427
:103F70004C090E94170723E035E382E0B9010E9453
:103F8000C211FE01E45CFE4F1082FE01E55CFE4FB3
:103F90008FEF8083FE01E65CFE4F1082FE01E75C3E
:103FA000FE4F83E08083FE01E85CFE4F1082FE013D
:103FB000E95CFE4F1082FE01EA5CFE4F1082FE01BA
:103FC000EB5CFE4F1082FE01EC5CFE4F1082FE01A6
:103FD000ED5CFE4F1082FE01EF5CFE4F11821082FD
:103FE000FE01E15DFE4F11821082FE01E35DFE4F96
:103FF00011821082FE01E55DFE4F11821082FE01EA
:10400000E75DFE4F11821082FE01E95DFE4F1182D5
:104010001082FE01E35CFE4F11821082FE01EB5D17
:10402000FE4F11821082FE01E15CFE4F82E081832F
:10403000FE01E15CFE4F83E08383FE01E15CFE4F05
:1040400086E08483FE01E15CFE4F1282FE01E15CAA
:10405000FE4F82E08083FE01EC5BFE4F83E08083B5
:10406000FE01EC5BFE4F86E08183FE01EC5BFE4FC0
:1040700087E08283CE018C5B9E4F0E941714FE0165
:10408000E95BFE4F83E08083FE01E95BFE4F84E045
:104090008283FE01E95BFE4F82E08183FE01E95BE2
:1040A000FE4F81E08383FE01E95BFE4F1482FE0137
:1040B000E45CFE4F1082D2C00E94F0098EEC92E0C8
:1040C000FE01E45CFE4F60E0408120E00E94C30BF3
:1040D00086ED92E0FE01E45CFE4F61E0408121E06C
:1040E0000E94C30BFE01EF5DFE4F80E090E0A8EC64
:1040F000B2E480839183A283B3838E01035E1E4F5B
:10410000FE01EF5DFE4F608171818281938120E02D
:1041100030E04AEF54E40E941F02DC01CB01F801B9
:1041200080839183A283B383FE01E35EFE4F6081AF
:1041300071818281938120E030E040E85FE30E945A
:104140002504882344F4FE01E55EFE4F81E090E003
:104150009183808364C0FE01E35EFE4F60817181C4
:104160008281938120E03FEF4FE757E40E94C5032F
:1041700018160CF043C0FE01EF5DFE4F60817181A7
:104180008281938120E030E040E251E40E941F02EE
:10419000DC01CB018E01055E1E4FBC01CD010E94EA
:1041A0004900DC01CB01F801918380831FC0FE012F
:1041B000E75EFE4F88EC90E091838083FE01E75E2E
:1041C000FE4F808191810197F1F7FE01E75EFE4F7E
:1041D00091838083DE01A55EBE4FFE01E55EFE4F4A
:1041E00080819181019711969C938E93FE01E55EEB
:1041F000FE4F808191810097D1F627C08E01055E28
:104200001E4FFE01E35EFE4F6081718182819381CA
:104210000E944900DC01CB01F80191838083DE011B
:10422000A95EBE4FFE01E55EFE4F808191818D93B8
:104230009C93FE01E95EFE4F808191810197F1F729
:10424000FE01E95EFE4F91838083DE01A45CBE4FD8
:10425000FE01E45CFE4F80818F5F8C93FE01E45C85
:10426000FE4F8081803108F427CF81E060E00E941A
:10427000050C86E690E00E94FA09FE01ED5EFE4F15
:1042800080E090E0AAE7B4E480839183A283B383C3
:104290008E01015F1E4FFE01ED5EFE4F6081718158
:1042A0008281938120E030E04AEF54E40E941F02B3
:1042B000DC01CB01F80180839183A283B383FE01EB
:1042C000E15FFE4F608171818281938120E030E067
:1042D00040E85FE30E942504882344F4FE01E35F85
:1042E000FE4F81E090E09183808364C0FE01E15F36
:1042F000FE4F608171818281938120E03FEF4FE723
:1043000057E40E94C50318160CF043C0FE01ED5E91
:10431000FE4F608171818281938120E030E040E234
:1043200051E40E941F02DC01CB018E01035F1E4F8E
:10433000BC01CD010E944900DC01CB01F801918351
:1043400080831FC0FE01E55FFE4F88EC90E0918303
:104350008083FE01E55FFE4F808191810197F1F737
:10436000FE01E55FFE4F91838083DE01A35FBE4FB8
:10437000FE01E35FFE4F80819181019711969C932E
:104380008E93FE01E35FFE4F808191810097D1F60D
:104390002BC48E01035F1E4FFE01E15FFE4F608163
:1043A0007181828193810E944900DC01CB01F80177
:1043B00091838083DE01A75FBE4FFE01E35FFE4F66
:1043C0008081918111969C938E93FE01E75FFE4F51
:1043D000808191810197F1F7FE01E75FFE4F9183A4
:1043E000808302C4FE01E45CFE4F10821DC088E899
:1043F00093E0FE01E45CFE4F62E0408120E00E9419
:10440000C30B88E893E0FE01E45CFE4F62E040816C
:1044100021E00E94C30BDE01A45CBE4FFE01E45C00
:10442000FE4F80818F5F8C93FE01E45CFE4F8081A4
:104430008E30E8F280E060E00E94050C84E790E0B6
:104440000E94FA0980E061E00E94050C89E790E093
:104450000E94FA09CE01815C9E4FFE01E75CFE4F8F
:1044600060810E946714FE01E65CFE4F108284E0CA
:1044700060E00E94050C51C00E94B212FE01E55C92
:10448000FE4F8083FE01E55CFE4F80818F3FA1F3EC
:10449000FE01E55CFE4F8081882F90E08B30910516
:1044A000B9F1FE01E55CFE4F8081882F90E0A0E02D
:1044B000B0E0BC01CD010E942D0AFE01E55CFE4F7B
:1044C0008081482F50E0FE01E55DFE4F80819181A3
:1044D0009C01220F331FC901880F991F880F991F54
:1044E000820F931FFE01E55DFE4F840F951F9183A0
:1044F0008083FE01E55CFE4F8FEF8083DE01A65CCA
:10450000BE4FFE01E65CFE4F80818F5F8C9305C03D
:10451000FE01E55CFE4F8FEF8083FE01E65CFE4FFF
:104520008081843009F0AECFFE01E65CFE4F108240
:104530008AE061E00E94050C10C10E94B212FE01E7
:10454000E55CFE4F8083FE01E55CFE4F80818F3F7E
:10455000A1F3FE01E55CFE4F8081882F90E08B3057
:10456000910509F4F5C0FE01E55CFE4F8081882FBE
:1045700090E0A0E0B0E0BC01CD010E942D0AFE0158
:10458000E55CFE4F8081482F50E0FE01E75DFE4F65
:10459000808191819C01220F331FC901880F991FCF
:1045A000880F991F820F931FFE01E75DFE4F840F56
:1045B000951F91838083FE01E65CFE4F8081865FBC
:1045C00061E00E94050CFE01EB5FFE4F80E090E091
:1045D000AAE7B3E480839183A283B3838E010F5F44
:1045E0001E4FFE01EB5FFE4F6081718182819381DE
:1045F00020E030E04AEF54E40E941F02DC01CB01CE
:10460000F80180839183A283B383FE01EF5FFE4FA5
:10461000608171818281938120E030E040E85FE336
:104620000E942504882344F4FE01E150FF4F81E0FD
:1046300090E09183808364C0FE01EF5FFE4F608154
:1046400071818281938120E03FEF4FE757E40E9420
:10465000C50318160CF043C0FE01EB5FFE4F6081EE
:1046600071818281938120E030E040E251E40E9438
:104670001F02DC01CB018E0101501F4FBC01CD0197
:104680000E944900DC01CB01F801918380831FC0A7
:10469000FE01E350FF4F88EC90E091838083FE01A0
:1046A000E350FF4F808191810197F1F7FE01E350C4
:1046B000FF4F91838083DE01A150BF4FFE01E15087
:1046C000FF4F80819181019711969C938E93FE01FB
:1046D000E150FF4F808191810097D1F627C08E0174
:1046E00001501F4FFE01EF5FFE4F6081718182819B
:1046F00093810E944900DC01CB01F8019183808302
:10470000DE01A550BF4FFE01E150FF4F8081918136
:104710008D939C93FE01E550FF4F8081918101971D
:10472000F1F7FE01E550FF4F918380838AE20E94FA
:104730002C09FE01E55CFE4F8FEF8083DE01A65C55
:10474000BE4FFE01E65CFE4F80818F5F8C9305C0FB
:10475000FE01E55CFE4F8FEF8083FE01E65CFE4FBD
:104760008081843009F0EFCEFE01E65CFE4F1082BE
:104770003BC0DE01A65CBE4FFE01E65CFE4F8081C1
:104780008F5F8C93FE01E55DFE4F808191812AE071
:1047900030E0B9010E942B35AC01FE01E95DFE4F0E
:1047A000808191819C01220F331FC901880F991FBD
:1047B000880F991F820F931FFE01E95DFE4F840F42
:1047C000951F918380838E01055D1E4FFE01E55D7F
:1047D000FE4F808191812AE030E0B9010E942B35A3
:1047E000CB01F80191838083FE01E65CFE4F80815E
:1047F000843009F0BECF80E060E00E94050CFE012D
:10480000E45CFE4F108213C088E893E0FE01E45C94
:10481000FE4F62E0408120E00E94C30BDE01A45CF9
:10482000BE4FFE01E45CFE4F80818F5F8C93FE01E2
:10483000E45CFE4F80818E3038F3FE01E45CFE4F75
:10484000108213C088E893E0FE01E45CFE4F62E052
:10485000408121E00E94C30BDE01A45CBE4FFE013B
:10486000E45CFE4F80818F5F8C93FE01E45CFE4F21
:1048700080818E3038F3FE01E75DFE4FDE01A95DD9
:10488000BE4F208131818D919C9111972817390756
:1048900009F0C8C084E060E00E94050C84E890E064
:1048A0000E94FA09CE01815C9E4F68E00E94671465
:1048B000FE01E85CFE4F81E08083FE01E950FF4F7E
:1048C00080E090E0AAEFB4E480839183A283B38375
:1048D0008E010D501F4FFE01E950FF4F6081718125
:1048E0008281938120E030E04AEF54E40E941F026D
:1048F000DC01CB01F80180839183A283B383FE01A5
:10490000ED50FF4F608171818281938120E030E022
:1049100040E85FE30E942504882344F4FE01EF5041
:10492000FF4F81E090E09183808364C0FE01ED50F1
:10493000FF4F608171818281938120E03FEF4FE7DB
:1049400057E40E94C50318160CF043C0FE01E9505D
:10495000FF4F608171818281938120E030E040E2ED
:1049600051E40E941F02DC01CB018E010F501F4F4A
:10497000BC01CD010E944900DC01CB01F80191830B
:1049800080831FC0FE01E151FF4F88EC90E09183CE
:104990008083FE01E151FF4F808191810197F1F702
:1049A000FE01E151FF4F91838083DE01AF50BF4F85
:1049B000FE01EF50FF4F80819181019711969C93EA
:1049C0008E93FE01EF50FF4F808191810097D1F6C9
:1049D00012C18E010F501F4FFE01ED50FF4F60813D
:1049E0007181828193810E944900DC01CB01F80131
:1049F00091838083DE01A351BF4FFE01EF50FF4F33
:104A00008081918111969C938E93FE01E351FF4F1B
:104A1000808191810197F1F7FE01E351FF4F91836E
:104A20008083E9C0FE01E55DFE4F11821082FE0128
:104A3000E75DFE4F11821082FE01E95DFE4F11829B
:104A40001082DE01A75CBE4FFE01E75CFE4F808155
:104A500081508C9381E060E00E94050C8CE890E02E
:104A60000E94FA09FE01E75CFE4F8081882341F035
:104A700082E061E00E94050C89E990E00E94FA0959
:104A8000FE01E751FF4F80E090E0AAE7B4E48083A5
:104A90009183A283B3838E010B511F4FFE01E75117
:104AA000FF4F608171818281938120E030E04AEF85
:104AB00054E40E941F02DC01CB01F8018083918342
:104AC000A283B383FE01EB51FF4F6081718182812C
:104AD000938120E030E040E85FE30E9425048823D2
:104AE00044F4FE01ED51FF4F81E090E0918380831B
:104AF00064C0FE01EB51FF4F60817181828193811F
:104B000020E03FEF4FE757E40E94C50318160CF072
:104B100043C0FE01E751FF4F608171818281938123
:104B200020E030E040E251E40E941F02DC01CB01B2
:104B30008E010D511F4FBC01CD010E944900DC01C7
:104B4000CB01F801918380831FC0FE01EF51FF4F1D
:104B500088EC90E091838083FE01EF51FF4F8081CC
:104B600091810197F1F7FE01EF51FF4F918380830F
:104B7000DE01AD51BF4FFE01ED51FF4F80819181AC
:104B8000019711969C938E93FE01ED51FF4F80810A
:104B900091810097D1F628C08E010D511F4FFE0163
:104BA000EB51FF4F60817181828193810E944900A6
:104BB000DC01CB01F80191838083DE01A152BF4F5C
:104BC000FE01ED51FF4F8081918111969C938E9350
:104BD000FE01E152FF4F808191810197F1F7FE01C3
:104BE000E152FF4F91838083FE01E75CFE4F80819D
:104BF000882309F0F7CBFE01E75CFE4F8081882314
:104C000089F4CE01815C9E4FFE01E75CFE4F60811E
:104C10000E94671480E061E00E94050C84EA90E045
:104C20000E94FA09FE01E85CFE4F80818130E1F6C6
:104C300080919003882309F018C10E94F00980E058
:104C400060E00E94050C84EB90E00E94FA0980E08D
:104C500061E00E94050C83EC90E00E94FA09FE01DD
:104C6000E55CFE4F8FEF808306C00E94B212FE010A
:104C7000E55CFE4F8083FE01E55CFE4F80818F3F47
:104C8000A1F3FE01E55CFE4F8081282F30E0CE5A73
:104C9000DE4F39832883C255D140CE5ADE4F48813A
:104CA0005981C255D14042305105B1F0CE5ADE4F44
:104CB00088819981C255D1408330910589F0CE5ABF
:104CC000DE4FE881F981C255D140E130F10561F450
:104CD00081E080939003ACCF82E080939003A8CFD3
:104CE00083E080939003A4CF0E94F00982E060E00B
:104CF0000E94050C8CE890E00E94FA09FE01E55242
:104D0000FF4F80E090E0AAEFB4E480839183A28318
:104D1000B3838E0109521F4FFE01E552FF4F6081A0
:104D200071818281938120E030E04AEF54E40E9457
:104D30001F02DC01CB01F80180839183A283B3833E
:104D4000FE01E952FF4F608171818281938120E0F1
:104D500030E040E85FE30E942504882344F4FE012C
:104D6000EB52FF4F81E090E09183808364C0FE01AD
:104D7000E952FF4F608171818281938120E03FEF92
:104D80004FE757E40E94C50318160CF043C0FE011C
:104D9000E552FF4F608171818281938120E030E094
:104DA00040E251E40E941F02DC01CB018E010B5254
:104DB0001F4FBC01CD010E944900DC01CB01F8016D
:104DC000918380831FC0FE01ED52FF4F88EC90E07D
:104DD00091838083FE01ED52FF4F80819181019785
:104DE000F1F7FE01ED52FF4F91838083DE01AB525C
:104DF000BF4FFE01EB52FF4F8081918101971196C9
:104E00009C938E93FE01EB52FF4F8081918100971E
:104E1000D1F628C08E010B521F4FFE01E952FF4F01
:104E200060817181828193810E944900DC01CB0104
:104E3000F80191838083DE01AF52BF4FFE01EB5238
:104E4000FF4F8081918111969C938E93FE01EF52CA
:104E5000FF4F808191810197F1F7FE01EF52FF4FE3
:104E60009183808310929003E3CE809190038130F0
:104E700011F00C94352F0E94F00980E060E00E9450
:104E8000050C83ED90E00E94FA0980E061E00E9449
:104E9000050C80EE90E00E94FA09FE01E55CFE4FF1
:104EA0008FEF808306C00E94B212FE01E55CFE4FC8
:104EB0008083FE01E55CFE4F80818F3FA1F3FE0100
:104EC000E55CFE4F8081282F30E0C05BDE4F3983E8
:104ED0002883C055D140C05BDE4F48815981C05501
:104EE000D1404130510551F0C05BDE4F888199813E
:104EF000C055D1408230910539F00CC0FE01E95C0B
:104F0000FE4F81E08083C6C0FE01E95CFE4F82E077
:104F10008083C0C00E94F00982E060E00E94050C1E
:104F20008CE890E00E94FA09FE01E353FF4F80E015
:104F300090E0AAEFB4E480839183A283B3838E01CF
:104F400007531F4FFE01E353FF4F60817181828140
:104F5000938120E030E04AEF54E40E941F02DC011C
:104F6000CB01F80180839183A283B383FE01E753D1
:104F7000FF4F608171818281938120E030E040E8C1
:104F80005FE30E942504882344F4FE01E953FF4FA8
:104F900081E090E09183808364C0FE01E753FF4F7E
:104FA000608171818281938120E03FEF4FE757E478
:104FB0000E94C50318160CF043C0FE01E353FF4FD7
:104FC000608171818281938120E030E040E251E490
:104FD0000E941F02DC01CB018E0109531F4FBC014F
:104FE000CD010E944900DC01CB01F801918380834F
:104FF0001FC0FE01EB53FF4F88EC90E0918380834C
:10500000FE01EB53FF4F808191810197F1F7FE0183
:10501000EB53FF4F91838083DE01A953BF4FFE0105
:10502000E953FF4F80819181019711969C938E9354
:10503000FE01E953FF4F808191810097D1F628C08E
:105040008E0109531F4FFE01E753FF4F60817181AD
:10505000828193810E944900DC01CB01F801918398
:105060008083DE01AD53BF4FFE01E953FF4F8081C6
:10507000918111969C938E93FE01ED53FF4F808199
:1050800091810197F1F7FE01ED53FF4F91838083EA
:105090001092900380919003813009F0C9CD0E9455
:1050A000F00980E061E00E94050C80EF90E00E9432
:1050B000FA0980E060E00E94050C8EEF90E00E940B
:1050C000FA09FE01E55CFE4F8FEF808306C00E9467
:1050D000B212FE01E55CFE4F8083FE01E55CFE4FEF
:1050E00080818F3FA1F3FE01E55CFE4F8081882F18
:1050F00090E001978230910548F4FE01EC5CFE4F90
:10510000DE01A55CBE4F8C918083C0C00E94F00977
:1051100082E060E00E94050C8CE890E00E94FA09B1
:10512000FE01E154FF4F80E090E0AAEFB4E48083F9
:105130009183A283B3838E0105541F4FFE01E15476
:10514000FF4F608171818281938120E030E04AEFDE
:1051500054E40E941F02DC01CB01F801808391839B
:10516000A283B383FE01E554FF4F60817181828188
:10517000938120E030E040E85FE30E94250488232B
:1051800044F4FE01E754FF4F81E090E09183808377
:1051900064C0FE01E554FF4F60817181828193817B
:1051A00020E03FEF4FE757E40E94C50318160CF0CC
:1051B00043C0FE01E154FF4F608171818281938180
:1051C00020E030E040E251E40E941F02DC01CB010C
:1051D0008E0107541F4FBC01CD010E944900DC0124
:1051E000CB01F801918380831FC0FE01E954FF4F7A
:1051F00088EC90E091838083FE01E954FF4F808129
:1052000091810197F1F7FE01E954FF4F918380836B
:10521000DE01A754BF4FFE01E754FF4F808191810B
:10522000019711969C938E93FE01E754FF4F808166
:1052300091810097D1F628C08E0107541F4FFE01BF
:10524000E554FF4F60817181828193810E94490002
:10525000DC01CB01F80191838083DE01AB54BF4FA9
:10526000FE01E754FF4F8081918111969C938E93AC
:10527000FE01EB54FF4F808191810197F1F7FE0110
:10528000EB54FF4F9183808310929003FE01E95C01
:10529000FE4F80818130D9F50E94F00983E060E003
:1052A0000E94050C8EE091E00E94FA0985E061E021
:1052B0000E94050CFE01EC5CFE4F8081813071F490
:1052C00088E191E00E94FA09CE018C5B9E4F0E941A
:1052D000C113809190038823E1F713C0FE01EC5CB9
:1052E000FE4F8081823069F48EE191E00E94FA09DC
:1052F000CE018C5B9E4F0E94EC138091900388231B
:10530000E1F7CE018C5B9E4F0E94171491CCFE01F9
:10531000E95CFE4F8081823009F08ACC0E94F0095E
:1053200082E060E00E94050C85E291E00E94FA09AB
:1053300085E061E00E94050CFE01EC5CFE4F80817F
:10534000813009F0C5C288E191E00E94FA09CE01DE
:105350008C5B9E4F0E94C113B0C29E01235C3E4FE6
:1053600087E0B9010E944F07FE01E35CFE4F808198
:105370009181CC01A0E0B0E000D000D0EDB7FEB745
:10538000319680839183A283B38360E070E080E0F4
:1053900090E02FEF33E040E050E0EE24FF2487015F
:1053A0000F2EF0E2AF2EFEE4BF2EF0E0CF2EF0E0A5
:1053B000DF2EF02D0E9436130F900F900F900F905C
:1053C000DC01CB01FE01EB5DFE4F91838083FE018A
:1053D000EB5DFE4F80819181CC01A0E0B0E0BC018B
:1053E000CD010E94A904DC01CB01FE01EF54FF4F67
:1053F00080839183A283B3838E0103551F4FFE01E7
:10540000EF54FF4F60817181828193812BEA3AEAE8
:105410004AE250E40E941F02DC01CB01F8018083C4
:105420009183A283B383FE01E355FF4F60817181B5
:105430008281938120E030E040E85FE30E94250410
:10544000882334F4FE01E455FF4F81E08083E0C0FF
:10545000FE01E355FF4F608171818281938120E0DD
:1054600030E04FE753E40E94C50318160CF0C0C0AB
:10547000FE01EF54FF4F608171818281938120E0B2
:1054800030E04AE754E40E941903DC01CB01FE013D
:10549000E855FF4F80839183A283B3838E010C551F
:1054A0001F4FFE01E855FF4F60817181828193811A
:1054B00020E030E04AEF54E40E941F02DC01CB01FF
:1054C000F80180839183A283B383FE01EC55FF4FE3
:1054D000608171818281938120E030E040E85FE368
:1054E0000E942504882344F4FE01EE55FF4F81E01D
:1054F00090E09183808364C0FE01EC55FF4F608192
:1055000071818281938120E03FEF4FE757E40E9451
:10551000C50318160CF043C0FE01E855FF4F60812B
:1055200071818281938120E030E040E251E40E9469
:105530001F02DC01CB018E010E551F4FBC01CD01B6
:105540000E944900DC01CB01F801918380831FC0D8
:10555000FE01E056FF4F88EC90E091838083FE01CE
:10556000E056FF4F808191810197F1F7FE01E056EF
:10557000FF4F91838083DE01AE55BF4FFE01EE5594
:10558000FF4F80819181019711969C938E93FE012C
:10559000EE55FF4F808191810097D1F64BC08E016F
:1055A0000E551F4FFE01EC55FF4F608171818281C6
:1055B00093810E944900DC01CB01F8019183808333
:1055C000DE01A256BF4FFE01EE55FF4F8081918153
:1055D00011969C938E93FE01E256FF4F808191813C
:1055E0000197F1F7FE01E256FF4F9183808322C0BD
:1055F0008E0104551F4FFE01E355FF4F60817181FD
:10560000828193810E944900DC01CB01F8018083F3
:10561000DE01A356BF4FFE01E455FF4F80818C93FE
:10562000FE01E356FF4F80818A95F1F7FE01E356B4
:10563000FF4F8083CE018C5B9E4F0E941714FE01AA
:10564000EB5DFE4F20E23EE480819181A901481B81
:10565000590BCA01CC01A0E0B0E0BC01CD010E9411
:10566000A904DC01CB01FE01E756FF4F8083918343
:10567000A283B3838E010B561F4FFE01E756FF4FE7
:1056800060817181828193812BEA3AEA4AE250E497
:105690000E941F02DC01CB01F80180839183A28369
:1056A000B383FE01EB56FF4F60817181828193814C
:1056B00020E030E040E85FE30E942504882334F4D2
:1056C000FE01EC56FF4F81E08083E0C0FE01EB5607
:1056D000FF4F608171818281938120E030E04FE74C
:1056E00053E40E94C50318160CF0C0C0FE01E75633
:1056F000FF4F608171818281938120E030E04AE731
:1057000054E40E941903DC01CB01FE01E057FF4F76
:1057100080839183A283B3838E0104571F4FFE01C0
:10572000E057FF4F608171818281938120E030E0FA
:105730004AEF54E40E941F02DC01CB01F801808390
:105740009183A283B383FE01E457FF4F608171818F
:105750008281938120E030E040E85FE30E942504ED
:10576000882344F4FE01E657FF4F81E090E09183E7
:10577000808364C0FE01E457FF4F608171818281A4
:10578000938120E03FEF4FE757E40E94C5031816CE
:105790000CF043C0FE01E057FF4F608171818281B0
:1057A000938120E030E040E251E40E941F02DC01DE
:1057B000CB018E0106571F4FBC01CD010E9449004D
:1057C000DC01CB01F801918380831FC0FE01E85703
:1057D000FF4F88EC90E091838083FE01E857FF4FF4
:1057E000808191810197F1F7FE01E857FF4F918386
:1057F0008083DE01A657BF4FFE01E657FF4F808131
:105800009181019711969C938E93FE01E657FF4F6D
:10581000808191810097D1F64BC08E0106571F4FB2
:10582000FE01E457FF4F60817181828193810E9464
:105830004900DC01CB01F80191838083DE01AA5786
:10584000BF4FFE01E657FF4F8081918111969C93D7
:105850008E93FE01EA57FF4F808191810197F1F706
:10586000FE01EA57FF4F9183808322C08E010C56C0
:105870001F4FFE01EB56FF4F608171818281938142
:105880000E944900DC01CB01F8018083DE01AB57A7
:10589000BF4FFE01EC56FF4F80818C93FE01EB570A
:1058A000FF4F80818A95F1F7FE01EB57FF4F808310
:1058B000CE018C5B9E4F0E94C11380919003882380
:1058C00009F04BCDCE018C5B9E4F0E941714B0C9DE
:1058D000FE01EC5CFE4F8081823009F0A9C98EE1A7
:1058E00091E00E94FA09CE018C5B9E4F0E94EC135E
:1058F000B0C29E01235C3E4F87E0B9010E944F0772
:10590000FE01E35CFE4F80819181CC01A0E0B0E01C
:1059100000D000D0EDB7FEB7319680839183A2838B
:10592000B38360E070E080E090E02FEF33E040E090
:1059300050E0EE24FF2487010F2EF0E2AF2EFEE4AC
:10594000BF2EF0E0CF2EF0E0DF2EF02D0E943613B8
:105950000F900F900F900F90DC01CB01FE01EB5DDB
:10596000FE4F91838083FE01EB5DFE4F808191812C
:10597000CC01A0E0B0E0BC01CD010E94A904DC0193
:10598000CB01FE01EF57FF4F80839183A283B38346
:105990008E0103581F4FFE01EF57FF4F6081718149
:1059A000828193812BEA3AEA4AE250E40E941F0284
:1059B000DC01CB01F80180839183A283B383FE01D4
:1059C000E358FF4F608171818281938120E030E054
:1059D00040E85FE30E942504882334F4FE01E45884
:1059E000FF4F81E08083E0C0FE01E358FF4F6081FC
:1059F00071818281938120E030E04FE753E40E947F
:105A0000C50318160CF0C0C0FE01EF57FF4F6081B0
:105A100071818281938120E030E04AE754E40E9462
:105A20001903DC01CB01FE01E858FF4F808391830D
:105A3000A283B3838E010C581F4FFE01E858FF4F1D
:105A4000608171818281938120E030E04AEF54E4EB
:105A50000E941F02DC01CB01F80180839183A283A5
:105A6000B383FE01EC58FF4F608171818281938185
:105A700020E030E040E85FE30E942504882344F4FE
:105A8000FE01EE58FF4F81E090E09183808364C077
:105A9000FE01EC58FF4F608171818281938120E08B
:105AA0003FEF4FE757E40E94C50318160CF043C0C0
:105AB000FE01E858FF4F608171818281938120E06F
:105AC00030E040E251E40E941F02DC01CB018E0174
:105AD0000E581F4FBC01CD010E944900DC01CB01D3
