:100000000C942A000C9447000C9447000C94470071
:100010000C9447000C9447000C9447000C94470044
:100020000C9447000C9447000C9446060C9413065D
:100030000C9447000C9447000C9447000C94470024
:100040000C9447000C9447000C9447000C94470014
:100050000C94470011241FBECFE5D8E0DEBFCDBF12
:1000600010E0A0E6B0E0E4E1FEE002C005900D92F1
:10007000AC36B107D9F710E0ACE6B0E001C01D9294
:10008000AF37B107E1F70E9479060C9408070C948A
:100090000000DF93CF93CDB7DEB728970FB6F89463
:1000A000DEBF0FBECDBF8A836B834C8319828B81E9
:1000B000883008F0F4C08C81813009F072C08A81E8
:1000C000282F30E038872F838F81988581309105E4
:1000D00049F12F813885223031052CF48F819885A4
:1000E000009761F05BC02F8138852230310571F1B6
:1000F0008F81988583309105E9F150C0AAE3B0E083
:10010000EAE3F0E08081482F8B81282F30E081E006
:1001100090E0022E02C0880F991F0A94E2F7842B08
:100120008C93BFC0A7E3B0E0E7E3F0E08081482F05
:100130008B81282F30E081E090E0022E02C0880FF2
:10014000991F0A94E2F7842B8C93ABC0A4E3B0E030
:10015000E4E3F0E08081482F8B81282F30E081E0BC
:1001600090E0022E02C0880F991F0A94E2F7842BB8
:100170008C9397C0A1E3B0E0E1E3F0E08081482FE9
:100180008B81282F30E081E090E0022E02C0880FA2
:10019000991F0A94E2F7842B8C9383C081E08983B2
:1001A00080C08C81882309F077C08A81282F30E0B5
:1001B0003E832D838D819E818130910559F12D8162
:1001C0003E81223031052CF48D819E81009769F0AB
:1001D00060C02D813E812230310589F18D819E8163
:1001E0008330910509F440C054C0AAE3B0E0EAE3CB
:1001F000F0E08081482F8B81282F30E081E090E073
:10020000022E02C0880F991F0A94E2F7809584237A
:100210008C9347C0A7E3B0E0E7E3F0E08081482F8C
:100220008B81282F30E081E090E0022E02C0880F01
:10023000991F0A94E2F7809584238C9332C0A4E33B
:10024000B0E0E4E3F0E08081482F8B81282F30E09C
:1002500081E090E0022E02C0880F991F0A94E2F715
:10026000809584238C931DC0A1E3B0E0E1E3F0E02E
:100270008081482F8B81282F30E081E090E0022E92
:1002800002C0880F991F0A94E2F7809584238C930B
:1002900008C081E0898305C081E0898302C081E0D4
:1002A0008983898128960FB6F894DEBF0FBECDBF33
:1002B000CF91DF910895DF93CF93CDB7DEB7289725
:1002C0000FB6F894DEBF0FBECDBF8A836B834C831D
:1002D00019828B81883008F0F4C08C81813009F05C
:1002E00072C08A81282F30E038872F838F819885CC
:1002F0008130910549F12F813885223031052CF468
:100300008F819885009761F05BC02F8138852230FE
:10031000310571F18F81988583309105E9F150C0E5
:10032000ABE3B0E0EBE3F0E08081482F8B81282F36
:1003300030E081E090E0022E02C0880F991F0A94FD
:10034000E2F7842B8C93BFC0A8E3B0E0E8E3F0E0D1
:100350008081482F8B81282F30E081E090E0022EB1
:1003600002C0880F991F0A94E2F7842B8C93ABC0CC
:10037000A5E3B0E0E5E3F0E08081482F8B81282FF2
:1003800030E081E090E0022E02C0880F991F0A94AD
:10039000E2F7842B8C9397C0A2E3B0E0E2E3F0E0B5
:1003A0008081482F8B81282F30E081E090E0022E61
:1003B00002C0880F991F0A94E2F7842B8C9383C0A4
:1003C00081E0898380C08C81882309F077C08A818D
:1003D000282F30E03E832D838D819E8181309105D1
:1003E00059F12D813E81223031052CF48D819E8181
:1003F000009769F060C02D813E812230310589F17E
:100400008D819E818330910509F440C054C0ABE3D7
:10041000B0E0EBE3F0E08081482F8B81282F30E0C3
:1004200081E090E0022E02C0880F991F0A94E2F743
:10043000809584238C9347C0A8E3B0E0E8E3F0E024
:100440008081482F8B81282F30E081E090E0022EC0
:1004500002C0880F991F0A94E2F7809584238C9339
:1004600032C0A5E3B0E0E5E3F0E08081482F8B8166
:10047000282F30E081E090E0022E02C0880F991F03
:100480000A94E2F7809584238C931DC0A2E3B0E028
:10049000E2E3F0E08081482F8B81282F30E081E07B
:1004A00090E0022E02C0880F991F0A94E2F780950F
:1004B00084238C9308C081E0898305C081E089830F
:1004C00002C081E08983898128960FB6F894DEBF47
:1004D0000FBECDBFCF91DF910895DF93CF9300D0B2
:1004E00000D00F92CDB7DEB78A836B8319828B81E0
:1004F000883008F072C08A81282F30E03D832C8339
:100500008C819D818130910549F12C813D81223082
:1005100031052CF48C819D81009761F05BC02C81AA
:100520003D812230310571F18C819D8183309105AF
:10053000E9F150C0ABE3B0E0EBE3F0E08081482F9D
:100540008B81282F30E081E090E0022E02C0880FDE
:10055000991F0A94E2F784278C9341C0A8E3B0E086
:10056000E8E3F0E08081482F8B81282F30E081E0A4
:1005700090E0022E02C0880F991F0A94E2F78427A8
:100580008C932DC0A5E3B0E0E5E3F0E08081482F37
:100590008B81282F30E081E090E0022E02C0880F8E
:1005A000991F0A94E2F784278C9319C0A2E3B0E064
:1005B000E2E3F0E08081482F8B81282F30E081E05A
:1005C00090E0022E02C0880F991F0A94E2F7842758
:1005D0008C9305C081E0898302C081E08983898191
:1005E0000F900F900F900F900F90CF91DF91089583
:1005F000DF93CF93CDB7DEB727970FB6F894DEBF62
:100600000FBECDBF8A836B835D834C8319828B8140
:10061000883008F074C08A81282F30E03F832E8311
:100620004E815F814130510559F18E819F81823029
:10063000910534F42E813F812115310569F05CC0AC
:100640004E815F814230510579F18E819F818330E7
:10065000910509F43DC050C0E9E3F0E08081282F06
:1006600030E08B81882F90E0A90102C05595479515
:100670008A95E2F7CA018170EC81FD81808341C0D7
:10068000E6E3F0E08081282F30E08B81882F90E036
:10069000A90102C0559547958A95E2F7CA01817074
:1006A000EC81FD8180832DC0E3E3F0E08081282F81
:1006B00030E08B81882F90E0A90102C055954795C5
:1006C0008A95E2F7CA018170EC81FD81808319C0AF
:1006D000E0E3F0E08081282F30E08B81882F90E0EC
:1006E000A90102C0559547958A95E2F7CA01817024
:1006F000EC81FD81808305C081E0898302C081E0B7
:100700008983898127960FB6F894DEBF0FBECDBFCF
:10071000CF91DF910895DF93CF9300D000D00F9257
:10072000CDB7DEB78A836B8319828A81282F30E0A8
:100730003D832C838C819D8181309105D1F02C816A
:100740003D81223031052CF48C819D81009761F030
:100750001FC02C813D812230310581F08C819D812B
:100760008330910581F014C0EAE3F0E08B8180834F
:1007700011C0E7E3F0E08B8180830CC0E4E3F0E09C
:100780008B81808307C0E1E3F0E08B81808302C02E
:1007900081E0898389810F900F900F900F900F90C7
:1007A000CF91DF910895DF93CF9300D000D00F92C7
:1007B000CDB7DEB78A836B8319828A81282F30E018
:1007C0003D832C838C819D8181309105D1F02C81DA
:1007D0003D81223031052CF48C819D81009761F0A0
:1007E0001FC02C813D812230310581F08C819D819B
:1007F0008330910581F014C0EBE3F0E08B818083BE
:1008000011C0E8E3F0E08B8180830CC0E5E3F0E009
:100810008B81808307C0E2E3F0E08B81808302C09C
:1008200081E0898389810F900F900F900F900F9036
:10083000CF91DF910895DF93CF93CDB7DEB7789452
:10084000CF91DF910895DF93CF93CDB7DEB7F894C2
:10085000CF91DF910895DF93CF93CDB7DEB7EAE371
:10086000F0E08FEF8083E7E3F0E08FEF8083E4E355
:10087000F0E08FEF8083E1E3F0E08FEF8083EBE344
:10088000F0E01082E8E3F0E01082E5E3F0E01082AF
:10089000E2E3F0E01082CF91DF910895DF93CF93F0
:1008A00000D000D0CDB7DEB79B838A836C831982DA
:1008B0008A819B81009709F481C0EA81FB81808154
:1008C0008230B9F5EA81FB818381EA81FB819481E1
:1008D000692F40E00E945B01EA81FB8182818823CD
:1008E00079F4EA81FB8121818C81882F90E0FC01E1
:1008F000E05AFF4F9081822F692F0E94D30360C07E
:10090000EA81FB818281813089F4EA81FB81218146
:100910008C81882F90E0FC01E05AFF4F8081982F56
:10092000990F822F692F0E94D3034AC081E08983E7
:1009300047C0EA81FB8180818130E9F5EA81FB8152
:100940008381EA81FB819481692F41E00E945B01F0
:10095000EA81FB818281882389F4EA81FB812181FC
:100960008C81882F90E0FC01E05AFF4F8081982F06
:100970009095822F692F0E94D30322C0EA81FB81C8
:1009800082818130A9F4EA81FB8121818C81882FC9
:1009900090E0FC01E05AFF4F8081882F90E0880FA3
:1009A000991F982F9095822F692F0E94D30308C01A
:1009B00081E0898305C081E0898302C082E0898368
:1009C00089810F900F900F900F90CF91DF91089534
:1009D000DF93CF9300D00F92CDB7DEB79B838A838E
:1009E00019828A819B81009719F1EA81FB818081BC
:1009F000823059F4EA81FB818381EA81FB81948111
:100A0000692F41E00E945B0115C0EA81FB81808172
:100A1000813059F4EA81FB818381EA81FB819481F1
:100A2000692F40E00E945B0105C081E0898302C01C
:100A300082E0898389810F900F900F90CF91DF9191
:100A40000895DF93CF93CDB7DEB72A970FB6F8940A
:100A5000DEBF0FBECDBF9C838B837E836D831982E7
:100A60008B819C81009709F455C08D819E810097F0
:100A700009F450C0EB81FC818181EB81FC81928182
:100A80009E012E5F3F4F692FA9010E94F802EB8162
:100A9000FC8180818130D9F48A81282F30E03A8727
:100AA000298789859A85009751F029853A852130D3
:100AB000310551F4ED81FE8182E080832DC0ED810E
:100AC000FE8181E0808328C081E0898325C0EB819D
:100AD000FC8180818230D9F48A81282F30E03887E8
:100AE0002F838F819885009751F02F813885213091
:100AF000310551F4ED81FE8181E080830DC0ED81EF
:100B0000FE8182E0808308C081E0898305C081E0A6
:100B1000898302C082E0898389812A960FB6F8947E
:100B2000DEBF0FBECDBFCF91DF910895DF93CF938E
:100B3000CDB7DEB7A3E5B0E0E3E5F0E080818F7BE1
:100B40008C93A3E5B0E0E3E5F0E0808188608C93CE
:100B5000A3E5B0E0E3E5F0E080818F7E8C93A3E530
:100B6000B0E0E3E5F0E080818F7D8C93A3E5B0E019
:100B7000E3E5F0E080818E7F8C93A3E5B0E0E3E5D0
:100B8000F0E0808182608C93A3E5B0E0E3E5F0E0E3
:100B900080818B7F8C93A9E5B0E0E9E5F0E080816E
:100BA00082608C93ECE5F0E08AEF8083CF91DF9157
:100BB0000895DF93CF9300D00F92CDB7DEB79B831C
:100BC0008A8319828A819B81009739F08A819B816F
:100BD00090936D0080936C0002C082E089838981CC
:100BE0000F900F900F90CF91DF910895DF93CF93E7
:100BF00000D00F92CDB7DEB79B838A8319828A819A
:100C00009B81009739F08A819B8190936F0080933C
:100C10006E0002C082E0898389810F900F900F904F
:100C2000CF91DF9108951F920F920FB60F9211246A
:100C30002F933F934F935F936F937F938F939F93E4
:100C4000AF93BF93EF93FF93DF93CF93CDB7DEB70F
:100C500080916E0090916F00009729F0E0916E00F6
:100C6000F0916F000995CF91DF91FF91EF91BF91C6
:100C7000AF919F918F917F916F915F914F913F9134
:100C80002F910F900FBE0F901F9018951F920F92EB
:100C90000FB60F9211242F933F934F935F936F934F
:100CA0007F938F939F93AF93BF93EF93FF93DF93C4
:100CB000CF93CDB7DEB780916C0090916D00009717
:100CC00029F0E0916C00F0916D000995CF91DF91D2
:100CD000FF91EF91BF91AF919F918F917F916F9114
:100CE0005F914F913F912F910F900FBE0F901F90EA
:100CF0001895DF93CF93CDB7DEB70E942B040E94E7
:100D00001B040E94960588E896E00E94D905FFCF53
:100D1000DF93CF93CDB7DEB71092760082E0809359
:100D200075001092770082E080937800109279002D
:100D30001092710082E0809370001092720082E045
:100D40008093730081E08093740080917A008823FF
:100D500051F481E080937A0020917B0085E790E058
:100D6000622F0E944E0480917E008F5F80937E00F0
:100D700080917C0090917D00019690937D008093FE
:100D80007C0080917E00883261F485E790E00E94CB
:100D9000E80420916A0080E790E0622F0E944E04F0
:100DA00011C080917E00803569F420917B0085E739
:100DB00090E0622F0E944E0480E790E00E94E804D9
:100DC00010927E0080917C0090917D002FE0803A0F
:100DD0009207D9F480917B008F5F80937B00809194
:100DE0007B008A3010F010927B0080916A00815065
:100DF00080936A0080916A008F3F19F489E08093A4
:100E00006A0010927D0010927C00CF91DF910895CE
:040E1000F894FFCF84
:0C0E14003F065B4F666D7D077F6F090095
:00000001FF
