:100000000C942A000C9447000C9447000C94470071
:100010000C9447000C9447000C9447000C94470044
:100020000C9447000C9447000C9447000C94470034
:100030000C9447000C9447000C9447000C94470024
:100040000C948D060C9447000C9447000C944700C8
:100050000C94470011241FBECFE5D8E0DEBFCDBF12
:1000600011E0A0E6B0E0E6EEF5E302C005900D92E7
:10007000A23CB107D9F711E0A2ECB1E001C01D929A
:10008000AE3CB107E1F70E9413130C94F11A0C94E3
:100090000000EF92FF920F931F937B018C0120E0F1
:1000A00030E040E05FE40E94490388238CF0C801FF
:1000B000B70120E030E040E05FE40E94C1010E940F
:1000C000A9039B01AC01205030404040504806C07D
:1000D000C801B7010E94A9039B01AC01B901CA0183
:1000E0001F910F91FF90EF900895A0E0B0E0EBE733
:1000F000F0E00C94BA1ADC012B01FA019C919230C9
:1001000008F439C1EB018881823008F433C194309E
:1001100069F4843009F02FC111969C91119789815F
:10012000981709F428C1A7ECB0E025C1843009F480
:1001300021C18230A9F4923009F01DC19A01AD01AC
:1001400088E0EA010990AE01E90109929E0181501F
:10015000C1F7E201898111969C918923818308C1AD
:10016000923009F407C112962D903C901397EB0141
:100170008A819B811496AD90BD90CD90DC901797AD
:10018000EC80FD800E811F819101281B390BB90184
:1001900037FF04C066277727621B730B6032710537
:1001A0000CF061C0121613066CF537014801062EDB
:1001B00004C096948794779467940A94D2F721E0C8
:1001C00030E040E050E004C0220F331F441F551FB1
:1001D0006A95D2F721503040404050402E213F21B7
:1001E00040235123211531054105510521F021E01E
:1001F00030E040E050E079018A01E628F72808293C
:1002000019293CC0232BD1F1260E371E350146019A
:10021000062E04C096948794779467940A94D2F734
:1002200021E030E040E050E004C0220F331F441FC3
:10023000551F6A95D2F721503040404050402A2146
:100240003B214C215D21211531054105510521F04E
:1002500021E030E040E050E059016A01A628B728CB
:10026000C828D9280BC0821593052CF01C01AA249C
:10027000BB24650103C0EE24FF24870111969C91E5
:10028000D20111968C91981709F445C0992339F041
:10029000A80197012A193B094C095D0906C0A6016E
:1002A00095012E193F09400B510B57FD08C01182D3
:1002B0003382228224833583468357831DC081E0A5
:1002C00081833382228288279927DC01821B930B4A
:1002D000A40BB50B84839583A683B7830DC0220F2F
:1002E000331F441F551F24833583468357838281E0
:1002F000938101979383828324813581468157813D
:10030000DA01C9010197A109B1098F5F9F4FAF4F72
:10031000BF4328F30BC0918333822282EA0CFB1C7B
:100320000C1D1D1DE482F5820683178383E0808304
:10033000248135814681578157FF1AC0C901AA27F8
:1003400097FDA095BA2F81709070A070B0705695EF
:10035000479537952795822B932BA42BB52B848318
:100360009583A683B7838281938101969383828349
:10037000DF0101C0D201CD01CDB7DEB7E2E10C94BF
:10038000D61AA0E2B0E0E7ECF1E00C94C61A69835B
:100390007A838B839C832D833E834F835887E9E048
:1003A000EE2EF12CEC0EFD1ECE010196B7010E943F
:1003B000D2048E010F5E1F4FCE010596B8010E9438
:1003C000D2048A8991E089278A8BC701B801AE01DE
:1003D000475E5F4F0E9475000E94FD03A096E6E015
:1003E0000C94E21AA0E2B0E0E8EFF1E00C94C61A37
:1003F00069837A838B839C832D833E834F835887C5
:10040000F9E0EF2EF12CEC0EFD1ECE010196B701A6
:100410000E94D2048E010F5E1F4FCE010596B801D7
:100420000E94D204C701B801AE01475E5F4F0E942F
:1004300075000E94FD03A096E6E00C94E21AA0E28B
:10044000B0E0E5E2F2E00C94BA1A69837A838B8318
:100450009C832D833E834F835887CE010196BE0136
:10046000675F7F4F0E94D204CE010596BE016F5E8A
:100470007F4F0E94D2049985923088F0898982301A
:10048000C8F0943019F4823051F404C0843029F457
:10049000923081F487EC90E0C6C0923049F420E0BD
:1004A0009A858A89981321E02A87CE010996BBC0D4
:1004B000823049F420E09A858A89981321E02A8BBA
:1004C000CE014196B0C02D843E844F8458886D88FB
:1004D0007E888F88988CEE24FF248701AA24BB2471
:1004E000650140E050E060E070E0E0E0F0E0C10174
:1004F00081709070892BE9F0E60CF71C081D191D1E
:100500009A01AB012A0D3B1D4C1D5D1D80E090E062
:10051000A0E0B0E0E614F7040805190520F481E036
:1005200090E0A0E0B0E0BA01A901480F591F6A1F8E
:100530007B1FAA0CBB1CCC1CDD1C97FE08C081E0F5
:1005400090E0A0E0B0E0A82AB92ACA2ADB2A3196B6
:10055000E032F10549F0660C771C881C991C569412
:10056000479437942794C3CFFA85EA892B893C892D
:100570008B859C85280F391F2E5F3F4F17C0CA01FE
:1005800081709070892B61F016950795F794E79428
:1005900080E090E0A0E0B0E8E82AF92A0A2B1B2BC3
:1005A00076956795579547952F5F3F4F77FDE7CF36
:1005B0000CC0440F551F661F771F17FD4160EE0CDE
:1005C000FF1C001F111F21503040403090E05907A0
:1005D00090E0690790E4790760F32B8F3C8FDB0193
:1005E000CA018F779070A070B07080349105A1051A
:1005F000B10561F447FD0AC0E114F10401051105DC
:1006000029F0405C5F4F6F4F7F4F40781A8EFE1786
:1006100011F081E08A8F4D8F5E8F6F8F78A383E01A
:10062000898FCE0149960E94FD03A096E2E10C94C9
:10063000D61AA8E1B0E0EFE1F3E00C94C61A6983A2
:100640007A838B839C832D833E834F83588789E0F5
:10065000E82EF12CEC0EFD1ECE010196B7010E9492
:10066000D2048E010F5E1F4FCE010596B8010E9485
:10067000D2048985823040F08989823028F0C70110
:10068000B8010E944A0501C08FEF6896E6E00C941D
:10069000E21AA8E1B0E0EFE4F3E00C94C61A698333
:1006A0007A838B839C832D833E834F83588789E095
:1006B000E82EF12CEC0EFD1ECE010196B7010E9432
:1006C000D2048E010F5E1F4FCE010596B8010E9425
:1006D000D2048985823040F08989823028F0C701B0
:1006E000B8010E944A0501C08FEF6896E6E00C94BD
:1006F000E21AA8E1B0E0EFE7F3E00C94C61A6983D0
:100700007A838B839C832D833E834F83588789E034
:10071000E82EF12CEC0EFD1ECE010196B7010E94D1
:10072000D2048E010F5E1F4FCE010596B8010E94C4
:10073000D2048985823040F08989823028F0C7014F
:10074000B8010E944A0501C081E06896E6E00C9479
:10075000E21AACE0B0E0EFEAF3E00C94CA1A698365
:100760007A838B839C83CE010196BE016B5F7F4FA2
:100770000E94D2048D81823061F1823050F1843048
:1007800021F48E81882351F12EC02F81388537FDC9
:1007900020C06E812F3131051CF06623F9F023C093
:1007A0008EE190E0821B930B29853A854B855C8511
:1007B00004C056954795379527958A95D2F76623B5
:1007C000B1F050954095309521953F4F4F4F5F4F79
:1007D0000EC020E030E040E050E009C02FEF3FEFD6
:1007E0004FEF5FE704C020E030E040E050E8B9019F
:1007F000CA012C96E2E00C94E61ADF92EF92FF9287
:100800000F931F93FC01E480F58006811781D1804E
:100810008081823048F480E090E0A0E1B0E0E82AF6
:10082000F92A0A2B1B2BA5C0843009F49FC0823003
:1008300021F4EE24FF24870105C0E114F104010531
:10084000110519F4E0E0F0E096C0628173819FEF3A
:10085000623879070CF05BC022E83FEF261B370BAC
:100860002A3131052CF020E030E040E050E02AC091
:10087000B801A701022E04C0769567955795479554
:100880000A94D2F781E090E0A0E0B0E004C0880FC5
:10089000991FAA1FBB1F2A95D2F70197A109B10979
:1008A0008E219F21A023B1230097A105B10521F03E
:1008B00081E090E0A0E0B0E09A01AB01282B392B59
:1008C0004A2B5B2BDA01C9018F779070A070B07052
:1008D00080349105A105B10539F427FF09C0205CDA
:1008E0003F4F4F4F5F4F04C0215C3F4F4F4F5F4F13
:1008F000E0E0F0E02030A0E03A07A0E04A07A0E402
:100900005A0710F0E1E0F0E079018A0127C0603871
:10091000710564F5FB01E158FF4FD801C7018F77DE
:100920009070A070B07080349105A105B10539F4C4
:10093000E7FE0DC080E490E0A0E0B0E004C08FE3EB
:1009400090E0A0E0B0E0E80EF91E0A1F1B1F17FFA1
:1009500005C016950795F794E794319687E01695AC
:100960000795F794E7948A95D1F705C0EE24FF2404
:100970008701EFEFF0E06E2F679566276795902F60
:100980009F77D794DD24D7948E2F8695492F462BB9
:10099000582F5D29B701CA011F910F91FF90EF9069
:1009A000DF900895FC01DB01408151812281622F9B
:1009B0006F7770E0221F2227221F9381892F880FD3
:1009C000822B282F30E0991F9927991F11969C930D
:1009D000119721153105A9F54115510561057105DD
:1009E00011F482E037C082E89FEF13969C938E93B8
:1009F00012979A01AB0167E0220F331F441F551F66
:100A00006A95D1F783E08C930DC0220F331F441FEA
:100A1000551F12968D919C911397019713969C9355
:100A20008E931297203080E0380780E0480780E4FA
:100A3000580758F314962D933D934D935C93179755
:100A400008952F3F310579F4411551056105710570
:100A500019F484E08C93089564FF03C081E08C93C3
:100A600012C01C9210C02F57304013963C932E9307
:100A7000129783E08C9387E0440F551F661F771F02
:100A80008A95D1F7706414964D935D936D937C9322
:100A9000179708951F93DC01FB019C91923008F495
:100AA00047C08081823008F443C0943051F41196DD
:100AB0001C91843099F58181682F70E0611B710968
:100AC0003FC0843021F0923031F48230B9F181811D
:100AD000882389F12DC011961C9111978230F1F075
:100AE00081811817D9F412962D913C911397828128
:100AF00093818217930794F028173907BCF0149656
:100B00008D919D910D90BC91A02D248135814681C0
:100B10005781281739074A075B0718F4112341F05A
:100B20000AC082179307A407B50740F4112319F0F0
:100B300061E070E005C06FEF7FEF02C060E070E041
:100B4000CB011F910895DF93CF93CDB7DEB7A7E216
:100B5000B0E0E7E2F0E0808180648C93A7E2B0E04F
:100B6000E7E2F0E080818F778C93A7E2B0E0E7E2E4
:100B7000F0E0808180628C93A6E2B0E0E6E2F0E0F3
:100B80008081877F8C93A6E2B0E0E6E2F0E080818E
:100B9000887F8C93A6E2B0E0E6E2F0E08081876097
:100BA0008C93A6E2B0E0E6E2F0E0808180688C936E
:100BB000CF91DF910895DF93CF9300D000D00F92B3
:100BC000CDB7DEB78B837D836C831A8219828C81CB
:100BD0009D81009709F442C08091CF008130D9F502
:100BE0001092CF00A7E2B0E0E7E2F0E08081807EE3
:100BF0008C93A7E2B0E0E7E2F0E090818B81892B53
:100C00008C93A6E2B0E0E6E2F0E0808180648C9311
:100C1000E6E2F0E0808182958F70882F90E081700D
:100C20009070009721F489818F5F8983F1CFA6E2CC
:100C3000B0E0E6E2F0E0808180618C93E5E2F0E0F4
:100C40008081882F90E0EC81FD819183808381E019
:100C50008093CF0005C084E08A8302C082E08A834B
:100C60008A810F900F900F900F900F90CF91DF918E
:100C70000895DF93CF9300D000D000D0CDB7DEB77A
:100C80008A837C836B835E834D8319828B819C81F5
:100C90000097B9F18D819E81009799F18091CF00E5
:100CA000813061F51092CF008B819C819093C501BA
:100CB0008093C4018D819E819093C3018093C20172
:100CC000A7E2B0E0E7E2F0E08081807E8C93A7E2CB
:100CD000B0E0E7E2F0E090818A81892B8C93A6E274
:100CE000B0E0E6E2F0E0808180648C93A6E2B0E0C0
:100CF000E6E2F0E0808188608C9305C084E089831F
:100D000002C082E08983898126960FB6F894DEBFFF
:100D10000FBECDBFCF91DF9108951F920F920FB6F6
:100D20000F9211242F933F934F935F936F937F9371
:100D30008F939F93AF93BF93EF93FF93DF93CF93E3
:100D4000CDB7DEB78091C4019091C501009701F144
:100D5000A091C401B091C501E5E2F0E08081882F47
:100D600090E08D939C93A6E2B0E0E6E2F0E0808113
:100D7000877F8C9381E08093CF008091C201909116
:100D8000C301009729F0E091C201F091C3010995D8
:100D9000CF91DF91FF91EF91BF91AF919F918F9193
:100DA0007F916F915F914F913F912F910F900FBE67
:100DB0000F901F901895DF93CF93CDB7DEB72E9786
:100DC0000FB6F894DEBF0FBECDBF81E066E041E014
:100DD0000E94CB0B80E090E0A0E0B0E48B879C8782
:100DE000AD87BE876B857C858D859E8520E030E054
:100DF0004AEF54E40E941F02DC01CB018F839887E5
:100E0000A987BA876F81788589859A8520E030E047
:100E100040E85FE30E94790388232CF481E090E0AE
:100E20009E838D833FC06F81788589859A8520E078
:100E30003FEF4FE757E40E94190318164CF56B85F6
:100E40007C858D859E8520E030E040E251E40E9463
:100E50001F02DC01CB01BC01CD010E944900DC0175
:100E6000CB019E838D830FC088EC90E09C838B83A5
:100E70008B819C810197F1F79C838B838D819E816F
:100E800001979E838D838D819E81009769F714C0A1
:100E90006F81788589859A850E944900DC01CB01A4
:100EA0009E838D838D819E819A83898389819A8196
:100EB0000197F1F79A83898381E066E040E00E9420
:100EC000CB0B2E960FB6F894DEBF0FBECDBFCF91E1
:100ED000DF910895DF93CF930F92CDB7DEB789836B
:100EE0008981982F917081E060E0492F0E94CB0B9F
:100EF00089818695982F917081E061E0492F0E9449
:100F0000CB0B898186958695982F917081E062E060
:100F1000492F0E94CB0B8981869586958695982FBF
:100F2000917081E063E0492F0E94CB0B0F90CF912D
:100F3000DF910895DF93CF930F92CDB7DEB789830A
:100F400081E064E040E00E94CB0B81E065E040E09E
:100F50000E94CB0B898182958F700E946A070E9444
:100F6000DB0689810E946A070E94DB060F90CF9101
:100F7000DF910895DF93CF930F92CDB7DEB78983CA
:100F800081E064E041E00E94CB0B81E065E040E05D
:100F90000E94CB0B898182958F700E946A070E9404
:100FA000DB0689810E946A070E94DB060F90CF91C1
:100FB000DF910895DF93CF93CDB7DEB72E970FB6AD
:100FC000F894DEBF0FBECDBF80E090E0A0E2B2E4B7
:100FD0008B879C87AD87BE876B857C858D859E853D
:100FE00020E030E04AEF54E40E941F02DC01CB0114
:100FF0008F839887A987BA876F81788589859A8535
:1010000020E030E040E85FE30E94790388232CF47D
:1010100081E090E09E838D833FC06F8178858985D4
:101020009A8520E03FEF4FE757E40E941903181616
:101030004CF56B857C858D859E8520E030E040E217
:1010400051E40E941F02DC01CB01BC01CD010E94D2
:101050004900DC01CB019E838D830FC088EC90E0BA
:101060009C838B838B819C810197F1F79C838B837D
:101070008D819E8101979E838D838D819E810097B6
:1010800069F714C06F81788589859A850E94490027
:10109000DC01CB019E838D838D819E819A83898320
:1010A00089819A810197F1F79A83898381E064E0CD
:1010B00040E00E94CB0B81E065E040E00E94CB0B5A
:1010C00082E00E946A070E94DB0682E00E946A07B3
:1010D0000E94DB0688E00E946A070E94DB068CE023
:1010E0000E949A0781E00E949A072E960FB6F89404
:1010F000DEBF0FBECDBFCF91DF910895DF93CF93B9
:10110000CDB7DEB781E00E949A07CF91DF910895B5
:10111000DF93CF9300D000D0CDB7DEB79C838B8315
:101120001A8219828B819C810097D9F00EC0898127
:10113000282F30E08B819C81FC01E20FF31F80811E
:101140000E94BA0789818F5F89838981282F30E0C7
:101150008B819C81FC01E20FF31F8081882339F78A
:1011600002C082E08A838A810F900F900F900F90C7
:10117000CF91DF9108950F931F93DF93CF93CDB756
:10118000DEB760970FB6F894DEBF0FBECDBF6D8798
:101190007E878F87988B8AE0FE013396DF01982F38
:1011A0001D929A95E9F71A828D859E85AF85B8893B
:1011B0000097A105B10521F480E30E94BA077BC026
:1011C0008D859E85AF85B889BB230CF054C08DE218
:1011D0000E94BA078D859E85AF85B889B095A09588
:1011E000909581959F4FAF4FBF4F8D879E87AF875B
:1011F000B88B41C08A81082F10E08D859E85AF8510
:10120000B8892AE030E040E050E0BC01CD010E9406
:101210009F1ADC01CB01282FCE010396FC01E00FC1
:10122000F11F20838A81482F50E08A81282F30E0E7
:10123000CE010396FC01E20FF31F8081282F205D71
:10124000CE010396FC01E40FF51F20838D859E855A
:10125000AF85B8892AE030E040E050E0BC01CD0124
:101260000E949F1ADA01C9018D879E87AF87B88BCC
:101270008A818F5F8A838D859E85AF85B889181690
:1012800019061A061B060CF4B5CF8A818983898159
:10129000882F90E09C0121503040CE010396FC0144
:1012A000E20FF31F80810E94BA07898181508983F0
:1012B0008981882361F760960FB6F894DEBF0FBE70
:1012C000CDBFCF91DF911F910F910895DF93CF9301
:1012D000CDB7DEB7A4970FB6F894DEBF0FBECDBF73
:1012E0009CA38BA380E2FE013396DF01982F1D9211
:1012F0009A95E9F71A8280E690E00E9488081A829F
:1013000023C08BA19CA181709070882359F08A81A1
:10131000282F30E0CE010396FC01E20FF31F81E09D
:10132000808309C08A81282F30E0CE010396FC011A
:10133000E20FF31F10828BA19CA1959587959CA32A
:101340008BA38A818F5F8A838A818031D0F280E08B
:1013500061E00E94930A80E189838981882F90E06F
:101360009C0121503040CE010396FC01E20FF31F97
:101370008081882321F480E30E94BA0703C081E3BF
:101380000E94BA078981815089838981882329F73E
:10139000A4960FB6F894DEBF0FBECDBFCF91DF91FC
:1013A0000895DF93CF93CDB7DEB7A5970FB6F89426
:1013B000DEBF0FBECDBF6D8F7E8F8F8F98A3CE0106
:1013C00005969AA389A3E2EBF1E0FCA3EBA3F0E17D
:1013D000FDA3EBA1FCA100808BA19CA101969CA385
:1013E0008BA3E9A1FAA1008289A19AA101969AA3EF
:1013F00089A39DA191509DA3EDA1EE2351F71B82DE
:1014000020C08D8D8F708A838D8D9E8DAF8DB8A1FC
:10141000689413F8B595A795979587951694D1F785
:101420008D8F9E8FAF8FB8A38B81282F30E0CE0198
:101430004596FC01E20FF31F8A8180838B818F5FC9
:101440008B838B818830E8F283E690E00E948808E5
:1014500087E08C831AC08C81282F332727FD309595
:10146000CE014596FC01E20FF31F808189838981BB
:10147000282F30E0CE010596FC01E20FF31F80819A
:101480000E94BA078C8181508C838C8188231CF741
:10149000A5960FB6F894DEBF0FBECDBFCF91DF91FA
:1014A0000895DF93CF93CDB7DEB727970FB6F894A3
:1014B000DEBF0FBECDBF9C838B836D834E832F8396
:1014C0008D81882F90E0880F991F880F991F880FB2
:1014D000991F8A838A8180648A838A810E949A07FD
:1014E00019820EC08981282F30E08B819C81FC01FC
:1014F000E20FF31F80810E94BA0789818F5F898381
:101500008981883078F38E816F810E94930A8D8162
:101510000E94BA0727960FB6F894DEBF0FBECDBF64
:10152000CF91DF910895DF93CF9300D000D0CDB756
:10153000DEB78B836C831A828C81882319F48B81AC
:10154000898309C08C81813021F48B81805C8983FF
:1015500002C081E08A8389818068898389810E94B1
:101560009A078A810F900F900F900F90CF91DF9183
:101570000895DF93CF93CDB7DEB728970FB6F894D1
:10158000DEBF0FBECDBF8A836B834C8319828B81F4
:10159000883008F0F4C08C81813009F072C08A81F3
:1015A000282F30E038872F838F81988581309105EF
:1015B00049F12F813885223031052CF48F819885AF
:1015C000009761F05BC02F8138852230310571F1C1
:1015D0008F81988583309105E9F150C0AAE3B0E08E
:1015E000EAE3F0E08081482F8B81282F30E081E012
:1015F00090E0022E02C0880F991F0A94E2F7842B14
:101600008C93BFC0A7E3B0E0E7E3F0E08081482F10
:101610008B81282F30E081E090E0022E02C0880FFD
:10162000991F0A94E2F7842B8C93ABC0A4E3B0E03B
:10163000E4E3F0E08081482F8B81282F30E081E0C7
:1016400090E0022E02C0880F991F0A94E2F7842BC3
:101650008C9397C0A1E3B0E0E1E3F0E08081482FF4
:101660008B81282F30E081E090E0022E02C0880FAD
:10167000991F0A94E2F7842B8C9383C081E08983BD
:1016800080C08C81882309F077C08A81282F30E0C0
:101690003E832D838D819E818130910559F12D816D
:1016A0003E81223031052CF48D819E81009769F0B6
:1016B00060C02D813E812230310589F18D819E816E
:1016C0008330910509F440C054C0AAE3B0E0EAE3D6
:1016D000F0E08081482F8B81282F30E081E090E07E
:1016E000022E02C0880F991F0A94E2F78095842386
:1016F0008C9347C0A7E3B0E0E7E3F0E08081482F98
:101700008B81282F30E081E090E0022E02C0880F0C
:10171000991F0A94E2F7809584238C9332C0A4E346
:10172000B0E0E4E3F0E08081482F8B81282F30E0A7
:1017300081E090E0022E02C0880F991F0A94E2F720
:10174000809584238C931DC0A1E3B0E0E1E3F0E039
:101750008081482F8B81282F30E081E090E0022E9D
:1017600002C0880F991F0A94E2F7809584238C9316
:1017700008C081E0898305C081E0898302C081E0DF
:101780008983898128960FB6F894DEBF0FBECDBF3E
:10179000CF91DF910895DF93CF93CDB7DEB7289730
:1017A0000FB6F894DEBF0FBECDBF8A836B834C8328
:1017B00019828B81883008F0F4C08C81813009F067
:1017C00072C08A81282F30E038872F838F819885D7
:1017D0008130910549F12F813885223031052CF473
:1017E0008F819885009761F05BC02F81388522300A
:1017F000310571F18F81988583309105E9F150C0F1
:10180000ABE3B0E0EBE3F0E08081482F8B81282F41
:1018100030E081E090E0022E02C0880F991F0A9408
:10182000E2F7842B8C93BFC0A8E3B0E0E8E3F0E0DC
:101830008081482F8B81282F30E081E090E0022EBC
:1018400002C0880F991F0A94E2F7842B8C93ABC0D7
:10185000A5E3B0E0E5E3F0E08081482F8B81282FFD
:1018600030E081E090E0022E02C0880F991F0A94B8
:10187000E2F7842B8C9397C0A2E3B0E0E2E3F0E0C0
:101880008081482F8B81282F30E081E090E0022E6C
:1018900002C0880F991F0A94E2F7842B8C9383C0AF
:1018A00081E0898380C08C81882309F077C08A8198
:1018B000282F30E03E832D838D819E8181309105DC
:1018C00059F12D813E81223031052CF48D819E818C
:1018D000009769F060C02D813E812230310589F189
:1018E0008D819E818330910509F440C054C0ABE3E3
:1018F000B0E0EBE3F0E08081482F8B81282F30E0CF
:1019000081E090E0022E02C0880F991F0A94E2F74E
:10191000809584238C9347C0A8E3B0E0E8E3F0E02F
:101920008081482F8B81282F30E081E090E0022ECB
:1019300002C0880F991F0A94E2F7809584238C9344
:1019400032C0A5E3B0E0E5E3F0E08081482F8B8171
:10195000282F30E081E090E0022E02C0880F991F0E
:101960000A94E2F7809584238C931DC0A2E3B0E033
:10197000E2E3F0E08081482F8B81282F30E081E086
:1019800090E0022E02C0880F991F0A94E2F780951A
:1019900084238C9308C081E0898305C081E089831A
:1019A00002C081E08983898128960FB6F894DEBF52
:1019B0000FBECDBFCF91DF910895DF93CF9300D0BD
:1019C00000D00F92CDB7DEB78A836B8319828B81EB
:1019D000883008F072C08A81282F30E03D832C8344
:1019E0008C819D818130910549F12C813D8122308E
:1019F00031052CF48C819D81009761F05BC02C81B6
:101A00003D812230310571F18C819D8183309105BA
:101A1000E9F150C0ABE3B0E0EBE3F0E08081482FA8
:101A20008B81282F30E081E090E0022E02C0880FE9
:101A3000991F0A94E2F784278C9341C0A8E3B0E091
:101A4000E8E3F0E08081482F8B81282F30E081E0AF
:101A500090E0022E02C0880F991F0A94E2F78427B3
:101A60008C932DC0A5E3B0E0E5E3F0E08081482F42
:101A70008B81282F30E081E090E0022E02C0880F99
:101A8000991F0A94E2F784278C9319C0A2E3B0E06F
:101A9000E2E3F0E08081482F8B81282F30E081E065
:101AA00090E0022E02C0880F991F0A94E2F7842763
:101AB0008C9305C081E0898302C081E0898389819C
:101AC0000F900F900F900F900F90CF91DF9108958E
:101AD000DF93CF93CDB7DEB727970FB6F894DEBF6D
:101AE0000FBECDBF8A836B835D834C8319828B814C
:101AF000883008F074C08A81282F30E03F832E831D
:101B00004E815F814130510559F18E819F81823034
:101B1000910534F42E813F812115310569F05CC0B7
:101B20004E815F814230510579F18E819F818330F2
:101B3000910509F43DC050C0E9E3F0E08081282F11
:101B400030E08B81882F90E0A90102C05595479520
:101B50008A95E2F7CA018170EC81FD81808341C0E2
:101B6000E6E3F0E08081282F30E08B81882F90E041
:101B7000A90102C0559547958A95E2F7CA0181707F
:101B8000EC81FD8180832DC0E3E3F0E08081282F8C
:101B900030E08B81882F90E0A90102C055954795D0
:101BA0008A95E2F7CA018170EC81FD81808319C0BA
:101BB000E0E3F0E08081282F30E08B81882F90E0F7
:101BC000A90102C0559547958A95E2F7CA0181702F
:101BD000EC81FD81808305C081E0898302C081E0C2
:101BE0008983898127960FB6F894DEBF0FBECDBFDB
:101BF000CF91DF910895DF93CF9300D000D00F9263
:101C0000CDB7DEB78A836B8319828A81282F30E0B3
:101C10003D832C838C819D8181309105D1F02C8175
:101C20003D81223031052CF48C819D81009761F03B
:101C30001FC02C813D812230310581F08C819D8136
:101C40008330910581F014C0EAE3F0E08B8180835A
:101C500011C0E7E3F0E08B8180830CC0E4E3F0E0A7
:101C60008B81808307C0E1E3F0E08B81808302C039
:101C700081E0898389810F900F900F900F900F90D2
:101C8000CF91DF910895DF93CF9300D000D00F92D2
:101C9000CDB7DEB78A836B8319828A81282F30E023
:101CA0003D832C838C819D8181309105D1F02C81E5
:101CB0003D81223031052CF48C819D81009761F0AB
:101CC0001FC02C813D812230310581F08C819D81A6
:101CD0008330910581F014C0EBE3F0E08B818083C9
:101CE00011C0E8E3F0E08B8180830CC0E5E3F0E015
:101CF0008B81808307C0E2E3F0E08B81808302C0A8
:101D000081E0898389810F900F900F900F900F9041
:101D1000CF91DF910895DF93CF9300D000D00F9241
:101D2000CDB7DEB78FEF89831B826AC08B81882F86
:101D300090E0FC01EC51FF4F908182E0692F40E080
:101D40000E94CB0B1A8249C08A81882F90E0FC0147
:101D5000E052FF4F90819E012C5F3F4F82E0692F40
:101D6000A9010E94680D8C818823A1F50FC08A818A
:101D7000882F90E0FC01E052FF4F90819E012C5F84
:101D80003F4F82E0692FA9010E94680D8C81882352
:101D900071F38A81482F50E08B81282F30E0CA01EF
:101DA000880F991F880F991F820F931FFC01E05322
:101DB000FF4F808189838B81882F90E0FC01EC515B
:101DC000FF4F908182E0692F41E00E94CB0B898117
:101DD0008D831CC08A818F5F8A838A81843008F456
:101DE000B3CF8B81882F90E0FC01EC51FF4F9081A5
:101DF00082E0692F41E00E94CB0B8B818F5F8B8348
:101E00008B81843008F492CF89818D838D810F90EE
:101E10000F900F900F900F90CF91DF910895DF9367
:101E2000CF93CDB7DEB72A970FB6F894DEBF0FBEBB
:101E3000CDBF8E8378876F831B821A8219821D82A1
:101E40001C828F819885009709F48EC08E81282F7F
:101E500030E03A87298789859A858330910509F48E
:101E600041C029853A85243031057CF489859A85DD
:101E70008130910539F129853A852230310554F5B3
:101E800089859A850097B1F055C029853A85253016
:101E90003105C1F189859A85853091055CF12985E7
:101EA0003A8526303105B1F189859A8587309105CB
:101EB000C9F140C09E012C5F3F4F80E0B9010E94F4
:101EC000DB053AC09E012C5F3F4F81E0B9010E94C3
:101ED000DB0532C09E012C5F3F4F82E0B9010E94BA
:101EE000DB052AC09E012C5F3F4F83E0B9010E94B1
:101EF000DB0522C09E012C5F3F4F84E0B9010E94A8
:101F0000DB051AC09E012C5F3F4F85E0B9010E949E
:101F1000DB0512C09E012C5F3F4F86E0B9010E9495
:101F2000DB050AC09E012C5F3F4F87E0B9010E948C
:101F3000DB0502C081E08B838C819D81CC01A0E018
:101F4000B0E028E833E140E050E0BC01CD010E9460
:101F50004A1ADC01CB01892F9A2FAB2FBB27EF81C7
:101F6000F8859183808302C082E08B838B812A96DF
:101F70000FB6F894DEBF0FBECDBFCF91DF910895AD
:101F8000EF92FF920F931F93DF93CF93CDB7DEB7FE
:101F90002E970FB6F894DEBF0FBECDBF88877A8725
:101FA00069875C874B873E872D871D821F821E8233
:101FB00019821A821B821C828D859E85009709F4E6
:101FC00064C09E012A5F3F4F8885B9010E940F0FB0
:101FD00089859A852AE030E0B9010E94691ACB010F
:101FE0007C0100E010E08B859C852AE030E0B9019F
:101FF0000E94691ACB019C0140E050E0C801B70182
:102000000E944A1ADC01CB0189839A83AB83BC838B
:102010008E819F819C0140E050E089819A81AB8153
:10202000BC81BC01CD010E947D1ADA01C9018983FE
:102030009A83AB83BC8389819A81AB81BC8124E67E
:1020400030E040E050E0BC01CD010E944A1A9B0103
:10205000AC018B859C85CC01A0E0B0E079018A01C0
:10206000E81AF90A0A0B1B0BD801C70189839A8366
:10207000AB83BC83ED85FE8589819A81AB81BC8170
:1020800080839183A283B38302C082E08D838D819C
:102090002E960FB6F894DEBF0FBECDBFCF91DF9165
:1020A0001F910F91FF90EF900895AF92BF92CF9242
:1020B000DF92EF92FF920F931F93DF93CF93CDB7F1
:1020C000DEB764970FB6F894DEBF0FBECDBF6D8349
:1020D0007E838F83988729873A874B875C87ED8635
:1020E000FE860F87188BA98ABA8ACB8ADC8A198266
:1020F0001A821B821C8229893A894B895C898D85C9
:102100009E85AF85B88979018A01E81AF90A0A0B18
:102110001B0B29A13AA14BA15CA18D819E81AF81AE
:10212000B885281B390B4A0B5B0BC801B7010E940D
:102130004A1ADC01CB0189839A83AB83BC8329854E
:102140003A854B855C858D819E81AF81B885281B42
:10215000390B4A0B5B0B89819A81AB81BC81BC0135
:10216000CD010E949F1ADA01C90189839A83AB834A
:10217000BC8329813A814B815C818D859E85AF85A9
:10218000B889820F931FA41FB51F89839A83AB83DD
:10219000BC8389819A81AB81BC81BC01CD016496ED
:1021A0000FB6F894DEBF0FBECDBFCF91DF911F9168
:1021B0000F91FF90EF90DF90CF90BF90AF90089578
:1021C000DF93CF93CDB7DEB72A970FB6F894DEBF73
:1021D0000FBECDBF8E8378876F831B821A821982D0
:1021E0001D821C828F819885009709F497C08E818B
:1021F000282F30E03A87298789859A858330910591
:1022000009F441C029853A85243031057CF489855B
:102210009A858130910539F129853A852230310539
:1022200054F589859A850097B1F055C029853A857E
:1022300025303105C1F189859A85853091055CF19C
:1022400029853A8526303105B1F189859A8587300F
:102250009105C9F140C09E012C5F3F4F80E0B9015C
:102260000E94DB053AC09E012C5F3F4F81E0B9011F
:102270000E94DB0532C09E012C5F3F4F82E0B90116
:102280000E94DB052AC09E012C5F3F4F83E0B9010D
:102290000E94DB0522C09E012C5F3F4F84E0B90104
:1022A0000E94DB051AC09E012C5F3F4F85E0B901FB
:1022B0000E94DB0512C09E012C5F3F4F86E0B901F2
:1022C0000E94DB050AC09E012C5F3F4F87E0B901E9
:1022D0000E94DB0502C081E08B838C819D81CC0153
:1022E000A0E0B0E028E833E140E050E0BC01CD01DF
:1022F0000E944A1ADC01CB01892F9A2FAB2FBB27F2
:102300009A83898389819A812AE030E0B9010E9409
:10231000691ACB01EF81F885808302C082E08B834C
:102320008B812A960FB6F894DEBF0FBECDBFCF913A
:10233000DF910895DF93CF9300D00F92CDB7DEB732
:102340009B838A8319828A819B810097A9F0EA8105
:10235000FB818081EA81FB819181692F40E00E94AD
:10236000CB0BEA81FB818081EA81FB819281692F1D
:1023700041E00E94CB0B02C082E0898389810F90EB
:102380000F900F90CF91DF910895DF93CF9300D0FE
:102390000F92CDB7DEB79B838A8319828A819B8196
:1023A0000097A9F0EA81FB818081EA81FB8192811B
:1023B000692F40E00E94CB0BEA81FB818081EA819A
:1023C000FB819181692F41E00E94CB0B02C082E02A
:1023D000898389810F900F900F90CF91DF9108959D
:1023E000DF93CF9300D00F92CDB7DEB79B838A8364
:1023F00019828A819B810097A9F0EA81FB81808103
:10240000EA81FB819281692F40E00E94CB0BEA8137
:10241000FB818081EA81FB819181692F40E00E94EC
:10242000CB0B02C082E0898389810F900F900F90BF
:10243000CF91DF910895DF93CF93CDB7DEB7EAE375
:10244000F0E08EE18083E7E3F0E08FEF8083E4E368
:10245000F0E08FE08083E1E3F0E08FEF8083EBE357
:10246000F0E084E08083E8E3F0E01082E5E3F0E070
:1024700080EF8083E2E3F0E01082CF91DF91089556
:10248000DF93CF9300D000D0CDB7DEB79B838A8394
:102490006C8319828A819B81009709F481C0EA814B
:1024A000FB8180818230B9F5EA81FB818381EA81F9
:1024B000FB819481692F40E00E94CB0BEA81FB8174
:1024C0008281882379F4EA81FB8121818C81882FA4
:1024D00090E0FC01E851FF4F9081822F692F0E940C
:1024E000430E60C0EA81FB818281813089F4EA81F8
:1024F000FB8121818C81882F90E0FC01E851FF4F06
:102500008081982F990F822F692F0E94430E4AC015
:1025100081E0898347C0EA81FB8180818130E9F5D0
:10252000EA81FB818381EA81FB819481692F41E00B
:102530000E94CB0BEA81FB818281882389F4EA81A6
:10254000FB8121818C81882F90E0FC01E851FF4FB5
:102550008081982F9095822F692F0E94430E22C070
:10256000EA81FB8182818130A9F4EA81FB812181AA
:102570008C81882F90E0FC01E851FF4F8081882FEB
:1025800090E0880F991F982F9095822F692F0E94B5
:10259000430E08C081E0898305C081E0898302C0C1
:1025A00082E0898389810F900F900F900F90CF91D7
:1025B000DF910895DF93CF9300D00F92CDB7DEB7B0
:1025C0009B838A8319828A819B81009719F1EA8112
:1025D000FB818081823059F4EA81FB818381EA8129
:1025E000FB819481692F41E00E94CB0B15C0EA81E9
:1025F000FB818081813059F4EA81FB818381EA810A
:10260000FB819481692F40E00E94CB0B05C081E0E3
:10261000898302C082E0898389810F900F900F9097
:10262000CF91DF910895AF92BF92CF92DF92EF9258
:10263000FF920F931F93DF93CF93CDB7DEB7CF56A3
:10264000D0400FB6F894DEBF0FBECDBF0E941B1264
:102650000E94DA070E94A305FE01ED59FF4F108288
:10266000FE01EC59FF4F11821082FE01EE59FF4F1F
:102670001082FE01EF59FF4F1082FE01E05AFF4F1A
:102680001082FE01E15AFF4F1082FE01E25AFF4F15
:102690008FEF8083FE01E35AFF4F1082FE01E45A60
:1026A000FF4F83E08083FE01E55AFF4F1082FE0159
:1026B000E75AFF4F11821082FE01E95AFF4F118243
:1026C0001082FE01EB5AFF4F11821082FE01EA597F
:1026D000FF4F83E08183FE01EA59FF4F1382FE0121
:1026E000EA59FF4F81E08483FE01EA59FF4F1282CD
:1026F000FE01EA59FF4F82E08083FE01E559FF4F5A
:102700001082FE01E559FF4F83E08183FE01E55908
:10271000FF4F84E08283CE0185599F4F0E94F011C4
:10272000FE01EF59FF4F1082D2C00E947E0882E264
:1027300091E0FE01EF59FF4F60E0408120E00E94F0
:10274000510A8AE291E0FE01EF59FF4F61E04081BA
:1027500021E00E94510AFE01EF5AFF4F80E090E015
:10276000A8ECB2E480839183A283B3838E01035BE0
:102770001F4FFE01EF5AFF4F60817181828193816B
:1027800020E030E04AEF54E40E941F02DC01CB015C
:10279000F80180839183A283B383FE01E35BFF4F43
:1027A000608171818281938120E030E040E85FE3C5
:1027B0000E947903882344F4FE01E55BFF4F81E02A
:1027C00090E09183808364C0FE01E35BFF4F6081F2
:1027D00071818281938120E03FEF4FE757E40E94AF
:1027E000190318160CF043C0FE01EF5AFF4F608129
:1027F00071818281938120E030E040E251E40E94C7
:102800001F02DC01CB018E01055B1F4FBC01CD0116
:102810000E944900DC01CB01F801918380831FC035
:10282000FE01E75BFF4F88EC90E091838083FE011F
:10283000E75BFF4F808191810197F1F7FE01E75B34
:10284000FF4F91838083DE01A55BBF4FFE01E55BF7
:10285000FF4F80819181019711969C938E93FE0189
:10286000E55BFF4F808191810097D1F627C08E01F3
:10287000055B1F4FFE01E35BFF4F60817181828129
:1028800093810E944900DC01CB01F8019183808390
:10289000DE01A95BBF4FFE01E55BFF4F80819181A7
:1028A0008D939C93FE01E95BFF4F8081918101979D
:1028B000F1F7FE01E95BFF4F91838083DE01AF59A1
:1028C000BF4FFE01EF59FF4F80818F5F8C93FE0158
:1028D000EF59FF4F8081803108F427CF81E060E01D
:1028E0000E94930A86E690E00E948808FE01ED5B54
:1028F000FF4F80E090E0AAE7B4E480839183A28355
:10290000B3838E01015C1F4FFE01ED5BFF4F6081C1
:1029100071818281938120E030E04AEF54E40E948B
:102920001F02DC01CB01F80180839183A283B38372
:10293000FE01FF96608171818281938120E030E009
:1029400040E85FE30E94790388232CF481E090E063
:102950009EAF8DAF46C0FE01FF966081718182817E
:10296000938120E03FEF4FE757E40E9419031816C8
:1029700064F5FE01ED5BFF4F60817181828193817F
:1029800020E030E040E251E40E941F02DC01CB0174
:10299000BC01CD010E944900DC01CB019EAF8DAF8F
:1029A0000FC088EC90E09CAF8BAF8BAD9CAD0197D6
:1029B000F1F79CAF8BAF8DAD9EAD01979EAF8DAF04
:1029C0008DAD9EAD009769F77CC3FE01FF966081D7
:1029D0007181828193810E944900DC01CB019EAF0D
:1029E0008DAF8DAD9EAD9AAF89AF89AD9AAD019790
:1029F000F1F79AAF89AF65C3FE01E15AFF4F10822C
:102A00001DC086EC91E0FE01E15AFF4F62E040817B
:102A100020E00E94510A86EC91E0FE01E15AFF4F4E
:102A200062E0408121E00E94510ADE01A15ABF4FBD
:102A3000FE01E15AFF4F80818F5F8C93FE01E15AC6
:102A4000FF4F80818E30E8F280E060E00E94930AC0
:102A500084E790E00E94880880E061E00E94930A89
:102A600089E790E00E948808CE018A599F4FFE01B5
:102A7000E45AFF4F60810E944012FE01E35AFF4F6B
:102A8000108284E060E00E94930A51C00E948B0E85
:102A9000FE01E25AFF4F8083FE01E25AFF4F808120
:102AA0008F3FA1F3FE01E25AFF4F8081882F90E013
:102AB0008B309105B9F1FE01E25AFF4F8081882FDA
:102AC00090E0A0E0B0E0BC01CD010E94BB08FE0197
:102AD000E25AFF4F8081482F50E0FE01E75AFF4F36
:102AE000808191819C01220F331FC901880F991F9A
:102AF000880F991F820F931FFE01E75AFF4F840F23
:102B0000951F91838083FE01E25AFF4F8FEF8083F0
:102B1000DE01A35ABF4FFE01E35AFF4F80818F5F52
:102B20008C9305C0FE01E25AFF4F8FEF8083FE01B8
:102B3000E35AFF4F8081843009F0AECFFE01E35AA3
:102B4000FF4F10828AE061E00E94930ACFC00E948A
:102B50008B0EFE01E25AFF4F8083FE01E25AFF4FC7
:102B600080818F3FA1F3FE01E25AFF4F8081882FC1
:102B700090E08B30910509F4B4C0FE01E25AFF4F9A
:102B80008081882F90E0A0E0B0E0BC01CD010E94E0
:102B9000BB08FE01E25AFF4F8081482F50E0FE0142
:102BA000E95AFF4F808191819C01220F331FC90197
:102BB000880F991F880F991F820F931FFE01E95AF2
:102BC000FF4F840F951F91838083FE01E35AFF4FCF
:102BD0008081865F61E00E94930A80E090E0AAE72E
:102BE000B3E48DAB9EABAFABB8AF6DA97EA98FA997
:102BF00098AD20E030E04AEF54E40E941F02DC016F
:102C0000CB0189AB9AABABABBCAB69A97AA98BA959
:102C10009CA920E030E040E85FE30E94790388232C
:102C20002CF481E090E098AB8FA73FC069A97AA906
:102C30008BA99CA920E03FEF4FE757E40E941903BE
:102C400018164CF56DA97EA98FA998AD20E030E04B
:102C500040E251E40E941F02DC01CB01BC01CD0126
:102C60000E944900DC01CB0198AB8FA70FC088EC14
:102C700090E09EA78DA78DA59EA50197F1F79EA731
:102C80008DA78FA598A9019798AB8FA78FA598A915
:102C9000009769F714C069A97AA98BA99CA90E9419
:102CA0004900DC01CB0198AB8FA78FA598A99CA701
:102CB0008BA78BA59CA50197F1F79CA78BA78AE210
:102CC0000E94BA07FE01E25AFF4F8FEF8083DE01B8
:102CD000A35ABF4FFE01E35AFF4F80818F5F8C9351
:102CE00005C0FE01E25AFF4F8FEF8083FE01E35AD9
:102CF000FF4F8081843009F030CFFE01E35AFF4F4F
:102D000010823BC0DE01A35ABF4FFE01E35AFF4FC2
:102D100080818F5F8C93FE01E75AFF4F8081918104
:102D20002AE030E0B9010E94691AAC01FE01EB5AB9
:102D3000FF4F808191819C01220F331FC901880FB1
:102D4000991F880F991F820F931FFE01EB5AFF4FA7
:102D5000840F951F918380838E01075A1F4FFE01B8
:102D6000E75AFF4F808191812AE030E0B9010E944B
:102D7000691ACB01F80191838083FE01E35AFF4F6A
:102D80008081843009F0BECF80E060E00E94930A29
:102D9000FE01E15AFF4F108213C086EC91E0FE0164
:102DA000E15AFF4F62E0408120E00E94510ADE01BB
:102DB000A15ABF4FFE01E15AFF4F80818F5F8C9374
:102DC000FE01E15AFF4F80818E3038F3FE01E15A57
:102DD000FF4F108213C086EC91E0FE01E15AFF4FD5
:102DE00062E0408121E00E94510ADE01A15ABF4FFA
:102DF000FE01E15AFF4F80818F5F8C93FE01E15A03
:102E0000FF4F80818E3038F3FE01E95AFF4FDE011B
:102E1000AB5ABF4F208131818D919C91119728171A
:102E2000390709F0AEC084E060E00E94930A84E8AC
:102E300090E00E948808CE018A599F4F0E94DA12C2
:102E4000FE01E55AFF4F81E0808380E090E0AAE731
:102E5000B4E48FA398A7A9A7BAA76FA178A589A55D
:102E60009AA520E030E04AEF54E40E941F02DC0102
:102E7000CB018BA39CA3ADA3BEA36BA17CA18DA111
:102E80009EA120E030E040E85FE30E9479038823C0
:102E90002CF481E090E09AA389A33FC06BA17CA1B0
:102EA0008DA19EA120E03FEF4FE757E40E94190358
:102EB00018164CF56FA178A589A59AA520E030E0F9
:102EC00040E251E40E941F02DC01CB01BC01CD01B4
:102ED0000E944900DC01CB019AA389A30FC088ECB2
:102EE00090E098A38F8F8F8D98A10197F1F798A309
:102EF0008F8F89A19AA101979AA389A389A19AA1E9
:102F0000009769F714C06BA17CA18DA19EA10E94BE
:102F10004900DC01CB019AA389A389A19AA19E8FC4
:102F20008D8F8D8D9E8D0197F1F79E8F8D8FFE0178
:102F3000EE59FF4F84E080831DC086EC91E0FE01D6
:102F4000EE59FF4F62E0408120E00E94510A86EC7A
:102F500091E0FE01EE59FF4F62E0408121E00E94C6
:102F6000510ADE01AE59BF4FFE01EE59FF4F80817D
:102F70008F5F8C93FE01EE59FF4F80818B30E8F21A
:102F8000A7C0FE01E75AFF4F11821082FE01E95AE5
:102F9000FF4F11821082FE01EB5AFF4F1182108207
:102FA000DE01A45ABF4FFE01E45AFF4F80818150D9
:102FB0008C9381E060E00E94930A8CE890E00E948C
:102FC0008808FE01E45AFF4F8081882341F082E0A7
:102FD00061E00E94930A89E990E00E94880880E0FD
:102FE00090E0AAEFB3E4898F9A8FAB8FBC8F698D85
:102FF0007A8D8B8D9C8D20E030E04AEF54E40E9466
:103000001F02DC01CB018D8B9E8BAF8BB88F6D893E
:103010007E898F89988D20E030E040E85FE30E9450
:10302000790388232CF481E090E09C8B8B8B3FC04C
:103030006D897E898F89988D20E03FEF4FE757E4B7
:103040000E94190318164CF5698D7A8D8B8D9C8D15
:1030500020E030E040E251E40E941F02DC01CB019D
:10306000BC01CD010E944900DC01CB019C8B8B8B04
:103070000FC088EC90E09A8B898B89899A89019797
:10308000F1F79A8B898B8B899C8901979C8B8B8B11
:103090008B899C89009769F714C06D897E898F8917
:1030A000988D0E944900DC01CB019C8B8B8B8B8916
:1030B0009C89988B8F878F8598890197F1F7988BDA
:1030C0008F87FE01E45AFF4F8081882309F094CC5A
:1030D000FE01E45AFF4F8081882389F4CE018A598A
:1030E0009F4FFE01E45AFF4F60810E94401280E032
:1030F00061E00E94930A84EA90E00E94880880E0E0
:1031000060E00E94930A84EB90E00E94880880E0CF
:1031100061E00E94930A8CEB90E00E9488088BE0AB
:1031200060E00E94930A88E20E94BA078DE060E0A6
:103130000E94930A89E20E94BA0780E062E040E0C0
:103140000E94CB0BFE01EE59FF4F87E0808313C036
:1031500086EC91E0FE01EE59FF4F62E0408120E0F5
:103160000E94510ADE01AE59BF4FFE01EE59FF4FDA
:1031700080818F5F8C93FE01EE59FF4F80818A30F2
:1031800038F386EC91E062E04AE021E00E94510AC7
:103190009E012D593F4F80E0B9010E94E0109E0131
:1031A0002C593F4F87E0B9010E940F0F87E060E084
:1031B0000E94930AFE01ED59FF4F8081882F90E015
:1031C000A0E0B0E0BC01CD010E94BB08FE01ED59BA
:1031D000FF4F8081893268F0CE0185599F4F0E9450
:1031E0009A118CE060E00E94930A8DE40E94BA0775
:1031F00016C0FE01ED59FF4F8081833280F4CE016D
:1032000085599F4F0E94F0118CE060E00E94930A64
:1032100086EC91E062E04CE020E00E94510AFE0161
:10322000EC59FF4F80819181CC01A0E0B0E000D04B
:1032300000D0EDB7FEB7319680839183A283B3832C
:1032400060E070E080E090E024E733E140E050E0AF
:10325000EE24FF248701AA24BB2465016894A3F807
:103260000E9455100F900F900F900F90DC01CB0132
:10327000FE01E05AFF4F80838AE061E00E94930ADA
:10328000FE01E05AFF4F8081882F90E0A0E0B0E07F
:10329000BC01CD010E94BB0883E060E00E94430EA8
:1032A000FE01E05AFF4F8081282F30E0E0963FAFCB
:1032B0002EAFE097E0968EAD9FADE09784309105FC
:1032C00009F45DC0E096EEADFFADE097E530F105A5
:1032D0002CF5E0962EAD3FADE0972130310509F495
:1032E0003FC0E0968EAD9FADE097823091053CF4F3
:1032F000E096EEADFFADE097309769F158C0E096EB
:103300002EAD3FADE0972230310579F1E0968EADDC
:103310009FADE0978330910569F149C0E096EEAD2D
:10332000FFADE097E630F105A1F1E0962EAD3FAD9F
:10333000E0972630310544F1E0968EAD9FADE097E1
:103340008730910559F1E096EEADFFADE097E8309A
:10335000F10549F12CC083E060E00E94430E27C0D4
:1033600083E061E00E94430E22C083E063E00E949C
:10337000430E1DC083E067E00E94430E18C083E047
:103380006FE00E94430E13C083E06FE10E94430E82
:103390000EC083E06FE30E94430E09C083E06FE735
:1033A0000E94430E04C083E06FEF0E94430E80E052
:1033B00090E0AAEFB4E48B879C87AD87BE876B85CE
:1033C0007C858D859E8520E030E04AEF54E40E94A4
:1033D0001F02DC01CB018F839887A987BA876F8191
:1033E000788589859A8520E030E040E85FE30E9497
:1033F000790388232CF481E090E09E838D833FC085
:103400006F81788589859A8520E03FEF4FE757E403
:103410000E94190318164CF56B857C858D859E8559
:1034200020E030E040E251E40E941F02DC01CB01C9
:10343000BC01CD010E944900DC01CB019E838D833C
:103440000FC088EC90E09C838B838B819C810197DB
:10345000F1F79C838B838D819E8101979E838D8361
:103460008D819E81009769F76DCE6F817885898502
:103470009A850E944900DC01CB019E838D838D815A
:103480009E819A83898389819A810197F1F79A8332
:10349000898358CE629FD001739FF001829FE00D17
:1034A000F11D649FE00DF11D929FF00D839FF00DC3
:1034B000749FF00D659FF00D9927729FB00DE11D6F
:1034C000F91F639FB00DE11DF91FBD01CF0111244C
:1034D0000895AA1BBB1B51E107C0AA1FBB1FA6175B
:1034E000B70710F0A61BB70B881F991F5A95A9F7AD
:1034F00080959095BC01CD010895A1E21A2EAA1BDA
:10350000BB1BFD010DC0AA1FBB1FEE1FFF1FA21793
:10351000B307E407F50720F0A21BB30BE40BF50B90
:10352000661F771F881F991F1A9469F76095709519
:10353000809590959B01AC01BD01CF01089597FB4B
:10354000092E05260ED057FD04D0D7DF0AD0001C67
:1035500038F450954095309521953F4F4F4F5F4F30
:103560000895F6F790958095709561957F4F8F4FF0
:103570009F4F08952F923F924F925F926F927F924A
:103580008F929F92AF92BF92CF92DF92EF92FF9273
:103590000F931F93CF93DF93CDB7DEB7CA1BDB0B1F
:1035A0000FB6F894DEBF0FBECDBF09942A883988C4
:1035B00048885F846E847D848C849B84AA84B984CB
:1035C000C884DF80EE80FD800C811B81AA81B981D7
:1035D000CE0FD11D0FB6F894DEBF0FBECDBFED01EB
:0635E0000895F894FFCFEE
:1035E60030620030780057656C636F6D65204D69F9
:1035F600646F210049443A200050617373776F72FB
:10360600643A200057656C636F6D650057726F6E84
:103616006720496E70757421005472792061676164
:10362600696E210043616C6C20456D657267656E3D
:103636006379210054656D702E3A20004C45447321
:103646003A2030202D20000000000000000000017C
:103656000102030B040506160708092116000B3D97
:1036660004050607030201003F065B4F666D7D07F2
:103676007F6F000F0B0B1F000000000009091F00E1
:1036860006000000000F190F0000101010101F0098
:103696000000040E1504040404000E0A040E0404BB
:1036A6000E001F1111111F04040004040E15040E50
:1036B60011000000000000180700000000000003D1
:1036C6001C00000010080402010001001F00000099
:1036D60000000000110C03000000000010080403A5
:1036E600010000000102040810001F111F141C1025
:1036F600000000000000001F000000000000001F86
:10370600000000001F000000000000001F00000075
:10371600000000000F0911090F00000000001F0043
:1037260000001F11111111111F0000000E0A0E00DA
:10373600000030313233343536373839414243446C
:023746004546F6
:00000001FF
