:100000000C942A000C9447000C9447000C94470071
:100010000C9447000C9447000C9447000C94470044
:100020000C9447000C9447000C94AD0E0C947A0E7F
:100030000C9447000C9447000C9447000C94470024
:100040000C9447000C9447000C9447000C94470014
:100050000C94470011241FBECFE5D8E0DEBFCDBF12
:1000600010E0A0E6B0E0EAE1FFE102C005900D92E9
:10007000AC38B107D9F710E0ACE8B0E001C01D9290
:10008000A139B107E1F70E94E00E0C948B0F0C949C
:100090000000EF92FF920F931F937B018C0120E0F1
:1000A00030E040E05FE40E94490388238CF0C801FF
:1000B000B70120E030E040E05FE40E94C1010E940F
:1000C000A9039B01AC01205030404040504806C07D
:1000D000C801B7010E94A9039B01AC01B901CA0183
:1000E0001F910F91FF90EF900895A0E0B0E0EBE733
:1000F000F0E00C94540FDC012B01FA019C9192303A
:1001000008F439C1EB018881823008F433C194309E
:1001100069F4843009F02FC111969C91119789815F
:10012000981709F428C1A4E7B0E025C1843009F488
:1001300021C18230A9F4923009F01DC19A01AD01AC
:1001400088E0EA010990AE01E90109929E0181501F
:10015000C1F7E201898111969C918923818308C1AD
:10016000923009F407C112962D903C901397EB0141
:100170008A819B811496AD90BD90CD90DC901797AD
:10018000EC80FD800E811F819101281B390BB90184
:1001900037FF04C066277727621B730B6032710537
:1001A0000CF061C0121613066CF537014801062EDB
:1001B00004C096948794779467940A94D2F721E0C8
:1001C00030E040E050E004C0220F331F441F551FB1
:1001D0006A95D2F721503040404050402E213F21B7
:1001E00040235123211531054105510521F021E01E
:1001F00030E040E050E079018A01E628F72808293C
:1002000019293CC0232BD1F1260E371E350146019A
:10021000062E04C096948794779467940A94D2F734
:1002200021E030E040E050E004C0220F331F441FC3
:10023000551F6A95D2F721503040404050402A2146
:100240003B214C215D21211531054105510521F04E
:1002500021E030E040E050E059016A01A628B728CB
:10026000C828D9280BC0821593052CF01C01AA249C
:10027000BB24650103C0EE24FF24870111969C91E5
:10028000D20111968C91981709F445C0992339F041
:10029000A80197012A193B094C095D0906C0A6016E
:1002A00095012E193F09400B510B57FD08C01182D3
:1002B0003382228224833583468357831DC081E0A5
:1002C00081833382228288279927DC01821B930B4A
:1002D000A40BB50B84839583A683B7830DC0220F2F
:1002E000331F441F551F24833583468357838281E0
:1002F000938101979383828324813581468157813D
:10030000DA01C9010197A109B1098F5F9F4FAF4F72
:10031000BF4328F30BC0918333822282EA0CFB1C7B
:100320000C1D1D1DE482F5820683178383E0808304
:10033000248135814681578157FF1AC0C901AA27F8
:1003400097FDA095BA2F81709070A070B0705695EF
:10035000479537952795822B932BA42BB52B848318
:100360009583A683B7838281938101969383828349
:10037000DF0101C0D201CD01CDB7DEB7E2E10C94BF
:10038000700FA0E2B0E0E7ECF1E00C94600F69833D
:100390007A838B839C832D833E834F835887E9E048
:1003A000EE2EF12CEC0EFD1ECE010196B7010E943F
:1003B000D2048E010F5E1F4FCE010596B8010E9438
:1003C000D2048A8991E089278A8BC701B801AE01DE
:1003D000475E5F4F0E9475000E94FD03A096E6E015
:1003E0000C947C0FA0E2B0E0E8EFF1E00C94600F19
:1003F00069837A838B839C832D833E834F835887C5
:10040000F9E0EF2EF12CEC0EFD1ECE010196B701A6
:100410000E94D2048E010F5E1F4FCE010596B801D7
:100420000E94D204C701B801AE01475E5F4F0E942F
:1004300075000E94FD03A096E6E00C947C0FA0E2FC
:10044000B0E0E5E2F2E00C94540F69837A838B8389
:100450009C832D833E834F835887CE010196BE0136
:10046000675F7F4F0E94D204CE010596BE016F5E8A
:100470007F4F0E94D2049985923088F0898982301A
:10048000C8F0943019F4823051F404C0843029F457
:10049000923081F484E790E0C6C0923049F420E0C5
:1004A0009A858A89981321E02A87CE010996BBC0D4
:1004B000823049F420E09A858A89981321E02A8BBA
:1004C000CE014196B0C02D843E844F8458886D88FB
:1004D0007E888F88988CEE24FF248701AA24BB2471
:1004E000650140E050E060E070E0E0E0F0E0C10174
:1004F00081709070892BE9F0E60CF71C081D191D1E
:100500009A01AB012A0D3B1D4C1D5D1D80E090E062
:10051000A0E0B0E0E614F7040805190520F481E036
:1005200090E0A0E0B0E0BA01A901480F591F6A1F8E
:100530007B1FAA0CBB1CCC1CDD1C97FE08C081E0F5
:1005400090E0A0E0B0E0A82AB92ACA2ADB2A3196B6
:10055000E032F10549F0660C771C881C991C569412
:10056000479437942794C3CFFA85EA892B893C892D
:100570008B859C85280F391F2E5F3F4F17C0CA01FE
:1005800081709070892B61F016950795F794E79428
:1005900080E090E0A0E0B0E8E82AF92A0A2B1B2BC3
:1005A00076956795579547952F5F3F4F77FDE7CF36
:1005B0000CC0440F551F661F771F17FD4160EE0CDE
:1005C000FF1C001F111F21503040403090E05907A0
:1005D00090E0690790E4790760F32B8F3C8FDB0193
:1005E000CA018F779070A070B07080349105A1051A
:1005F000B10561F447FD0AC0E114F10401051105DC
:1006000029F0405C5F4F6F4F7F4F40781A8EFE1786
:1006100011F081E08A8F4D8F5E8F6F8F78A383E01A
:10062000898FCE0149960E94FD03A096E2E10C94C9
:10063000700FA8E1B0E0EFE1F3E00C94600F698384
:100640007A838B839C832D833E834F83588789E0F5
:10065000E82EF12CEC0EFD1ECE010196B7010E9492
:10066000D2048E010F5E1F4FCE010596B8010E9485
:10067000D2048985823040F08989823028F0C70110
:10068000B8010E944A0501C08FEF6896E6E00C941D
:100690007C0FA8E1B0E0EFE4F3E00C94600F698315
:1006A0007A838B839C832D833E834F83588789E095
:1006B000E82EF12CEC0EFD1ECE010196B7010E9432
:1006C000D2048E010F5E1F4FCE010596B8010E9425
:1006D000D2048985823040F08989823028F0C701B0
:1006E000B8010E944A0501C08FEF6896E6E00C94BD
:1006F0007C0FA8E1B0E0EFE7F3E00C94600F6983B2
:100700007A838B839C832D833E834F83588789E034
:10071000E82EF12CEC0EFD1ECE010196B7010E94D1
:10072000D2048E010F5E1F4FCE010596B8010E94C4
:10073000D2048985823040F08989823028F0C7014F
:10074000B8010E944A0501C081E06896E6E00C9479
:100750007C0FACE0B0E0EFEAF3E00C94640F698347
:100760007A838B839C83CE010196BE016B5F7F4FA2
:100770000E94D2048D81823061F1823050F1843048
:1007800021F48E81882351F12EC02F81388537FDC9
:1007900020C06E812F3131051CF06623F9F023C093
:1007A0008EE190E0821B930B29853A854B855C8511
:1007B00004C056954795379527958A95D2F76623B5
:1007C000B1F050954095309521953F4F4F4F5F4F79
:1007D0000EC020E030E040E050E009C02FEF3FEFD6
:1007E0004FEF5FE704C020E030E040E050E8B9019F
:1007F000CA012C96E2E00C94800FDF92EF92FF92F8
:100800000F931F93FC01E480F58006811781D1804E
:100810008081823048F480E090E0A0E1B0E0E82AF6
:10082000F92A0A2B1B2BA5C0843009F49FC0823003
:1008300021F4EE24FF24870105C0E114F104010531
:10084000110519F4E0E0F0E096C0628173819FEF3A
:10085000623879070CF05BC022E83FEF261B370BAC
:100860002A3131052CF020E030E040E050E02AC091
:10087000B801A701022E04C0769567955795479554
:100880000A94D2F781E090E0A0E0B0E004C0880FC5
:10089000991FAA1FBB1F2A95D2F70197A109B10979
:1008A0008E219F21A023B1230097A105B10521F03E
:1008B00081E090E0A0E0B0E09A01AB01282B392B59
:1008C0004A2B5B2BDA01C9018F779070A070B07052
:1008D00080349105A105B10539F427FF09C0205CDA
:1008E0003F4F4F4F5F4F04C0215C3F4F4F4F5F4F13
:1008F000E0E0F0E02030A0E03A07A0E04A07A0E402
:100900005A0710F0E1E0F0E079018A0127C0603871
:10091000710564F5FB01E158FF4FD801C7018F77DE
:100920009070A070B07080349105A105B10539F4C4
:10093000E7FE0DC080E490E0A0E0B0E004C08FE3EB
:1009400090E0A0E0B0E0E80EF91E0A1F1B1F17FFA1
:1009500005C016950795F794E794319687E01695AC
:100960000795F794E7948A95D1F705C0EE24FF2404
:100970008701EFEFF0E06E2F679566276795902F60
:100980009F77D794DD24D7948E2F8695492F462BB9
:10099000582F5D29B701CA011F910F91FF90EF9069
:1009A000DF900895FC01DB01408151812281622F9B
:1009B0006F7770E0221F2227221F9381892F880FD3
:1009C000822B282F30E0991F9927991F11969C930D
:1009D000119721153105A9F54115510561057105DD
:1009E00011F482E037C082E89FEF13969C938E93B8
:1009F00012979A01AB0167E0220F331F441F551F66
:100A00006A95D1F783E08C930DC0220F331F441FEA
:100A1000551F12968D919C911397019713969C9355
:100A20008E931297203080E0380780E0480780E4FA
:100A3000580758F314962D933D934D935C93179755
:100A400008952F3F310579F4411551056105710570
:100A500019F484E08C93089564FF03C081E08C93C3
:100A600012C01C9210C02F57304013963C932E9307
:100A7000129783E08C9387E0440F551F661F771F02
:100A80008A95D1F7706414964D935D936D937C9322
:100A9000179708951F93DC01FB019C91923008F495
:100AA00047C08081823008F443C0943051F41196DD
:100AB0001C91843099F58181682F70E0611B710968
:100AC0003FC0843021F0923031F48230B9F181811D
:100AD000882389F12DC011961C9111978230F1F075
:100AE00081811817D9F412962D913C911397828128
:100AF00093818217930794F028173907BCF0149656
:100B00008D919D910D90BC91A02D248135814681C0
:100B10005781281739074A075B0718F4112341F05A
:100B20000AC082179307A407B50740F4112319F0F0
:100B300061E070E005C06FEF7FEF02C060E070E041
:100B4000CB011F910895DF93CF93CDB7DEB72E97DA
:100B50000FB6F894DEBF0FBECDBF80E066E041E087
:100B60000E94930A80E090E0A0E0B0E48B879C872D
:100B7000AD87BE876B857C858D859E8520E030E0C6
:100B80004AEF54E40E941F02DC01CB018F83988757
:100B9000A987BA876F81788589859A8520E030E0BA
:100BA00040E85FE30E94790388232CF481E090E021
:100BB0009E838D833FC06F81788589859A8520E0EB
:100BC0003FEF4FE757E40E94190318164CF56B8569
:100BD0007C858D859E8520E030E040E251E40E94D6
:100BE0001F02DC01CB01BC01CD010E944900DC01E8
:100BF000CB019E838D830FC088EC90E09C838B8318
:100C00008B819C810197F1F79C838B838D819E81E1
:100C100001979E838D838D819E81009769F714C013
:100C20006F81788589859A850E944900DC01CB0116
:100C30009E838D838D819E819A83898389819A8108
:100C40000197F1F79A83898380E066E040E00E9493
:100C5000930A2E960FB6F894DEBF0FBECDBFCF918C
:100C6000DF910895DF93CF930F92CDB7DEB78983DD
:100C70008981982F917080E060E0492F0E94930A4B
:100C800089818695982F917080E061E0492F0E94BC
:100C9000930A898186958695982F917080E062E00D
:100CA000492F0E94930A8981869586958695982F6B
:100CB000917080E063E0492F0E94930A0F90CF91DA
:100CC000DF910895DF93CF930F92CDB7DEB789837D
:100CD00080E064E040E00E94930A80E065E040E04C
:100CE0000E94930A898182958F700E9432060E9429
:100CF000A30589810E9432060E94A3050F90CF911F
:100D0000DF910895DF93CF930F92CDB7DEB789833C
:100D100080E064E041E00E94930A80E065E040E00A
:100D20000E94930A898182958F700E9432060E94E8
:100D3000A30589810E9432060E94A3050F90CF91DE
:100D4000DF910895DF93CF93CDB7DEB72E970FB61F
:100D5000F894DEBF0FBECDBF80E090E0A0E2B2E429
:100D60008B879C87AD87BE876B857C858D859E85AF
:100D700020E030E04AEF54E40E941F02DC01CB0186
:100D80008F839887A987BA876F81788589859A85A7
:100D900020E030E040E85FE30E94790388232CF4F0
:100DA00081E090E09E838D833FC06F817885898547
:100DB0009A8520E03FEF4FE757E40E941903181689
:100DC0004CF56B857C858D859E8520E030E040E28A
:100DD00051E40E941F02DC01CB01BC01CD010E9445
:100DE0004900DC01CB019E838D830FC088EC90E02D
:100DF0009C838B838B819C810197F1F79C838B83F0
:100E00008D819E8101979E838D838D819E81009728
:100E100069F714C06F81788589859A850E94490099
:100E2000DC01CB019E838D838D819E819A83898392
:100E300089819A810197F1F79A83898380E064E040
:100E400040E00E94930A80E065E040E00E94930A3F
:100E500082E00E9432060E94A30582E00E943206D0
:100E60000E94A30588E00E9432060E94A3058CE040
:100E70000E94620681E00E9462062E960FB6F894E8
:100E8000DEBF0FBECDBFCF91DF910895DF93CF932B
:100E9000CDB7DEB781E00E946206CF91DF91089561
:100EA000DF93CF9300D000D0CDB7DEB79C838B8388
:100EB0001A8219828B819C810097D9F00EC089819A
:100EC000282F30E08B819C81FC01E20FF31F808191
:100ED0000E94820689818F5F89838981282F30E073
:100EE0008B819C81FC01E20FF31F8081882339F7FD
:100EF00002C082E08A838A810F900F900F900F903A
:100F0000CF91DF9108950F931F93DF93CF93CDB7C8
:100F1000DEB760970FB6F894DEBF0FBECDBF6D870A
:100F20007E878F87988B8AE0FE013396DF01982FAA
:100F30001D929A95E9F71A828D859E85AF85B889AD
:100F40000097A105B10521F480E30E9482067BC0D1
:100F50008D859E85AF85B889BB230CF054C08DE28A
:100F60000E9482068D859E85AF85B889B095A09533
:100F7000909581959F4FAF4FBF4F8D879E87AF87CD
:100F8000B88B41C08A81082F10E08D859E85AF8582
:100F9000B8892AE030E040E050E0BC01CD010E9479
:100FA000170FDC01CB01282FCE010396FC01E00FC7
:100FB000F11F20838A81482F50E08A81282F30E05A
:100FC000CE010396FC01E20FF31F8081282F205DE4
:100FD000CE010396FC01E40FF51F20838D859E85CD
:100FE000AF85B8892AE030E040E050E0BC01CD0197
:100FF0000E94170FDA01C9018D879E87AF87B88BD2
:101000008A818F5F8A838D859E85AF85B889181602
:1010100019061A061B060CF4B5CF8A8189838981CB
:10102000882F90E09C0121503040CE010396FC01B6
:10103000E20FF31F80810E9482068981815089839B
:101040008981882361F760960FB6F894DEBF0FBEE2
:10105000CDBFCF91DF911F910F910895DF93CF9373
:10106000CDB7DEB7A4970FB6F894DEBF0FBECDBFE5
:101070009CA38BA380E2FE013396DF01982F1D9283
:101080009A95E9F71A8280E690E00E9450071A824A
:1010900023C08BA19CA181709070882359F08A8114
:1010A000282F30E0CE010396FC01E20FF31F81E010
:1010B000808309C08A81282F30E0CE010396FC018D
:1010C000E20FF31F10828BA19CA1959587959CA39D
:1010D0008BA38A818F5F8A838A818031D0F280E0FE
:1010E00061E00E945B0980E189838981882F90E01B
:1010F0009C0121503040CE010396FC01E20FF31F0A
:101100008081882321F480E30E94820603C081E36A
:101110000E9482068981815089838981882329F7E9
:10112000A4960FB6F894DEBF0FBECDBFCF91DF916E
:101130000895DF93CF93CDB7DEB7A5970FB6F89498
:10114000DEBF0FBECDBF6D8F7E8F8F8F98A3CE0178
:1011500005969AA389A3ECE7F0E0FCA3EBA3F0E1EA
:10116000FDA3EBA1FCA100808BA19CA101969CA3F7
:101170008BA3E9A1FAA1008289A19AA101969AA361
:1011800089A39DA191509DA3EDA1EE2351F71B8250
:1011900020C08D8D8F708A838D8D9E8DAF8DB8A16F
:1011A000689413F8B595A795979587951694D1F7F8
:1011B0008D8F9E8FAF8FB8A38B81282F30E0CE010B
:1011C0004596FC01E20FF31F8A8180838B818F5F3C
:1011D0008B838B818830E8F283E690E00E94500791
:1011E00087E08C831AC08C81282F332727FD309508
:1011F000CE014596FC01E20FF31F8081898389812E
:10120000282F30E0CE010596FC01E20FF31F80810C
:101210000E9482068C8181508C838C8188231CF7EC
:10122000A5960FB6F894DEBF0FBECDBFCF91DF916C
:101230000895DF93CF93CDB7DEB727970FB6F89415
:10124000DEBF0FBECDBF9C838B836D834E832F8308
:101250008D81882F90E0880F991F880F991F880F24
:10126000991F8A838A8180648A838A810E946206A8
:1012700019820EC08981282F30E08B819C81FC016E
:10128000E20FF31F80810E94820689818F5F89832C
:101290008981883078F38E816F810E945B098D810E
:1012A0000E94820627960FB6F894DEBF0FBECDBF10
:1012B000CF91DF910895DF93CF9300D000D0CDB7C9
:1012C000DEB78B836C831A828C81882319F48B811F
:1012D000898309C08C81813021F48B81805C898372
:1012E00002C081E08A8389818068898389810E9424
:1012F00062068A810F900F900F900F90CF91DF912F
:101300000895DF93CF93CDB7DEB728970FB6F89443
:10131000DEBF0FBECDBF8A836B834C8319828B8166
:10132000883008F0F4C08C81813009F072C08A8165
:10133000282F30E038872F838F8198858130910561
:1013400049F12F813885223031052CF48F81988521
:10135000009761F05BC02F8138852230310571F133
:101360008F81988583309105E9F150C0AAE3B0E000
:10137000EAE3F0E08081482F8B81282F30E081E084
:1013800090E0022E02C0880F991F0A94E2F7842B86
:101390008C93BFC0A7E3B0E0E7E3F0E08081482F83
:1013A0008B81282F30E081E090E0022E02C0880F70
:1013B000991F0A94E2F7842B8C93ABC0A4E3B0E0AE
:1013C000E4E3F0E08081482F8B81282F30E081E03A
:1013D00090E0022E02C0880F991F0A94E2F7842B36
:1013E0008C9397C0A1E3B0E0E1E3F0E08081482F67
:1013F0008B81282F30E081E090E0022E02C0880F20
:10140000991F0A94E2F7842B8C9383C081E089832F
:1014100080C08C81882309F077C08A81282F30E032
:101420003E832D838D819E818130910559F12D81DF
:101430003E81223031052CF48D819E81009769F028
:1014400060C02D813E812230310589F18D819E81E0
:101450008330910509F440C054C0AAE3B0E0EAE348
:10146000F0E08081482F8B81282F30E081E090E0F0
:10147000022E02C0880F991F0A94E2F780958423F8
:101480008C9347C0A7E3B0E0E7E3F0E08081482F0A
:101490008B81282F30E081E090E0022E02C0880F7F
:1014A000991F0A94E2F7809584238C9332C0A4E3B9
:1014B000B0E0E4E3F0E08081482F8B81282F30E01A
:1014C00081E090E0022E02C0880F991F0A94E2F793
:1014D000809584238C931DC0A1E3B0E0E1E3F0E0AC
:1014E0008081482F8B81282F30E081E090E0022E10
:1014F00002C0880F991F0A94E2F7809584238C9389
:1015000008C081E0898305C081E0898302C081E051
:101510008983898128960FB6F894DEBF0FBECDBFB0
:10152000CF91DF910895DF93CF93CDB7DEB72897A2
:101530000FB6F894DEBF0FBECDBF8A836B834C839A
:1015400019828B81883008F0F4C08C81813009F0D9
:1015500072C08A81282F30E038872F838F81988549
:101560008130910549F12F813885223031052CF4E5
:101570008F819885009761F05BC02F81388522307C
:10158000310571F18F81988583309105E9F150C063
:10159000ABE3B0E0EBE3F0E08081482F8B81282FB4
:1015A00030E081E090E0022E02C0880F991F0A947B
:1015B000E2F7842B8C93BFC0A8E3B0E0E8E3F0E04F
:1015C0008081482F8B81282F30E081E090E0022E2F
:1015D00002C0880F991F0A94E2F7842B8C93ABC04A
:1015E000A5E3B0E0E5E3F0E08081482F8B81282F70
:1015F00030E081E090E0022E02C0880F991F0A942B
:10160000E2F7842B8C9397C0A2E3B0E0E2E3F0E032
:101610008081482F8B81282F30E081E090E0022EDE
:1016200002C0880F991F0A94E2F7842B8C9383C021
:1016300081E0898380C08C81882309F077C08A810A
:10164000282F30E03E832D838D819E81813091054E
:1016500059F12D813E81223031052CF48D819E81FE
:10166000009769F060C02D813E812230310589F1FB
:101670008D819E818330910509F440C054C0ABE355
:10168000B0E0EBE3F0E08081482F8B81282F30E041
:1016900081E090E0022E02C0880F991F0A94E2F7C1
:1016A000809584238C9347C0A8E3B0E0E8E3F0E0A2
:1016B0008081482F8B81282F30E081E090E0022E3E
:1016C00002C0880F991F0A94E2F7809584238C93B7
:1016D00032C0A5E3B0E0E5E3F0E08081482F8B81E4
:1016E000282F30E081E090E0022E02C0880F991F81
:1016F0000A94E2F7809584238C931DC0A2E3B0E0A6
:10170000E2E3F0E08081482F8B81282F30E081E0F8
:1017100090E0022E02C0880F991F0A94E2F780958C
:1017200084238C9308C081E0898305C081E089838C
:1017300002C081E08983898128960FB6F894DEBFC4
:101740000FBECDBFCF91DF910895DF93CF9300D02F
:1017500000D00F92CDB7DEB78A836B8319828B815D
:10176000883008F072C08A81282F30E03D832C83B6
:101770008C819D818130910549F12C813D81223000
:1017800031052CF48C819D81009761F05BC02C8128
:101790003D812230310571F18C819D81833091052D
:1017A000E9F150C0ABE3B0E0EBE3F0E08081482F1B
:1017B0008B81282F30E081E090E0022E02C0880F5C
:1017C000991F0A94E2F784278C9341C0A8E3B0E004
:1017D000E8E3F0E08081482F8B81282F30E081E022
:1017E00090E0022E02C0880F991F0A94E2F7842726
:1017F0008C932DC0A5E3B0E0E5E3F0E08081482FB5
:101800008B81282F30E081E090E0022E02C0880F0B
:10181000991F0A94E2F784278C9319C0A2E3B0E0E1
:10182000E2E3F0E08081482F8B81282F30E081E0D7
:1018300090E0022E02C0880F991F0A94E2F78427D5
:101840008C9305C081E0898302C081E0898389810E
:101850000F900F900F900F900F90CF91DF91089500
:10186000DF93CF93CDB7DEB727970FB6F894DEBFDF
:101870000FBECDBF8A836B835D834C8319828B81BE
:10188000883008F074C08A81282F30E03F832E838F
:101890004E815F814130510559F18E819F818230A7
:1018A000910534F42E813F812115310569F05CC02A
:1018B0004E815F814230510579F18E819F81833065
:1018C000910509F43DC050C0E9E3F0E08081282F84
:1018D00030E08B81882F90E0A90102C05595479593
:1018E0008A95E2F7CA018170EC81FD81808341C055
:1018F000E6E3F0E08081282F30E08B81882F90E0B4
:10190000A90102C0559547958A95E2F7CA018170F1
:10191000EC81FD8180832DC0E3E3F0E08081282FFE
:1019200030E08B81882F90E0A90102C05595479542
:101930008A95E2F7CA018170EC81FD81808319C02C
:10194000E0E3F0E08081282F30E08B81882F90E069
:10195000A90102C0559547958A95E2F7CA018170A1
:10196000EC81FD81808305C081E0898302C081E034
:101970008983898127960FB6F894DEBF0FBECDBF4D
:10198000CF91DF910895DF93CF9300D000D00F92D5
:10199000CDB7DEB78A836B8319828A81282F30E026
:1019A0003D832C838C819D8181309105D1F02C81E8
:1019B0003D81223031052CF48C819D81009761F0AE
:1019C0001FC02C813D812230310581F08C819D81A9
:1019D0008330910581F014C0EAE3F0E08B818083CD
:1019E00011C0E7E3F0E08B8180830CC0E4E3F0E01A
:1019F0008B81808307C0E1E3F0E08B81808302C0AC
:101A000081E0898389810F900F900F900F900F9044
:101A1000CF91DF910895DF93CF9300D000D00F9244
:101A2000CDB7DEB78A836B8319828A81282F30E095
:101A30003D832C838C819D8181309105D1F02C8157
:101A40003D81223031052CF48C819D81009761F01D
:101A50001FC02C813D812230310581F08C819D8118
:101A60008330910581F014C0EBE3F0E08B8180833B
:101A700011C0E8E3F0E08B8180830CC0E5E3F0E087
:101A80008B81808307C0E2E3F0E08B81808302C01A
:101A900081E0898389810F900F900F900F900F90B4
:101AA000CF91DF910895DF93CF93CDB7DEB77894D0
:101AB000CF91DF910895DF93CF93CDB7DEB7F89440
:101AC000CF91DF910895DF93CF93CDB7DEB7EAE3EF
:101AD000F0E08FEF8083E7E3F0E08EEF8083E4E3D4
:101AE000F0E08EEF8083E1E3F0E08FEF8083EBE3C3
:101AF000F0E01082E8E3F0E081E08083E5E3F0E0ED
:101B000081E08083E2E3F0E01082CF91DF910895DD
:101B1000DF93CF93CDB7DEB72A970FB6F894DEBF29
:101B20000FBECDBF9C838B837E836D8319828B8197
:101B30009C81009709F455C08D819E81009709F41E
:101B400050C0EB81FC818181EB81FC8192819E01FF
:101B50002E5F3F4F692FA9010E94300CEB81FC8161
:101B600080818130D9F48A81282F30E03A87298713
:101B700089859A85009751F029853A85213031056C
:101B800051F4ED81FE8182E080832DC0ED81FE81E4
:101B900081E0808328C081E0898325C0EB81FC81BE
:101BA00080818230D9F48A81282F30E038872F83D2
:101BB0008F819885009751F02F813885213031052C
:101BC00051F4ED81FE8181E080830DC0ED81FE81C5
:101BD00082E0808308C081E0898305C081E0898339
:101BE00002C082E0898389812A960FB6F894DEBF0D
:101BF0000FBECDBFCF91DF910895DF93CF93CDB7C7
:101C0000DEB7A3E5B0E0E3E5F0E080818F7B8C9365
:101C1000A3E5B0E0E3E5F0E0808188608C93A3E584
:101C2000B0E0E3E5F0E080818F7E8C93A3E5B0E047
:101C3000E3E5F0E080818F7D8C93A3E5B0E0E3E500
:101C4000F0E080818E7F8C93A3E5B0E0E3E5F0E0E7
:101C5000808182608C93A3E5B0E0E3E5F0E08081D1
:101C600084608C93A9E5B0E0E9E5F0E080818260D2
:101C70008C93ECE5F0E081E08083CF91DF910895D3
:101C8000DF93CF9300D00F92CDB7DEB79B838A83CB
:101C900019828A819B81009739F08A819B81909378
:101CA0008D0080938C0002C082E0898389810F902F
:101CB0000F900F90CF91DF910895DF93CF9300D0D5
:101CC0000F92CDB7DEB79B838A8319828A819B816D
:101CD000009739F08A819B8190938F0080938E00CA
:101CE00002C082E0898389810F900F900F90CF917D
:101CF000DF9108951F920F920FB60F9211242F9328
:101D00003F934F935F936F937F938F939F93AF9383
:101D1000BF93EF93FF93DF93CF93CDB7DEB780915F
:101D20008E0090918F00009729F0E0918E00F09145
:101D30008F000995CF91DF91FF91EF91BF91AF9106
:101D40009F918F917F916F915F914F913F912F91D3
:101D50000F900FBE0F901F9018951F920F920FB605
:101D60000F9211242F933F934F935F936F937F9321
:101D70008F939F93AF93BF93EF93FF93DF93CF9393
:101D8000CDB7DEB780918C0090918D00009729F03F
:101D9000E0918C00F0918D000995CF91DF91FF913A
:101DA000EF91BF91AF919F918F917F916F915F91D3
:101DB0004F913F912F910F900FBE0F901F9018954C
:101DC000DF93CF93CDB7DEB70E94630D0E94530D12
:101DD0000E94FD0D85EF9EE00E94400E0E94A2062B
:101DE00086E690E00E945007FFCFDF93CF93CDB7F8
:101DF000DEB7809190008F5F8093900088E060E074
:101E00000E945B098FE690E00E94500788E060E046
:101E10000E945B0980919000882F90E0A0E0B0E0E4
:101E2000BC01CD010E948307CF91DF91089597FBFC
:101E3000092E05260ED057FD04D014D00AD0001C60
:101E400038F450954095309521953F4F4F4F5F4F57
:101E50000895F6F790958095709561957F4F8F4F17
:101E60009F4F0895A1E21A2EAA1BBB1BFD010DC0B6
:101E7000AA1FBB1FEE1FFF1FA217B307E407F5073A
:101E800020F0A21BB30BE40BF50B661F771F881F16
:101E9000991F1A9469F760957095809590959B01AC
:101EA000AC01BD01CF0108952F923F924F925F92F6
:101EB0006F927F928F929F92AF92BF92CF92DF925A
:101EC000EF92FF920F931F93CF93DF93CDB7DEB7BF
:101ED000CA1BDB0B0FB6F894DEBF0FBECDBF099453
:101EE0002A88398848885F846E847D848C849B84AA
:101EF000AA84B984C884DF80EE80FD800C811B81B8
:101F0000AA81B981CE0FD11D0FB6F894DEBF0FBEE6
:0A1F1000CDBFED010895F894FFCF56
:101F1A00306200307800436F756E74733A20002087
:101F2A002020200000000000000000003031323381
:0C1F3A00343536373839414243444546BF
:00000001FF
