:100000000C942A000C9447000C9447000C94470071
:100010000C9447000C9447000C9447000C94470044
:100020000C9447000C9447000C94F4060C94C10601
:100030000C9447000C9447000C9447000C94470024
:100040000C9432010C9447000C9447000C94470028
:100050000C94470011241FBECFE5D8E0DEBFCDBF12
:1000600010E0A0E6B0E0EAEBFFE002C005900D92E0
:10007000A236B107D9F710E0A2E6B0E001C01D92A8
:10008000A637B107E1F70E9427070C94DB070C9411
:100090000000DF93CF93CDB7DEB7A7E2B0E0E7E291
:1000A000F0E0808180648C93A7E2B0E0E7E2F0E0CA
:1000B00080818F778C93A7E2B0E0E7E2F0E0808167
:1000C0008F7D8C93A6E2B0E0E6E2F0E08081877F4E
:1000D0008C93A6E2B0E0E6E2F0E08081887F8C932A
:1000E000A6E2B0E0E6E2F0E0808185608C93A6E2D3
:1000F000B0E0E6E2F0E0808180688C93CF91DF9100
:100100000895DF93CF9300D000D00F92CDB7DEB724
:100110008B837D836C831A8219828C819D810097E9
:1001200009F441C0809160008130D1F510926000E7
:10013000A7E2B0E0E7E2F0E08081807E8C93A7E266
:10014000B0E0E7E2F0E090818B81892B8C93A6E20E
:10015000B0E0E6E2F0E0808180648C93E6E2F0E0DB
:10016000808182958F70882F90E0817090700097C9
:1001700021F489818F5F8983F1CFA6E2B0E0E6E2C6
:10018000F0E0808180618C93E4E2F0E080819181F5
:10019000EC81FD819183808381E08093600005C0C4
:1001A00084E08A8302C082E08A838A810F900F9064
:1001B0000F900F900F90CF91DF910895DF93CF9321
:1001C00000D000D000D0CDB7DEB78A837C836B83AC
:1001D0005E834D8319828B819C810097B9F18D815B
:1001E0009E81009799F180916000813061F51092B5
:1001F00060008B819C8190936500809364008D8169
:100200009E819093630080936200A7E2B0E0E7E2F2
:10021000F0E08081807E8C93A7E2B0E0E7E2F0E03E
:1002200090818A81892B8C93A6E2B0E0E6E2F0E02F
:10023000808180648C93A6E2B0E0E6E2F0E0808109
:1002400088608C9305C084E0898302C082E0898342
:10025000898126960FB6F894DEBF0FBECDBFCF9131
:10026000DF9108951F920F920FB60F9211242F93D2
:100270003F934F935F936F937F938F939F93AF932E
:10028000BF93EF93FF93DF93CF93CDB7DEB780910A
:100290006400909165000097F9F0A0916400B0911E
:1002A0006500E4E2F0E0808191818D939C93A6E269
:1002B000B0E0E6E2F0E08081877F8C9381E080937C
:1002C00060008091620090916300009729F0E091B6
:1002D0006200F09163000995CF91DF91FF91EF915A
:1002E000BF91AF919F918F917F916F915F914F914E
:1002F0003F912F910F900FBE0F901F901895DF9395
:10030000CF93CDB7DEB728970FB6F894DEBF0FBEF8
:10031000CDBF8A836B834C8319828B81883008F030
:10032000F4C08C81813009F072C08A81282F30E0BE
:1003300038872F838F8198858130910549F12F81EE
:100340003885223031052CF48F819885009761F033
:100350005BC02F8138852230310571F18F819885FE
:1003600083309105E9F150C0AAE3B0E0EAE3F0E0A0
:100370008081482F8B81282F30E081E090E0022E91
:1003800002C0880F991F0A94E2F7842B8C93BFC098
:10039000A7E3B0E0E7E3F0E08081482F8B81282FCE
:1003A00030E081E090E0022E02C0880F991F0A948D
:1003B000E2F7842B8C93ABC0A4E3B0E0E4E3F0E07D
:1003C0008081482F8B81282F30E081E090E0022E41
:1003D00002C0880F991F0A94E2F7842B8C9397C070
:1003E000A1E3B0E0E1E3F0E08081482F8B81282F8A
:1003F00030E081E090E0022E02C0880F991F0A943D
:10040000E2F7842B8C9383C081E0898380C08C8148
:10041000882309F077C08A81282F30E03E832D831E
:100420008D819E818130910559F12D813E8122304F
:1004300031052CF48D819E81009769F060C02D817B
:100440003E812230310589F18D819E818330910575
:1004500009F440C054C0AAE3B0E0EAE3F0E08081D0
:10046000482F8B81282F30E081E090E0022E02C0DF
:10047000880F991F0A94E2F7809584238C9347C0D4
:10048000A7E3B0E0E7E3F0E08081482F8B81282FDD
:1004900030E081E090E0022E02C0880F991F0A949C
:1004A000E2F7809584238C9332C0A4E3B0E0E4E3C8
:1004B000F0E08081482F8B81282F30E081E090E0B0
:1004C000022E02C0880F991F0A94E2F780958423B8
:1004D0008C931DC0A1E3B0E0E1E3F0E08081482F00
:1004E0008B81282F30E081E090E0022E02C0880F3F
:1004F000991F0A94E2F7809584238C9308C081E0C9
:10050000898305C081E0898302C081E08983898174
:1005100028960FB6F894DEBF0FBECDBFCF91DF9106
:100520000895DF93CF93CDB7DEB728970FB6F89431
:10053000DEBF0FBECDBF8A836B834C8319828B8154
:10054000883008F0F4C08C81813009F072C08A8153
:10055000282F30E038872F838F819885813091054F
:1005600049F12F813885223031052CF48F8198850F
:10057000009761F05BC02F8138852230310571F121
:100580008F81988583309105E9F150C0ABE3B0E0ED
:10059000EBE3F0E08081482F8B81282F30E081E071
:1005A00090E0022E02C0880F991F0A94E2F7842B74
:1005B0008C93BFC0A8E3B0E0E8E3F0E08081482F6F
:1005C0008B81282F30E081E090E0022E02C0880F5E
:1005D000991F0A94E2F7842B8C93ABC0A5E3B0E09B
:1005E000E5E3F0E08081482F8B81282F30E081E027
:1005F00090E0022E02C0880F991F0A94E2F7842B24
:100600008C9397C0A2E3B0E0E2E3F0E08081482F52
:100610008B81282F30E081E090E0022E02C0880F0D
:10062000991F0A94E2F7842B8C9383C081E089831D
:1006300080C08C81882309F077C08A81282F30E020
:100640003E832D838D819E818130910559F12D81CD
:100650003E81223031052CF48D819E81009769F016
:1006600060C02D813E812230310589F18D819E81CE
:100670008330910509F440C054C0ABE3B0E0EBE334
:10068000F0E08081482F8B81282F30E081E090E0DE
:10069000022E02C0880F991F0A94E2F780958423E6
:1006A0008C9347C0A8E3B0E0E8E3F0E08081482FF6
:1006B0008B81282F30E081E090E0022E02C0880F6D
:1006C000991F0A94E2F7809584238C9332C0A5E3A6
:1006D000B0E0E5E3F0E08081482F8B81282F30E007
:1006E00081E090E0022E02C0880F991F0A94E2F781
:1006F000809584238C931DC0A2E3B0E0E2E3F0E098
:100700008081482F8B81282F30E081E090E0022EFD
:1007100002C0880F991F0A94E2F7809584238C9376
:1007200008C081E0898305C081E0898302C081E03F
:100730008983898128960FB6F894DEBF0FBECDBF9E
:10074000CF91DF910895DF93CF9300D000D00F9227
:10075000CDB7DEB78A836B8319828B81883008F02E
:1007600072C08A81282F30E03D832C838C819D814B
:100770008130910549F12C813D81223031052CF4E5
:100780008C819D81009761F05BC02C813D8122307E
:10079000310571F18C819D8183309105E9F150C063
:1007A000ABE3B0E0EBE3F0E08081482F8B81282FB2
:1007B00030E081E090E0022E02C0880F991F0A9479
:1007C000E2F784278C9341C0A8E3B0E0E8E3F0E0CF
:1007D0008081482F8B81282F30E081E090E0022E2D
:1007E00002C0880F991F0A94E2F784278C932DC0CA
:1007F000A5E3B0E0E5E3F0E08081482F8B81282F6E
:1008000030E081E090E0022E02C0880F991F0A9428
:10081000E2F784278C9319C0A2E3B0E0E2E3F0E0B2
:100820008081482F8B81282F30E081E090E0022EDC
:1008300002C0880F991F0A94E2F784278C9305C0A1
:1008400081E0898302C081E0898389810F900F90C4
:100850000F900F900F90CF91DF910895DF93CF937A
:10086000CDB7DEB727970FB6F894DEBF0FBECDBF6A
:100870008A836B835D834C8319828B81883008F077
:1008800074C08A81282F30E03F832E834E815F81A0
:100890004130510559F18E819F818230910534F4A8
:1008A0002E813F812115310569F05CC04E815F8149
:1008B0004230510579F18E819F818330910509F491
:1008C0003DC050C0E9E3F0E08081282F30E08B810B
:1008D000882F90E0A90102C0559547958A95E2F7C7
:1008E000CA018170EC81FD81808341C0E6E3F0E0C4
:1008F0008081282F30E08B81882F90E0A90102C0F1
:10090000559547958A95E2F7CA018170EC81FD8182
:1009100080832DC0E3E3F0E08081282F30E08B81DD
:10092000882F90E0A90102C0559547958A95E2F776
:10093000CA018170EC81FD81808319C0E0E3F0E0A1
:100940008081282F30E08B81882F90E0A90102C0A0
:10095000559547958A95E2F7CA018170EC81FD8132
:10096000808305C081E0898302C081E08983898119
:1009700027960FB6F894DEBF0FBECDBFCF91DF91A3
:100980000895DF93CF9300D000D00F92CDB7DEB79C
:100990008A836B8319828A81282F30E03D832C83E0
:1009A0008C819D8181309105D1F02C813D81223057
:1009B00031052CF48C819D81009761F01FC02C8142
:1009C0003D812230310581F08C819D8183309105FC
:1009D00081F014C0EAE3F0E08B81808311C0E7E38B
:1009E000F0E08B8180830CC0E4E3F0E08B818083B6
:1009F00007C0E1E3F0E08B81808302C081E089835E
:100A000089810F900F900F900F900F90CF91DF91F1
:100A10000895DF93CF9300D000D00F92CDB7DEB70B
:100A20008A836B8319828A81282F30E03D832C834F
:100A30008C819D8181309105D1F02C813D812230C6
:100A400031052CF48C819D81009761F01FC02C81B1
:100A50003D812230310581F08C819D81833091056B
:100A600081F014C0EBE3F0E08B81808311C0E8E3F8
:100A7000F0E08B8180830CC0E5E3F0E08B81808324
:100A800007C0E2E3F0E08B81808302C081E08983CC
:100A900089810F900F900F900F900F90CF91DF9161
:100AA0000895AF92BF92CF92DF92EF92FF920F9391
:100AB0001F93DF93CF93CDB7DEB764970FB6F8944B
:100AC000DEBF0FBECDBF6D837E838F83988729875E
:100AD0003A874B875C87ED86FE860F87188BA98A3D
:100AE000BA8ACB8ADC8A19821A821B821C822989E3
:100AF0003A894B895C898D859E85AF85B889790156
:100B00008A01E81AF90A0A0B1B0B29A13AA14BA189
:100B10005CA18D819E81AF81B885281B390B4A0B62
:100B20005B0BC801B7010E947F07DC01CB01898301
:100B30009A83AB83BC8329853A854B855C858D81FF
:100B40009E81AF81B885281B390B4A0B5B0B8981CD
:100B50009A81AB81BC81BC01CD010E949E07DA0164
:100B6000C90189839A83AB83BC8329813A814B81F4
:100B70005C818D859E85AF85B889820F931FA41FE8
:100B8000B51F89839A83AB83BC8389819A81AB81AA
:100B9000BC81BC01CD0164960FB6F894DEBF0FBED8
:100BA000CDBFCF91DF911F910F91FF90EF90DF901C
:100BB000CF90BF90AF900895DF93CF93CDB7DEB7BE
:100BC000EAE3F0E08EEF8083E7E3F0E08FEF8083ED
:100BD000E4E3F0E08FEF8083E1E3F0E08FEF8083E8
:100BE000EBE3F0E01082E8E3F0E01082E5E3F0E010
:100BF0001082E2E3F0E01082CF91DF910895DF935D
:100C0000CF93CDB7DEB7A3E5B0E0E3E5F0E08081B8
:100C100080648C93A3E5B0E0E3E5F0E08081886038
:100C20008C93A3E5B0E0E3E5F0E080818F7E8C93C8
:100C3000A3E5B0E0E3E5F0E0808180628C93A3E57A
:100C4000B0E0E3E5F0E08081887F8C93A3E5B0E03D
:100C5000E3E5F0E0808183608C93CF91DF9108958C
:100C6000DF93CF93CDB7DEB7AFE4B0E0EFE4F0E0D1
:100C700080818E7F8C93AFE4B0E0EFE4F0E0808180
:100C800082608C93AEE4B0E0EEE4F0E080818860B6
:100C90008C93AEE4B0E0EEE4F0E0808180618C9370
:100CA000AFE4B0E0EFE4F0E080818F7B8C93AFE4C1
:100CB000B0E0EFE4F0E0808180688C93AEE4B0E0D7
:100CC000EEE4F0E080818E7F8C93AEE4B0E0EEE461
:100CD000F0E0808182608C93AEE4B0E0EEE4F0E07E
:100CE00080818B7F8C93E6E4F0E080E29EE4918348
:100CF0008083CF91DF910895DF93CF930F92CDB78B
:100D0000DEB78983ECE5F0E0898180830F90CF9195
:100D1000DF910895DF93CF9300D0CDB7DEB79A83EC
:100D20008983EAE4F0E089819A81918380830F903E
:100D30000F90CF91DF910895DF93CF9300D000D033
:100D4000CDB7DEB78A837C836B8319828B819C81CC
:100D5000009769F08A81882F90E0880F991FFC0125
:100D6000EA59FF4F8B819C819183808302C082E08E
:100D7000898389810F900F900F900F90CF91DF9111
:100D800008951F920F920FB60F9211242F933F9345
:100D90004F935F936F937F938F939F93AF93BF9383
:100DA000EF93FF93DF93CF93CDB7DEB780916600CB
:100DB00090916700009729F0E0916600F09167003C
:100DC0000995CF91DF91FF91EF91BF91AF919F91E5
:100DD0008F917F916F915F914F913F912F910F90E4
:100DE0000FBE0F901F9018951F920F920FB60F9283
:100DF00011242F933F934F935F936F937F938F9320
:100E00009F93AF93BF93EF93FF93DF93CF93CDB7B0
:100E1000DEB78091680090916900009729F0E09119
:100E20006800F09169000995CF91DF91FF91EF91F2
:100E3000BF91AF919F918F917F916F915F914F91F2
:100E40003F912F910F900FBE0F901F901895AF926A
:100E5000BF92CF92DF92EF92FF920F931F93DF9397
:100E6000CF9300D000D0CDB7DEB70E94DC050E9442
:100E700049000E9430061C821B821A8219829E0140
:100E80002D5F3F4F80E0B9010E9481008B819C81E2
:100E9000CC01A0E0B0E000D000D0EDB7FEB73196B5
:100EA00080839183A283B38360E070E080E090E070
:100EB0002FEF33E040E050E00F2EF4EFEF2EF1E0A3
:100EC000FF2EF0E00F2FF0E01F2FF02D0F2EF4EC8F
:100ED000AF2EF9E0BF2EF0E0CF2EF0E0DF2EF02DA8
:100EE0000E9451050F900F900F900F90DC01CB01E5
:100EF0009A83898389819A810E948A06C0CF629FE2
:100F0000D001739FF001829FE00DF11D649FE00D01
:100F1000F11D929FF00D839FF00D749FF00D659F62
:100F2000F00D9927729FB00DE11DF91F639FB00D61
:100F3000E11DF91FBD01CF011124089597FB092E72
:100F400005260ED057FD04D014D00AD0001C38F46A
:100F500050954095309521953F4F4F4F5F4F0895E5
:100F6000F6F790958095709561957F4F8F4F9F4FC5
:100F70000895A1E21A2EAA1BBB1BFD010DC0AA1FDA
:100F8000BB1FEE1FFF1FA217B307E407F50720F0F2
:100F9000A21BB30BE40BF50B661F771F881F991F6D
:100FA0001A9469F760957095809590959B01AC01B6
:0A0FB000BD01CF010895F894FFCFB2
:020FBA00010034
:00000001FF
